{
  "transactions": [
    {
      "hash": "0xfa2f92a9024920d876e04be22fc4310e8b55a81394a8504c36dfbb3b3644b48b",
      "transactionType": "CALL",
      "contractName": null,
      "contractAddress": "0x1d9f50d64511770695284d98e882fb4b436191ad",
      "function": "setToken(address)",
      "arguments": [
        "0xe9839aECCCC989C7F736E8C5a787591b1894f65C"
      ],
      "transaction": {
        "from": "0x1001f662c0de98e426870a9107f14a0c8c052aa0",
        "to": "0x1d9f50d64511770695284d98e882fb4b436191ad",
        "gas": "0x10767",
        "value": "0x0",
        "input": "0x144fa6d7000000000000000000000000e9839aecccc989c7f736e8c5a787591b1894f65c",
        "nonce": "0xa",
        "chainId": "0x515"
      },
      "additionalContracts": [],
      "isFixedGasLimit": false
    }
  ],
  "receipts": [
    {
      "status": "0x1",
      "cumulativeGasUsed": "0x4442d",
      "logs": [],
      "logsBloom": "0x00000000000000000000000000000000000000000000000000000000000000000000000000000000000000000000000000000000000000000000000000000000000000000000000000000000000000000000000000000000000000000000000000000000000000000000000000000000000000000000000000000000000000000000000000000000000000000000000000000000000000000000000000000000000000000000000000000000000000000000000000000000000000000000000000000000000000000000000000000000000000000000000000000000000000000000000000000000000000000000000000000000000000000000000000000000",
      "type": "0x2",
      "transactionHash": "0xfa2f92a9024920d876e04be22fc4310e8b55a81394a8504c36dfbb3b3644b48b",
      "transactionIndex": "0x7",
      "blockHash": "0x101b602548d4c440b0cb6312cff467c2bbaa6e51f6089440babb5efa153d8f6d",
      "blockNumber": "0x4a9bd1",
      "gasUsed": "0xb41b",
      "effectiveGasPrice": "0xf433d",
      "from": "0x1001f662c0de98e426870a9107f14a0c8c052aa0",
      "to": "0x1d9f50d64511770695284d98e882fb4b436191ad",
      "contractAddress": null,
      "l1BaseFeeScalar": "0x7d0",
      "l1BlobBaseFee": "0x1",
      "l1BlobBaseFeeScalar": "0xdbba0",
      "l1Fee": "0x4fe06b5a",
      "l1GasPrice": "0x18f62170",
      "l1GasUsed": "0x640"
    }
  ],
  "libraries": [],
  "pending": [],
  "returns": {},
  "timestamp": 1731741982,
  "chain": 1301,
  "commit": "fa7e3d7"
}