{
  "transactions": [
    {
      "hash": "0xe7419d9a8ebea909c850558335dcc6ce2818e04e8ea36d8ea4fec14d9495a723",
      "transactionType": "CALL",
      "contractName": null,
      "contractAddress": "0x1d9f50d64511770695284d98e882fb4b436191ad",
      "function": "setPeer(uint32,bytes32)",
      "arguments": [
        "40170",
        "0x0000000000000000000000001d9f50d64511770695284d98e882fb4b436191ad"
      ],
      "transaction": {
        "from": "0x1001f662c0de98e426870a9107f14a0c8c052aa0",
        "to": "0x1d9f50d64511770695284d98e882fb4b436191ad",
        "gas": "0x11096",
        "value": "0x0",
        "input": "0x3400288b0000000000000000000000000000000000000000000000000000000000009cea0000000000000000000000001d9f50d64511770695284d98e882fb4b436191ad",
        "nonce": "0x1",
        "chainId": "0x515"
      },
      "additionalContracts": [],
      "isFixedGasLimit": false
    },
    {
      "hash": "0xd530650ec2f5c7fe8a1e62060b2e2657947c1b6a881cba2ecf5661a68d296681",
      "transactionType": "CALL",
      "contractName": null,
      "contractAddress": "0x1d9f50d64511770695284d98e882fb4b436191ad",
      "function": "setPeer(uint32,bytes32)",
      "arguments": [
        "40267",
        "0x0000000000000000000000001d9f50d64511770695284d98e882fb4b436191ad"
      ],
      "transaction": {
        "from": "0x1001f662c0de98e426870a9107f14a0c8c052aa0",
        "to": "0x1d9f50d64511770695284d98e882fb4b436191ad",
        "gas": "0x11096",
        "value": "0x0",
        "input": "0x3400288b0000000000000000000000000000000000000000000000000000000000009d4b0000000000000000000000001d9f50d64511770695284d98e882fb4b436191ad",
        "nonce": "0x2",
        "chainId": "0x515"
      },
      "additionalContracts": [],
      "isFixedGasLimit": false
    },
    {
      "hash": "0xb484cd41981ca7004c8b75fde8bba836f1ef978c1345ca08cbd90fda7d681caf",
      "transactionType": "CALL",
      "contractName": null,
      "contractAddress": "0x1d9f50d64511770695284d98e882fb4b436191ad",
      "function": "setPeer(uint32,bytes32)",
      "arguments": [
        "40275",
        "0x0000000000000000000000001d9f50d64511770695284d98e882fb4b436191ad"
      ],
      "transaction": {
        "from": "0x1001f662c0de98e426870a9107f14a0c8c052aa0",
        "to": "0x1d9f50d64511770695284d98e882fb4b436191ad",
        "gas": "0x11096",
        "value": "0x0",
        "input": "0x3400288b0000000000000000000000000000000000000000000000000000000000009d530000000000000000000000001d9f50d64511770695284d98e882fb4b436191ad",
        "nonce": "0x3",
        "chainId": "0x515"
      },
      "additionalContracts": [],
      "isFixedGasLimit": false
    }
  ],
  "receipts": [
    {
      "status": "0x1",
      "cumulativeGasUsed": "0xcbc13",
      "logs": [
        {
          "address": "0x1d9f50d64511770695284d98e882fb4b436191ad",
          "topics": [
            "0x238399d427b947898edb290f5ff0f9109849b1c3ba196a42e35f00c50a54b98b"
          ],
          "data": "0x0000000000000000000000000000000000000000000000000000000000009cea0000000000000000000000001d9f50d64511770695284d98e882fb4b436191ad",
          "blockHash": "0x15f030bad8f9a21ddaf599a4c6aa3029991710e7d0a3e8555aaf2d3a0abe78f0",
          "blockNumber": "0x4a83e8",
          "transactionHash": "0xe7419d9a8ebea909c850558335dcc6ce2818e04e8ea36d8ea4fec14d9495a723",
          "transactionIndex": "0x14",
          "logIndex": "0x11",
          "removed": false
        }
      ],
      "logsBloom": "0x00000000000000000000000000000000000000000000000000000000000000000000000000000000000000000000000000000000000000000800000000000000000000000000000000000000000000000080000000000000000000000000000000000000000000000000000000000000000000000000000000000000000000000100000000000000000000000000000000000000000200000000000000000000000000000000000000000000000000000000000000000000000002000000000000000000000000000000000000000000000000000000000000040000000000000000000000000000000000000000000000000000000000000000000000000000",
      "type": "0x2",
      "transactionHash": "0xe7419d9a8ebea909c850558335dcc6ce2818e04e8ea36d8ea4fec14d9495a723",
      "transactionIndex": "0x14",
      "blockHash": "0x15f030bad8f9a21ddaf599a4c6aa3029991710e7d0a3e8555aaf2d3a0abe78f0",
      "blockNumber": "0x4a83e8",
      "gasUsed": "0xba63",
      "effectiveGasPrice": "0xf434b",
      "from": "0x1001f662c0de98e426870a9107f14a0c8c052aa0",
      "to": "0x1d9f50d64511770695284d98e882fb4b436191ad",
      "contractAddress": null,
      "l1BaseFeeScalar": "0x7d0",
      "l1BlobBaseFee": "0x1",
      "l1BlobBaseFeeScalar": "0xdbba0",
      "l1Fee": "0x53983523",
      "l1GasPrice": "0x1a1f907f",
      "l1GasUsed": "0x640"
    },
    {
      "status": "0x1",
      "cumulativeGasUsed": "0xee453",
      "logs": [
        {
          "address": "0x1d9f50d64511770695284d98e882fb4b436191ad",
          "topics": [
            "0x238399d427b947898edb290f5ff0f9109849b1c3ba196a42e35f00c50a54b98b"
          ],
          "data": "0x0000000000000000000000000000000000000000000000000000000000009d4b0000000000000000000000001d9f50d64511770695284d98e882fb4b436191ad",
          "blockHash": "0x15f030bad8f9a21ddaf599a4c6aa3029991710e7d0a3e8555aaf2d3a0abe78f0",
          "blockNumber": "0x4a83e8",
          "transactionHash": "0xd530650ec2f5c7fe8a1e62060b2e2657947c1b6a881cba2ecf5661a68d296681",
          "transactionIndex": "0x16",
          "logIndex": "0x13",
          "removed": false
        }
      ],
      "logsBloom": "0x00000000000000000000000000000000000000000000000000000000000000000000000000000000000000000000000000000000000000000800000000000000000000000000000000000000000000000080000000000000000000000000000000000000000000000000000000000000000000000000000000000000000000000100000000000000000000000000000000000000000200000000000000000000000000000000000000000000000000000000000000000000000002000000000000000000000000000000000000000000000000000000000000040000000000000000000000000000000000000000000000000000000000000000000000000000",
      "type": "0x2",
      "transactionHash": "0xd530650ec2f5c7fe8a1e62060b2e2657947c1b6a881cba2ecf5661a68d296681",
      "transactionIndex": "0x16",
      "blockHash": "0x15f030bad8f9a21ddaf599a4c6aa3029991710e7d0a3e8555aaf2d3a0abe78f0",
      "blockNumber": "0x4a83e8",
      "gasUsed": "0xba63",
      "effectiveGasPrice": "0xf434b",
      "from": "0x1001f662c0de98e426870a9107f14a0c8c052aa0",
      "to": "0x1d9f50d64511770695284d98e882fb4b436191ad",
      "contractAddress": null,
      "l1BaseFeeScalar": "0x7d0",
      "l1BlobBaseFee": "0x1",
      "l1BlobBaseFeeScalar": "0xdbba0",
      "l1Fee": "0x53983523",
      "l1GasPrice": "0x1a1f907f",
      "l1GasUsed": "0x640"
    },
    {
      "status": "0x1",
      "cumulativeGasUsed": "0x107d05",
      "logs": [
        {
          "address": "0x1d9f50d64511770695284d98e882fb4b436191ad",
          "topics": [
            "0x238399d427b947898edb290f5ff0f9109849b1c3ba196a42e35f00c50a54b98b"
          ],
          "data": "0x0000000000000000000000000000000000000000000000000000000000009d530000000000000000000000001d9f50d64511770695284d98e882fb4b436191ad",
          "blockHash": "0x15f030bad8f9a21ddaf599a4c6aa3029991710e7d0a3e8555aaf2d3a0abe78f0",
          "blockNumber": "0x4a83e8",
          "transactionHash": "0xb484cd41981ca7004c8b75fde8bba836f1ef978c1345ca08cbd90fda7d681caf",
          "transactionIndex": "0x18",
          "logIndex": "0x15",
          "removed": false
        }
      ],
      "logsBloom": "0x00000000000000000000000000000000000000000000000000000000000000000000000000000000000000000000000000000000000000000800000000000000000000000000000000000000000000000080000000000000000000000000000000000000000000000000000000000000000000000000000000000000000000000100000000000000000000000000000000000000000200000000000000000000000000000000000000000000000000000000000000000000000002000000000000000000000000000000000000000000000000000000000000040000000000000000000000000000000000000000000000000000000000000000000000000000",
      "type": "0x2",
      "transactionHash": "0xb484cd41981ca7004c8b75fde8bba836f1ef978c1345ca08cbd90fda7d681caf",
      "transactionIndex": "0x18",
      "blockHash": "0x15f030bad8f9a21ddaf599a4c6aa3029991710e7d0a3e8555aaf2d3a0abe78f0",
      "blockNumber": "0x4a83e8",
      "gasUsed": "0xba63",
      "effectiveGasPrice": "0xf434b",
      "from": "0x1001f662c0de98e426870a9107f14a0c8c052aa0",
      "to": "0x1d9f50d64511770695284d98e882fb4b436191ad",
      "contractAddress": null,
      "l1BaseFeeScalar": "0x7d0",
      "l1BlobBaseFee": "0x1",
      "l1BlobBaseFeeScalar": "0xdbba0",
      "l1Fee": "0x53983523",
      "l1GasPrice": "0x1a1f907f",
      "l1GasUsed": "0x640"
    }
  ],
  "libraries": [],
  "pending": [],
  "returns": {},
  "timestamp": 1731735862,
  "chain": 1301,
  "commit": "fa7e3d7"
}