{
  "transactions": [
    {
      "hash": "0x4f9c342ccde588282bd0b91f66953047a6f3fb8f3e6ccd3afa7a5d323cfe46d0",
      "transactionType": "CALL",
      "contractName": null,
      "contractAddress": "0xac45aaab89741702a9a0083e28fbcfe28ffe7a96",
      "function": "setChainlessBalance(address)",
      "arguments": [
        "0x7570adcf326406ef55C03e81d568EE1836E9A0e2"
      ],
      "transaction": {
        "from": "0x66666f4f66cc6a5bb6a7e73971e85eddf3b638c1",
        "to": "0xac45aaab89741702a9a0083e28fbcfe28ffe7a96",
        "gas": "0xf95b",
        "value": "0x0",
        "input": "0xbb2119bc0000000000000000000000007570adcf326406ef55c03e81d568ee1836e9a0e2",
        "nonce": "0x6",
        "chainId": "0x13882"
      },
      "additionalContracts": [],
      "isFixedGasLimit": false
    },
    {
      "hash": "0xb98966055ac72a086c0af0546efc6a18ff02a3101acc76c0a83ae51432a27270",
      "transactionType": "CALL",
      "contractName": null,
      "contractAddress": "0xac45aaab89741702a9a0083e28fbcfe28ffe7a96",
      "function": "setPeer(uint32,bytes32)",
      "arguments": [
        "40333",
        "0x000000000000000000000000ac45aaab89741702a9a0083e28fbcfe28ffe7a96"
      ],
      "transaction": {
        "from": "0x66666f4f66cc6a5bb6a7e73971e85eddf3b638c1",
        "to": "0xac45aaab89741702a9a0083e28fbcfe28ffe7a96",
        "gas": "0x10135",
        "value": "0x0",
        "input": "0x3400288b0000000000000000000000000000000000000000000000000000000000009d8d000000000000000000000000ac45aaab89741702a9a0083e28fbcfe28ffe7a96",
        "nonce": "0x7",
        "chainId": "0x13882"
      },
      "additionalContracts": [],
      "isFixedGasLimit": false
    },
    {
      "hash": "0xba1b45b0b7eabd419ff6f600708ff176bdfb91af6b6492e5921509300a11f623",
      "transactionType": "CALL",
      "contractName": null,
      "contractAddress": "0xac45aaab89741702a9a0083e28fbcfe28ffe7a96",
      "function": "setPeer(uint32,bytes32)",
      "arguments": [
        "40170",
        "0x000000000000000000000000ac45aaab89741702a9a0083e28fbcfe28ffe7a96"
      ],
      "transaction": {
        "from": "0x66666f4f66cc6a5bb6a7e73971e85eddf3b638c1",
        "to": "0xac45aaab89741702a9a0083e28fbcfe28ffe7a96",
        "gas": "0x10135",
        "value": "0x0",
        "input": "0x3400288b0000000000000000000000000000000000000000000000000000000000009cea000000000000000000000000ac45aaab89741702a9a0083e28fbcfe28ffe7a96",
        "nonce": "0x8",
        "chainId": "0x13882"
      },
      "additionalContracts": [],
      "isFixedGasLimit": false
    },
    {
      "hash": "0xe906b8c65b6a3cf33bac199a03eec2f7c2936d2a97ecda77a66c582eebff99ca",
      "transactionType": "CALL",
      "contractName": null,
      "contractAddress": "0xac45aaab89741702a9a0083e28fbcfe28ffe7a96",
      "function": "setPeer(uint32,bytes32)",
      "arguments": [
        "40275",
        "0x000000000000000000000000ac45aaab89741702a9a0083e28fbcfe28ffe7a96"
      ],
      "transaction": {
        "from": "0x66666f4f66cc6a5bb6a7e73971e85eddf3b638c1",
        "to": "0xac45aaab89741702a9a0083e28fbcfe28ffe7a96",
        "gas": "0x10135",
        "value": "0x0",
        "input": "0x3400288b0000000000000000000000000000000000000000000000000000000000009d53000000000000000000000000ac45aaab89741702a9a0083e28fbcfe28ffe7a96",
        "nonce": "0x9",
        "chainId": "0x13882"
      },
      "additionalContracts": [],
      "isFixedGasLimit": false
    }
  ],
  "receipts": [
    {
      "status": "0x1",
      "cumulativeGasUsed": "0x2f648",
      "logs": [
        {
          "address": "0x0000000000000000000000000000000000001010",
          "topics": [
            "0x4dfe1bbbcf077ddc3e01291eea2d5c70c2b422b415d95645b9adcfd678cb1d63",
            "0x0000000000000000000000000000000000000000000000000000000000001010",
            "0x00000000000000000000000066666f4f66cc6a5bb6a7e73971e85eddf3b638c1",
            "0x00000000000000000000000009207a6efee346cb3e4a54ac18523e3715d38b3f"
          ],
          "data": "0x000000000000000000000000000000000000000000000000000c7976e9d78888000000000000000000000000000000000000000000000000045c3757104afbff0000000000000000000000000000000000000000000003c580e7c1f7cba48b6e000000000000000000000000000000000000000000000000044fbde0267373770000000000000000000000000000000000000000000003c580f43b6eb57c13f6",
          "blockHash": "0x6452d068bec30273079128921dab35a453c981a6b052def2c2a5165676fa86ca",
          "blockNumber": "0xdd2611",
          "transactionHash": "0x4f9c342ccde588282bd0b91f66953047a6f3fb8f3e6ccd3afa7a5d323cfe46d0",
          "transactionIndex": "0x2",
          "logIndex": "0x6",
          "removed": false
        }
      ],
      "logsBloom": "0x00000000000008000000000000000000000000000000000000000000000000000000000000000000000000000000000000008000000000000000010000000000000000000000000000000000000000800000000000000000000100000000000000000000000000000000000000000000000000000000000080000000000000000000000000000000000000000000000000004000000000000000000000000000200000000000000000000000000000000000000000000000000000000000004000000000000000000001000000800000000000000000000000100000000000000000000000000000000000010001000000000000000000000000000000100000",
      "type": "0x2",
      "transactionHash": "0x4f9c342ccde588282bd0b91f66953047a6f3fb8f3e6ccd3afa7a5d323cfe46d0",
      "transactionIndex": "0x2",
      "blockHash": "0x6452d068bec30273079128921dab35a453c981a6b052def2c2a5165676fa86ca",
      "blockNumber": "0xdd2611",
      "gasUsed": "0xb488",
      "effectiveGasPrice": "0x11b0737290",
      "from": "0x66666f4f66cc6a5bb6a7e73971e85eddf3b638c1",
      "to": "0xac45aaab89741702a9a0083e28fbcfe28ffe7a96",
      "contractAddress": null
    },
    {
      "status": "0x1",
      "cumulativeGasUsed": "0x3b07f",
      "logs": [
        {
          "address": "0xac45aaab89741702a9a0083e28fbcfe28ffe7a96",
          "topics": [
            "0x238399d427b947898edb290f5ff0f9109849b1c3ba196a42e35f00c50a54b98b"
          ],
          "data": "0x0000000000000000000000000000000000000000000000000000000000009d8d000000000000000000000000ac45aaab89741702a9a0083e28fbcfe28ffe7a96",
          "blockHash": "0x6452d068bec30273079128921dab35a453c981a6b052def2c2a5165676fa86ca",
          "blockNumber": "0xdd2611",
          "transactionHash": "0xb98966055ac72a086c0af0546efc6a18ff02a3101acc76c0a83ae51432a27270",
          "transactionIndex": "0x3",
          "logIndex": "0x7",
          "removed": false
        },
        {
          "address": "0x0000000000000000000000000000000000001010",
          "topics": [
            "0x4dfe1bbbcf077ddc3e01291eea2d5c70c2b422b415d95645b9adcfd678cb1d63",
            "0x0000000000000000000000000000000000000000000000000000000000001010",
            "0x00000000000000000000000066666f4f66cc6a5bb6a7e73971e85eddf3b638c1",
            "0x00000000000000000000000009207a6efee346cb3e4a54ac18523e3715d38b3f"
          ],
          "data": "0x000000000000000000000000000000000000000000000000000cde00c9ff53b7000000000000000000000000000000000000000000000000044fbde02668df7f0000000000000000000000000000000000000000000003c580f43b6eb57c13f60000000000000000000000000000000000000000000000000442dfdf5c698bc80000000000000000000000000000000000000000000003c58101196f7f7b67ad",
          "blockHash": "0x6452d068bec30273079128921dab35a453c981a6b052def2c2a5165676fa86ca",
          "blockNumber": "0xdd2611",
          "transactionHash": "0xb98966055ac72a086c0af0546efc6a18ff02a3101acc76c0a83ae51432a27270",
          "transactionIndex": "0x3",
          "logIndex": "0x8",
          "removed": false
        }
      ],
      "logsBloom": "0x00000000000008000000000000000000000000000000000000000000000000000000000000000000000000000000000000008004000000000800010000000000000000000000000000000000000000800000000000000000000100000000000000000000000000000000000000000000000000000000000080000000000000080000000000000000000000000000000000004000000000000000000000000000200000000000000000000000000000000000000000000000000002000000004000000000000000000001000000800000000000000000000000140000000000020000000000000000000000010001000000000000000000000000000000100000",
      "type": "0x2",
      "transactionHash": "0xb98966055ac72a086c0af0546efc6a18ff02a3101acc76c0a83ae51432a27270",
      "transactionIndex": "0x3",
      "blockHash": "0x6452d068bec30273079128921dab35a453c981a6b052def2c2a5165676fa86ca",
      "blockNumber": "0xdd2611",
      "gasUsed": "0xba37",
      "effectiveGasPrice": "0x11b0737290",
      "from": "0x66666f4f66cc6a5bb6a7e73971e85eddf3b638c1",
      "to": "0xac45aaab89741702a9a0083e28fbcfe28ffe7a96",
      "contractAddress": null
    },
    {
      "status": "0x1",
      "cumulativeGasUsed": "0x46ab6",
      "logs": [
        {
          "address": "0xac45aaab89741702a9a0083e28fbcfe28ffe7a96",
          "topics": [
            "0x238399d427b947898edb290f5ff0f9109849b1c3ba196a42e35f00c50a54b98b"
          ],
          "data": "0x0000000000000000000000000000000000000000000000000000000000009cea000000000000000000000000ac45aaab89741702a9a0083e28fbcfe28ffe7a96",
          "blockHash": "0x6452d068bec30273079128921dab35a453c981a6b052def2c2a5165676fa86ca",
          "blockNumber": "0xdd2611",
          "transactionHash": "0xba1b45b0b7eabd419ff6f600708ff176bdfb91af6b6492e5921509300a11f623",
          "transactionIndex": "0x4",
          "logIndex": "0x9",
          "removed": false
        },
        {
          "address": "0x0000000000000000000000000000000000001010",
          "topics": [
            "0x4dfe1bbbcf077ddc3e01291eea2d5c70c2b422b415d95645b9adcfd678cb1d63",
            "0x0000000000000000000000000000000000000000000000000000000000001010",
            "0x00000000000000000000000066666f4f66cc6a5bb6a7e73971e85eddf3b638c1",
            "0x00000000000000000000000009207a6efee346cb3e4a54ac18523e3715d38b3f"
          ],
          "data": "0x000000000000000000000000000000000000000000000000000cde00c9ff53b70000000000000000000000000000000000000000000000000442dfdf5c5ea28f0000000000000000000000000000000000000000000003c58101196f7f7b67ad000000000000000000000000000000000000000000000000043601de925f4ed80000000000000000000000000000000000000000000003c5810df770497abb64",
          "blockHash": "0x6452d068bec30273079128921dab35a453c981a6b052def2c2a5165676fa86ca",
          "blockNumber": "0xdd2611",
          "transactionHash": "0xba1b45b0b7eabd419ff6f600708ff176bdfb91af6b6492e5921509300a11f623",
          "transactionIndex": "0x4",
          "logIndex": "0xa",
          "removed": false
        }
      ],
      "logsBloom": "0x00000000000008000000000000000000000000000000000000000000000000000000000000000000000000000000000000008004000000000800010000000000000000000000000000000000000000800000000000000000000100000000000000000000000000000000000000000000000000000000000080000000000000080000000000000000000000000000000000004000000000000000000000000000200000000000000000000000000000000000000000000000000002000000004000000000000000000001000000800000000000000000000000140000000000020000000000000000000000010001000000000000000000000000000000100000",
      "type": "0x2",
      "transactionHash": "0xba1b45b0b7eabd419ff6f600708ff176bdfb91af6b6492e5921509300a11f623",
      "transactionIndex": "0x4",
      "blockHash": "0x6452d068bec30273079128921dab35a453c981a6b052def2c2a5165676fa86ca",
      "blockNumber": "0xdd2611",
      "gasUsed": "0xba37",
      "effectiveGasPrice": "0x11b0737290",
      "from": "0x66666f4f66cc6a5bb6a7e73971e85eddf3b638c1",
      "to": "0xac45aaab89741702a9a0083e28fbcfe28ffe7a96",
      "contractAddress": null
    },
    {
      "status": "0x1",
      "cumulativeGasUsed": "0x524ed",
      "logs": [
        {
          "address": "0xac45aaab89741702a9a0083e28fbcfe28ffe7a96",
          "topics": [
            "0x238399d427b947898edb290f5ff0f9109849b1c3ba196a42e35f00c50a54b98b"
          ],
          "data": "0x0000000000000000000000000000000000000000000000000000000000009d53000000000000000000000000ac45aaab89741702a9a0083e28fbcfe28ffe7a96",
          "blockHash": "0x6452d068bec30273079128921dab35a453c981a6b052def2c2a5165676fa86ca",
          "blockNumber": "0xdd2611",
          "transactionHash": "0xe906b8c65b6a3cf33bac199a03eec2f7c2936d2a97ecda77a66c582eebff99ca",
          "transactionIndex": "0x5",
          "logIndex": "0xb",
          "removed": false
        },
        {
          "address": "0x0000000000000000000000000000000000001010",
          "topics": [
            "0x4dfe1bbbcf077ddc3e01291eea2d5c70c2b422b415d95645b9adcfd678cb1d63",
            "0x0000000000000000000000000000000000000000000000000000000000001010",
            "0x00000000000000000000000066666f4f66cc6a5bb6a7e73971e85eddf3b638c1",
            "0x00000000000000000000000009207a6efee346cb3e4a54ac18523e3715d38b3f"
          ],
          "data": "0x000000000000000000000000000000000000000000000000000cde00c9ff53b7000000000000000000000000000000000000000000000000043601de9254659f0000000000000000000000000000000000000000000003c5810df770497abb64000000000000000000000000000000000000000000000000042923ddc85511e80000000000000000000000000000000000000000000003c5811ad571137a0f1b",
          "blockHash": "0x6452d068bec30273079128921dab35a453c981a6b052def2c2a5165676fa86ca",
          "blockNumber": "0xdd2611",
          "transactionHash": "0xe906b8c65b6a3cf33bac199a03eec2f7c2936d2a97ecda77a66c582eebff99ca",
          "transactionIndex": "0x5",
          "logIndex": "0xc",
          "removed": false
        }
      ],
      "logsBloom": "0x00000000000008000000000000000000000000000000000000000000000000000000000000000000000000000000000000008004000000000800010000000000000000000000000000000000000000800000000000000000000100000000000000000000000000000000000000000000000000000000000080000000000000080000000000000000000000000000000000004000000000000000000000000000200000000000000000000000000000000000000000000000000002000000004000000000000000000001000000800000000000000000000000140000000000020000000000000000000000010001000000000000000000000000000000100000",
      "type": "0x2",
      "transactionHash": "0xe906b8c65b6a3cf33bac199a03eec2f7c2936d2a97ecda77a66c582eebff99ca",
      "transactionIndex": "0x5",
      "blockHash": "0x6452d068bec30273079128921dab35a453c981a6b052def2c2a5165676fa86ca",
      "blockNumber": "0xdd2611",
      "gasUsed": "0xba37",
      "effectiveGasPrice": "0x11b0737290",
      "from": "0x66666f4f66cc6a5bb6a7e73971e85eddf3b638c1",
      "to": "0xac45aaab89741702a9a0083e28fbcfe28ffe7a96",
      "contractAddress": null
    }
  ],
  "libraries": [],
  "pending": [],
  "returns": {},
  "timestamp": 1731753567,
  "chain": 80002,
  "commit": "fa7e3d7"
}