{
  "transactions": [
    {
      "hash": "0x7b948be9659583c4847fa48b194d7fb4dcf8d4d57be07ebfca5914802c29b19c",
      "transactionType": "CALL",
      "contractName": null,
      "contractAddress": "0xe9839aecccc989c7f736e8c5a787591b1894f65c",
      "function": "setChainlessBalance(address)",
      "arguments": [
        "0x1d9F50D64511770695284D98E882Fb4B436191ad"
      ],
      "transaction": {
        "from": "0x1001f662c0de98e426870a9107f14a0c8c052aa0",
        "to": "0xe9839aecccc989c7f736e8c5a787591b1894f65c",
        "gas": "0xf95b",
        "value": "0x0",
        "input": "0xbb2119bc0000000000000000000000001d9f50d64511770695284d98e882fb4b436191ad",
        "nonce": "0x6",
        "chainId": "0x13882"
      },
      "additionalContracts": [],
      "isFixedGasLimit": false
    },
    {
      "hash": "0x72f38709244afdc3346c8e1b9bff574c203cd96eb77d1aa48af16f0c477b682b",
      "transactionType": "CALL",
      "contractName": null,
      "contractAddress": "0xe9839aecccc989c7f736e8c5a787591b1894f65c",
      "function": "setPeer(uint32,bytes32)",
      "arguments": [
        "40333",
        "0x000000000000000000000000e9839aecccc989c7f736e8c5a787591b1894f65c"
      ],
      "transaction": {
        "from": "0x1001f662c0de98e426870a9107f14a0c8c052aa0",
        "to": "0xe9839aecccc989c7f736e8c5a787591b1894f65c",
        "gas": "0x10135",
        "value": "0x0",
        "input": "0x3400288b0000000000000000000000000000000000000000000000000000000000009d8d000000000000000000000000e9839aecccc989c7f736e8c5a787591b1894f65c",
        "nonce": "0x7",
        "chainId": "0x13882"
      },
      "additionalContracts": [],
      "isFixedGasLimit": false
    },
    {
      "hash": "0x094c58ec92994046ab0c0c81a72746ee0fd34b997c8dfbeff57ef22977963e46",
      "transactionType": "CALL",
      "contractName": null,
      "contractAddress": "0xe9839aecccc989c7f736e8c5a787591b1894f65c",
      "function": "setPeer(uint32,bytes32)",
      "arguments": [
        "40170",
        "0x000000000000000000000000e9839aecccc989c7f736e8c5a787591b1894f65c"
      ],
      "transaction": {
        "from": "0x1001f662c0de98e426870a9107f14a0c8c052aa0",
        "to": "0xe9839aecccc989c7f736e8c5a787591b1894f65c",
        "gas": "0x10135",
        "value": "0x0",
        "input": "0x3400288b0000000000000000000000000000000000000000000000000000000000009cea000000000000000000000000e9839aecccc989c7f736e8c5a787591b1894f65c",
        "nonce": "0x8",
        "chainId": "0x13882"
      },
      "additionalContracts": [],
      "isFixedGasLimit": false
    },
    {
      "hash": "0xdc2b31f2aaf6eccf1577852841ead4bf240cd64751e4c779fe704e7ba75a550c",
      "transactionType": "CALL",
      "contractName": null,
      "contractAddress": "0xe9839aecccc989c7f736e8c5a787591b1894f65c",
      "function": "setPeer(uint32,bytes32)",
      "arguments": [
        "40275",
        "0x000000000000000000000000e9839aecccc989c7f736e8c5a787591b1894f65c"
      ],
      "transaction": {
        "from": "0x1001f662c0de98e426870a9107f14a0c8c052aa0",
        "to": "0xe9839aecccc989c7f736e8c5a787591b1894f65c",
        "gas": "0x10135",
        "value": "0x0",
        "input": "0x3400288b0000000000000000000000000000000000000000000000000000000000009d53000000000000000000000000e9839aecccc989c7f736e8c5a787591b1894f65c",
        "nonce": "0x9",
        "chainId": "0x13882"
      },
      "additionalContracts": [],
      "isFixedGasLimit": false
    }
  ],
  "receipts": [
    {
      "status": "0x1",
      "cumulativeGasUsed": "0xb488",
      "logs": [
        {
          "address": "0x0000000000000000000000000000000000001010",
          "topics": [
            "0x4dfe1bbbcf077ddc3e01291eea2d5c70c2b422b415d95645b9adcfd678cb1d63",
            "0x0000000000000000000000000000000000000000000000000000000000001010",
            "0x0000000000000000000000001001f662c0de98e426870a9107f14a0c8c052aa0",
            "0x000000000000000000000000915a2284d28bd93de7d6f31173b981204bb666e6"
          ],
          "data": "0x000000000000000000000000000000000000000000000000000841a1a458504800000000000000000000000000000000000000000000000004be2a2da7bda4b80000000000000000000000000000000000000000000004f525c0e01bb6ed0a5700000000000000000000000000000000000000000000000004b5e88c036554700000000000000000000000000000000000000000000004f525c921bd5b455a9f",
          "blockHash": "0x1ead5afc0bc35a6e07d083e7e2affe510faf4a613d962c4e07dfb8d3128d6cd6",
          "blockNumber": "0xdd10f2",
          "transactionHash": "0x7b948be9659583c4847fa48b194d7fb4dcf8d4d57be07ebfca5914802c29b19c",
          "transactionIndex": "0x0",
          "logIndex": "0x0",
          "removed": false
        }
      ],
      "logsBloom": "0x00000000400000000010000000000000000000000100000000000000000000000000000000000000000000000000000000008000000000000000000000000000000000000000000000000000000000800000000000000000000100000000000000000000000000000000000000000000000000000000000080000000000000000000000000000000000000000000000000000000000000000000000000000000200000008000000000000000000000000000000000000000000000000000004000000000000000000001000000000000000002000000000000100000000000000000000000000000000000000000000000000000400000000000000000100000",
      "type": "0x2",
      "transactionHash": "0x7b948be9659583c4847fa48b194d7fb4dcf8d4d57be07ebfca5914802c29b19c",
      "transactionIndex": "0x0",
      "blockHash": "0x1ead5afc0bc35a6e07d083e7e2affe510faf4a613d962c4e07dfb8d3128d6cd6",
      "blockNumber": "0xdd10f2",
      "gasUsed": "0xb488",
      "effectiveGasPrice": "0xbb5352808",
      "from": "0x1001f662c0de98e426870a9107f14a0c8c052aa0",
      "to": "0xe9839aecccc989c7f736e8c5a787591b1894f65c",
      "contractAddress": null
    },
    {
      "status": "0x1",
      "cumulativeGasUsed": "0x16ebf",
      "logs": [
        {
          "address": "0xe9839aecccc989c7f736e8c5a787591b1894f65c",
          "topics": [
            "0x238399d427b947898edb290f5ff0f9109849b1c3ba196a42e35f00c50a54b98b"
          ],
          "data": "0x0000000000000000000000000000000000000000000000000000000000009d8d000000000000000000000000e9839aecccc989c7f736e8c5a787591b1894f65c",
          "blockHash": "0x1ead5afc0bc35a6e07d083e7e2affe510faf4a613d962c4e07dfb8d3128d6cd6",
          "blockNumber": "0xdd10f2",
          "transactionHash": "0x72f38709244afdc3346c8e1b9bff574c203cd96eb77d1aa48af16f0c477b682b",
          "transactionIndex": "0x1",
          "logIndex": "0x1",
          "removed": false
        },
        {
          "address": "0x0000000000000000000000000000000000001010",
          "topics": [
            "0x4dfe1bbbcf077ddc3e01291eea2d5c70c2b422b415d95645b9adcfd678cb1d63",
            "0x0000000000000000000000000000000000000000000000000000000000001010",
            "0x0000000000000000000000001001f662c0de98e426870a9107f14a0c8c052aa0",
            "0x000000000000000000000000915a2284d28bd93de7d6f31173b981204bb666e6"
          ],
          "data": "0x0000000000000000000000000000000000000000000000000008842c8d76807f00000000000000000000000000000000000000000000000004b5e88c035ac0780000000000000000000000000000000000000000000004f525c921bd5b455a9f00000000000000000000000000000000000000000000000004ad645f75e43ff90000000000000000000000000000000000000000000004f525d1a5e9e8bbdb1e",
          "blockHash": "0x1ead5afc0bc35a6e07d083e7e2affe510faf4a613d962c4e07dfb8d3128d6cd6",
          "blockNumber": "0xdd10f2",
          "transactionHash": "0x72f38709244afdc3346c8e1b9bff574c203cd96eb77d1aa48af16f0c477b682b",
          "transactionIndex": "0x1",
          "logIndex": "0x2",
          "removed": false
        }
      ],
      "logsBloom": "0x00000000400000000010000000000000000000000100000000000000000000000000000000000000000000000000000000008000000000000800000000000000000000000000000000000000000000800000000000000000000100000000000000000000000000000000000000000000000000000000000080000000000000000000000000000000000000000000000000000000020000000000000000000000200000008000004000000000000000000000000000000000000002000000004000000000000000000001000000000000000002000008000000140000000000000000000000000000000000000000000000000000400000000000000000100000",
      "type": "0x2",
      "transactionHash": "0x72f38709244afdc3346c8e1b9bff574c203cd96eb77d1aa48af16f0c477b682b",
      "transactionIndex": "0x1",
      "blockHash": "0x1ead5afc0bc35a6e07d083e7e2affe510faf4a613d962c4e07dfb8d3128d6cd6",
      "blockNumber": "0xdd10f2",
      "gasUsed": "0xba37",
      "effectiveGasPrice": "0xbb5352808",
      "from": "0x1001f662c0de98e426870a9107f14a0c8c052aa0",
      "to": "0xe9839aecccc989c7f736e8c5a787591b1894f65c",
      "contractAddress": null
    },
    {
      "status": "0x1",
      "cumulativeGasUsed": "0x228f6",
      "logs": [
        {
          "address": "0xe9839aecccc989c7f736e8c5a787591b1894f65c",
          "topics": [
            "0x238399d427b947898edb290f5ff0f9109849b1c3ba196a42e35f00c50a54b98b"
          ],
          "data": "0x0000000000000000000000000000000000000000000000000000000000009cea000000000000000000000000e9839aecccc989c7f736e8c5a787591b1894f65c",
          "blockHash": "0x1ead5afc0bc35a6e07d083e7e2affe510faf4a613d962c4e07dfb8d3128d6cd6",
          "blockNumber": "0xdd10f2",
          "transactionHash": "0x094c58ec92994046ab0c0c81a72746ee0fd34b997c8dfbeff57ef22977963e46",
          "transactionIndex": "0x2",
          "logIndex": "0x3",
          "removed": false
        },
        {
          "address": "0x0000000000000000000000000000000000001010",
          "topics": [
            "0x4dfe1bbbcf077ddc3e01291eea2d5c70c2b422b415d95645b9adcfd678cb1d63",
            "0x0000000000000000000000000000000000000000000000000000000000001010",
            "0x0000000000000000000000001001f662c0de98e426870a9107f14a0c8c052aa0",
            "0x000000000000000000000000915a2284d28bd93de7d6f31173b981204bb666e6"
          ],
          "data": "0x0000000000000000000000000000000000000000000000000008842c8d76807f00000000000000000000000000000000000000000000000004ad645f75d956c00000000000000000000000000000000000000000000004f525d1a5e9e8bbdb1e00000000000000000000000000000000000000000000000004a4e032e862d6410000000000000000000000000000000000000000000004f525da2a1676325b9d",
          "blockHash": "0x1ead5afc0bc35a6e07d083e7e2affe510faf4a613d962c4e07dfb8d3128d6cd6",
          "blockNumber": "0xdd10f2",
          "transactionHash": "0x094c58ec92994046ab0c0c81a72746ee0fd34b997c8dfbeff57ef22977963e46",
          "transactionIndex": "0x2",
          "logIndex": "0x4",
          "removed": false
        }
      ],
      "logsBloom": "0x00000000400000000010000000000000000000000100000000000000000000000000000000000000000000000000000000008000000000000800000000000000000000000000000000000000000000800000000000000000000100000000000000000000000000000000000000000000000000000000000080000000000000000000000000000000000000000000000000000000020000000000000000000000200000008000004000000000000000000000000000000000000002000000004000000000000000000001000000000000000002000008000000140000000000000000000000000000000000000000000000000000400000000000000000100000",
      "type": "0x2",
      "transactionHash": "0x094c58ec92994046ab0c0c81a72746ee0fd34b997c8dfbeff57ef22977963e46",
      "transactionIndex": "0x2",
      "blockHash": "0x1ead5afc0bc35a6e07d083e7e2affe510faf4a613d962c4e07dfb8d3128d6cd6",
      "blockNumber": "0xdd10f2",
      "gasUsed": "0xba37",
      "effectiveGasPrice": "0xbb5352808",
      "from": "0x1001f662c0de98e426870a9107f14a0c8c052aa0",
      "to": "0xe9839aecccc989c7f736e8c5a787591b1894f65c",
      "contractAddress": null
    },
    {
      "status": "0x1",
      "cumulativeGasUsed": "0x2e32d",
      "logs": [
        {
          "address": "0xe9839aecccc989c7f736e8c5a787591b1894f65c",
          "topics": [
            "0x238399d427b947898edb290f5ff0f9109849b1c3ba196a42e35f00c50a54b98b"
          ],
          "data": "0x0000000000000000000000000000000000000000000000000000000000009d53000000000000000000000000e9839aecccc989c7f736e8c5a787591b1894f65c",
          "blockHash": "0x1ead5afc0bc35a6e07d083e7e2affe510faf4a613d962c4e07dfb8d3128d6cd6",
          "blockNumber": "0xdd10f2",
          "transactionHash": "0xdc2b31f2aaf6eccf1577852841ead4bf240cd64751e4c779fe704e7ba75a550c",
          "transactionIndex": "0x3",
          "logIndex": "0x5",
          "removed": false
        },
        {
          "address": "0x0000000000000000000000000000000000001010",
          "topics": [
            "0x4dfe1bbbcf077ddc3e01291eea2d5c70c2b422b415d95645b9adcfd678cb1d63",
            "0x0000000000000000000000000000000000000000000000000000000000001010",
            "0x0000000000000000000000001001f662c0de98e426870a9107f14a0c8c052aa0",
            "0x000000000000000000000000915a2284d28bd93de7d6f31173b981204bb666e6"
          ],
          "data": "0x0000000000000000000000000000000000000000000000000008842c8d76807f00000000000000000000000000000000000000000000000004a4e032e857ed080000000000000000000000000000000000000000000004f525da2a1676325b9d000000000000000000000000000000000000000000000000049c5c065ae16c890000000000000000000000000000000000000000000004f525e2ae4303a8dc1c",
          "blockHash": "0x1ead5afc0bc35a6e07d083e7e2affe510faf4a613d962c4e07dfb8d3128d6cd6",
          "blockNumber": "0xdd10f2",
          "transactionHash": "0xdc2b31f2aaf6eccf1577852841ead4bf240cd64751e4c779fe704e7ba75a550c",
          "transactionIndex": "0x3",
          "logIndex": "0x6",
          "removed": false
        }
      ],
      "logsBloom": "0x00000000400000000010000000000000000000000100000000000000000000000000000000000000000000000000000000008000000000000800000000000000000000000000000000000000000000800000000000000000000100000000000000000000000000000000000000000000000000000000000080000000000000000000000000000000000000000000000000000000020000000000000000000000200000008000004000000000000000000000000000000000000002000000004000000000000000000001000000000000000002000008000000140000000000000000000000000000000000000000000000000000400000000000000000100000",
      "type": "0x2",
      "transactionHash": "0xdc2b31f2aaf6eccf1577852841ead4bf240cd64751e4c779fe704e7ba75a550c",
      "transactionIndex": "0x3",
      "blockHash": "0x1ead5afc0bc35a6e07d083e7e2affe510faf4a613d962c4e07dfb8d3128d6cd6",
      "blockNumber": "0xdd10f2",
      "gasUsed": "0xba37",
      "effectiveGasPrice": "0xbb5352808",
      "from": "0x1001f662c0de98e426870a9107f14a0c8c052aa0",
      "to": "0xe9839aecccc989c7f736e8c5a787591b1894f65c",
      "contractAddress": null
    }
  ],
  "libraries": [],
  "pending": [],
  "returns": {},
  "timestamp": 1731741500,
  "chain": 80002,
  "commit": "fa7e3d7"
}