{
  "transactions": [
    {
      "hash": "0x2f0194e5c56f49c0dc3ff0efb06e8f5fd54a7af0ccd32d1385906b4fb8c5b68c",
      "transactionType": "CALL",
      "contractName": null,
      "contractAddress": "0x7cfa3f1199f2a48eafb69b3a0d80234b98516110",
      "function": "setChainlessBalance(address)",
      "arguments": [
        "0x1d9F50D64511770695284D98E882Fb4B436191ad"
      ],
      "transaction": {
        "from": "0x1001f662c0de98e426870a9107f14a0c8c052aa0",
        "to": "0x7cfa3f1199f2a48eafb69b3a0d80234b98516110",
        "gas": "0xf95b",
        "value": "0x0",
        "input": "0xbb2119bc0000000000000000000000001d9f50d64511770695284d98e882fb4b436191ad",
        "nonce": "0xd",
        "chainId": "0x13882"
      },
      "additionalContracts": [],
      "isFixedGasLimit": false
    },
    {
      "hash": "0xfb4358f650007de858f9c47b65a5aa6557cea5b512e10f412f317c8e91fc0b64",
      "transactionType": "CALL",
      "contractName": null,
      "contractAddress": "0x7cfa3f1199f2a48eafb69b3a0d80234b98516110",
      "function": "addDestination(uint32)",
      "arguments": [
        "40333"
      ],
      "transaction": {
        "from": "0x1001f662c0de98e426870a9107f14a0c8c052aa0",
        "to": "0x7cfa3f1199f2a48eafb69b3a0d80234b98516110",
        "gas": "0x28796",
        "value": "0x0",
        "input": "0x3115f4900000000000000000000000000000000000000000000000000000000000009d8d",
        "nonce": "0xe",
        "chainId": "0x13882"
      },
      "additionalContracts": [],
      "isFixedGasLimit": false
    },
    {
      "hash": "0xde7fdf536077a2a79d7433d414fb56e066e156b3548df02fb67472e592f8a991",
      "transactionType": "CALL",
      "contractName": null,
      "contractAddress": "0x7cfa3f1199f2a48eafb69b3a0d80234b98516110",
      "function": "setPeer(uint32,bytes32)",
      "arguments": [
        "40333",
        "0x0000000000000000000000007cfa3f1199f2a48eafb69b3a0d80234b98516110"
      ],
      "transaction": {
        "from": "0x1001f662c0de98e426870a9107f14a0c8c052aa0",
        "to": "0x7cfa3f1199f2a48eafb69b3a0d80234b98516110",
        "gas": "0x10135",
        "value": "0x0",
        "input": "0x3400288b0000000000000000000000000000000000000000000000000000000000009d8d0000000000000000000000007cfa3f1199f2a48eafb69b3a0d80234b98516110",
        "nonce": "0xf",
        "chainId": "0x13882"
      },
      "additionalContracts": [],
      "isFixedGasLimit": false
    },
    {
      "hash": "0x9e2ac0e3dd1cb06c09f4161e42ac077eae44389946df1e4b45cb0a9a92f92daf",
      "transactionType": "CALL",
      "contractName": null,
      "contractAddress": "0x7cfa3f1199f2a48eafb69b3a0d80234b98516110",
      "function": "addDestination(uint32)",
      "arguments": [
        "40170"
      ],
      "transaction": {
        "from": "0x1001f662c0de98e426870a9107f14a0c8c052aa0",
        "to": "0x7cfa3f1199f2a48eafb69b3a0d80234b98516110",
        "gas": "0x11712",
        "value": "0x0",
        "input": "0x3115f4900000000000000000000000000000000000000000000000000000000000009cea",
        "nonce": "0x10",
        "chainId": "0x13882"
      },
      "additionalContracts": [],
      "isFixedGasLimit": false
    },
    {
      "hash": "0xf2589e0129e6f7d6ff77d7b427bd07e86717ae2128051ae7e9abf51689ccce3a",
      "transactionType": "CALL",
      "contractName": null,
      "contractAddress": "0x7cfa3f1199f2a48eafb69b3a0d80234b98516110",
      "function": "setPeer(uint32,bytes32)",
      "arguments": [
        "40170",
        "0x0000000000000000000000007cfa3f1199f2a48eafb69b3a0d80234b98516110"
      ],
      "transaction": {
        "from": "0x1001f662c0de98e426870a9107f14a0c8c052aa0",
        "to": "0x7cfa3f1199f2a48eafb69b3a0d80234b98516110",
        "gas": "0x10135",
        "value": "0x0",
        "input": "0x3400288b0000000000000000000000000000000000000000000000000000000000009cea0000000000000000000000007cfa3f1199f2a48eafb69b3a0d80234b98516110",
        "nonce": "0x11",
        "chainId": "0x13882"
      },
      "additionalContracts": [],
      "isFixedGasLimit": false
    },
    {
      "hash": "0x2e369e3451336f503ff854942cc82b0296a855788ebc8750020d30cce49f2f76",
      "transactionType": "CALL",
      "contractName": null,
      "contractAddress": "0x7cfa3f1199f2a48eafb69b3a0d80234b98516110",
      "function": "addDestination(uint32)",
      "arguments": [
        "40275"
      ],
      "transaction": {
        "from": "0x1001f662c0de98e426870a9107f14a0c8c052aa0",
        "to": "0x7cfa3f1199f2a48eafb69b3a0d80234b98516110",
        "gas": "0x11712",
        "value": "0x0",
        "input": "0x3115f4900000000000000000000000000000000000000000000000000000000000009d53",
        "nonce": "0x12",
        "chainId": "0x13882"
      },
      "additionalContracts": [],
      "isFixedGasLimit": false
    },
    {
      "hash": "0xa7259beb24b9da83d235460506559f9e21e263d40288b3c2a701eac506a96d69",
      "transactionType": "CALL",
      "contractName": null,
      "contractAddress": "0x7cfa3f1199f2a48eafb69b3a0d80234b98516110",
      "function": "setPeer(uint32,bytes32)",
      "arguments": [
        "40275",
        "0x0000000000000000000000007cfa3f1199f2a48eafb69b3a0d80234b98516110"
      ],
      "transaction": {
        "from": "0x1001f662c0de98e426870a9107f14a0c8c052aa0",
        "to": "0x7cfa3f1199f2a48eafb69b3a0d80234b98516110",
        "gas": "0x10135",
        "value": "0x0",
        "input": "0x3400288b0000000000000000000000000000000000000000000000000000000000009d530000000000000000000000007cfa3f1199f2a48eafb69b3a0d80234b98516110",
        "nonce": "0x13",
        "chainId": "0x13882"
      },
      "additionalContracts": [],
      "isFixedGasLimit": false
    }
  ],
  "receipts": [
    {
      "status": "0x1",
      "cumulativeGasUsed": "0xb488",
      "logs": [
        {
          "address": "0x0000000000000000000000000000000000001010",
          "topics": [
            "0x4dfe1bbbcf077ddc3e01291eea2d5c70c2b422b415d95645b9adcfd678cb1d63",
            "0x0000000000000000000000000000000000000000000000000000000000001010",
            "0x0000000000000000000000001001f662c0de98e426870a9107f14a0c8c052aa0",
            "0x0000000000000000000000004ad84f7014b7b44f723f284a85b1662337971439"
          ],
          "data": "0x000000000000000000000000000000000000000000000000000ae5fe53d304d0000000000000000000000000000000000000000000000000013f5d762e86e396000000000000000000000000000000000000000000000412e9651ec3b366ec4a00000000000000000000000000000000000000000000000001347777dab3dec6000000000000000000000000000000000000000000000412e97004c20739f11a",
          "blockHash": "0x4275c638ae66f1d3c2f10dff912749ddf44554de0b24eb9846842270265e19c4",
          "blockNumber": "0xdd15a0",
          "transactionHash": "0x2f0194e5c56f49c0dc3ff0efb06e8f5fd54a7af0ccd32d1385906b4fb8c5b68c",
          "transactionIndex": "0x0",
          "logIndex": "0x0",
          "removed": false
        }
      ],
      "logsBloom": "0x00000000400000000000000000000000000000000100000000000000000000000000000000000000000000000000000000008000000000000000000000400000000000000000000000000000000000800000000000000000000100001000000000000000000000000000000000000000000000000000000080000000000000000000000000000000000000000000000000000000000000000000000000000000200000008000000000000000000000000000000000000000000000000000004000000000000000000001000000000000000000000000000000100000000000000000000000000000000000000000008000000000000000000000000000100000",
      "type": "0x2",
      "transactionHash": "0x2f0194e5c56f49c0dc3ff0efb06e8f5fd54a7af0ccd32d1385906b4fb8c5b68c",
      "transactionIndex": "0x0",
      "blockHash": "0x4275c638ae66f1d3c2f10dff912749ddf44554de0b24eb9846842270265e19c4",
      "blockNumber": "0xdd15a0",
      "gasUsed": "0xb488",
      "effectiveGasPrice": "0xf74506809",
      "from": "0x1001f662c0de98e426870a9107f14a0c8c052aa0",
      "to": "0x7cfa3f1199f2a48eafb69b3a0d80234b98516110",
      "contractAddress": null
    },
    {
      "status": "0x1",
      "cumulativeGasUsed": "0x28960",
      "logs": [
        {
          "address": "0x0000000000000000000000000000000000001010",
          "topics": [
            "0x4dfe1bbbcf077ddc3e01291eea2d5c70c2b422b415d95645b9adcfd678cb1d63",
            "0x0000000000000000000000000000000000000000000000000000000000001010",
            "0x0000000000000000000000001001f662c0de98e426870a9107f14a0c8c052aa0",
            "0x0000000000000000000000004ad84f7014b7b44f723f284a85b1662337971439"
          ],
          "data": "0x000000000000000000000000000000000000000000000000001c4dad21ecc2f000000000000000000000000000000000000000000000000001347777daa94ace000000000000000000000000000000000000000000000412e97004c20739f11a000000000000000000000000000000000000000000000000011829cab8bc87de000000000000000000000000000000000000000000000412e98c526f2926b40a",
          "blockHash": "0x4275c638ae66f1d3c2f10dff912749ddf44554de0b24eb9846842270265e19c4",
          "blockNumber": "0xdd15a0",
          "transactionHash": "0xfb4358f650007de858f9c47b65a5aa6557cea5b512e10f412f317c8e91fc0b64",
          "transactionIndex": "0x1",
          "logIndex": "0x1",
          "removed": false
        }
      ],
      "logsBloom": "0x00000000400000000000000000000000000000000100000000000000000000000000000000000000000000000000000000008000000000000000000000400000000000000000000000000000000000800000000000000000000100001000000000000000000000000000000000000000000000000000000080000000000000000000000000000000000000000000000000000000000000000000000000000000200000008000000000000000000000000000000000000000000000000000004000000000000000000001000000000000000000000000000000100000000000000000000000000000000000000000008000000000000000000000000000100000",
      "type": "0x2",
      "transactionHash": "0xfb4358f650007de858f9c47b65a5aa6557cea5b512e10f412f317c8e91fc0b64",
      "transactionIndex": "0x1",
      "blockHash": "0x4275c638ae66f1d3c2f10dff912749ddf44554de0b24eb9846842270265e19c4",
      "blockNumber": "0xdd15a0",
      "gasUsed": "0x1d4d8",
      "effectiveGasPrice": "0xf74506809",
      "from": "0x1001f662c0de98e426870a9107f14a0c8c052aa0",
      "to": "0x7cfa3f1199f2a48eafb69b3a0d80234b98516110",
      "contractAddress": null
    },
    {
      "status": "0x1",
      "cumulativeGasUsed": "0x34397",
      "logs": [
        {
          "address": "0x7cfa3f1199f2a48eafb69b3a0d80234b98516110",
          "topics": [
            "0x238399d427b947898edb290f5ff0f9109849b1c3ba196a42e35f00c50a54b98b"
          ],
          "data": "0x0000000000000000000000000000000000000000000000000000000000009d8d0000000000000000000000007cfa3f1199f2a48eafb69b3a0d80234b98516110",
          "blockHash": "0x4275c638ae66f1d3c2f10dff912749ddf44554de0b24eb9846842270265e19c4",
          "blockNumber": "0xdd15a0",
          "transactionHash": "0xde7fdf536077a2a79d7433d414fb56e066e156b3548df02fb67472e592f8a991",
          "transactionIndex": "0x2",
          "logIndex": "0x2",
          "removed": false
        },
        {
          "address": "0x0000000000000000000000000000000000001010",
          "topics": [
            "0x4dfe1bbbcf077ddc3e01291eea2d5c70c2b422b415d95645b9adcfd678cb1d63",
            "0x0000000000000000000000000000000000000000000000000000000000001010",
            "0x0000000000000000000000001001f662c0de98e426870a9107f14a0c8c052aa0",
            "0x0000000000000000000000004ad84f7014b7b44f723f284a85b1662337971439"
          ],
          "data": "0x000000000000000000000000000000000000000000000000000b3dd468d1fab6000000000000000000000000000000000000000000000000011829cab8a10f36000000000000000000000000000000000000000000000412e98c526f2926b40a000000000000000000000000000000000000000000000000010cebf64fcf1480000000000000000000000000000000000000000000000412e997904391f8aec0",
          "blockHash": "0x4275c638ae66f1d3c2f10dff912749ddf44554de0b24eb9846842270265e19c4",
          "blockNumber": "0xdd15a0",
          "transactionHash": "0xde7fdf536077a2a79d7433d414fb56e066e156b3548df02fb67472e592f8a991",
          "transactionIndex": "0x2",
          "logIndex": "0x3",
          "removed": false
        }
      ],
      "logsBloom": "0x00000000400000000000000000000000000000000100000000000000000000000000000000000000000000000000000000008000000000000800000000400000000000000000000000000000000000800000000000000000080100001000000000000000000000000000000000000000000000000000000080000000000000000000000000000000000000000000000000400000000000000000000000000000200000008000000000000000000000000000000000000000000002000000004000000000000000000001000000000000000000000000000000140000000000000000000000000000000000000000008000000000000000000000002000100000",
      "type": "0x2",
      "transactionHash": "0xde7fdf536077a2a79d7433d414fb56e066e156b3548df02fb67472e592f8a991",
      "transactionIndex": "0x2",
      "blockHash": "0x4275c638ae66f1d3c2f10dff912749ddf44554de0b24eb9846842270265e19c4",
      "blockNumber": "0xdd15a0",
      "gasUsed": "0xba37",
      "effectiveGasPrice": "0xf74506809",
      "from": "0x1001f662c0de98e426870a9107f14a0c8c052aa0",
      "to": "0x7cfa3f1199f2a48eafb69b3a0d80234b98516110",
      "contractAddress": null
    },
    {
      "status": "0x1",
      "cumulativeGasUsed": "0x40da3",
      "logs": [
        {
          "address": "0x0000000000000000000000000000000000001010",
          "topics": [
            "0x4dfe1bbbcf077ddc3e01291eea2d5c70c2b422b415d95645b9adcfd678cb1d63",
            "0x0000000000000000000000000000000000000000000000000000000000001010",
            "0x0000000000000000000000001001f662c0de98e426870a9107f14a0c8c052aa0",
            "0x0000000000000000000000004ad84f7014b7b44f723f284a85b1662337971439"
          ],
          "data": "0x000000000000000000000000000000000000000000000000000c3280e5d023b8000000000000000000000000000000000000000000000000010cebf64fc42b47000000000000000000000000000000000000000000000412e997904391f8aec00000000000000000000000000000000000000000000000000100b97569f4078f000000000000000000000000000000000000000000000412e9a3c2c477c8d278",
          "blockHash": "0x4275c638ae66f1d3c2f10dff912749ddf44554de0b24eb9846842270265e19c4",
          "blockNumber": "0xdd15a0",
          "transactionHash": "0x9e2ac0e3dd1cb06c09f4161e42ac077eae44389946df1e4b45cb0a9a92f92daf",
          "transactionIndex": "0x3",
          "logIndex": "0x4",
          "removed": false
        }
      ],
      "logsBloom": "0x00000000400000000000000000000000000000000100000000000000000000000000000000000000000000000000000000008000000000000000000000400000000000000000000000000000000000800000000000000000000100001000000000000000000000000000000000000000000000000000000080000000000000000000000000000000000000000000000000000000000000000000000000000000200000008000000000000000000000000000000000000000000000000000004000000000000000000001000000000000000000000000000000100000000000000000000000000000000000000000008000000000000000000000000000100000",
      "type": "0x2",
      "transactionHash": "0x9e2ac0e3dd1cb06c09f4161e42ac077eae44389946df1e4b45cb0a9a92f92daf",
      "transactionIndex": "0x3",
      "blockHash": "0x4275c638ae66f1d3c2f10dff912749ddf44554de0b24eb9846842270265e19c4",
      "blockNumber": "0xdd15a0",
      "gasUsed": "0xca0c",
      "effectiveGasPrice": "0xf74506809",
      "from": "0x1001f662c0de98e426870a9107f14a0c8c052aa0",
      "to": "0x7cfa3f1199f2a48eafb69b3a0d80234b98516110",
      "contractAddress": null
    },
    {
      "status": "0x1",
      "cumulativeGasUsed": "0x4c7da",
      "logs": [
        {
          "address": "0x7cfa3f1199f2a48eafb69b3a0d80234b98516110",
          "topics": [
            "0x238399d427b947898edb290f5ff0f9109849b1c3ba196a42e35f00c50a54b98b"
          ],
          "data": "0x0000000000000000000000000000000000000000000000000000000000009cea0000000000000000000000007cfa3f1199f2a48eafb69b3a0d80234b98516110",
          "blockHash": "0x4275c638ae66f1d3c2f10dff912749ddf44554de0b24eb9846842270265e19c4",
          "blockNumber": "0xdd15a0",
          "transactionHash": "0xf2589e0129e6f7d6ff77d7b427bd07e86717ae2128051ae7e9abf51689ccce3a",
          "transactionIndex": "0x4",
          "logIndex": "0x5",
          "removed": false
        },
        {
          "address": "0x0000000000000000000000000000000000001010",
          "topics": [
            "0x4dfe1bbbcf077ddc3e01291eea2d5c70c2b422b415d95645b9adcfd678cb1d63",
            "0x0000000000000000000000000000000000000000000000000000000000001010",
            "0x0000000000000000000000001001f662c0de98e426870a9107f14a0c8c052aa0",
            "0x0000000000000000000000004ad84f7014b7b44f723f284a85b1662337971439"
          ],
          "data": "0x000000000000000000000000000000000000000000000000000b3dd468d1fab60000000000000000000000000000000000000000000000000100b97569e830db000000000000000000000000000000000000000000000412e9a3c2c477c8d27800000000000000000000000000000000000000000000000000f57ba101163625000000000000000000000000000000000000000000000412e9af0098e09acd2e",
          "blockHash": "0x4275c638ae66f1d3c2f10dff912749ddf44554de0b24eb9846842270265e19c4",
          "blockNumber": "0xdd15a0",
          "transactionHash": "0xf2589e0129e6f7d6ff77d7b427bd07e86717ae2128051ae7e9abf51689ccce3a",
          "transactionIndex": "0x4",
          "logIndex": "0x6",
          "removed": false
        }
      ],
      "logsBloom": "0x00000000400000000000000000000000000000000100000000000000000000000000000000000000000000000000000000008000000000000800000000400000000000000000000000000000000000800000000000000000080100001000000000000000000000000000000000000000000000000000000080000000000000000000000000000000000000000000000000400000000000000000000000000000200000008000000000000000000000000000000000000000000002000000004000000000000000000001000000000000000000000000000000140000000000000000000000000000000000000000008000000000000000000000002000100000",
      "type": "0x2",
      "transactionHash": "0xf2589e0129e6f7d6ff77d7b427bd07e86717ae2128051ae7e9abf51689ccce3a",
      "transactionIndex": "0x4",
      "blockHash": "0x4275c638ae66f1d3c2f10dff912749ddf44554de0b24eb9846842270265e19c4",
      "blockNumber": "0xdd15a0",
      "gasUsed": "0xba37",
      "effectiveGasPrice": "0xf74506809",
      "from": "0x1001f662c0de98e426870a9107f14a0c8c052aa0",
      "to": "0x7cfa3f1199f2a48eafb69b3a0d80234b98516110",
      "contractAddress": null
    },
    {
      "status": "0x1",
      "cumulativeGasUsed": "0x591e6",
      "logs": [
        {
          "address": "0x0000000000000000000000000000000000001010",
          "topics": [
            "0x4dfe1bbbcf077ddc3e01291eea2d5c70c2b422b415d95645b9adcfd678cb1d63",
            "0x0000000000000000000000000000000000000000000000000000000000001010",
            "0x0000000000000000000000001001f662c0de98e426870a9107f14a0c8c052aa0",
            "0x0000000000000000000000004ad84f7014b7b44f723f284a85b1662337971439"
          ],
          "data": "0x000000000000000000000000000000000000000000000000000c3280e5d023b800000000000000000000000000000000000000000000000000f57ba1010b4cec000000000000000000000000000000000000000000000412e9af0098e09acd2e00000000000000000000000000000000000000000000000000e949201b3b2934000000000000000000000000000000000000000000000412e9bb3319c66af0e6",
          "blockHash": "0x4275c638ae66f1d3c2f10dff912749ddf44554de0b24eb9846842270265e19c4",
          "blockNumber": "0xdd15a0",
          "transactionHash": "0x2e369e3451336f503ff854942cc82b0296a855788ebc8750020d30cce49f2f76",
          "transactionIndex": "0x5",
          "logIndex": "0x7",
          "removed": false
        }
      ],
      "logsBloom": "0x00000000400000000000000000000000000000000100000000000000000000000000000000000000000000000000000000008000000000000000000000400000000000000000000000000000000000800000000000000000000100001000000000000000000000000000000000000000000000000000000080000000000000000000000000000000000000000000000000000000000000000000000000000000200000008000000000000000000000000000000000000000000000000000004000000000000000000001000000000000000000000000000000100000000000000000000000000000000000000000008000000000000000000000000000100000",
      "type": "0x2",
      "transactionHash": "0x2e369e3451336f503ff854942cc82b0296a855788ebc8750020d30cce49f2f76",
      "transactionIndex": "0x5",
      "blockHash": "0x4275c638ae66f1d3c2f10dff912749ddf44554de0b24eb9846842270265e19c4",
      "blockNumber": "0xdd15a0",
      "gasUsed": "0xca0c",
      "effectiveGasPrice": "0xf74506809",
      "from": "0x1001f662c0de98e426870a9107f14a0c8c052aa0",
      "to": "0x7cfa3f1199f2a48eafb69b3a0d80234b98516110",
      "contractAddress": null
    },
    {
      "status": "0x1",
      "cumulativeGasUsed": "0x64c1d",
      "logs": [
        {
          "address": "0x7cfa3f1199f2a48eafb69b3a0d80234b98516110",
          "topics": [
            "0x238399d427b947898edb290f5ff0f9109849b1c3ba196a42e35f00c50a54b98b"
          ],
          "data": "0x0000000000000000000000000000000000000000000000000000000000009d530000000000000000000000007cfa3f1199f2a48eafb69b3a0d80234b98516110",
          "blockHash": "0x4275c638ae66f1d3c2f10dff912749ddf44554de0b24eb9846842270265e19c4",
          "blockNumber": "0xdd15a0",
          "transactionHash": "0xa7259beb24b9da83d235460506559f9e21e263d40288b3c2a701eac506a96d69",
          "transactionIndex": "0x6",
          "logIndex": "0x8",
          "removed": false
        },
        {
          "address": "0x0000000000000000000000000000000000001010",
          "topics": [
            "0x4dfe1bbbcf077ddc3e01291eea2d5c70c2b422b415d95645b9adcfd678cb1d63",
            "0x0000000000000000000000000000000000000000000000000000000000001010",
            "0x0000000000000000000000001001f662c0de98e426870a9107f14a0c8c052aa0",
            "0x0000000000000000000000004ad84f7014b7b44f723f284a85b1662337971439"
          ],
          "data": "0x000000000000000000000000000000000000000000000000000b3dd468d1fab600000000000000000000000000000000000000000000000000e949201b2f5280000000000000000000000000000000000000000000000412e9bb3319c66af0e600000000000000000000000000000000000000000000000000de0b4bb25d57ca000000000000000000000000000000000000000000000412e9c670ee2f3ceb9c",
          "blockHash": "0x4275c638ae66f1d3c2f10dff912749ddf44554de0b24eb9846842270265e19c4",
          "blockNumber": "0xdd15a0",
          "transactionHash": "0xa7259beb24b9da83d235460506559f9e21e263d40288b3c2a701eac506a96d69",
          "transactionIndex": "0x6",
          "logIndex": "0x9",
          "removed": false
        }
      ],
      "logsBloom": "0x00000000400000000000000000000000000000000100000000000000000000000000000000000000000000000000000000008000000000000800000000400000000000000000000000000000000000800000000000000000080100001000000000000000000000000000000000000000000000000000000080000000000000000000000000000000000000000000000000400000000000000000000000000000200000008000000000000000000000000000000000000000000002000000004000000000000000000001000000000000000000000000000000140000000000000000000000000000000000000000008000000000000000000000002000100000",
      "type": "0x2",
      "transactionHash": "0xa7259beb24b9da83d235460506559f9e21e263d40288b3c2a701eac506a96d69",
      "transactionIndex": "0x6",
      "blockHash": "0x4275c638ae66f1d3c2f10dff912749ddf44554de0b24eb9846842270265e19c4",
      "blockNumber": "0xdd15a0",
      "gasUsed": "0xba37",
      "effectiveGasPrice": "0xf74506809",
      "from": "0x1001f662c0de98e426870a9107f14a0c8c052aa0",
      "to": "0x7cfa3f1199f2a48eafb69b3a0d80234b98516110",
      "contractAddress": null
    }
  ],
  "libraries": [],
  "pending": [],
  "returns": {},
  "timestamp": 1731744046,
  "chain": 80002,
  "commit": "fa7e3d7"
}