{
  "transactions": [
    {
      "hash": "0x79cf2a80d6e600d1a3e6e59f2c9490bde881cdf068dcac44280a4a9508bb15ea",
      "transactionType": "CALL",
      "contractName": null,
      "contractAddress": "0xac45aaab89741702a9a0083e28fbcfe28ffe7a96",
      "function": "addDestination(uint32)",
      "arguments": [
        "40333"
      ],
      "transaction": {
        "from": "0x66666f4f66cc6a5bb6a7e73971e85eddf3b638c1",
        "to": "0xac45aaab89741702a9a0083e28fbcfe28ffe7a96",
        "gas": "0x28796",
        "value": "0x0",
        "input": "0x3115f4900000000000000000000000000000000000000000000000000000000000009d8d",
        "nonce": "0xa",
        "chainId": "0x13882"
      },
      "additionalContracts": [],
      "isFixedGasLimit": false
    },
    {
      "hash": "0xacfb4fc95a5f0c9c0887a1471fc7849a9884d85776efe3bd9b70e82a62585bb8",
      "transactionType": "CALL",
      "contractName": null,
      "contractAddress": "0xac45aaab89741702a9a0083e28fbcfe28ffe7a96",
      "function": "addDestination(uint32)",
      "arguments": [
        "40170"
      ],
      "transaction": {
        "from": "0x66666f4f66cc6a5bb6a7e73971e85eddf3b638c1",
        "to": "0xac45aaab89741702a9a0083e28fbcfe28ffe7a96",
        "gas": "0x11712",
        "value": "0x0",
        "input": "0x3115f4900000000000000000000000000000000000000000000000000000000000009cea",
        "nonce": "0xb",
        "chainId": "0x13882"
      },
      "additionalContracts": [],
      "isFixedGasLimit": false
    },
    {
      "hash": "0x18d5cd4dc7fe2a2c66eaa65fa9e7f091872e1c0a019317c63326790a4d3b661c",
      "transactionType": "CALL",
      "contractName": null,
      "contractAddress": "0xac45aaab89741702a9a0083e28fbcfe28ffe7a96",
      "function": "addDestination(uint32)",
      "arguments": [
        "40275"
      ],
      "transaction": {
        "from": "0x66666f4f66cc6a5bb6a7e73971e85eddf3b638c1",
        "to": "0xac45aaab89741702a9a0083e28fbcfe28ffe7a96",
        "gas": "0x11712",
        "value": "0x0",
        "input": "0x3115f4900000000000000000000000000000000000000000000000000000000000009d53",
        "nonce": "0xc",
        "chainId": "0x13882"
      },
      "additionalContracts": [],
      "isFixedGasLimit": false
    }
  ],
  "receipts": [
    {
      "status": "0x1",
      "cumulativeGasUsed": "0x1d4d8",
      "logs": [
        {
          "address": "0x0000000000000000000000000000000000001010",
          "topics": [
            "0x4dfe1bbbcf077ddc3e01291eea2d5c70c2b422b415d95645b9adcfd678cb1d63",
            "0x0000000000000000000000000000000000000000000000000000000000001010",
            "0x00000000000000000000000066666f4f66cc6a5bb6a7e73971e85eddf3b638c1",
            "0x0000000000000000000000006ab3d36c46ecfb9b9c0bd51cb1c3da5a2c81cea6"
          ],
          "data": "0x0000000000000000000000000000000000000000000000000020657feebc70d8000000000000000000000000000000000000000000000000042923ddc84a28af00000000000000000000000000000000000000000000039f0799242dc670e7bc0000000000000000000000000000000000000000000000000408be5dd98db7d700000000000000000000000000000000000000000000039f07b989adb52d5894",
          "blockHash": "0x8d364ee7a4f69d7349708a63460ceb4c7454dcc12b2d2c2a4ba6b567ea0830ff",
          "blockNumber": "0xdd2621",
          "transactionHash": "0x79cf2a80d6e600d1a3e6e59f2c9490bde881cdf068dcac44280a4a9508bb15ea",
          "transactionIndex": "0x0",
          "logIndex": "0x0",
          "removed": false
        }
      ],
      "logsBloom": "0x00000000080008000000000000000000000000000000000000000000000000000000000000000000000000000000000000008000000000000000000000000000000000080000000000000000000000800000000000000000000100000000000000000000000000000000000000000000000000000000000080000000000000000000000000000000000000000000000000000000000000000000000000000000200000000000000000000000000000000000000000000000000000000000004000000000000000000001000000800000000000010000000000100000000000000000000000000000000000000001000000000000000000000000000000100000",
      "type": "0x2",
      "transactionHash": "0x79cf2a80d6e600d1a3e6e59f2c9490bde881cdf068dcac44280a4a9508bb15ea",
      "transactionIndex": "0x0",
      "blockHash": "0x8d364ee7a4f69d7349708a63460ceb4c7454dcc12b2d2c2a4ba6b567ea0830ff",
      "blockNumber": "0xdd2621",
      "gasUsed": "0x1d4d8",
      "effectiveGasPrice": "0x11b0737290",
      "from": "0x66666f4f66cc6a5bb6a7e73971e85eddf3b638c1",
      "to": "0xac45aaab89741702a9a0083e28fbcfe28ffe7a96",
      "contractAddress": null
    },
    {
      "status": "0x1",
      "cumulativeGasUsed": "0x29ee4",
      "logs": [
        {
          "address": "0x0000000000000000000000000000000000001010",
          "topics": [
            "0x4dfe1bbbcf077ddc3e01291eea2d5c70c2b422b415d95645b9adcfd678cb1d63",
            "0x0000000000000000000000000000000000000000000000000000000000001010",
            "0x00000000000000000000000066666f4f66cc6a5bb6a7e73971e85eddf3b638c1",
            "0x0000000000000000000000006ab3d36c46ecfb9b9c0bd51cb1c3da5a2c81cea6"
          ],
          "data": "0x000000000000000000000000000000000000000000000000000df60f5dc3280c0000000000000000000000000000000000000000000000000408be5dd9723f2f00000000000000000000000000000000000000000000039f07b989adb52d589400000000000000000000000000000000000000000000000003fac84e7baf172300000000000000000000000000000000000000000000039f07c77fbd12f080a0",
          "blockHash": "0x8d364ee7a4f69d7349708a63460ceb4c7454dcc12b2d2c2a4ba6b567ea0830ff",
          "blockNumber": "0xdd2621",
          "transactionHash": "0xacfb4fc95a5f0c9c0887a1471fc7849a9884d85776efe3bd9b70e82a62585bb8",
          "transactionIndex": "0x1",
          "logIndex": "0x1",
          "removed": false
        }
      ],
      "logsBloom": "0x00000000080008000000000000000000000000000000000000000000000000000000000000000000000000000000000000008000000000000000000000000000000000080000000000000000000000800000000000000000000100000000000000000000000000000000000000000000000000000000000080000000000000000000000000000000000000000000000000000000000000000000000000000000200000000000000000000000000000000000000000000000000000000000004000000000000000000001000000800000000000010000000000100000000000000000000000000000000000000001000000000000000000000000000000100000",
      "type": "0x2",
      "transactionHash": "0xacfb4fc95a5f0c9c0887a1471fc7849a9884d85776efe3bd9b70e82a62585bb8",
      "transactionIndex": "0x1",
      "blockHash": "0x8d364ee7a4f69d7349708a63460ceb4c7454dcc12b2d2c2a4ba6b567ea0830ff",
      "blockNumber": "0xdd2621",
      "gasUsed": "0xca0c",
      "effectiveGasPrice": "0x11b0737290",
      "from": "0x66666f4f66cc6a5bb6a7e73971e85eddf3b638c1",
      "to": "0xac45aaab89741702a9a0083e28fbcfe28ffe7a96",
      "contractAddress": null
    },
    {
      "status": "0x1",
      "cumulativeGasUsed": "0x368f0",
      "logs": [
        {
          "address": "0x0000000000000000000000000000000000001010",
          "topics": [
            "0x4dfe1bbbcf077ddc3e01291eea2d5c70c2b422b415d95645b9adcfd678cb1d63",
            "0x0000000000000000000000000000000000000000000000000000000000001010",
            "0x00000000000000000000000066666f4f66cc6a5bb6a7e73971e85eddf3b638c1",
            "0x0000000000000000000000006ab3d36c46ecfb9b9c0bd51cb1c3da5a2c81cea6"
          ],
          "data": "0x000000000000000000000000000000000000000000000000000df60f5dc3280c00000000000000000000000000000000000000000000000003fac84e7ba3406f00000000000000000000000000000000000000000000039f07c77fbd12f080a000000000000000000000000000000000000000000000000003ecd23f1de0186300000000000000000000000000000000000000000000039f07d575cc70b3a8ac",
          "blockHash": "0x8d364ee7a4f69d7349708a63460ceb4c7454dcc12b2d2c2a4ba6b567ea0830ff",
          "blockNumber": "0xdd2621",
          "transactionHash": "0x18d5cd4dc7fe2a2c66eaa65fa9e7f091872e1c0a019317c63326790a4d3b661c",
          "transactionIndex": "0x2",
          "logIndex": "0x2",
          "removed": false
        }
      ],
      "logsBloom": "0x00000000080008000000000000000000000000000000000000000000000000000000000000000000000000000000000000008000000000000000000000000000000000080000000000000000000000800000000000000000000100000000000000000000000000000000000000000000000000000000000080000000000000000000000000000000000000000000000000000000000000000000000000000000200000000000000000000000000000000000000000000000000000000000004000000000000000000001000000800000000000010000000000100000000000000000000000000000000000000001000000000000000000000000000000100000",
      "type": "0x2",
      "transactionHash": "0x18d5cd4dc7fe2a2c66eaa65fa9e7f091872e1c0a019317c63326790a4d3b661c",
      "transactionIndex": "0x2",
      "blockHash": "0x8d364ee7a4f69d7349708a63460ceb4c7454dcc12b2d2c2a4ba6b567ea0830ff",
      "blockNumber": "0xdd2621",
      "gasUsed": "0xca0c",
      "effectiveGasPrice": "0x11b0737290",
      "from": "0x66666f4f66cc6a5bb6a7e73971e85eddf3b638c1",
      "to": "0xac45aaab89741702a9a0083e28fbcfe28ffe7a96",
      "contractAddress": null
    }
  ],
  "libraries": [],
  "pending": [],
  "returns": {},
  "timestamp": 1731753600,
  "chain": 80002,
  "commit": "fa7e3d7"
}