{
  "transactions": [
    {
      "hash": "0x8f2d90c378a7bdd576e843c1d5748ee54540fff9a67d0e01375b06df565f2d01",
      "transactionType": "CALL",
      "contractName": null,
      "contractAddress": "0xa8ff03a3af16a07e505fa7b5c1e3e2726d9787a3",
      "function": "setChainlessBalance(address)",
      "arguments": [
        "0x114F9aFB1dce419E06d6709CfA87954378cf492e"
      ],
      "transaction": {
        "from": "0x12348e0f1d209896a76768a283b2b5dd42c9f460",
        "to": "0xa8ff03a3af16a07e505fa7b5c1e3e2726d9787a3",
        "gas": "0xf95b",
        "value": "0x0",
        "input": "0xbb2119bc000000000000000000000000114f9afb1dce419e06d6709cfa87954378cf492e",
        "nonce": "0x5",
        "chainId": "0x13882"
      },
      "additionalContracts": [],
      "isFixedGasLimit": false
    },
    {
      "hash": "0xf6b387af4b0b25ae5ccef38a436a6631b4f07259e22829e2c865776aaa732c2d",
      "transactionType": "CALL",
      "contractName": null,
      "contractAddress": "0xa8ff03a3af16a07e505fa7b5c1e3e2726d9787a3",
      "function": "addDestination(uint32)",
      "arguments": [
        "40170"
      ],
      "transaction": {
        "from": "0x12348e0f1d209896a76768a283b2b5dd42c9f460",
        "to": "0xa8ff03a3af16a07e505fa7b5c1e3e2726d9787a3",
        "gas": "0x28796",
        "value": "0x0",
        "input": "0x3115f4900000000000000000000000000000000000000000000000000000000000009cea",
        "nonce": "0x6",
        "chainId": "0x13882"
      },
      "additionalContracts": [],
      "isFixedGasLimit": false
    },
    {
      "hash": "0x0103a1120cc6ff634309443ff39c8aaf64b7115f4de8053d3d27d8063e3c66a8",
      "transactionType": "CALL",
      "contractName": null,
      "contractAddress": "0xa8ff03a3af16a07e505fa7b5c1e3e2726d9787a3",
      "function": "setPeer(uint32,bytes32)",
      "arguments": [
        "40170",
        "0x000000000000000000000000a8ff03a3af16a07e505fa7b5c1e3e2726d9787a3"
      ],
      "transaction": {
        "from": "0x12348e0f1d209896a76768a283b2b5dd42c9f460",
        "to": "0xa8ff03a3af16a07e505fa7b5c1e3e2726d9787a3",
        "gas": "0x10135",
        "value": "0x0",
        "input": "0x3400288b0000000000000000000000000000000000000000000000000000000000009cea000000000000000000000000a8ff03a3af16a07e505fa7b5c1e3e2726d9787a3",
        "nonce": "0x7",
        "chainId": "0x13882"
      },
      "additionalContracts": [],
      "isFixedGasLimit": false
    },
    {
      "hash": "0x5df47730c8ba9e6f015fdaa74616c3f88d17944bedf4a4b892d59c43f6bf82b0",
      "transactionType": "CALL",
      "contractName": null,
      "contractAddress": "0xa8ff03a3af16a07e505fa7b5c1e3e2726d9787a3",
      "function": "addDestination(uint32)",
      "arguments": [
        "40275"
      ],
      "transaction": {
        "from": "0x12348e0f1d209896a76768a283b2b5dd42c9f460",
        "to": "0xa8ff03a3af16a07e505fa7b5c1e3e2726d9787a3",
        "gas": "0x11712",
        "value": "0x0",
        "input": "0x3115f4900000000000000000000000000000000000000000000000000000000000009d53",
        "nonce": "0x8",
        "chainId": "0x13882"
      },
      "additionalContracts": [],
      "isFixedGasLimit": false
    },
    {
      "hash": "0xd84d13e437c01f0275f113f0536d2babc528bcf8b4284fb3fea926e30569a691",
      "transactionType": "CALL",
      "contractName": null,
      "contractAddress": "0xa8ff03a3af16a07e505fa7b5c1e3e2726d9787a3",
      "function": "setPeer(uint32,bytes32)",
      "arguments": [
        "40275",
        "0x000000000000000000000000a8ff03a3af16a07e505fa7b5c1e3e2726d9787a3"
      ],
      "transaction": {
        "from": "0x12348e0f1d209896a76768a283b2b5dd42c9f460",
        "to": "0xa8ff03a3af16a07e505fa7b5c1e3e2726d9787a3",
        "gas": "0x10135",
        "value": "0x0",
        "input": "0x3400288b0000000000000000000000000000000000000000000000000000000000009d53000000000000000000000000a8ff03a3af16a07e505fa7b5c1e3e2726d9787a3",
        "nonce": "0x9",
        "chainId": "0x13882"
      },
      "additionalContracts": [],
      "isFixedGasLimit": false
    }
  ],
  "receipts": [
    {
      "status": "0x1",
      "cumulativeGasUsed": "0xb488",
      "logs": [
        {
          "address": "0x0000000000000000000000000000000000001010",
          "topics": [
            "0x4dfe1bbbcf077ddc3e01291eea2d5c70c2b422b415d95645b9adcfd678cb1d63",
            "0x0000000000000000000000000000000000000000000000000000000000001010",
            "0x00000000000000000000000012348e0f1d209896a76768a283b2b5dd42c9f460",
            "0x0000000000000000000000006ab3d36c46ecfb9b9c0bd51cb1c3da5a2c81cea6"
          ],
          "data": "0x000000000000000000000000000000000000000000000000000c7976e9d7888800000000000000000000000000000000000000000000000002af3446b52b07ef00000000000000000000000000000000000000000000039f1b15ec94e8c7724400000000000000000000000000000000000000000000000002a2bacfcb537f6700000000000000000000000000000000000000000000039f1b22660bd29efacc",
          "blockHash": "0x77358708bad6020e936e0437a66b62e24be55741bd7b325b5224459b34937ce0",
          "blockNumber": "0xdd2af3",
          "transactionHash": "0x8f2d90c378a7bdd576e843c1d5748ee54540fff9a67d0e01375b06df565f2d01",
          "transactionIndex": "0x0",
          "logIndex": "0x0",
          "removed": false
        }
      ],
      "logsBloom": "0x00000000080000000000000800000000000000000000000000000000000000000000002000000000000000000000000000008000000000000000000000000000000000080000000000000000000000800000000000000000010100000000000000000000000000000000000000000000000000000000000080000000000000000000000000000000000000000000000000000000000000000000000000000000200000000000000000000000000000000000000000000000000000000000004000000000000000000001000000000000000000010000000000100000000000000000000000000000000000000000000000000000000000000000000000100000",
      "type": "0x2",
      "transactionHash": "0x8f2d90c378a7bdd576e843c1d5748ee54540fff9a67d0e01375b06df565f2d01",
      "transactionIndex": "0x0",
      "blockHash": "0x77358708bad6020e936e0437a66b62e24be55741bd7b325b5224459b34937ce0",
      "blockNumber": "0xdd2af3",
      "gasUsed": "0xb488",
      "effectiveGasPrice": "0x11b0737290",
      "from": "0x12348e0f1d209896a76768a283b2b5dd42c9f460",
      "to": "0xa8ff03a3af16a07e505fa7b5c1e3e2726d9787a3",
      "contractAddress": null
    },
    {
      "status": "0x1",
      "cumulativeGasUsed": "0x28960",
      "logs": [
        {
          "address": "0x0000000000000000000000000000000000001010",
          "topics": [
            "0x4dfe1bbbcf077ddc3e01291eea2d5c70c2b422b415d95645b9adcfd678cb1d63",
            "0x0000000000000000000000000000000000000000000000000000000000001010",
            "0x00000000000000000000000012348e0f1d209896a76768a283b2b5dd42c9f460",
            "0x0000000000000000000000006ab3d36c46ecfb9b9c0bd51cb1c3da5a2c81cea6"
          ],
          "data": "0x0000000000000000000000000000000000000000000000000020657feebc70d800000000000000000000000000000000000000000000000002a2bacfcb48eb6f00000000000000000000000000000000000000000000039f1b22660bd29efacc0000000000000000000000000000000000000000000000000282554fdc8c7a9700000000000000000000000000000000000000000000039f1b42cb8bc15b6ba4",
          "blockHash": "0x77358708bad6020e936e0437a66b62e24be55741bd7b325b5224459b34937ce0",
          "blockNumber": "0xdd2af3",
          "transactionHash": "0xf6b387af4b0b25ae5ccef38a436a6631b4f07259e22829e2c865776aaa732c2d",
          "transactionIndex": "0x1",
          "logIndex": "0x1",
          "removed": false
        }
      ],
      "logsBloom": "0x00000000080000000000000800000000000000000000000000000000000000000000002000000000000000000000000000008000000000000000000000000000000000080000000000000000000000800000000000000000010100000000000000000000000000000000000000000000000000000000000080000000000000000000000000000000000000000000000000000000000000000000000000000000200000000000000000000000000000000000000000000000000000000000004000000000000000000001000000000000000000010000000000100000000000000000000000000000000000000000000000000000000000000000000000100000",
      "type": "0x2",
      "transactionHash": "0xf6b387af4b0b25ae5ccef38a436a6631b4f07259e22829e2c865776aaa732c2d",
      "transactionIndex": "0x1",
      "blockHash": "0x77358708bad6020e936e0437a66b62e24be55741bd7b325b5224459b34937ce0",
      "blockNumber": "0xdd2af3",
      "gasUsed": "0x1d4d8",
      "effectiveGasPrice": "0x11b0737290",
      "from": "0x12348e0f1d209896a76768a283b2b5dd42c9f460",
      "to": "0xa8ff03a3af16a07e505fa7b5c1e3e2726d9787a3",
      "contractAddress": null
    },
    {
      "status": "0x1",
      "cumulativeGasUsed": "0x34397",
      "logs": [
        {
          "address": "0xa8ff03a3af16a07e505fa7b5c1e3e2726d9787a3",
          "topics": [
            "0x238399d427b947898edb290f5ff0f9109849b1c3ba196a42e35f00c50a54b98b"
          ],
          "data": "0x0000000000000000000000000000000000000000000000000000000000009cea000000000000000000000000a8ff03a3af16a07e505fa7b5c1e3e2726d9787a3",
          "blockHash": "0x77358708bad6020e936e0437a66b62e24be55741bd7b325b5224459b34937ce0",
          "blockNumber": "0xdd2af3",
          "transactionHash": "0x0103a1120cc6ff634309443ff39c8aaf64b7115f4de8053d3d27d8063e3c66a8",
          "transactionIndex": "0x2",
          "logIndex": "0x2",
          "removed": false
        },
        {
          "address": "0x0000000000000000000000000000000000001010",
          "topics": [
            "0x4dfe1bbbcf077ddc3e01291eea2d5c70c2b422b415d95645b9adcfd678cb1d63",
            "0x0000000000000000000000000000000000000000000000000000000000001010",
            "0x00000000000000000000000012348e0f1d209896a76768a283b2b5dd42c9f460",
            "0x0000000000000000000000006ab3d36c46ecfb9b9c0bd51cb1c3da5a2c81cea6"
          ],
          "data": "0x000000000000000000000000000000000000000000000000000cde00c9ff53b70000000000000000000000000000000000000000000000000282554fdc7101ef00000000000000000000000000000000000000000000039f1b42cb8bc15b6ba40000000000000000000000000000000000000000000000000275774f1271ae3800000000000000000000000000000000000000000000039f1b4fa98c8b5abf5b",
          "blockHash": "0x77358708bad6020e936e0437a66b62e24be55741bd7b325b5224459b34937ce0",
          "blockNumber": "0xdd2af3",
          "transactionHash": "0x0103a1120cc6ff634309443ff39c8aaf64b7115f4de8053d3d27d8063e3c66a8",
          "transactionIndex": "0x2",
          "logIndex": "0x3",
          "removed": false
        }
      ],
      "logsBloom": "0x00000004080000000000000800000000000000000000000000000000000000000000002000000000000000000000000000008000000000000800000000000000000000080000000000000000000000800000000000000000010100000000000000000000000000000000000000000000000000000000000080000000000000000000000000000000000000000000000000000000000000000000000000000000200000000000000000000000000001000000000000000000000002000000004000000000000000000001000000000000000000010000000000140000000000000000000000000000000000000000000000000000000000000000000000100000",
      "type": "0x2",
      "transactionHash": "0x0103a1120cc6ff634309443ff39c8aaf64b7115f4de8053d3d27d8063e3c66a8",
      "transactionIndex": "0x2",
      "blockHash": "0x77358708bad6020e936e0437a66b62e24be55741bd7b325b5224459b34937ce0",
      "blockNumber": "0xdd2af3",
      "gasUsed": "0xba37",
      "effectiveGasPrice": "0x11b0737290",
      "from": "0x12348e0f1d209896a76768a283b2b5dd42c9f460",
      "to": "0xa8ff03a3af16a07e505fa7b5c1e3e2726d9787a3",
      "contractAddress": null
    },
    {
      "status": "0x1",
      "cumulativeGasUsed": "0x40da3",
      "logs": [
        {
          "address": "0x0000000000000000000000000000000000001010",
          "topics": [
            "0x4dfe1bbbcf077ddc3e01291eea2d5c70c2b422b415d95645b9adcfd678cb1d63",
            "0x0000000000000000000000000000000000000000000000000000000000001010",
            "0x00000000000000000000000012348e0f1d209896a76768a283b2b5dd42c9f460",
            "0x0000000000000000000000006ab3d36c46ecfb9b9c0bd51cb1c3da5a2c81cea6"
          ],
          "data": "0x000000000000000000000000000000000000000000000000000df60f5dc3280c0000000000000000000000000000000000000000000000000275774f1266c4ff00000000000000000000000000000000000000000000039f1b4fa98c8b5abf5b0000000000000000000000000000000000000000000000000267813fb4a39cf300000000000000000000000000000000000000000000039f1b5d9f9be91de767",
          "blockHash": "0x77358708bad6020e936e0437a66b62e24be55741bd7b325b5224459b34937ce0",
          "blockNumber": "0xdd2af3",
          "transactionHash": "0x5df47730c8ba9e6f015fdaa74616c3f88d17944bedf4a4b892d59c43f6bf82b0",
          "transactionIndex": "0x3",
          "logIndex": "0x4",
          "removed": false
        }
      ],
      "logsBloom": "0x00000000080000000000000800000000000000000000000000000000000000000000002000000000000000000000000000008000000000000000000000000000000000080000000000000000000000800000000000000000010100000000000000000000000000000000000000000000000000000000000080000000000000000000000000000000000000000000000000000000000000000000000000000000200000000000000000000000000000000000000000000000000000000000004000000000000000000001000000000000000000010000000000100000000000000000000000000000000000000000000000000000000000000000000000100000",
      "type": "0x2",
      "transactionHash": "0x5df47730c8ba9e6f015fdaa74616c3f88d17944bedf4a4b892d59c43f6bf82b0",
      "transactionIndex": "0x3",
      "blockHash": "0x77358708bad6020e936e0437a66b62e24be55741bd7b325b5224459b34937ce0",
      "blockNumber": "0xdd2af3",
      "gasUsed": "0xca0c",
      "effectiveGasPrice": "0x11b0737290",
      "from": "0x12348e0f1d209896a76768a283b2b5dd42c9f460",
      "to": "0xa8ff03a3af16a07e505fa7b5c1e3e2726d9787a3",
      "contractAddress": null
    },
    {
      "status": "0x1",
      "cumulativeGasUsed": "0x4c7da",
      "logs": [
        {
          "address": "0xa8ff03a3af16a07e505fa7b5c1e3e2726d9787a3",
          "topics": [
            "0x238399d427b947898edb290f5ff0f9109849b1c3ba196a42e35f00c50a54b98b"
          ],
          "data": "0x0000000000000000000000000000000000000000000000000000000000009d53000000000000000000000000a8ff03a3af16a07e505fa7b5c1e3e2726d9787a3",
          "blockHash": "0x77358708bad6020e936e0437a66b62e24be55741bd7b325b5224459b34937ce0",
          "blockNumber": "0xdd2af3",
          "transactionHash": "0xd84d13e437c01f0275f113f0536d2babc528bcf8b4284fb3fea926e30569a691",
          "transactionIndex": "0x4",
          "logIndex": "0x5",
          "removed": false
        },
        {
          "address": "0x0000000000000000000000000000000000001010",
          "topics": [
            "0x4dfe1bbbcf077ddc3e01291eea2d5c70c2b422b415d95645b9adcfd678cb1d63",
            "0x0000000000000000000000000000000000000000000000000000000000001010",
            "0x00000000000000000000000012348e0f1d209896a76768a283b2b5dd42c9f460",
            "0x0000000000000000000000006ab3d36c46ecfb9b9c0bd51cb1c3da5a2c81cea6"
          ],
          "data": "0x000000000000000000000000000000000000000000000000000cde00c9ff53b70000000000000000000000000000000000000000000000000267813fb497c63f00000000000000000000000000000000000000000000039f1b5d9f9be91de767000000000000000000000000000000000000000000000000025aa33eea98728800000000000000000000000000000000000000000000039f1b6a7d9cb31d3b1e",
          "blockHash": "0x77358708bad6020e936e0437a66b62e24be55741bd7b325b5224459b34937ce0",
          "blockNumber": "0xdd2af3",
          "transactionHash": "0xd84d13e437c01f0275f113f0536d2babc528bcf8b4284fb3fea926e30569a691",
          "transactionIndex": "0x4",
          "logIndex": "0x6",
          "removed": false
        }
      ],
      "logsBloom": "0x00000004080000000000000800000000000000000000000000000000000000000000002000000000000000000000000000008000000000000800000000000000000000080000000000000000000000800000000000000000010100000000000000000000000000000000000000000000000000000000000080000000000000000000000000000000000000000000000000000000000000000000000000000000200000000000000000000000000001000000000000000000000002000000004000000000000000000001000000000000000000010000000000140000000000000000000000000000000000000000000000000000000000000000000000100000",
      "type": "0x2",
      "transactionHash": "0xd84d13e437c01f0275f113f0536d2babc528bcf8b4284fb3fea926e30569a691",
      "transactionIndex": "0x4",
      "blockHash": "0x77358708bad6020e936e0437a66b62e24be55741bd7b325b5224459b34937ce0",
      "blockNumber": "0xdd2af3",
      "gasUsed": "0xba37",
      "effectiveGasPrice": "0x11b0737290",
      "from": "0x12348e0f1d209896a76768a283b2b5dd42c9f460",
      "to": "0xa8ff03a3af16a07e505fa7b5c1e3e2726d9787a3",
      "contractAddress": null
    }
  ],
  "libraries": [],
  "pending": [],
  "returns": {},
  "timestamp": 1731756448,
  "chain": 80002,
  "commit": "fa7e3d7"
}