{
  "transactions": [
    {
      "hash": "0x5bb0c0e20ca1a79a27a6c13f38f4a0ecb6e92a76d408d046b42b196827c3bf05",
      "transactionType": "CALL",
      "contractName": null,
      "contractAddress": "0xac45aaab89741702a9a0083e28fbcfe28ffe7a96",
      "function": "setPeer(uint32,bytes32)",
      "arguments": [
        "40333",
        "0x000000000000000000000000ac45aaab89741702a9a0083e28fbcfe28ffe7a96"
      ],
      "transaction": {
        "from": "0x66666f4f66cc6a5bb6a7e73971e85eddf3b638c1",
        "to": "0xac45aaab89741702a9a0083e28fbcfe28ffe7a96",
        "gas": "0x9ea6",
        "value": "0x0",
        "input": "0x3400288b0000000000000000000000000000000000000000000000000000000000009d8d000000000000000000000000ac45aaab89741702a9a0083e28fbcfe28ffe7a96",
        "nonce": "0xb",
        "chainId": "0x8274f"
      },
      "additionalContracts": [],
      "isFixedGasLimit": false
    },
    {
      "hash": "0x5928e48eb5f8f175c1b6e24a4a9bf5c0521e72fd009afcf686fe6d5d6f79dd2a",
      "transactionType": "CALL",
      "contractName": null,
      "contractAddress": "0xac45aaab89741702a9a0083e28fbcfe28ffe7a96",
      "function": "setPeer(uint32,bytes32)",
      "arguments": [
        "40267",
        "0x000000000000000000000000ac45aaab89741702a9a0083e28fbcfe28ffe7a96"
      ],
      "transaction": {
        "from": "0x66666f4f66cc6a5bb6a7e73971e85eddf3b638c1",
        "to": "0xac45aaab89741702a9a0083e28fbcfe28ffe7a96",
        "gas": "0x9ea6",
        "value": "0x0",
        "input": "0x3400288b0000000000000000000000000000000000000000000000000000000000009d4b000000000000000000000000ac45aaab89741702a9a0083e28fbcfe28ffe7a96",
        "nonce": "0xc",
        "chainId": "0x8274f"
      },
      "additionalContracts": [],
      "isFixedGasLimit": false
    },
    {
      "hash": "0x980207e4c3103a9d5bb506454e638091e005beba8796ee16a2e67606a24cdbd5",
      "transactionType": "CALL",
      "contractName": null,
      "contractAddress": "0xac45aaab89741702a9a0083e28fbcfe28ffe7a96",
      "function": "setPeer(uint32,bytes32)",
      "arguments": [
        "40275",
        "0x000000000000000000000000ac45aaab89741702a9a0083e28fbcfe28ffe7a96"
      ],
      "transaction": {
        "from": "0x66666f4f66cc6a5bb6a7e73971e85eddf3b638c1",
        "to": "0xac45aaab89741702a9a0083e28fbcfe28ffe7a96",
        "gas": "0x10135",
        "value": "0x0",
        "input": "0x3400288b0000000000000000000000000000000000000000000000000000000000009d53000000000000000000000000ac45aaab89741702a9a0083e28fbcfe28ffe7a96",
        "nonce": "0xd",
        "chainId": "0x8274f"
      },
      "additionalContracts": [],
      "isFixedGasLimit": false
    }
  ],
  "receipts": [
    {
      "status": "0x1",
      "cumulativeGasUsed": "0x6c7b",
      "logs": [
        {
          "address": "0xac45aaab89741702a9a0083e28fbcfe28ffe7a96",
          "topics": [
            "0x238399d427b947898edb290f5ff0f9109849b1c3ba196a42e35f00c50a54b98b"
          ],
          "data": "0x0000000000000000000000000000000000000000000000000000000000009d8d000000000000000000000000ac45aaab89741702a9a0083e28fbcfe28ffe7a96",
          "blockHash": "0x62c80c6d25549eef4c3d98917a1cf2d6909d71e6d5a7bf68056f359c3252a65b",
          "blockNumber": "0x6f6d28",
          "transactionHash": "0x5bb0c0e20ca1a79a27a6c13f38f4a0ecb6e92a76d408d046b42b196827c3bf05",
          "transactionIndex": "0x0",
          "logIndex": "0x0",
          "removed": false
        }
      ],
      "logsBloom": "0x00000000000000000000000000000000000000000000000000000000000000000000000000000000000000000000000000000004000000000800000000000000000000000000000000000000000000000000000000000000000000000000000000000000000000000000000000000000000000000000000000000000000000080000000000000000000000000000000000000000000000000000000000000000000000000000000000000000000000000000000000000000000002000000000000000000000000000000000000000000000000000000000000040000000000020000000000000000000000000000000000000000000000000000000000000000",
      "type": "0x0",
      "transactionHash": "0x5bb0c0e20ca1a79a27a6c13f38f4a0ecb6e92a76d408d046b42b196827c3bf05",
      "transactionIndex": "0x0",
      "blockHash": "0x62c80c6d25549eef4c3d98917a1cf2d6909d71e6d5a7bf68056f359c3252a65b",
      "blockNumber": "0x6f6d28",
      "gasUsed": "0x6c7b",
      "effectiveGasPrice": "0xb65232d2",
      "from": "0x66666f4f66cc6a5bb6a7e73971e85eddf3b638c1",
      "to": "0xac45aaab89741702a9a0083e28fbcfe28ffe7a96",
      "contractAddress": null,
      "l1Fee": "0x1438e40a59"
    },
    {
      "status": "0x1",
      "cumulativeGasUsed": "0xd8f6",
      "logs": [
        {
          "address": "0xac45aaab89741702a9a0083e28fbcfe28ffe7a96",
          "topics": [
            "0x238399d427b947898edb290f5ff0f9109849b1c3ba196a42e35f00c50a54b98b"
          ],
          "data": "0x0000000000000000000000000000000000000000000000000000000000009d4b000000000000000000000000ac45aaab89741702a9a0083e28fbcfe28ffe7a96",
          "blockHash": "0x62c80c6d25549eef4c3d98917a1cf2d6909d71e6d5a7bf68056f359c3252a65b",
          "blockNumber": "0x6f6d28",
          "transactionHash": "0x5928e48eb5f8f175c1b6e24a4a9bf5c0521e72fd009afcf686fe6d5d6f79dd2a",
          "transactionIndex": "0x1",
          "logIndex": "0x1",
          "removed": false
        }
      ],
      "logsBloom": "0x00000000000000000000000000000000000000000000000000000000000000000000000000000000000000000000000000000004000000000800000000000000000000000000000000000000000000000000000000000000000000000000000000000000000000000000000000000000000000000000000000000000000000080000000000000000000000000000000000000000000000000000000000000000000000000000000000000000000000000000000000000000000002000000000000000000000000000000000000000000000000000000000000040000000000020000000000000000000000000000000000000000000000000000000000000000",
      "type": "0x0",
      "transactionHash": "0x5928e48eb5f8f175c1b6e24a4a9bf5c0521e72fd009afcf686fe6d5d6f79dd2a",
      "transactionIndex": "0x1",
      "blockHash": "0x62c80c6d25549eef4c3d98917a1cf2d6909d71e6d5a7bf68056f359c3252a65b",
      "blockNumber": "0x6f6d28",
      "gasUsed": "0x6c7b",
      "effectiveGasPrice": "0xb65232d2",
      "from": "0x66666f4f66cc6a5bb6a7e73971e85eddf3b638c1",
      "to": "0xac45aaab89741702a9a0083e28fbcfe28ffe7a96",
      "contractAddress": null,
      "l1Fee": "0x1438e40a59"
    },
    {
      "status": "0x1",
      "cumulativeGasUsed": "0x1932d",
      "logs": [
        {
          "address": "0xac45aaab89741702a9a0083e28fbcfe28ffe7a96",
          "topics": [
            "0x238399d427b947898edb290f5ff0f9109849b1c3ba196a42e35f00c50a54b98b"
          ],
          "data": "0x0000000000000000000000000000000000000000000000000000000000009d53000000000000000000000000ac45aaab89741702a9a0083e28fbcfe28ffe7a96",
          "blockHash": "0x62c80c6d25549eef4c3d98917a1cf2d6909d71e6d5a7bf68056f359c3252a65b",
          "blockNumber": "0x6f6d28",
          "transactionHash": "0x980207e4c3103a9d5bb506454e638091e005beba8796ee16a2e67606a24cdbd5",
          "transactionIndex": "0x2",
          "logIndex": "0x2",
          "removed": false
        }
      ],
      "logsBloom": "0x00000000000000000000000000000000000000000000000000000000000000000000000000000000000000000000000000000004000000000800000000000000000000000000000000000000000000000000000000000000000000000000000000000000000000000000000000000000000000000000000000000000000000080000000000000000000000000000000000000000000000000000000000000000000000000000000000000000000000000000000000000000000002000000000000000000000000000000000000000000000000000000000000040000000000020000000000000000000000000000000000000000000000000000000000000000",
      "type": "0x0",
      "transactionHash": "0x980207e4c3103a9d5bb506454e638091e005beba8796ee16a2e67606a24cdbd5",
      "transactionIndex": "0x2",
      "blockHash": "0x62c80c6d25549eef4c3d98917a1cf2d6909d71e6d5a7bf68056f359c3252a65b",
      "blockNumber": "0x6f6d28",
      "gasUsed": "0xba37",
      "effectiveGasPrice": "0xb65232d2",
      "from": "0x66666f4f66cc6a5bb6a7e73971e85eddf3b638c1",
      "to": "0xac45aaab89741702a9a0083e28fbcfe28ffe7a96",
      "contractAddress": null,
      "l1Fee": "0x1438e40a59"
    }
  ],
  "libraries": [],
  "pending": [],
  "returns": {},
  "timestamp": 1731753480,
  "chain": 534351,
  "commit": "fa7e3d7"
}