{
  "transactions": [
    {
      "hash": null,
      "transactionType": "CALL",
      "contractName": null,
      "contractAddress": "0x9dde77b61fc4f08177f14cb254148bf7cc85a8c5",
      "function": "setPeer(uint32,bytes32)",
      "arguments": [
        "40333",
        "0x0000000000000000000000009dde77b61fc4f08177f14cb254148bf7cc85a8c5"
      ],
      "transaction": {
        "from": "0x11110dbc48603b706792aa52671a1439d0f4da63",
        "to": "0x9dde77b61fc4f08177f14cb254148bf7cc85a8c5",
        "gas": "0x9ea6",
        "value": "0x0",
        "input": "0x3400288b0000000000000000000000000000000000000000000000000000000000009d8d0000000000000000000000009dde77b61fc4f08177f14cb254148bf7cc85a8c5",
        "nonce": "0xb",
        "chainId": "0x8274f"
      },
      "additionalContracts": [],
      "isFixedGasLimit": false
    },
    {
      "hash": null,
      "transactionType": "CALL",
      "contractName": null,
      "contractAddress": "0x9dde77b61fc4f08177f14cb254148bf7cc85a8c5",
      "function": "setPeer(uint32,bytes32)",
      "arguments": [
        "40267",
        "0x0000000000000000000000009dde77b61fc4f08177f14cb254148bf7cc85a8c5"
      ],
      "transaction": {
        "from": "0x11110dbc48603b706792aa52671a1439d0f4da63",
        "to": "0x9dde77b61fc4f08177f14cb254148bf7cc85a8c5",
        "gas": "0x9ea6",
        "value": "0x0",
        "input": "0x3400288b0000000000000000000000000000000000000000000000000000000000009d4b0000000000000000000000009dde77b61fc4f08177f14cb254148bf7cc85a8c5",
        "nonce": "0xc",
        "chainId": "0x8274f"
      },
      "additionalContracts": [],
      "isFixedGasLimit": false
    },
    {
      "hash": null,
      "transactionType": "CALL",
      "contractName": null,
      "contractAddress": "0x9dde77b61fc4f08177f14cb254148bf7cc85a8c5",
      "function": "setPeer(uint32,bytes32)",
      "arguments": [
        "40275",
        "0x0000000000000000000000009dde77b61fc4f08177f14cb254148bf7cc85a8c5"
      ],
      "transaction": {
        "from": "0x11110dbc48603b706792aa52671a1439d0f4da63",
        "to": "0x9dde77b61fc4f08177f14cb254148bf7cc85a8c5",
        "gas": "0x10135",
        "value": "0x0",
        "input": "0x3400288b0000000000000000000000000000000000000000000000000000000000009d530000000000000000000000009dde77b61fc4f08177f14cb254148bf7cc85a8c5",
        "nonce": "0xd",
        "chainId": "0x8274f"
      },
      "additionalContracts": [],
      "isFixedGasLimit": false
    }
  ],
  "receipts": [],
  "libraries": [],
  "pending": [],
  "returns": {},
  "timestamp": 1731749913,
  "chain": 534351,
  "commit": "fa7e3d7"
}