{
  "transactions": [
    {
      "hash": "0x05ebf4c9f2dfeabe29106cc703162a6782d829c5e1614990059ce5d30a08e5b6",
      "transactionType": "CALL",
      "contractName": null,
      "contractAddress": "0xe9839aecccc989c7f736e8c5a787591b1894f65c",
      "function": "mint(address,uint256)",
      "arguments": [
        "0xfd1B5426DcAC80e78Bbe36E2d3D3780ED848611C",
        "10000"
      ],
      "transaction": {
        "from": "0x1001f662c0de98e426870a9107f14a0c8c052aa0",
        "to": "0xe9839aecccc989c7f736e8c5a787591b1894f65c",
        "gas": "0x2e4a1",
        "value": "0x0",
        "input": "0x40c10f19000000000000000000000000fd1b5426dcac80e78bbe36e2d3d3780ed848611c0000000000000000000000000000000000000000000000000000000000002710",
        "nonce": "0xb",
        "chainId": "0x8274f"
      },
      "additionalContracts": [],
      "isFixedGasLimit": false
    }
  ],
  "receipts": [
    {
      "status": "0x1",
      "cumulativeGasUsed": "0x21834",
      "logs": [
        {
          "address": "0xe9839aecccc989c7f736e8c5a787591b1894f65c",
          "topics": [
            "0xddf252ad1be2c89b69c2b068fc378daa952ba7f163c4a11628f55a4df523b3ef",
            "0x0000000000000000000000000000000000000000000000000000000000000000",
            "0x000000000000000000000000fd1b5426dcac80e78bbe36e2d3d3780ed848611c"
          ],
          "data": "0x0000000000000000000000000000000000000000000000000000000000002710",
          "blockHash": "0xa01448779b17d51dcb2ffc1d8c34fb95633d48f5ec6eff8c75e89b53d7271a23",
          "blockNumber": "0x6f6846",
          "transactionHash": "0x05ebf4c9f2dfeabe29106cc703162a6782d829c5e1614990059ce5d30a08e5b6",
          "transactionIndex": "0x0",
          "logIndex": "0x0",
          "removed": false
        },
        {
          "address": "0x1d9f50d64511770695284d98e882fb4b436191ad",
          "topics": [
            "0xa9e1ff5715b5aed67dc27885cb87744c904efebc619f91795092541bc777898f",
            "0x000000000000000000000000fd1b5426dcac80e78bbe36e2d3d3780ed848611c"
          ],
          "data": "0x0000000000000000000000000000000000000000000000000000000000009cea0000000000000000000000000000000000000000000000000000000000002710",
          "blockHash": "0xa01448779b17d51dcb2ffc1d8c34fb95633d48f5ec6eff8c75e89b53d7271a23",
          "blockNumber": "0x6f6846",
          "transactionHash": "0x05ebf4c9f2dfeabe29106cc703162a6782d829c5e1614990059ce5d30a08e5b6",
          "transactionIndex": "0x0",
          "logIndex": "0x1",
          "removed": false
        },
        {
          "address": "0x1d9f50d64511770695284d98e882fb4b436191ad",
          "topics": [
            "0x8049d4304a9f9bc385d277ac94ec6bac29ab0e8726ce4de2b4e1cb1324872f91",
            "0x000000000000000000000000fd1b5426dcac80e78bbe36e2d3d3780ed848611c"
          ],
          "data": "0x0000000000000000000000000000000000000000000000000000000000002710",
          "blockHash": "0xa01448779b17d51dcb2ffc1d8c34fb95633d48f5ec6eff8c75e89b53d7271a23",
          "blockNumber": "0x6f6846",
          "transactionHash": "0x05ebf4c9f2dfeabe29106cc703162a6782d829c5e1614990059ce5d30a08e5b6",
          "transactionIndex": "0x0",
          "logIndex": "0x2",
          "removed": false
        }
      ],
      "logsBloom": "0x00000000000000000000000000000000000000000000000000000000000000000000001000000000000000000000000000000000000000000000000000000000000000000000000000000008000000000080000000000000000000000000000000000000020000000000000000000a00000000000000000000000010000000100100000000000000004000000000000000000000020200000000000000000000000000000000004000000000000000000000000000000000000000800000000010000002000000000000000000100000000000000008000000000000000030000000000000000000000000000000000000000000000000000000000000000001",
      "type": "0x2",
      "transactionHash": "0x05ebf4c9f2dfeabe29106cc703162a6782d829c5e1614990059ce5d30a08e5b6",
      "transactionIndex": "0x0",
      "blockHash": "0xa01448779b17d51dcb2ffc1d8c34fb95633d48f5ec6eff8c75e89b53d7271a23",
      "blockNumber": "0x6f6846",
      "gasUsed": "0x21834",
      "effectiveGasPrice": "0x3b94e7fe",
      "from": "0x1001f662c0de98e426870a9107f14a0c8c052aa0",
      "to": "0xe9839aecccc989c7f736e8c5a787591b1894f65c",
      "contractAddress": null,
      "l1Fee": "0x19c13fb468"
    }
  ],
  "libraries": [],
  "pending": [],
  "returns": {},
  "timestamp": 1731742086,
  "chain": 534351,
  "commit": "fa7e3d7"
}