{
  "transactions": [
    {
      "hash": "0x9b1269816d466918b0e71b1cbfe23dd1a6a3155340e058f868861dc23fe70756",
      "transactionType": "CALL",
      "contractName": null,
      "contractAddress": "0xa8ff03a3af16a07e505fa7b5c1e3e2726d9787a3",
      "function": "setChainlessBalance(address)",
      "arguments": [
        "0x114F9aFB1dce419E06d6709CfA87954378cf492e"
      ],
      "transaction": {
        "from": "0x12348e0f1d209896a76768a283b2b5dd42c9f460",
        "to": "0xa8ff03a3af16a07e505fa7b5c1e3e2726d9787a3",
        "gas": "0xf95b",
        "value": "0x0",
        "input": "0xbb2119bc000000000000000000000000114f9afb1dce419e06d6709cfa87954378cf492e",
        "nonce": "0x5",
        "chainId": "0x8274f"
      },
      "additionalContracts": [],
      "isFixedGasLimit": false
    },
    {
      "hash": "0x0d884b84d5f0c409563dba1cc4b5ae4fc9ca62e5d942c2668f5d0484e78ae0b6",
      "transactionType": "CALL",
      "contractName": null,
      "contractAddress": "0xa8ff03a3af16a07e505fa7b5c1e3e2726d9787a3",
      "function": "setPeer(uint32,bytes32)",
      "arguments": [
        "40267",
        "0x000000000000000000000000a8ff03a3af16a07e505fa7b5c1e3e2726d9787a3"
      ],
      "transaction": {
        "from": "0x12348e0f1d209896a76768a283b2b5dd42c9f460",
        "to": "0xa8ff03a3af16a07e505fa7b5c1e3e2726d9787a3",
        "gas": "0x10135",
        "value": "0x0",
        "input": "0x3400288b0000000000000000000000000000000000000000000000000000000000009d4b000000000000000000000000a8ff03a3af16a07e505fa7b5c1e3e2726d9787a3",
        "nonce": "0x6",
        "chainId": "0x8274f"
      },
      "additionalContracts": [],
      "isFixedGasLimit": false
    },
    {
      "hash": "0xea717529a9c4abe086aaeb201559349be618a85d767b128afb23096855be7855",
      "transactionType": "CALL",
      "contractName": null,
      "contractAddress": "0xa8ff03a3af16a07e505fa7b5c1e3e2726d9787a3",
      "function": "setPeer(uint32,bytes32)",
      "arguments": [
        "40275",
        "0x000000000000000000000000a8ff03a3af16a07e505fa7b5c1e3e2726d9787a3"
      ],
      "transaction": {
        "from": "0x12348e0f1d209896a76768a283b2b5dd42c9f460",
        "to": "0xa8ff03a3af16a07e505fa7b5c1e3e2726d9787a3",
        "gas": "0x10135",
        "value": "0x0",
        "input": "0x3400288b0000000000000000000000000000000000000000000000000000000000009d53000000000000000000000000a8ff03a3af16a07e505fa7b5c1e3e2726d9787a3",
        "nonce": "0x7",
        "chainId": "0x8274f"
      },
      "additionalContracts": [],
      "isFixedGasLimit": false
    }
  ],
  "receipts": [
    {
      "status": "0x1",
      "cumulativeGasUsed": "0xb488",
      "logs": [],
      "logsBloom": "0x00000000000000000000000000000000000000000000000000000000000000000000000000000000000000000000000000000000000000000000000000000000000000000000000000000000000000000000000000000000000000000000000000000000000000000000000000000000000000000000000000000000000000000000000000000000000000000000000000000000000000000000000000000000000000000000000000000000000000000000000000000000000000000000000000000000000000000000000000000000000000000000000000000000000000000000000000000000000000000000000000000000000000000000000000000000",
      "type": "0x2",
      "transactionHash": "0x9b1269816d466918b0e71b1cbfe23dd1a6a3155340e058f868861dc23fe70756",
      "transactionIndex": "0x0",
      "blockHash": "0x4549bb848cca0def38ac68ce6429d6c5ba4e7761c90f839ebc3c03d43a827eea",
      "blockNumber": "0x6f6e6c",
      "gasUsed": "0xb488",
      "effectiveGasPrice": "0x3b95ae80",
      "from": "0x12348e0f1d209896a76768a283b2b5dd42c9f460",
      "to": "0xa8ff03a3af16a07e505fa7b5c1e3e2726d9787a3",
      "contractAddress": null,
      "l1Fee": "0x3cd5667a37"
    },
    {
      "status": "0x1",
      "cumulativeGasUsed": "0x16ebf",
      "logs": [
        {
          "address": "0xa8ff03a3af16a07e505fa7b5c1e3e2726d9787a3",
          "topics": [
            "0x238399d427b947898edb290f5ff0f9109849b1c3ba196a42e35f00c50a54b98b"
          ],
          "data": "0x0000000000000000000000000000000000000000000000000000000000009d4b000000000000000000000000a8ff03a3af16a07e505fa7b5c1e3e2726d9787a3",
          "blockHash": "0x4549bb848cca0def38ac68ce6429d6c5ba4e7761c90f839ebc3c03d43a827eea",
          "blockNumber": "0x6f6e6c",
          "transactionHash": "0x0d884b84d5f0c409563dba1cc4b5ae4fc9ca62e5d942c2668f5d0484e78ae0b6",
          "transactionIndex": "0x1",
          "logIndex": "0x0",
          "removed": false
        }
      ],
      "logsBloom": "0x00000004000000000000000000000000000000000000000000000000000000000000002000000000000000000000000000000000000000000800000000000000000000000000000000000000000000000000000000000000000000000000000000000000000000000000000000000000000000000000000000000000000000000000000000000000000000000000000000000000000000000000000000000000000000000000000000000000000001000000000000000000000002000000000000000000000000000000000000000000000000000000000000040000000000000000000000000000000000000000000000000000000000000000000000000000",
      "type": "0x2",
      "transactionHash": "0x0d884b84d5f0c409563dba1cc4b5ae4fc9ca62e5d942c2668f5d0484e78ae0b6",
      "transactionIndex": "0x1",
      "blockHash": "0x4549bb848cca0def38ac68ce6429d6c5ba4e7761c90f839ebc3c03d43a827eea",
      "blockNumber": "0x6f6e6c",
      "gasUsed": "0xba37",
      "effectiveGasPrice": "0x3b95ae80",
      "from": "0x12348e0f1d209896a76768a283b2b5dd42c9f460",
      "to": "0xa8ff03a3af16a07e505fa7b5c1e3e2726d9787a3",
      "contractAddress": null,
      "l1Fee": "0x3cd5667a45"
    },
    {
      "status": "0x1",
      "cumulativeGasUsed": "0xba37",
      "logs": [
        {
          "address": "0xa8ff03a3af16a07e505fa7b5c1e3e2726d9787a3",
          "topics": [
            "0x238399d427b947898edb290f5ff0f9109849b1c3ba196a42e35f00c50a54b98b"
          ],
          "data": "0x0000000000000000000000000000000000000000000000000000000000009d53000000000000000000000000a8ff03a3af16a07e505fa7b5c1e3e2726d9787a3",
          "blockHash": "0x1245c4c39ddb79d166865bdc2039464b196944c610c669a39ce3fc890921fae2",
          "blockNumber": "0x6f6e6d",
          "transactionHash": "0xea717529a9c4abe086aaeb201559349be618a85d767b128afb23096855be7855",
          "transactionIndex": "0x0",
          "logIndex": "0x0",
          "removed": false
        }
      ],
      "logsBloom": "0x00000004000000000000000000000000000000000000000000000000000000000000002000000000000000000000000000000000000000000800000000000000000000000000000000000000000000000000000000000000000000000000000000000000000000000000000000000000000000000000000000000000000000000000000000000000000000000000000000000000000000000000000000000000000000000000000000000000000001000000000000000000000002000000000000000000000000000000000000000000000000000000000000040000000000000000000000000000000000000000000000000000000000000000000000000000",
      "type": "0x2",
      "transactionHash": "0xea717529a9c4abe086aaeb201559349be618a85d767b128afb23096855be7855",
      "transactionIndex": "0x0",
      "blockHash": "0x1245c4c39ddb79d166865bdc2039464b196944c610c669a39ce3fc890921fae2",
      "blockNumber": "0x6f6e6d",
      "gasUsed": "0xba37",
      "effectiveGasPrice": "0x3b95ae80",
      "from": "0x12348e0f1d209896a76768a283b2b5dd42c9f460",
      "to": "0xa8ff03a3af16a07e505fa7b5c1e3e2726d9787a3",
      "contractAddress": null,
      "l1Fee": "0x3cd5667a45"
    }
  ],
  "libraries": [],
  "pending": [],
  "returns": {},
  "timestamp": 1731756376,
  "chain": 534351,
  "commit": "fa7e3d7"
}