{
  "transactions": [
    {
      "hash": "0x32d97aa05f68bdd02d1471192eca9dd7bdd94a52247aac2fca5a676f9714cdb3",
      "transactionType": "CALL",
      "contractName": null,
      "contractAddress": "0xe9839aecccc989c7f736e8c5a787591b1894f65c",
      "function": "setChainlessBalance(address)",
      "arguments": [
        "0x1d9F50D64511770695284D98E882Fb4B436191ad"
      ],
      "transaction": {
        "from": "0x1001f662c0de98e426870a9107f14a0c8c052aa0",
        "to": "0xe9839aecccc989c7f736e8c5a787591b1894f65c",
        "gas": "0xf95b",
        "value": "0x0",
        "input": "0xbb2119bc0000000000000000000000001d9f50d64511770695284d98e882fb4b436191ad",
        "nonce": "0x6",
        "chainId": "0x8274f"
      },
      "additionalContracts": [],
      "isFixedGasLimit": false
    },
    {
      "hash": "0x43d92e2a41342085fc8591d7aa4f246a307cbfb09fb83b469558b34e81701f08",
      "transactionType": "CALL",
      "contractName": null,
      "contractAddress": "0xe9839aecccc989c7f736e8c5a787591b1894f65c",
      "function": "setPeer(uint32,bytes32)",
      "arguments": [
        "40333",
        "0x000000000000000000000000e9839aecccc989c7f736e8c5a787591b1894f65c"
      ],
      "transaction": {
        "from": "0x1001f662c0de98e426870a9107f14a0c8c052aa0",
        "to": "0xe9839aecccc989c7f736e8c5a787591b1894f65c",
        "gas": "0x10135",
        "value": "0x0",
        "input": "0x3400288b0000000000000000000000000000000000000000000000000000000000009d8d000000000000000000000000e9839aecccc989c7f736e8c5a787591b1894f65c",
        "nonce": "0x7",
        "chainId": "0x8274f"
      },
      "additionalContracts": [],
      "isFixedGasLimit": false
    },
    {
      "hash": "0x4c68721237c4e8c2b0d0792dcbdb51eda6a46c9bb1e250c16f21a4f6be1377e8",
      "transactionType": "CALL",
      "contractName": null,
      "contractAddress": "0xe9839aecccc989c7f736e8c5a787591b1894f65c",
      "function": "setPeer(uint32,bytes32)",
      "arguments": [
        "40267",
        "0x000000000000000000000000e9839aecccc989c7f736e8c5a787591b1894f65c"
      ],
      "transaction": {
        "from": "0x1001f662c0de98e426870a9107f14a0c8c052aa0",
        "to": "0xe9839aecccc989c7f736e8c5a787591b1894f65c",
        "gas": "0x10135",
        "value": "0x0",
        "input": "0x3400288b0000000000000000000000000000000000000000000000000000000000009d4b000000000000000000000000e9839aecccc989c7f736e8c5a787591b1894f65c",
        "nonce": "0x8",
        "chainId": "0x8274f"
      },
      "additionalContracts": [],
      "isFixedGasLimit": false
    },
    {
      "hash": "0x726452765e47fcdc8f0ab7fd967d8840df76e73621fba40eb26f60cd3615134c",
      "transactionType": "CALL",
      "contractName": null,
      "contractAddress": "0xe9839aecccc989c7f736e8c5a787591b1894f65c",
      "function": "setPeer(uint32,bytes32)",
      "arguments": [
        "40275",
        "0x000000000000000000000000e9839aecccc989c7f736e8c5a787591b1894f65c"
      ],
      "transaction": {
        "from": "0x1001f662c0de98e426870a9107f14a0c8c052aa0",
        "to": "0xe9839aecccc989c7f736e8c5a787591b1894f65c",
        "gas": "0x10135",
        "value": "0x0",
        "input": "0x3400288b0000000000000000000000000000000000000000000000000000000000009d53000000000000000000000000e9839aecccc989c7f736e8c5a787591b1894f65c",
        "nonce": "0x9",
        "chainId": "0x8274f"
      },
      "additionalContracts": [],
      "isFixedGasLimit": false
    }
  ],
  "receipts": [
    {
      "status": "0x1",
      "cumulativeGasUsed": "0xb488",
      "logs": [],
      "logsBloom": "0x00000000000000000000000000000000000000000000000000000000000000000000000000000000000000000000000000000000000000000000000000000000000000000000000000000000000000000000000000000000000000000000000000000000000000000000000000000000000000000000000000000000000000000000000000000000000000000000000000000000000000000000000000000000000000000000000000000000000000000000000000000000000000000000000000000000000000000000000000000000000000000000000000000000000000000000000000000000000000000000000000000000000000000000000000000000",
      "type": "0x2",
      "transactionHash": "0x32d97aa05f68bdd02d1471192eca9dd7bdd94a52247aac2fca5a676f9714cdb3",
      "transactionIndex": "0x0",
      "blockHash": "0xeb60f3dcbb16898e0fb530a5d257cdb6c3ca3e60174b19f6a8cbd634789762b9",
      "blockNumber": "0x6f6801",
      "gasUsed": "0xb488",
      "effectiveGasPrice": "0x3b951453",
      "from": "0x1001f662c0de98e426870a9107f14a0c8c052aa0",
      "to": "0xe9839aecccc989c7f736e8c5a787591b1894f65c",
      "contractAddress": null,
      "l1Fee": "0x1befd702c1"
    },
    {
      "status": "0x1",
      "cumulativeGasUsed": "0xba37",
      "logs": [
        {
          "address": "0xe9839aecccc989c7f736e8c5a787591b1894f65c",
          "topics": [
            "0x238399d427b947898edb290f5ff0f9109849b1c3ba196a42e35f00c50a54b98b"
          ],
          "data": "0x0000000000000000000000000000000000000000000000000000000000009d8d000000000000000000000000e9839aecccc989c7f736e8c5a787591b1894f65c",
          "blockHash": "0x5472b364d25ece8d1d6130efde2f3141677775ad5acc06edc8aa060de6938396",
          "blockNumber": "0x6f6802",
          "transactionHash": "0x43d92e2a41342085fc8591d7aa4f246a307cbfb09fb83b469558b34e81701f08",
          "transactionIndex": "0x0",
          "logIndex": "0x0",
          "removed": false
        }
      ],
      "logsBloom": "0x00000000000000000000000000000000000000000000000000000000000000000000000000000000000000000000000000000000000000000800000000000000000000000000000000000000000000000000000000000000000000000000000000000000000000000000000000000000000000000000000000000000000000000000000000000000000000000000000000000000020000000000000000000000000000000000004000000000000000000000000000000000000002000000000000000000000000000000000000000000000000000008000000040000000000000000000000000000000000000000000000000000000000000000000000000000",
      "type": "0x2",
      "transactionHash": "0x43d92e2a41342085fc8591d7aa4f246a307cbfb09fb83b469558b34e81701f08",
      "transactionIndex": "0x0",
      "blockHash": "0x5472b364d25ece8d1d6130efde2f3141677775ad5acc06edc8aa060de6938396",
      "blockNumber": "0x6f6802",
      "gasUsed": "0xba37",
      "effectiveGasPrice": "0x3b951453",
      "from": "0x1001f662c0de98e426870a9107f14a0c8c052aa0",
      "to": "0xe9839aecccc989c7f736e8c5a787591b1894f65c",
      "contractAddress": null,
      "l1Fee": "0x1befd702cf"
    },
    {
      "status": "0x1",
      "cumulativeGasUsed": "0x1746e",
      "logs": [
        {
          "address": "0xe9839aecccc989c7f736e8c5a787591b1894f65c",
          "topics": [
            "0x238399d427b947898edb290f5ff0f9109849b1c3ba196a42e35f00c50a54b98b"
          ],
          "data": "0x0000000000000000000000000000000000000000000000000000000000009d4b000000000000000000000000e9839aecccc989c7f736e8c5a787591b1894f65c",
          "blockHash": "0x5472b364d25ece8d1d6130efde2f3141677775ad5acc06edc8aa060de6938396",
          "blockNumber": "0x6f6802",
          "transactionHash": "0x4c68721237c4e8c2b0d0792dcbdb51eda6a46c9bb1e250c16f21a4f6be1377e8",
          "transactionIndex": "0x1",
          "logIndex": "0x1",
          "removed": false
        }
      ],
      "logsBloom": "0x00000000000000000000000000000000000000000000000000000000000000000000000000000000000000000000000000000000000000000800000000000000000000000000000000000000000000000000000000000000000000000000000000000000000000000000000000000000000000000000000000000000000000000000000000000000000000000000000000000000020000000000000000000000000000000000004000000000000000000000000000000000000002000000000000000000000000000000000000000000000000000008000000040000000000000000000000000000000000000000000000000000000000000000000000000000",
      "type": "0x2",
      "transactionHash": "0x4c68721237c4e8c2b0d0792dcbdb51eda6a46c9bb1e250c16f21a4f6be1377e8",
      "transactionIndex": "0x1",
      "blockHash": "0x5472b364d25ece8d1d6130efde2f3141677775ad5acc06edc8aa060de6938396",
      "blockNumber": "0x6f6802",
      "gasUsed": "0xba37",
      "effectiveGasPrice": "0x3b951453",
      "from": "0x1001f662c0de98e426870a9107f14a0c8c052aa0",
      "to": "0xe9839aecccc989c7f736e8c5a787591b1894f65c",
      "contractAddress": null,
      "l1Fee": "0x1befd702cf"
    },
    {
      "status": "0x1",
      "cumulativeGasUsed": "0xba37",
      "logs": [
        {
          "address": "0xe9839aecccc989c7f736e8c5a787591b1894f65c",
          "topics": [
            "0x238399d427b947898edb290f5ff0f9109849b1c3ba196a42e35f00c50a54b98b"
          ],
          "data": "0x0000000000000000000000000000000000000000000000000000000000009d53000000000000000000000000e9839aecccc989c7f736e8c5a787591b1894f65c",
          "blockHash": "0xaf2a41ecd3cde8f5a4b0d9ec5b971ab3f2debba27c384bf93c1c785972bd1858",
          "blockNumber": "0x6f6803",
          "transactionHash": "0x726452765e47fcdc8f0ab7fd967d8840df76e73621fba40eb26f60cd3615134c",
          "transactionIndex": "0x0",
          "logIndex": "0x0",
          "removed": false
        }
      ],
      "logsBloom": "0x00000000000000000000000000000000000000000000000000000000000000000000000000000000000000000000000000000000000000000800000000000000000000000000000000000000000000000000000000000000000000000000000000000000000000000000000000000000000000000000000000000000000000000000000000000000000000000000000000000000020000000000000000000000000000000000004000000000000000000000000000000000000002000000000000000000000000000000000000000000000000000008000000040000000000000000000000000000000000000000000000000000000000000000000000000000",
      "type": "0x2",
      "transactionHash": "0x726452765e47fcdc8f0ab7fd967d8840df76e73621fba40eb26f60cd3615134c",
      "transactionIndex": "0x0",
      "blockHash": "0xaf2a41ecd3cde8f5a4b0d9ec5b971ab3f2debba27c384bf93c1c785972bd1858",
      "blockNumber": "0x6f6803",
      "gasUsed": "0xba37",
      "effectiveGasPrice": "0x3b951453",
      "from": "0x1001f662c0de98e426870a9107f14a0c8c052aa0",
      "to": "0xe9839aecccc989c7f736e8c5a787591b1894f65c",
      "contractAddress": null,
      "l1Fee": "0x1befd702cf"
    }
  ],
  "libraries": [],
  "pending": [],
  "returns": {},
  "timestamp": 1731741471,
  "chain": 534351,
  "commit": "fa7e3d7"
}