{
  "transactions": [
    {
      "hash": "0xe706a00a752447dcae26d7638f7304cfd339fc525ba335c8b8800975bd952167",
      "transactionType": "CALL",
      "contractName": null,
      "contractAddress": "0x9dde77b61fc4f08177f14cb254148bf7cc85a8c5",
      "function": "setPeer(uint32,bytes32)",
      "arguments": [
        "40333",
        "0x0000000000000000000000009dde77b61fc4f08177f14cb254148bf7cc85a8c5"
      ],
      "transaction": {
        "from": "0x11110dbc48603b706792aa52671a1439d0f4da63",
        "to": "0x9dde77b61fc4f08177f14cb254148bf7cc85a8c5",
        "gas": "0x9ea6",
        "value": "0x0",
        "input": "0x3400288b0000000000000000000000000000000000000000000000000000000000009d8d0000000000000000000000009dde77b61fc4f08177f14cb254148bf7cc85a8c5",
        "nonce": "0xb",
        "chainId": "0x8274f"
      },
      "additionalContracts": [],
      "isFixedGasLimit": false
    },
    {
      "hash": "0xe961be76d58709f9c165dd9439349a36994b0c0d1e5acf4583ee1dd63e87e659",
      "transactionType": "CALL",
      "contractName": null,
      "contractAddress": "0x9dde77b61fc4f08177f14cb254148bf7cc85a8c5",
      "function": "setPeer(uint32,bytes32)",
      "arguments": [
        "40267",
        "0x0000000000000000000000009dde77b61fc4f08177f14cb254148bf7cc85a8c5"
      ],
      "transaction": {
        "from": "0x11110dbc48603b706792aa52671a1439d0f4da63",
        "to": "0x9dde77b61fc4f08177f14cb254148bf7cc85a8c5",
        "gas": "0x9ea6",
        "value": "0x0",
        "input": "0x3400288b0000000000000000000000000000000000000000000000000000000000009d4b0000000000000000000000009dde77b61fc4f08177f14cb254148bf7cc85a8c5",
        "nonce": "0xc",
        "chainId": "0x8274f"
      },
      "additionalContracts": [],
      "isFixedGasLimit": false
    },
    {
      "hash": "0x1a1bae67c66cd778aed489db12c52f4262641a3e17b9b9f75fcb4010044d9903",
      "transactionType": "CALL",
      "contractName": null,
      "contractAddress": "0x9dde77b61fc4f08177f14cb254148bf7cc85a8c5",
      "function": "setPeer(uint32,bytes32)",
      "arguments": [
        "40275",
        "0x0000000000000000000000009dde77b61fc4f08177f14cb254148bf7cc85a8c5"
      ],
      "transaction": {
        "from": "0x11110dbc48603b706792aa52671a1439d0f4da63",
        "to": "0x9dde77b61fc4f08177f14cb254148bf7cc85a8c5",
        "gas": "0x10135",
        "value": "0x0",
        "input": "0x3400288b0000000000000000000000000000000000000000000000000000000000009d530000000000000000000000009dde77b61fc4f08177f14cb254148bf7cc85a8c5",
        "nonce": "0xd",
        "chainId": "0x8274f"
      },
      "additionalContracts": [],
      "isFixedGasLimit": false
    }
  ],
  "receipts": [
    {
      "status": "0x1",
      "cumulativeGasUsed": "0x6c7b",
      "logs": [
        {
          "address": "0x9dde77b61fc4f08177f14cb254148bf7cc85a8c5",
          "topics": [
            "0x238399d427b947898edb290f5ff0f9109849b1c3ba196a42e35f00c50a54b98b"
          ],
          "data": "0x0000000000000000000000000000000000000000000000000000000000009d8d0000000000000000000000009dde77b61fc4f08177f14cb254148bf7cc85a8c5",
          "blockHash": "0xec3c655890b4d4f0ec67e67f9aa6d3f79df9f7a288ed137d6193c0a8d29ccc7a",
          "blockNumber": "0x6f6bbe",
          "transactionHash": "0xe706a00a752447dcae26d7638f7304cfd339fc525ba335c8b8800975bd952167",
          "transactionIndex": "0x0",
          "logIndex": "0x0",
          "removed": false
        }
      ],
      "logsBloom": "0x00000000000000000000000000000000000000000000000000000000000000000000000000000000000000000000000000000000000800000800000000000000000000000000000000000000000000000000040000000000000000000000000000000000000000000000000000000000000000000000000000000000000000000000000000000000000000000000000000000000000000000000000000000000000000000000000000000000000000000000000000000000000002000000000000000000001000000000000000000000000000000000000000040000000000000000000000000000000000000000000000000000000000000000000000000000",
      "type": "0x0",
      "transactionHash": "0xe706a00a752447dcae26d7638f7304cfd339fc525ba335c8b8800975bd952167",
      "transactionIndex": "0x0",
      "blockHash": "0xec3c655890b4d4f0ec67e67f9aa6d3f79df9f7a288ed137d6193c0a8d29ccc7a",
      "blockNumber": "0x6f6bbe",
      "gasUsed": "0x6c7b",
      "effectiveGasPrice": "0x4aa2e7ff0",
      "from": "0x11110dbc48603b706792aa52671a1439d0f4da63",
      "to": "0x9dde77b61fc4f08177f14cb254148bf7cc85a8c5",
      "contractAddress": null,
      "l1Fee": "0x5d9e96cd27"
    },
    {
      "status": "0x1",
      "cumulativeGasUsed": "0xd8f6",
      "logs": [
        {
          "address": "0x9dde77b61fc4f08177f14cb254148bf7cc85a8c5",
          "topics": [
            "0x238399d427b947898edb290f5ff0f9109849b1c3ba196a42e35f00c50a54b98b"
          ],
          "data": "0x0000000000000000000000000000000000000000000000000000000000009d4b0000000000000000000000009dde77b61fc4f08177f14cb254148bf7cc85a8c5",
          "blockHash": "0xec3c655890b4d4f0ec67e67f9aa6d3f79df9f7a288ed137d6193c0a8d29ccc7a",
          "blockNumber": "0x6f6bbe",
          "transactionHash": "0xe961be76d58709f9c165dd9439349a36994b0c0d1e5acf4583ee1dd63e87e659",
          "transactionIndex": "0x1",
          "logIndex": "0x1",
          "removed": false
        }
      ],
      "logsBloom": "0x00000000000000000000000000000000000000000000000000000000000000000000000000000000000000000000000000000000000800000800000000000000000000000000000000000000000000000000040000000000000000000000000000000000000000000000000000000000000000000000000000000000000000000000000000000000000000000000000000000000000000000000000000000000000000000000000000000000000000000000000000000000000002000000000000000000001000000000000000000000000000000000000000040000000000000000000000000000000000000000000000000000000000000000000000000000",
      "type": "0x0",
      "transactionHash": "0xe961be76d58709f9c165dd9439349a36994b0c0d1e5acf4583ee1dd63e87e659",
      "transactionIndex": "0x1",
      "blockHash": "0xec3c655890b4d4f0ec67e67f9aa6d3f79df9f7a288ed137d6193c0a8d29ccc7a",
      "blockNumber": "0x6f6bbe",
      "gasUsed": "0x6c7b",
      "effectiveGasPrice": "0x4aa2e7ff0",
      "from": "0x11110dbc48603b706792aa52671a1439d0f4da63",
      "to": "0x9dde77b61fc4f08177f14cb254148bf7cc85a8c5",
      "contractAddress": null,
      "l1Fee": "0x5d9e96cd27"
    },
    {
      "status": "0x1",
      "cumulativeGasUsed": "0x1932d",
      "logs": [
        {
          "address": "0x9dde77b61fc4f08177f14cb254148bf7cc85a8c5",
          "topics": [
            "0x238399d427b947898edb290f5ff0f9109849b1c3ba196a42e35f00c50a54b98b"
          ],
          "data": "0x0000000000000000000000000000000000000000000000000000000000009d530000000000000000000000009dde77b61fc4f08177f14cb254148bf7cc85a8c5",
          "blockHash": "0xec3c655890b4d4f0ec67e67f9aa6d3f79df9f7a288ed137d6193c0a8d29ccc7a",
          "blockNumber": "0x6f6bbe",
          "transactionHash": "0x1a1bae67c66cd778aed489db12c52f4262641a3e17b9b9f75fcb4010044d9903",
          "transactionIndex": "0x2",
          "logIndex": "0x2",
          "removed": false
        }
      ],
      "logsBloom": "0x00000000000000000000000000000000000000000000000000000000000000000000000000000000000000000000000000000000000800000800000000000000000000000000000000000000000000000000040000000000000000000000000000000000000000000000000000000000000000000000000000000000000000000000000000000000000000000000000000000000000000000000000000000000000000000000000000000000000000000000000000000000000002000000000000000000001000000000000000000000000000000000000000040000000000000000000000000000000000000000000000000000000000000000000000000000",
      "type": "0x0",
      "transactionHash": "0x1a1bae67c66cd778aed489db12c52f4262641a3e17b9b9f75fcb4010044d9903",
      "transactionIndex": "0x2",
      "blockHash": "0xec3c655890b4d4f0ec67e67f9aa6d3f79df9f7a288ed137d6193c0a8d29ccc7a",
      "blockNumber": "0x6f6bbe",
      "gasUsed": "0xba37",
      "effectiveGasPrice": "0x4aa2e7ff0",
      "from": "0x11110dbc48603b706792aa52671a1439d0f4da63",
      "to": "0x9dde77b61fc4f08177f14cb254148bf7cc85a8c5",
      "contractAddress": null,
      "l1Fee": "0x5d9e96cd27"
    }
  ],
  "libraries": [],
  "pending": [],
  "returns": {},
  "timestamp": 1731750164,
  "chain": 534351,
  "commit": "fa7e3d7"
}