{
  "transactions": [
    {
      "hash": "0x0cf1c7fa14f157833b08389fbc7bc803d8bd5940b78a35f49b1e67c0205483dc",
      "transactionType": "CALL",
      "contractName": null,
      "contractAddress": "0x5ec52789ee47241b40bcf758ae913f1ad4f783d6",
      "function": "setPeer(uint32,bytes32)",
      "arguments": [
        "40333",
        "0x0000000000000000000000007cfa3f1199f2a48eafb69b3a0d80234b98516110"
      ],
      "transaction": {
        "from": "0x1001f662c0de98e426870a9107f14a0c8c052aa0",
        "to": "0x5ec52789ee47241b40bcf758ae913f1ad4f783d6",
        "gas": "0x10135",
        "value": "0x0",
        "input": "0x3400288b0000000000000000000000000000000000000000000000000000000000009d8d0000000000000000000000007cfa3f1199f2a48eafb69b3a0d80234b98516110",
        "nonce": "0xf",
        "chainId": "0x8274f"
      },
      "additionalContracts": [],
      "isFixedGasLimit": false
    },
    {
      "hash": "0xd31971a1e2cbe151e0aea37ce412e459503df01df155d2c6c9dd7c722a93fbe6",
      "transactionType": "CALL",
      "contractName": null,
      "contractAddress": "0x5ec52789ee47241b40bcf758ae913f1ad4f783d6",
      "function": "setPeer(uint32,bytes32)",
      "arguments": [
        "40267",
        "0x0000000000000000000000007cfa3f1199f2a48eafb69b3a0d80234b98516110"
      ],
      "transaction": {
        "from": "0x1001f662c0de98e426870a9107f14a0c8c052aa0",
        "to": "0x5ec52789ee47241b40bcf758ae913f1ad4f783d6",
        "gas": "0x10135",
        "value": "0x0",
        "input": "0x3400288b0000000000000000000000000000000000000000000000000000000000009d4b0000000000000000000000007cfa3f1199f2a48eafb69b3a0d80234b98516110",
        "nonce": "0x10",
        "chainId": "0x8274f"
      },
      "additionalContracts": [],
      "isFixedGasLimit": false
    },
    {
      "hash": "0x29cbbc38f5ffa94c118be6df65267fb58bfcf1c661c4792b533d2e3ad8720ffa",
      "transactionType": "CALL",
      "contractName": null,
      "contractAddress": "0x5ec52789ee47241b40bcf758ae913f1ad4f783d6",
      "function": "setPeer(uint32,bytes32)",
      "arguments": [
        "40275",
        "0x0000000000000000000000007cfa3f1199f2a48eafb69b3a0d80234b98516110"
      ],
      "transaction": {
        "from": "0x1001f662c0de98e426870a9107f14a0c8c052aa0",
        "to": "0x5ec52789ee47241b40bcf758ae913f1ad4f783d6",
        "gas": "0x10135",
        "value": "0x0",
        "input": "0x3400288b0000000000000000000000000000000000000000000000000000000000009d530000000000000000000000007cfa3f1199f2a48eafb69b3a0d80234b98516110",
        "nonce": "0x11",
        "chainId": "0x8274f"
      },
      "additionalContracts": [],
      "isFixedGasLimit": false
    }
  ],
  "receipts": [
    {
      "status": "0x1",
      "cumulativeGasUsed": "0xba37",
      "logs": [
        {
          "address": "0x5ec52789ee47241b40bcf758ae913f1ad4f783d6",
          "topics": [
            "0x238399d427b947898edb290f5ff0f9109849b1c3ba196a42e35f00c50a54b98b"
          ],
          "data": "0x0000000000000000000000000000000000000000000000000000000000009d8d0000000000000000000000007cfa3f1199f2a48eafb69b3a0d80234b98516110",
          "blockHash": "0x59448b7c694b3ad52796aff076a6fc336a8cc5409325db46d9699fa1154c5dc3",
          "blockNumber": "0x6f6966",
          "transactionHash": "0x0cf1c7fa14f157833b08389fbc7bc803d8bd5940b78a35f49b1e67c0205483dc",
          "transactionIndex": "0x0",
          "logIndex": "0x0",
          "removed": false
        }
      ],
      "logsBloom": "0x00000100000000000000000000000000000000000000000000000000000000000000000000000000000000000000000000000000000000000800000000000000000000000000000000000000000000000000000000000000000000000000100000000000000000000000000000000000000000000000000000000000000000000000000000000000000000000000000000000000000000000000000000000000000000000000000000000000000000000000000000000000000002000000000000000000000000000000000000000000000000000000000000040000000000000000000000000000000000000000080000000000000000000000000000000000",
      "type": "0x2",
      "transactionHash": "0x0cf1c7fa14f157833b08389fbc7bc803d8bd5940b78a35f49b1e67c0205483dc",
      "transactionIndex": "0x0",
      "blockHash": "0x59448b7c694b3ad52796aff076a6fc336a8cc5409325db46d9699fa1154c5dc3",
      "blockNumber": "0x6f6966",
      "gasUsed": "0xba37",
      "effectiveGasPrice": "0x3b9507e9",
      "from": "0x1001f662c0de98e426870a9107f14a0c8c052aa0",
      "to": "0x5ec52789ee47241b40bcf758ae913f1ad4f783d6",
      "contractAddress": null,
      "l1Fee": "0x1c6fced292"
    },
    {
      "status": "0x1",
      "cumulativeGasUsed": "0x1746e",
      "logs": [
        {
          "address": "0x5ec52789ee47241b40bcf758ae913f1ad4f783d6",
          "topics": [
            "0x238399d427b947898edb290f5ff0f9109849b1c3ba196a42e35f00c50a54b98b"
          ],
          "data": "0x0000000000000000000000000000000000000000000000000000000000009d4b0000000000000000000000007cfa3f1199f2a48eafb69b3a0d80234b98516110",
          "blockHash": "0x59448b7c694b3ad52796aff076a6fc336a8cc5409325db46d9699fa1154c5dc3",
          "blockNumber": "0x6f6966",
          "transactionHash": "0xd31971a1e2cbe151e0aea37ce412e459503df01df155d2c6c9dd7c722a93fbe6",
          "transactionIndex": "0x1",
          "logIndex": "0x1",
          "removed": false
        }
      ],
      "logsBloom": "0x00000100000000000000000000000000000000000000000000000000000000000000000000000000000000000000000000000000000000000800000000000000000000000000000000000000000000000000000000000000000000000000100000000000000000000000000000000000000000000000000000000000000000000000000000000000000000000000000000000000000000000000000000000000000000000000000000000000000000000000000000000000000002000000000000000000000000000000000000000000000000000000000000040000000000000000000000000000000000000000080000000000000000000000000000000000",
      "type": "0x2",
      "transactionHash": "0xd31971a1e2cbe151e0aea37ce412e459503df01df155d2c6c9dd7c722a93fbe6",
      "transactionIndex": "0x1",
      "blockHash": "0x59448b7c694b3ad52796aff076a6fc336a8cc5409325db46d9699fa1154c5dc3",
      "blockNumber": "0x6f6966",
      "gasUsed": "0xba37",
      "effectiveGasPrice": "0x3b9507e9",
      "from": "0x1001f662c0de98e426870a9107f14a0c8c052aa0",
      "to": "0x5ec52789ee47241b40bcf758ae913f1ad4f783d6",
      "contractAddress": null,
      "l1Fee": "0x1c6fced292"
    },
    {
      "status": "0x1",
      "cumulativeGasUsed": "0x22ea5",
      "logs": [
        {
          "address": "0x5ec52789ee47241b40bcf758ae913f1ad4f783d6",
          "topics": [
            "0x238399d427b947898edb290f5ff0f9109849b1c3ba196a42e35f00c50a54b98b"
          ],
          "data": "0x0000000000000000000000000000000000000000000000000000000000009d530000000000000000000000007cfa3f1199f2a48eafb69b3a0d80234b98516110",
          "blockHash": "0x59448b7c694b3ad52796aff076a6fc336a8cc5409325db46d9699fa1154c5dc3",
          "blockNumber": "0x6f6966",
          "transactionHash": "0x29cbbc38f5ffa94c118be6df65267fb58bfcf1c661c4792b533d2e3ad8720ffa",
          "transactionIndex": "0x2",
          "logIndex": "0x2",
          "removed": false
        }
      ],
      "logsBloom": "0x00000100000000000000000000000000000000000000000000000000000000000000000000000000000000000000000000000000000000000800000000000000000000000000000000000000000000000000000000000000000000000000100000000000000000000000000000000000000000000000000000000000000000000000000000000000000000000000000000000000000000000000000000000000000000000000000000000000000000000000000000000000000002000000000000000000000000000000000000000000000000000000000000040000000000000000000000000000000000000000080000000000000000000000000000000000",
      "type": "0x2",
      "transactionHash": "0x29cbbc38f5ffa94c118be6df65267fb58bfcf1c661c4792b533d2e3ad8720ffa",
      "transactionIndex": "0x2",
      "blockHash": "0x59448b7c694b3ad52796aff076a6fc336a8cc5409325db46d9699fa1154c5dc3",
      "blockNumber": "0x6f6966",
      "gasUsed": "0xba37",
      "effectiveGasPrice": "0x3b9507e9",
      "from": "0x1001f662c0de98e426870a9107f14a0c8c052aa0",
      "to": "0x5ec52789ee47241b40bcf758ae913f1ad4f783d6",
      "contractAddress": null,
      "l1Fee": "0x1c6fced292"
    }
  ],
  "libraries": [],
  "pending": [],
  "returns": {},
  "timestamp": 1731744453,
  "chain": 534351,
  "commit": "fa7e3d7"
}