{
  "transactions": [
    {
      "hash": null,
      "transactionType": "CALL",
      "contractName": null,
      "contractAddress": "0xac45aaab89741702a9a0083e28fbcfe28ffe7a96",
      "function": "setPeer(uint32,bytes32)",
      "arguments": [
        "40333",
        "0x000000000000000000000000ac45aaab89741702a9a0083e28fbcfe28ffe7a96"
      ],
      "transaction": {
        "from": "0x66666f4f66cc6a5bb6a7e73971e85eddf3b638c1",
        "to": "0xac45aaab89741702a9a0083e28fbcfe28ffe7a96",
        "gas": "0x9ea6",
        "value": "0x0",
        "input": "0x3400288b0000000000000000000000000000000000000000000000000000000000009d8d000000000000000000000000ac45aaab89741702a9a0083e28fbcfe28ffe7a96",
        "nonce": "0xb",
        "chainId": "0x8274f"
      },
      "additionalContracts": [],
      "isFixedGasLimit": false
    },
    {
      "hash": null,
      "transactionType": "CALL",
      "contractName": null,
      "contractAddress": "0xac45aaab89741702a9a0083e28fbcfe28ffe7a96",
      "function": "setPeer(uint32,bytes32)",
      "arguments": [
        "40267",
        "0x000000000000000000000000ac45aaab89741702a9a0083e28fbcfe28ffe7a96"
      ],
      "transaction": {
        "from": "0x66666f4f66cc6a5bb6a7e73971e85eddf3b638c1",
        "to": "0xac45aaab89741702a9a0083e28fbcfe28ffe7a96",
        "gas": "0x9ea6",
        "value": "0x0",
        "input": "0x3400288b0000000000000000000000000000000000000000000000000000000000009d4b000000000000000000000000ac45aaab89741702a9a0083e28fbcfe28ffe7a96",
        "nonce": "0xc",
        "chainId": "0x8274f"
      },
      "additionalContracts": [],
      "isFixedGasLimit": false
    },
    {
      "hash": null,
      "transactionType": "CALL",
      "contractName": null,
      "contractAddress": "0xac45aaab89741702a9a0083e28fbcfe28ffe7a96",
      "function": "setPeer(uint32,bytes32)",
      "arguments": [
        "40275",
        "0x000000000000000000000000ac45aaab89741702a9a0083e28fbcfe28ffe7a96"
      ],
      "transaction": {
        "from": "0x66666f4f66cc6a5bb6a7e73971e85eddf3b638c1",
        "to": "0xac45aaab89741702a9a0083e28fbcfe28ffe7a96",
        "gas": "0x10135",
        "value": "0x0",
        "input": "0x3400288b0000000000000000000000000000000000000000000000000000000000009d53000000000000000000000000ac45aaab89741702a9a0083e28fbcfe28ffe7a96",
        "nonce": "0xd",
        "chainId": "0x8274f"
      },
      "additionalContracts": [],
      "isFixedGasLimit": false
    }
  ],
  "receipts": [],
  "libraries": [],
  "pending": [],
  "returns": {},
  "timestamp": 1731753467,
  "chain": 534351,
  "commit": "fa7e3d7"
}