{
  "transactions": [
    {
      "hash": "0x5cce24147169501543154fa56fef1d81cab482c2ca140177a1fea39fc38d67b1",
      "transactionType": "CALL",
      "contractName": null,
      "contractAddress": "0xa8ff03a3af16a07e505fa7b5c1e3e2726d9787a3",
      "function": "mint(address,uint256)",
      "arguments": [
        "0x1337FA1246e4ABfFEFe3Ddd288968b4837FC6C8b",
        "1000000000000000000"
      ],
      "transaction": {
        "from": "0x12348e0f1d209896a76768a283b2b5dd42c9f460",
        "to": "0xa8ff03a3af16a07e505fa7b5c1e3e2726d9787a3",
        "gas": "0x9eb6b",
        "value": "0x0",
        "input": "0x40c10f190000000000000000000000001337fa1246e4abffefe3ddd288968b4837fc6c8b0000000000000000000000000000000000000000000000000de0b6b3a7640000",
        "nonce": "0xc",
        "chainId": "0xbf03"
      },
      "additionalContracts": [],
      "isFixedGasLimit": false
    }
  ],
  "receipts": [
    {
      "status": "0x1",
      "cumulativeGasUsed": "0x77c20",
      "logs": [
        {
          "address": "0xa8ff03a3af16a07e505fa7b5c1e3e2726d9787a3",
          "topics": [
            "0xddf252ad1be2c89b69c2b068fc378daa952ba7f163c4a11628f55a4df523b3ef",
            "0x0000000000000000000000000000000000000000000000000000000000000000",
            "0x0000000000000000000000001337fa1246e4abffefe3ddd288968b4837fc6c8b"
          ],
          "data": "0x0000000000000000000000000000000000000000000000000de0b6b3a7640000",
          "blockHash": "0xc746f08117b04f08547ce0ea864af1f6c98451c6a27e5520386ed91875bf6996",
          "blockNumber": "0xf3125f",
          "transactionHash": "0x5cce24147169501543154fa56fef1d81cab482c2ca140177a1fea39fc38d67b1",
          "transactionIndex": "0x1",
          "logIndex": "0x0",
          "removed": false
        },
        {
          "address": "0x114f9afb1dce419e06d6709cfa87954378cf492e",
          "topics": [
            "0xa9e1ff5715b5aed67dc27885cb87744c904efebc619f91795092541bc777898f",
            "0x0000000000000000000000001337fa1246e4abffefe3ddd288968b4837fc6c8b"
          ],
          "data": "0x0000000000000000000000000000000000000000000000000000000000009d530000000000000000000000000000000000000000000000000de0b6b3a7640000",
          "blockHash": "0xc746f08117b04f08547ce0ea864af1f6c98451c6a27e5520386ed91875bf6996",
          "blockNumber": "0xf3125f",
          "transactionHash": "0x5cce24147169501543154fa56fef1d81cab482c2ca140177a1fea39fc38d67b1",
          "transactionIndex": "0x1",
          "logIndex": "0x1",
          "removed": false
        },
        {
          "address": "0x45841dd1ca50265da7614fc43a361e526c0e6160",
          "topics": [
            "0x61ed099e74a97a1d7f8bb0952a88ca8b7b8ebd00c126ea04671f92a81213318a"
          ],
          "data": "0x00000000000000000000000012523de19dc41c91f7d2093e0cfbb76b17012c8d000000000000000000000000000000000000000000000000000035de98273c34",
          "blockHash": "0xc746f08117b04f08547ce0ea864af1f6c98451c6a27e5520386ed91875bf6996",
          "blockNumber": "0xf3125f",
          "transactionHash": "0x5cce24147169501543154fa56fef1d81cab482c2ca140177a1fea39fc38d67b1",
          "transactionIndex": "0x1",
          "logIndex": "0x2",
          "removed": false
        },
        {
          "address": "0x45841dd1ca50265da7614fc43a361e526c0e6160",
          "topics": [
            "0x07ea52d82345d6e838192107d8fd7123d9c2ec8e916cd0aad13fd2b60db24644"
          ],
          "data": "0x000000000000000000000000000000000000000000000000000000000000006000000000000000000000000000000000000000000000000000000000000000a000000000000000000000000000000000000000000000000000000000000000c0000000000000000000000000000000000000000000000000000000000000000100000000000000000000000088b27057a9e00c5f05dda29241027aff63f9e6e000000000000000000000000000000000000000000000000000000000000000000000000000000000000000000000000000000000000000000000000000000001000000000000000000000000000000000000000000000000000002b1879b8fcf",
          "blockHash": "0xc746f08117b04f08547ce0ea864af1f6c98451c6a27e5520386ed91875bf6996",
          "blockNumber": "0xf3125f",
          "transactionHash": "0x5cce24147169501543154fa56fef1d81cab482c2ca140177a1fea39fc38d67b1",
          "transactionIndex": "0x1",
          "logIndex": "0x3",
          "removed": false
        },
        {
          "address": "0x6edce65403992e310a62460808c4b910d972f10f",
          "topics": [
            "0x1ab700d4ced0c005b164c0f789fd09fcbb0156d4c2041b8a3bfbcd961cd1567f"
          ],
          "data": "0x0000000000000000000000000000000000000000000000000000000000000060000000000000000000000000000000000000000000000000000000000000014000000000000000000000000045841dd1ca50265da7614fc43a361e526c0e616000000000000000000000000000000000000000000000000000000000000000b101000000000000000200009d53000000000000000000000000114f9afb1dce419e06d6709cfa87954378cf492e00009cea000000000000000000000000114f9afb1dce419e06d6709cfa87954378cf492ee338cb96c3267f000d233dc87ef22e74c57c92052539018e06c02862b1587bc10000000000000000000000001337fa1246e4abffefe3ddd288968b4837fc6c8b0000000000000000000000000000000000000000000000000de0b6b3a764000000000000000000000000000000000000000000000000000000000000000000000000000000000000000000000000160003010011010000000000000000000000000001388000000000000000000000",
          "blockHash": "0xc746f08117b04f08547ce0ea864af1f6c98451c6a27e5520386ed91875bf6996",
          "blockNumber": "0xf3125f",
          "transactionHash": "0x5cce24147169501543154fa56fef1d81cab482c2ca140177a1fea39fc38d67b1",
          "transactionIndex": "0x1",
          "logIndex": "0x4",
          "removed": false
        },
        {
          "address": "0x45841dd1ca50265da7614fc43a361e526c0e6160",
          "topics": [
            "0x61ed099e74a97a1d7f8bb0952a88ca8b7b8ebd00c126ea04671f92a81213318a"
          ],
          "data": "0x00000000000000000000000012523de19dc41c91f7d2093e0cfbb76b17012c8d0000000000000000000000000000000000000000000000000000375575c39b5a",
          "blockHash": "0xc746f08117b04f08547ce0ea864af1f6c98451c6a27e5520386ed91875bf6996",
          "blockNumber": "0xf3125f",
          "transactionHash": "0x5cce24147169501543154fa56fef1d81cab482c2ca140177a1fea39fc38d67b1",
          "transactionIndex": "0x1",
          "logIndex": "0x5",
          "removed": false
        },
        {
          "address": "0x45841dd1ca50265da7614fc43a361e526c0e6160",
          "topics": [
            "0x07ea52d82345d6e838192107d8fd7123d9c2ec8e916cd0aad13fd2b60db24644"
          ],
          "data": "0x000000000000000000000000000000000000000000000000000000000000006000000000000000000000000000000000000000000000000000000000000000a000000000000000000000000000000000000000000000000000000000000000c0000000000000000000000000000000000000000000000000000000000000000100000000000000000000000088b27057a9e00c5f05dda29241027aff63f9e6e0000000000000000000000000000000000000000000000000000000000000000000000000000000000000000000000000000000000000000000000000000000010000000000000000000000000000000000000000000000000000038f61c9d282",
          "blockHash": "0xc746f08117b04f08547ce0ea864af1f6c98451c6a27e5520386ed91875bf6996",
          "blockNumber": "0xf3125f",
          "transactionHash": "0x5cce24147169501543154fa56fef1d81cab482c2ca140177a1fea39fc38d67b1",
          "transactionIndex": "0x1",
          "logIndex": "0x6",
          "removed": false
        },
        {
          "address": "0x6edce65403992e310a62460808c4b910d972f10f",
          "topics": [
            "0x1ab700d4ced0c005b164c0f789fd09fcbb0156d4c2041b8a3bfbcd961cd1567f"
          ],
          "data": "0x0000000000000000000000000000000000000000000000000000000000000060000000000000000000000000000000000000000000000000000000000000014000000000000000000000000045841dd1ca50265da7614fc43a361e526c0e616000000000000000000000000000000000000000000000000000000000000000b101000000000000000200009d53000000000000000000000000114f9afb1dce419e06d6709cfa87954378cf492e00009d4b000000000000000000000000114f9afb1dce419e06d6709cfa87954378cf492e691d4bdd2a36463949d322c18311a4af01f1bf28f1919fb318ae528141c0583a0000000000000000000000001337fa1246e4abffefe3ddd288968b4837fc6c8b0000000000000000000000000000000000000000000000000de0b6b3a764000000000000000000000000000000000000000000000000000000000000000000000000000000000000000000000000160003010011010000000000000000000000000001388000000000000000000000",
          "blockHash": "0xc746f08117b04f08547ce0ea864af1f6c98451c6a27e5520386ed91875bf6996",
          "blockNumber": "0xf3125f",
          "transactionHash": "0x5cce24147169501543154fa56fef1d81cab482c2ca140177a1fea39fc38d67b1",
          "transactionIndex": "0x1",
          "logIndex": "0x7",
          "removed": false
        },
        {
          "address": "0x114f9afb1dce419e06d6709cfa87954378cf492e",
          "topics": [
            "0x8049d4304a9f9bc385d277ac94ec6bac29ab0e8726ce4de2b4e1cb1324872f91",
            "0x0000000000000000000000001337fa1246e4abffefe3ddd288968b4837fc6c8b"
          ],
          "data": "0x0000000000000000000000000000000000000000000000000de0b6b3a7640000",
          "blockHash": "0xc746f08117b04f08547ce0ea864af1f6c98451c6a27e5520386ed91875bf6996",
          "blockNumber": "0xf3125f",
          "transactionHash": "0x5cce24147169501543154fa56fef1d81cab482c2ca140177a1fea39fc38d67b1",
          "transactionIndex": "0x1",
          "logIndex": "0x8",
          "removed": false
        }
      ],
      "logsBloom": "0x00000014000000000000000000000000000000000000000000000000000000000000002000000000300000000024000000000000000000000000000000000000000000000000000000000008000000000000000000000000000000000000000000000000020000008200000000000a000800000000000000000000100000001000000000000000200040000800000000000000000000000000000000000000000000000080000000001000000000010000000000004000000004c0000040000010000002000000000000000000100000000000000000000000000000000030000000040000000002000000002000002000000000000000000000000000000000",
      "type": "0x2",
      "transactionHash": "0x5cce24147169501543154fa56fef1d81cab482c2ca140177a1fea39fc38d67b1",
      "transactionIndex": "0x1",
      "blockHash": "0xc746f08117b04f08547ce0ea864af1f6c98451c6a27e5520386ed91875bf6996",
      "blockNumber": "0xf3125f",
      "gasUsed": "0x6c85b",
      "effectiveGasPrice": "0xfe",
      "from": "0x12348e0f1d209896a76768a283b2b5dd42c9f460",
      "to": "0xa8ff03a3af16a07e505fa7b5c1e3e2726d9787a3",
      "contractAddress": null,
      "l1Fee": "0x204513fef",
      "l1GasPrice": "0xa1d89689",
      "l1GasUsed": "0x91c"
    }
  ],
  "libraries": [],
  "pending": [],
  "returns": {},
  "timestamp": 1731757729,
  "chain": 48899,
  "commit": "fa7e3d7"
}