{
  "transactions": [
    {
      "hash": "0x6f8e006eb675a5a0e326f5e81223f8a9f222cc91ab91d6a5dabdcf9a907365bf",
      "transactionType": "CALL",
      "contractName": null,
      "contractAddress": "0x753da027758f33f9df35b8529fa9b2e78664dfe5",
      "function": "mint(address,uint256)",
      "arguments": [
        "0x1337FA1246e4ABfFEFe3Ddd288968b4837FC6C8b",
        "100000000000000000000"
      ],
      "transaction": {
        "from": "0x77774a499f484378e71e6692832b6abf0b2350d4",
        "to": "0x753da027758f33f9df35b8529fa9b2e78664dfe5",
        "gas": "0x8052d",
        "value": "0x0",
        "input": "0x40c10f190000000000000000000000001337fa1246e4abffefe3ddd288968b4837fc6c8b0000000000000000000000000000000000000000000000056bc75e2d63100000",
        "nonce": "0x8",
        "chainId": "0xbf03"
      },
      "additionalContracts": [],
      "isFixedGasLimit": false
    }
  ],
  "receipts": [
    {
      "status": "0x1",
      "cumulativeGasUsed": "0x68248",
      "logs": [
        {
          "address": "0x753da027758f33f9df35b8529fa9b2e78664dfe5",
          "topics": [
            "0xddf252ad1be2c89b69c2b068fc378daa952ba7f163c4a11628f55a4df523b3ef",
            "0x0000000000000000000000000000000000000000000000000000000000000000",
            "0x0000000000000000000000001337fa1246e4abffefe3ddd288968b4837fc6c8b"
          ],
          "data": "0x0000000000000000000000000000000000000000000000056bc75e2d63100000",
          "blockHash": "0x1803b16c2e67d6b7a40f2b051335ba91ef04c2c9682851cc4ee631915e2deaaa",
          "blockNumber": "0xf33c4e",
          "transactionHash": "0x6f8e006eb675a5a0e326f5e81223f8a9f222cc91ab91d6a5dabdcf9a907365bf",
          "transactionIndex": "0x1",
          "logIndex": "0x0",
          "removed": false
        },
        {
          "address": "0xd2da8680ffdbe5136ebbb26928df635d9cb79a0f",
          "topics": [
            "0xa9e1ff5715b5aed67dc27885cb87744c904efebc619f91795092541bc777898f",
            "0x0000000000000000000000001337fa1246e4abffefe3ddd288968b4837fc6c8b"
          ],
          "data": "0x0000000000000000000000000000000000000000000000000000000000009d530000000000000000000000000000000000000000000000056bc75e2d63100000",
          "blockHash": "0x1803b16c2e67d6b7a40f2b051335ba91ef04c2c9682851cc4ee631915e2deaaa",
          "blockNumber": "0xf33c4e",
          "transactionHash": "0x6f8e006eb675a5a0e326f5e81223f8a9f222cc91ab91d6a5dabdcf9a907365bf",
          "transactionIndex": "0x1",
          "logIndex": "0x1",
          "removed": false
        },
        {
          "address": "0x45841dd1ca50265da7614fc43a361e526c0e6160",
          "topics": [
            "0x61ed099e74a97a1d7f8bb0952a88ca8b7b8ebd00c126ea04671f92a81213318a"
          ],
          "data": "0x00000000000000000000000012523de19dc41c91f7d2093e0cfbb76b17012c8d000000000000000000000000000000000000000000000000000036843ac622b7",
          "blockHash": "0x1803b16c2e67d6b7a40f2b051335ba91ef04c2c9682851cc4ee631915e2deaaa",
          "blockNumber": "0xf33c4e",
          "transactionHash": "0x6f8e006eb675a5a0e326f5e81223f8a9f222cc91ab91d6a5dabdcf9a907365bf",
          "transactionIndex": "0x1",
          "logIndex": "0x2",
          "removed": false
        },
        {
          "address": "0x45841dd1ca50265da7614fc43a361e526c0e6160",
          "topics": [
            "0x07ea52d82345d6e838192107d8fd7123d9c2ec8e916cd0aad13fd2b60db24644"
          ],
          "data": "0x000000000000000000000000000000000000000000000000000000000000006000000000000000000000000000000000000000000000000000000000000000a000000000000000000000000000000000000000000000000000000000000000c0000000000000000000000000000000000000000000000000000000000000000100000000000000000000000088b27057a9e00c5f05dda29241027aff63f9e6e000000000000000000000000000000000000000000000000000000000000000000000000000000000000000000000000000000000000000000000000000000001000000000000000000000000000000000000000000000000000003138e3e7583",
          "blockHash": "0x1803b16c2e67d6b7a40f2b051335ba91ef04c2c9682851cc4ee631915e2deaaa",
          "blockNumber": "0xf33c4e",
          "transactionHash": "0x6f8e006eb675a5a0e326f5e81223f8a9f222cc91ab91d6a5dabdcf9a907365bf",
          "transactionIndex": "0x1",
          "logIndex": "0x3",
          "removed": false
        },
        {
          "address": "0x6edce65403992e310a62460808c4b910d972f10f",
          "topics": [
            "0x1ab700d4ced0c005b164c0f789fd09fcbb0156d4c2041b8a3bfbcd961cd1567f"
          ],
          "data": "0x0000000000000000000000000000000000000000000000000000000000000060000000000000000000000000000000000000000000000000000000000000014000000000000000000000000045841dd1ca50265da7614fc43a361e526c0e616000000000000000000000000000000000000000000000000000000000000000b101000000000000000100009d53000000000000000000000000d2da8680ffdbe5136ebbb26928df635d9cb79a0f00009d4b000000000000000000000000d2da8680ffdbe5136ebbb26928df635d9cb79a0ffb0b78e8ef9df30e9a413ae84410a38adc12d4c705f5f8f8d83c8bf815955bde0000000000000000000000001337fa1246e4abffefe3ddd288968b4837fc6c8b0000000000000000000000000000000000000000000000056bc75e2d6310000000000000000000000000000000000000000000000000000000000000000000000000000000000000000000000000160003010011010000000000000000000000000001388000000000000000000000",
          "blockHash": "0x1803b16c2e67d6b7a40f2b051335ba91ef04c2c9682851cc4ee631915e2deaaa",
          "blockNumber": "0xf33c4e",
          "transactionHash": "0x6f8e006eb675a5a0e326f5e81223f8a9f222cc91ab91d6a5dabdcf9a907365bf",
          "transactionIndex": "0x1",
          "logIndex": "0x4",
          "removed": false
        },
        {
          "address": "0xd2da8680ffdbe5136ebbb26928df635d9cb79a0f",
          "topics": [
            "0x8049d4304a9f9bc385d277ac94ec6bac29ab0e8726ce4de2b4e1cb1324872f91",
            "0x0000000000000000000000001337fa1246e4abffefe3ddd288968b4837fc6c8b"
          ],
          "data": "0x0000000000000000000000000000000000000000000000056bc75e2d63100000",
          "blockHash": "0x1803b16c2e67d6b7a40f2b051335ba91ef04c2c9682851cc4ee631915e2deaaa",
          "blockNumber": "0xf33c4e",
          "transactionHash": "0x6f8e006eb675a5a0e326f5e81223f8a9f222cc91ab91d6a5dabdcf9a907365bf",
          "transactionIndex": "0x1",
          "logIndex": "0x5",
          "removed": false
        }
      ],
      "logsBloom": "0x00000010000000000001000000000000000000000000000000000000000000000000000000000000300000000004000000000080000000000000000000000000000000000000008000000008000000000000000000040000000000000000000000000000020000008200000000000a000000000000000000000000100000001000000000000000200040000800000000000000000000000000000000000000000000000080000000001000000000000000000000005000000004c000000000001000000200000000000000000010000000000000000000000000000000003000000004000000000200000000200000a000000000000000000000000000000000",
      "type": "0x2",
      "transactionHash": "0x6f8e006eb675a5a0e326f5e81223f8a9f222cc91ab91d6a5dabdcf9a907365bf",
      "transactionIndex": "0x1",
      "blockHash": "0x1803b16c2e67d6b7a40f2b051335ba91ef04c2c9682851cc4ee631915e2deaaa",
      "blockNumber": "0xf33c4e",
      "gasUsed": "0x5ce77",
      "effectiveGasPrice": "0xfe",
      "from": "0x77774a499f484378e71e6692832b6abf0b2350d4",
      "to": "0x753da027758f33f9df35b8529fa9b2e78664dfe5",
      "contractAddress": null,
      "l1Fee": "0x7b7e5320",
      "l1GasPrice": "0x2650f316",
      "l1GasUsed": "0x934"
    }
  ],
  "libraries": [],
  "pending": [],
  "returns": {},
  "timestamp": 1731779199,
  "chain": 48899,
  "commit": "44643a0"
}