{
  "transactions": [
    {
      "hash": "0x604ff5e51e317b6f7f298cfebf61935ac56ea3f790d01a04fd5d8b20e1e0ab5d",
      "transactionType": "CALL",
      "contractName": null,
      "contractAddress": "0x7cfa3f1199f2a48eafb69b3a0d80234b98516110",
      "function": "addDestination(uint32)",
      "arguments": [
        "40170"
      ],
      "transaction": {
        "from": "0x1001f662c0de98e426870a9107f14a0c8c052aa0",
        "to": "0x7cfa3f1199f2a48eafb69b3a0d80234b98516110",
        "gas": "0x28796",
        "value": "0x0",
        "input": "0x3115f4900000000000000000000000000000000000000000000000000000000000009cea",
        "nonce": "0xe",
        "chainId": "0x515"
      },
      "additionalContracts": [],
      "isFixedGasLimit": false
    },
    {
      "hash": "0xa6437c6e423f632222c30aa2534193af1052d6ac26a91bb0da953c7e55c889d2",
      "transactionType": "CALL",
      "contractName": null,
      "contractAddress": "0x7cfa3f1199f2a48eafb69b3a0d80234b98516110",
      "function": "setPeer(uint32,bytes32)",
      "arguments": [
        "40170",
        "0x0000000000000000000000007cfa3f1199f2a48eafb69b3a0d80234b98516110"
      ],
      "transaction": {
        "from": "0x1001f662c0de98e426870a9107f14a0c8c052aa0",
        "to": "0x7cfa3f1199f2a48eafb69b3a0d80234b98516110",
        "gas": "0x10135",
        "value": "0x0",
        "input": "0x3400288b0000000000000000000000000000000000000000000000000000000000009cea0000000000000000000000007cfa3f1199f2a48eafb69b3a0d80234b98516110",
        "nonce": "0xf",
        "chainId": "0x515"
      },
      "additionalContracts": [],
      "isFixedGasLimit": false
    },
    {
      "hash": "0x2bf4982cf4a12c0f64e3f5d199391a1b12af9418589e639a545c4400d42ecece",
      "transactionType": "CALL",
      "contractName": null,
      "contractAddress": "0x7cfa3f1199f2a48eafb69b3a0d80234b98516110",
      "function": "addDestination(uint32)",
      "arguments": [
        "40267"
      ],
      "transaction": {
        "from": "0x1001f662c0de98e426870a9107f14a0c8c052aa0",
        "to": "0x7cfa3f1199f2a48eafb69b3a0d80234b98516110",
        "gas": "0x11712",
        "value": "0x0",
        "input": "0x3115f4900000000000000000000000000000000000000000000000000000000000009d4b",
        "nonce": "0x10",
        "chainId": "0x515"
      },
      "additionalContracts": [],
      "isFixedGasLimit": false
    },
    {
      "hash": "0x99fb2ca55ecc7131ffb35b9a198ec5743d37331eb30817f18028ecb2779c8c15",
      "transactionType": "CALL",
      "contractName": null,
      "contractAddress": "0x7cfa3f1199f2a48eafb69b3a0d80234b98516110",
      "function": "setPeer(uint32,bytes32)",
      "arguments": [
        "40267",
        "0x0000000000000000000000007cfa3f1199f2a48eafb69b3a0d80234b98516110"
      ],
      "transaction": {
        "from": "0x1001f662c0de98e426870a9107f14a0c8c052aa0",
        "to": "0x7cfa3f1199f2a48eafb69b3a0d80234b98516110",
        "gas": "0x10135",
        "value": "0x0",
        "input": "0x3400288b0000000000000000000000000000000000000000000000000000000000009d4b0000000000000000000000007cfa3f1199f2a48eafb69b3a0d80234b98516110",
        "nonce": "0x11",
        "chainId": "0x515"
      },
      "additionalContracts": [],
      "isFixedGasLimit": false
    },
    {
      "hash": "0x744ff40016617ed38920d9502bdda0b5e1f16776f7a068b9c33e230dbf238181",
      "transactionType": "CALL",
      "contractName": null,
      "contractAddress": "0x7cfa3f1199f2a48eafb69b3a0d80234b98516110",
      "function": "addDestination(uint32)",
      "arguments": [
        "40275"
      ],
      "transaction": {
        "from": "0x1001f662c0de98e426870a9107f14a0c8c052aa0",
        "to": "0x7cfa3f1199f2a48eafb69b3a0d80234b98516110",
        "gas": "0x11712",
        "value": "0x0",
        "input": "0x3115f4900000000000000000000000000000000000000000000000000000000000009d53",
        "nonce": "0x12",
        "chainId": "0x515"
      },
      "additionalContracts": [],
      "isFixedGasLimit": false
    },
    {
      "hash": "0xd21f50d512e3ea58f7e84a30a8220fa3a87c83f78ac3b7b8944ab33f6a7237a8",
      "transactionType": "CALL",
      "contractName": null,
      "contractAddress": "0x7cfa3f1199f2a48eafb69b3a0d80234b98516110",
      "function": "setPeer(uint32,bytes32)",
      "arguments": [
        "40275",
        "0x0000000000000000000000007cfa3f1199f2a48eafb69b3a0d80234b98516110"
      ],
      "transaction": {
        "from": "0x1001f662c0de98e426870a9107f14a0c8c052aa0",
        "to": "0x7cfa3f1199f2a48eafb69b3a0d80234b98516110",
        "gas": "0x10135",
        "value": "0x0",
        "input": "0x3400288b0000000000000000000000000000000000000000000000000000000000009d530000000000000000000000007cfa3f1199f2a48eafb69b3a0d80234b98516110",
        "nonce": "0x13",
        "chainId": "0x515"
      },
      "additionalContracts": [],
      "isFixedGasLimit": false
    }
  ],
  "receipts": [
    {
      "status": "0x1",
      "cumulativeGasUsed": "0x12b03e",
      "logs": [],
      "logsBloom": "0x00000000000000000000000000000000000000000000000000000000000000000000000000000000000000000000000000000000000000000000000000000000000000000000000000000000000000000000000000000000000000000000000000000000000000000000000000000000000000000000000000000000000000000000000000000000000000000000000000000000000000000000000000000000000000000000000000000000000000000000000000000000000000000000000000000000000000000000000000000000000000000000000000000000000000000000000000000000000000000000000000000000000000000000000000000000",
      "type": "0x2",
      "transactionHash": "0x604ff5e51e317b6f7f298cfebf61935ac56ea3f790d01a04fd5d8b20e1e0ab5d",
      "transactionIndex": "0x9",
      "blockHash": "0x61706283a93aa3495554b5b4fe26b1730800b0e388d24281f23bfc29d009fb4d",
      "blockNumber": "0x4aa31f",
      "gasUsed": "0x1d4d8",
      "effectiveGasPrice": "0xf4349",
      "from": "0x1001f662c0de98e426870a9107f14a0c8c052aa0",
      "to": "0x7cfa3f1199f2a48eafb69b3a0d80234b98516110",
      "contractAddress": null,
      "l1BaseFeeScalar": "0x7d0",
      "l1BlobBaseFee": "0x1",
      "l1BlobBaseFeeScalar": "0xdbba0",
      "l1Fee": "0x6249ba86",
      "l1GasPrice": "0x1eb70a2e",
      "l1GasUsed": "0x640"
    },
    {
      "status": "0x1",
      "cumulativeGasUsed": "0x14ef0d",
      "logs": [
        {
          "address": "0x7cfa3f1199f2a48eafb69b3a0d80234b98516110",
          "topics": [
            "0x238399d427b947898edb290f5ff0f9109849b1c3ba196a42e35f00c50a54b98b"
          ],
          "data": "0x0000000000000000000000000000000000000000000000000000000000009cea0000000000000000000000007cfa3f1199f2a48eafb69b3a0d80234b98516110",
          "blockHash": "0x61706283a93aa3495554b5b4fe26b1730800b0e388d24281f23bfc29d009fb4d",
          "blockNumber": "0x4aa31f",
          "transactionHash": "0xa6437c6e423f632222c30aa2534193af1052d6ac26a91bb0da953c7e55c889d2",
          "transactionIndex": "0xe",
          "logIndex": "0x16",
          "removed": false
        }
      ],
      "logsBloom": "0x00000000000000000000000000000000000000000000000000000000000000000000000000000000000000000000000000000000000000000800000000000000000000000000000000000000000000000000000000000000080000000000000000000000000000000000000000000000000000000000000000000000000000000000000000000000000000000000000000400000000000000000000000000000000000000000000000000000000000000000000000000000000002000000000000000000000000000000000000000000000000000000000000040000000000000000000000000000000000000000000000000000000000000000002000000000",
      "type": "0x2",
      "transactionHash": "0xa6437c6e423f632222c30aa2534193af1052d6ac26a91bb0da953c7e55c889d2",
      "transactionIndex": "0xe",
      "blockHash": "0x61706283a93aa3495554b5b4fe26b1730800b0e388d24281f23bfc29d009fb4d",
      "blockNumber": "0x4aa31f",
      "gasUsed": "0xba37",
      "effectiveGasPrice": "0xf4349",
      "from": "0x1001f662c0de98e426870a9107f14a0c8c052aa0",
      "to": "0x7cfa3f1199f2a48eafb69b3a0d80234b98516110",
      "contractAddress": null,
      "l1BaseFeeScalar": "0x7d0",
      "l1BlobBaseFee": "0x1",
      "l1BlobBaseFeeScalar": "0xdbba0",
      "l1Fee": "0x6249ba86",
      "l1GasPrice": "0x1eb70a2e",
      "l1GasUsed": "0x640"
    },
    {
      "status": "0x1",
      "cumulativeGasUsed": "0x15b919",
      "logs": [],
      "logsBloom": "0x00000000000000000000000000000000000000000000000000000000000000000000000000000000000000000000000000000000000000000000000000000000000000000000000000000000000000000000000000000000000000000000000000000000000000000000000000000000000000000000000000000000000000000000000000000000000000000000000000000000000000000000000000000000000000000000000000000000000000000000000000000000000000000000000000000000000000000000000000000000000000000000000000000000000000000000000000000000000000000000000000000000000000000000000000000000",
      "type": "0x2",
      "transactionHash": "0x2bf4982cf4a12c0f64e3f5d199391a1b12af9418589e639a545c4400d42ecece",
      "transactionIndex": "0xf",
      "blockHash": "0x61706283a93aa3495554b5b4fe26b1730800b0e388d24281f23bfc29d009fb4d",
      "blockNumber": "0x4aa31f",
      "gasUsed": "0xca0c",
      "effectiveGasPrice": "0xf4349",
      "from": "0x1001f662c0de98e426870a9107f14a0c8c052aa0",
      "to": "0x7cfa3f1199f2a48eafb69b3a0d80234b98516110",
      "contractAddress": null,
      "l1BaseFeeScalar": "0x7d0",
      "l1BlobBaseFee": "0x1",
      "l1BlobBaseFeeScalar": "0xdbba0",
      "l1Fee": "0x6249ba86",
      "l1GasPrice": "0x1eb70a2e",
      "l1GasUsed": "0x640"
    },
    {
      "status": "0x1",
      "cumulativeGasUsed": "0x167350",
      "logs": [
        {
          "address": "0x7cfa3f1199f2a48eafb69b3a0d80234b98516110",
          "topics": [
            "0x238399d427b947898edb290f5ff0f9109849b1c3ba196a42e35f00c50a54b98b"
          ],
          "data": "0x0000000000000000000000000000000000000000000000000000000000009d4b0000000000000000000000007cfa3f1199f2a48eafb69b3a0d80234b98516110",
          "blockHash": "0x61706283a93aa3495554b5b4fe26b1730800b0e388d24281f23bfc29d009fb4d",
          "blockNumber": "0x4aa31f",
          "transactionHash": "0x99fb2ca55ecc7131ffb35b9a198ec5743d37331eb30817f18028ecb2779c8c15",
          "transactionIndex": "0x10",
          "logIndex": "0x17",
          "removed": false
        }
      ],
      "logsBloom": "0x00000000000000000000000000000000000000000000000000000000000000000000000000000000000000000000000000000000000000000800000000000000000000000000000000000000000000000000000000000000080000000000000000000000000000000000000000000000000000000000000000000000000000000000000000000000000000000000000000400000000000000000000000000000000000000000000000000000000000000000000000000000000002000000000000000000000000000000000000000000000000000000000000040000000000000000000000000000000000000000000000000000000000000000002000000000",
      "type": "0x2",
      "transactionHash": "0x99fb2ca55ecc7131ffb35b9a198ec5743d37331eb30817f18028ecb2779c8c15",
      "transactionIndex": "0x10",
      "blockHash": "0x61706283a93aa3495554b5b4fe26b1730800b0e388d24281f23bfc29d009fb4d",
      "blockNumber": "0x4aa31f",
      "gasUsed": "0xba37",
      "effectiveGasPrice": "0xf4349",
      "from": "0x1001f662c0de98e426870a9107f14a0c8c052aa0",
      "to": "0x7cfa3f1199f2a48eafb69b3a0d80234b98516110",
      "contractAddress": null,
      "l1BaseFeeScalar": "0x7d0",
      "l1BlobBaseFee": "0x1",
      "l1BlobBaseFeeScalar": "0xdbba0",
      "l1Fee": "0x6249ba86",
      "l1GasPrice": "0x1eb70a2e",
      "l1GasUsed": "0x640"
    },
    {
      "status": "0x1",
      "cumulativeGasUsed": "0x173d5c",
      "logs": [],
      "logsBloom": "0x00000000000000000000000000000000000000000000000000000000000000000000000000000000000000000000000000000000000000000000000000000000000000000000000000000000000000000000000000000000000000000000000000000000000000000000000000000000000000000000000000000000000000000000000000000000000000000000000000000000000000000000000000000000000000000000000000000000000000000000000000000000000000000000000000000000000000000000000000000000000000000000000000000000000000000000000000000000000000000000000000000000000000000000000000000000",
      "type": "0x2",
      "transactionHash": "0x744ff40016617ed38920d9502bdda0b5e1f16776f7a068b9c33e230dbf238181",
      "transactionIndex": "0x11",
      "blockHash": "0x61706283a93aa3495554b5b4fe26b1730800b0e388d24281f23bfc29d009fb4d",
      "blockNumber": "0x4aa31f",
      "gasUsed": "0xca0c",
      "effectiveGasPrice": "0xf4349",
      "from": "0x1001f662c0de98e426870a9107f14a0c8c052aa0",
      "to": "0x7cfa3f1199f2a48eafb69b3a0d80234b98516110",
      "contractAddress": null,
      "l1BaseFeeScalar": "0x7d0",
      "l1BlobBaseFee": "0x1",
      "l1BlobBaseFeeScalar": "0xdbba0",
      "l1Fee": "0x6249ba86",
      "l1GasPrice": "0x1eb70a2e",
      "l1GasUsed": "0x640"
    },
    {
      "status": "0x1",
      "cumulativeGasUsed": "0x17f793",
      "logs": [
        {
          "address": "0x7cfa3f1199f2a48eafb69b3a0d80234b98516110",
          "topics": [
            "0x238399d427b947898edb290f5ff0f9109849b1c3ba196a42e35f00c50a54b98b"
          ],
          "data": "0x0000000000000000000000000000000000000000000000000000000000009d530000000000000000000000007cfa3f1199f2a48eafb69b3a0d80234b98516110",
          "blockHash": "0x61706283a93aa3495554b5b4fe26b1730800b0e388d24281f23bfc29d009fb4d",
          "blockNumber": "0x4aa31f",
          "transactionHash": "0xd21f50d512e3ea58f7e84a30a8220fa3a87c83f78ac3b7b8944ab33f6a7237a8",
          "transactionIndex": "0x12",
          "logIndex": "0x18",
          "removed": false
        }
      ],
      "logsBloom": "0x00000000000000000000000000000000000000000000000000000000000000000000000000000000000000000000000000000000000000000800000000000000000000000000000000000000000000000000000000000000080000000000000000000000000000000000000000000000000000000000000000000000000000000000000000000000000000000000000000400000000000000000000000000000000000000000000000000000000000000000000000000000000002000000000000000000000000000000000000000000000000000000000000040000000000000000000000000000000000000000000000000000000000000000002000000000",
      "type": "0x2",
      "transactionHash": "0xd21f50d512e3ea58f7e84a30a8220fa3a87c83f78ac3b7b8944ab33f6a7237a8",
      "transactionIndex": "0x12",
      "blockHash": "0x61706283a93aa3495554b5b4fe26b1730800b0e388d24281f23bfc29d009fb4d",
      "blockNumber": "0x4aa31f",
      "gasUsed": "0xba37",
      "effectiveGasPrice": "0xf4349",
      "from": "0x1001f662c0de98e426870a9107f14a0c8c052aa0",
      "to": "0x7cfa3f1199f2a48eafb69b3a0d80234b98516110",
      "contractAddress": null,
      "l1BaseFeeScalar": "0x7d0",
      "l1BlobBaseFee": "0x1",
      "l1BlobBaseFeeScalar": "0xdbba0",
      "l1Fee": "0x6249ba86",
      "l1GasPrice": "0x1eb70a2e",
      "l1GasUsed": "0x640"
    }
  ],
  "libraries": [],
  "pending": [],
  "returns": {},
  "timestamp": 1731743860,
  "chain": 1301,
  "commit": "fa7e3d7"
}