{
  "transactions": [
    {
      "hash": "0xfbc881e6eb6e7ccd8e21b6b29116ec9b3eca99a53889864a2af9016cb4779784",
      "transactionType": "CALL",
      "contractName": null,
      "contractAddress": "0xac45aaab89741702a9a0083e28fbcfe28ffe7a96",
      "function": "setChainlessBalance(address)",
      "arguments": [
        "0x7570adcf326406ef55C03e81d568EE1836E9A0e2"
      ],
      "transaction": {
        "from": "0x66666f4f66cc6a5bb6a7e73971e85eddf3b638c1",
        "to": "0xac45aaab89741702a9a0083e28fbcfe28ffe7a96",
        "gas": "0xf95b",
        "value": "0x0",
        "input": "0xbb2119bc0000000000000000000000007570adcf326406ef55c03e81d568ee1836e9a0e2",
        "nonce": "0x6",
        "chainId": "0x515"
      },
      "additionalContracts": [],
      "isFixedGasLimit": false
    },
    {
      "hash": "0x04949ceedc15f0dddad374a959eaac8faa35a07d1a3eab62ab7d9c08ee92d6ed",
      "transactionType": "CALL",
      "contractName": null,
      "contractAddress": "0xac45aaab89741702a9a0083e28fbcfe28ffe7a96",
      "function": "addDestination(uint32)",
      "arguments": [
        "40170"
      ],
      "transaction": {
        "from": "0x66666f4f66cc6a5bb6a7e73971e85eddf3b638c1",
        "to": "0xac45aaab89741702a9a0083e28fbcfe28ffe7a96",
        "gas": "0x28796",
        "value": "0x0",
        "input": "0x3115f4900000000000000000000000000000000000000000000000000000000000009cea",
        "nonce": "0x7",
        "chainId": "0x515"
      },
      "additionalContracts": [],
      "isFixedGasLimit": false
    },
    {
      "hash": "0x29050bf25a7cbe748c8b2c63e0be934433dd717e7fc839beb4eb428999c4edbf",
      "transactionType": "CALL",
      "contractName": null,
      "contractAddress": "0xac45aaab89741702a9a0083e28fbcfe28ffe7a96",
      "function": "setPeer(uint32,bytes32)",
      "arguments": [
        "40170",
        "0x000000000000000000000000ac45aaab89741702a9a0083e28fbcfe28ffe7a96"
      ],
      "transaction": {
        "from": "0x66666f4f66cc6a5bb6a7e73971e85eddf3b638c1",
        "to": "0xac45aaab89741702a9a0083e28fbcfe28ffe7a96",
        "gas": "0x10135",
        "value": "0x0",
        "input": "0x3400288b0000000000000000000000000000000000000000000000000000000000009cea000000000000000000000000ac45aaab89741702a9a0083e28fbcfe28ffe7a96",
        "nonce": "0x8",
        "chainId": "0x515"
      },
      "additionalContracts": [],
      "isFixedGasLimit": false
    },
    {
      "hash": "0xd762c1d70029cc5a2adc21499db9793acf8962201b07e74d4a6a3e3de81f8d35",
      "transactionType": "CALL",
      "contractName": null,
      "contractAddress": "0xac45aaab89741702a9a0083e28fbcfe28ffe7a96",
      "function": "addDestination(uint32)",
      "arguments": [
        "40267"
      ],
      "transaction": {
        "from": "0x66666f4f66cc6a5bb6a7e73971e85eddf3b638c1",
        "to": "0xac45aaab89741702a9a0083e28fbcfe28ffe7a96",
        "gas": "0x11712",
        "value": "0x0",
        "input": "0x3115f4900000000000000000000000000000000000000000000000000000000000009d4b",
        "nonce": "0x9",
        "chainId": "0x515"
      },
      "additionalContracts": [],
      "isFixedGasLimit": false
    },
    {
      "hash": "0x4b1dc08bdf595e15c962954c75c5833dd12e40940473dbf3a438e9e9f73f8098",
      "transactionType": "CALL",
      "contractName": null,
      "contractAddress": "0xac45aaab89741702a9a0083e28fbcfe28ffe7a96",
      "function": "setPeer(uint32,bytes32)",
      "arguments": [
        "40267",
        "0x000000000000000000000000ac45aaab89741702a9a0083e28fbcfe28ffe7a96"
      ],
      "transaction": {
        "from": "0x66666f4f66cc6a5bb6a7e73971e85eddf3b638c1",
        "to": "0xac45aaab89741702a9a0083e28fbcfe28ffe7a96",
        "gas": "0x10135",
        "value": "0x0",
        "input": "0x3400288b0000000000000000000000000000000000000000000000000000000000009d4b000000000000000000000000ac45aaab89741702a9a0083e28fbcfe28ffe7a96",
        "nonce": "0xa",
        "chainId": "0x515"
      },
      "additionalContracts": [],
      "isFixedGasLimit": false
    },
    {
      "hash": "0x2d8bac6312c2a4c46dda9ecfbbf6aaae331076f81f2472e488dc84bb90d2681f",
      "transactionType": "CALL",
      "contractName": null,
      "contractAddress": "0xac45aaab89741702a9a0083e28fbcfe28ffe7a96",
      "function": "addDestination(uint32)",
      "arguments": [
        "40275"
      ],
      "transaction": {
        "from": "0x66666f4f66cc6a5bb6a7e73971e85eddf3b638c1",
        "to": "0xac45aaab89741702a9a0083e28fbcfe28ffe7a96",
        "gas": "0x11712",
        "value": "0x0",
        "input": "0x3115f4900000000000000000000000000000000000000000000000000000000000009d53",
        "nonce": "0xb",
        "chainId": "0x515"
      },
      "additionalContracts": [],
      "isFixedGasLimit": false
    },
    {
      "hash": "0x8609d14a63d914531c419697c89b26edaab00072905c1209acc2abf74019a505",
      "transactionType": "CALL",
      "contractName": null,
      "contractAddress": "0xac45aaab89741702a9a0083e28fbcfe28ffe7a96",
      "function": "setPeer(uint32,bytes32)",
      "arguments": [
        "40275",
        "0x000000000000000000000000ac45aaab89741702a9a0083e28fbcfe28ffe7a96"
      ],
      "transaction": {
        "from": "0x66666f4f66cc6a5bb6a7e73971e85eddf3b638c1",
        "to": "0xac45aaab89741702a9a0083e28fbcfe28ffe7a96",
        "gas": "0x10135",
        "value": "0x0",
        "input": "0x3400288b0000000000000000000000000000000000000000000000000000000000009d53000000000000000000000000ac45aaab89741702a9a0083e28fbcfe28ffe7a96",
        "nonce": "0xc",
        "chainId": "0x515"
      },
      "additionalContracts": [],
      "isFixedGasLimit": false
    }
  ],
  "receipts": [
    {
      "status": "0x1",
      "cumulativeGasUsed": "0x5f81e",
      "logs": [],
      "logsBloom": "0x00000000000000000000000000000000000000000000000000000000000000000000000000000000000000000000000000000000000000000000000000000000000000000000000000000000000000000000000000000000000000000000000000000000000000000000000000000000000000000000000000000000000000000000000000000000000000000000000000000000000000000000000000000000000000000000000000000000000000000000000000000000000000000000000000000000000000000000000000000000000000000000000000000000000000000000000000000000000000000000000000000000000000000000000000000000",
      "type": "0x2",
      "transactionHash": "0xfbc881e6eb6e7ccd8e21b6b29116ec9b3eca99a53889864a2af9016cb4779784",
      "transactionIndex": "0x6",
      "blockHash": "0x5fd88b3d9e998721323656df37b440c8ed344608cacb280eeef10b30c26aeff5",
      "blockNumber": "0x4ac7a6",
      "gasUsed": "0xb488",
      "effectiveGasPrice": "0xf434d",
      "from": "0x66666f4f66cc6a5bb6a7e73971e85eddf3b638c1",
      "to": "0xac45aaab89741702a9a0083e28fbcfe28ffe7a96",
      "contractAddress": null,
      "l1BaseFeeScalar": "0x7d0",
      "l1BlobBaseFee": "0x1",
      "l1BlobBaseFeeScalar": "0xdbba0",
      "l1Fee": "0x56fee76a",
      "l1GasPrice": "0x1b2fa835",
      "l1GasUsed": "0x640"
    },
    {
      "status": "0x1",
      "cumulativeGasUsed": "0x8faa9",
      "logs": [],
      "logsBloom": "0x00000000000000000000000000000000000000000000000000000000000000000000000000000000000000000000000000000000000000000000000000000000000000000000000000000000000000000000000000000000000000000000000000000000000000000000000000000000000000000000000000000000000000000000000000000000000000000000000000000000000000000000000000000000000000000000000000000000000000000000000000000000000000000000000000000000000000000000000000000000000000000000000000000000000000000000000000000000000000000000000000000000000000000000000000000000",
      "type": "0x2",
      "transactionHash": "0x04949ceedc15f0dddad374a959eaac8faa35a07d1a3eab62ab7d9c08ee92d6ed",
      "transactionIndex": "0xa",
      "blockHash": "0x5fd88b3d9e998721323656df37b440c8ed344608cacb280eeef10b30c26aeff5",
      "blockNumber": "0x4ac7a6",
      "gasUsed": "0x1d4d8",
      "effectiveGasPrice": "0xf434d",
      "from": "0x66666f4f66cc6a5bb6a7e73971e85eddf3b638c1",
      "to": "0xac45aaab89741702a9a0083e28fbcfe28ffe7a96",
      "contractAddress": null,
      "l1BaseFeeScalar": "0x7d0",
      "l1BlobBaseFee": "0x1",
      "l1BlobBaseFeeScalar": "0xdbba0",
      "l1Fee": "0x56fee76a",
      "l1GasPrice": "0x1b2fa835",
      "l1GasUsed": "0x640"
    },
    {
      "status": "0x1",
      "cumulativeGasUsed": "0x9b4e0",
      "logs": [
        {
          "address": "0xac45aaab89741702a9a0083e28fbcfe28ffe7a96",
          "topics": [
            "0x238399d427b947898edb290f5ff0f9109849b1c3ba196a42e35f00c50a54b98b"
          ],
          "data": "0x0000000000000000000000000000000000000000000000000000000000009cea000000000000000000000000ac45aaab89741702a9a0083e28fbcfe28ffe7a96",
          "blockHash": "0x5fd88b3d9e998721323656df37b440c8ed344608cacb280eeef10b30c26aeff5",
          "blockNumber": "0x4ac7a6",
          "transactionHash": "0x29050bf25a7cbe748c8b2c63e0be934433dd717e7fc839beb4eb428999c4edbf",
          "transactionIndex": "0xb",
          "logIndex": "0x8",
          "removed": false
        }
      ],
      "logsBloom": "0x00000000000000000000000000000000000000000000000000000000000000000000000000000000000000000000000000000004000000000800000000000000000000000000000000000000000000000000000000000000000000000000000000000000000000000000000000000000000000000000000000000000000000080000000000000000000000000000000000000000000000000000000000000000000000000000000000000000000000000000000000000000000002000000000000000000000000000000000000000000000000000000000000040000000000020000000000000000000000000000000000000000000000000000000000000000",
      "type": "0x2",
      "transactionHash": "0x29050bf25a7cbe748c8b2c63e0be934433dd717e7fc839beb4eb428999c4edbf",
      "transactionIndex": "0xb",
      "blockHash": "0x5fd88b3d9e998721323656df37b440c8ed344608cacb280eeef10b30c26aeff5",
      "blockNumber": "0x4ac7a6",
      "gasUsed": "0xba37",
      "effectiveGasPrice": "0xf434d",
      "from": "0x66666f4f66cc6a5bb6a7e73971e85eddf3b638c1",
      "to": "0xac45aaab89741702a9a0083e28fbcfe28ffe7a96",
      "contractAddress": null,
      "l1BaseFeeScalar": "0x7d0",
      "l1BlobBaseFee": "0x1",
      "l1BlobBaseFeeScalar": "0xdbba0",
      "l1Fee": "0x56fee76a",
      "l1GasPrice": "0x1b2fa835",
      "l1GasUsed": "0x640"
    },
    {
      "status": "0x1",
      "cumulativeGasUsed": "0xad0f4",
      "logs": [],
      "logsBloom": "0x00000000000000000000000000000000000000000000000000000000000000000000000000000000000000000000000000000000000000000000000000000000000000000000000000000000000000000000000000000000000000000000000000000000000000000000000000000000000000000000000000000000000000000000000000000000000000000000000000000000000000000000000000000000000000000000000000000000000000000000000000000000000000000000000000000000000000000000000000000000000000000000000000000000000000000000000000000000000000000000000000000000000000000000000000000000",
      "type": "0x2",
      "transactionHash": "0xd762c1d70029cc5a2adc21499db9793acf8962201b07e74d4a6a3e3de81f8d35",
      "transactionIndex": "0xd",
      "blockHash": "0x5fd88b3d9e998721323656df37b440c8ed344608cacb280eeef10b30c26aeff5",
      "blockNumber": "0x4ac7a6",
      "gasUsed": "0xca0c",
      "effectiveGasPrice": "0xf434d",
      "from": "0x66666f4f66cc6a5bb6a7e73971e85eddf3b638c1",
      "to": "0xac45aaab89741702a9a0083e28fbcfe28ffe7a96",
      "contractAddress": null,
      "l1BaseFeeScalar": "0x7d0",
      "l1BlobBaseFee": "0x1",
      "l1BlobBaseFeeScalar": "0xdbba0",
      "l1Fee": "0x56fee76a",
      "l1GasPrice": "0x1b2fa835",
      "l1GasUsed": "0x640"
    },
    {
      "status": "0x1",
      "cumulativeGasUsed": "0xb8b2b",
      "logs": [
        {
          "address": "0xac45aaab89741702a9a0083e28fbcfe28ffe7a96",
          "topics": [
            "0x238399d427b947898edb290f5ff0f9109849b1c3ba196a42e35f00c50a54b98b"
          ],
          "data": "0x0000000000000000000000000000000000000000000000000000000000009d4b000000000000000000000000ac45aaab89741702a9a0083e28fbcfe28ffe7a96",
          "blockHash": "0x5fd88b3d9e998721323656df37b440c8ed344608cacb280eeef10b30c26aeff5",
          "blockNumber": "0x4ac7a6",
          "transactionHash": "0x4b1dc08bdf595e15c962954c75c5833dd12e40940473dbf3a438e9e9f73f8098",
          "transactionIndex": "0xe",
          "logIndex": "0x9",
          "removed": false
        }
      ],
      "logsBloom": "0x00000000000000000000000000000000000000000000000000000000000000000000000000000000000000000000000000000004000000000800000000000000000000000000000000000000000000000000000000000000000000000000000000000000000000000000000000000000000000000000000000000000000000080000000000000000000000000000000000000000000000000000000000000000000000000000000000000000000000000000000000000000000002000000000000000000000000000000000000000000000000000000000000040000000000020000000000000000000000000000000000000000000000000000000000000000",
      "type": "0x2",
      "transactionHash": "0x4b1dc08bdf595e15c962954c75c5833dd12e40940473dbf3a438e9e9f73f8098",
      "transactionIndex": "0xe",
      "blockHash": "0x5fd88b3d9e998721323656df37b440c8ed344608cacb280eeef10b30c26aeff5",
      "blockNumber": "0x4ac7a6",
      "gasUsed": "0xba37",
      "effectiveGasPrice": "0xf434d",
      "from": "0x66666f4f66cc6a5bb6a7e73971e85eddf3b638c1",
      "to": "0xac45aaab89741702a9a0083e28fbcfe28ffe7a96",
      "contractAddress": null,
      "l1BaseFeeScalar": "0x7d0",
      "l1BlobBaseFee": "0x1",
      "l1BlobBaseFeeScalar": "0xdbba0",
      "l1Fee": "0x56fee76a",
      "l1GasPrice": "0x1b2fa835",
      "l1GasUsed": "0x640"
    },
    {
      "status": "0x1",
      "cumulativeGasUsed": "0x17572",
      "logs": [],
      "logsBloom": "0x00000000000000000000000000000000000000000000000000000000000000000000000000000000000000000000000000000000000000000000000000000000000000000000000000000000000000000000000000000000000000000000000000000000000000000000000000000000000000000000000000000000000000000000000000000000000000000000000000000000000000000000000000000000000000000000000000000000000000000000000000000000000000000000000000000000000000000000000000000000000000000000000000000000000000000000000000000000000000000000000000000000000000000000000000000000",
      "type": "0x2",
      "transactionHash": "0x2d8bac6312c2a4c46dda9ecfbbf6aaae331076f81f2472e488dc84bb90d2681f",
      "transactionIndex": "0x1",
      "blockHash": "0xff81d09fa6acd16b0348b7f2463eaa2c8b490cc25b3ba22471b65e4aac181a33",
      "blockNumber": "0x4ac7a7",
      "gasUsed": "0xca0c",
      "effectiveGasPrice": "0xf434e",
      "from": "0x66666f4f66cc6a5bb6a7e73971e85eddf3b638c1",
      "to": "0xac45aaab89741702a9a0083e28fbcfe28ffe7a96",
      "contractAddress": null,
      "l1BaseFeeScalar": "0x7d0",
      "l1BlobBaseFee": "0x1",
      "l1BlobBaseFeeScalar": "0xdbba0",
      "l1Fee": "0x56fee76a",
      "l1GasPrice": "0x1b2fa835",
      "l1GasUsed": "0x640"
    },
    {
      "status": "0x1",
      "cumulativeGasUsed": "0x22fa9",
      "logs": [
        {
          "address": "0xac45aaab89741702a9a0083e28fbcfe28ffe7a96",
          "topics": [
            "0x238399d427b947898edb290f5ff0f9109849b1c3ba196a42e35f00c50a54b98b"
          ],
          "data": "0x0000000000000000000000000000000000000000000000000000000000009d53000000000000000000000000ac45aaab89741702a9a0083e28fbcfe28ffe7a96",
          "blockHash": "0xff81d09fa6acd16b0348b7f2463eaa2c8b490cc25b3ba22471b65e4aac181a33",
          "blockNumber": "0x4ac7a7",
          "transactionHash": "0x8609d14a63d914531c419697c89b26edaab00072905c1209acc2abf74019a505",
          "transactionIndex": "0x2",
          "logIndex": "0x0",
          "removed": false
        }
      ],
      "logsBloom": "0x00000000000000000000000000000000000000000000000000000000000000000000000000000000000000000000000000000004000000000800000000000000000000000000000000000000000000000000000000000000000000000000000000000000000000000000000000000000000000000000000000000000000000080000000000000000000000000000000000000000000000000000000000000000000000000000000000000000000000000000000000000000000002000000000000000000000000000000000000000000000000000000000000040000000000020000000000000000000000000000000000000000000000000000000000000000",
      "type": "0x2",
      "transactionHash": "0x8609d14a63d914531c419697c89b26edaab00072905c1209acc2abf74019a505",
      "transactionIndex": "0x2",
      "blockHash": "0xff81d09fa6acd16b0348b7f2463eaa2c8b490cc25b3ba22471b65e4aac181a33",
      "blockNumber": "0x4ac7a7",
      "gasUsed": "0xba37",
      "effectiveGasPrice": "0xf434e",
      "from": "0x66666f4f66cc6a5bb6a7e73971e85eddf3b638c1",
      "to": "0xac45aaab89741702a9a0083e28fbcfe28ffe7a96",
      "contractAddress": null,
      "l1BaseFeeScalar": "0x7d0",
      "l1BlobBaseFee": "0x1",
      "l1BlobBaseFeeScalar": "0xdbba0",
      "l1Fee": "0x56fee76a",
      "l1GasPrice": "0x1b2fa835",
      "l1GasUsed": "0x640"
    }
  ],
  "libraries": [],
  "pending": [],
  "returns": {},
  "timestamp": 1731753206,
  "chain": 1301,
  "commit": "fa7e3d7"
}