{
  "transactions": [
    {
      "hash": "0xe0a4cd429dfb4057694c10c069421b91680a178b03c6b4e483468d5d424adc5e",
      "transactionType": "CALL",
      "contractName": null,
      "contractAddress": "0xe9839aecccc989c7f736e8c5a787591b1894f65c",
      "function": "setChainlessBalance(address)",
      "arguments": [
        "0x1d9F50D64511770695284D98E882Fb4B436191ad"
      ],
      "transaction": {
        "from": "0x1001f662c0de98e426870a9107f14a0c8c052aa0",
        "to": "0xe9839aecccc989c7f736e8c5a787591b1894f65c",
        "gas": "0xf95b",
        "value": "0x0",
        "input": "0xbb2119bc0000000000000000000000001d9f50d64511770695284d98e882fb4b436191ad",
        "nonce": "0x6",
        "chainId": "0x515"
      },
      "additionalContracts": [],
      "isFixedGasLimit": false
    },
    {
      "hash": "0xa9312b8db23bdab5239107c90157e1e5c45b0ab36902a3dbb0985e34bcdfed93",
      "transactionType": "CALL",
      "contractName": null,
      "contractAddress": "0xe9839aecccc989c7f736e8c5a787591b1894f65c",
      "function": "setPeer(uint32,bytes32)",
      "arguments": [
        "40170",
        "0x000000000000000000000000e9839aecccc989c7f736e8c5a787591b1894f65c"
      ],
      "transaction": {
        "from": "0x1001f662c0de98e426870a9107f14a0c8c052aa0",
        "to": "0xe9839aecccc989c7f736e8c5a787591b1894f65c",
        "gas": "0x10135",
        "value": "0x0",
        "input": "0x3400288b0000000000000000000000000000000000000000000000000000000000009cea000000000000000000000000e9839aecccc989c7f736e8c5a787591b1894f65c",
        "nonce": "0x7",
        "chainId": "0x515"
      },
      "additionalContracts": [],
      "isFixedGasLimit": false
    },
    {
      "hash": "0x819b76b31bf543c6567166f32b71b7d318ac144da986838d1c67e4d4cb0656fd",
      "transactionType": "CALL",
      "contractName": null,
      "contractAddress": "0xe9839aecccc989c7f736e8c5a787591b1894f65c",
      "function": "setPeer(uint32,bytes32)",
      "arguments": [
        "40267",
        "0x000000000000000000000000e9839aecccc989c7f736e8c5a787591b1894f65c"
      ],
      "transaction": {
        "from": "0x1001f662c0de98e426870a9107f14a0c8c052aa0",
        "to": "0xe9839aecccc989c7f736e8c5a787591b1894f65c",
        "gas": "0x10135",
        "value": "0x0",
        "input": "0x3400288b0000000000000000000000000000000000000000000000000000000000009d4b000000000000000000000000e9839aecccc989c7f736e8c5a787591b1894f65c",
        "nonce": "0x8",
        "chainId": "0x515"
      },
      "additionalContracts": [],
      "isFixedGasLimit": false
    },
    {
      "hash": "0xd84aee297a586e72828407b64988cb9af36129ab40d6f927b8f8328a59ef9ba5",
      "transactionType": "CALL",
      "contractName": null,
      "contractAddress": "0xe9839aecccc989c7f736e8c5a787591b1894f65c",
      "function": "setPeer(uint32,bytes32)",
      "arguments": [
        "40275",
        "0x000000000000000000000000e9839aecccc989c7f736e8c5a787591b1894f65c"
      ],
      "transaction": {
        "from": "0x1001f662c0de98e426870a9107f14a0c8c052aa0",
        "to": "0xe9839aecccc989c7f736e8c5a787591b1894f65c",
        "gas": "0x10135",
        "value": "0x0",
        "input": "0x3400288b0000000000000000000000000000000000000000000000000000000000009d53000000000000000000000000e9839aecccc989c7f736e8c5a787591b1894f65c",
        "nonce": "0x9",
        "chainId": "0x515"
      },
      "additionalContracts": [],
      "isFixedGasLimit": false
    }
  ],
  "receipts": [
    {
      "status": "0x1",
      "cumulativeGasUsed": "0x5c9b6",
      "logs": [],
      "logsBloom": "0x00000000000000000000000000000000000000000000000000000000000000000000000000000000000000000000000000000000000000000000000000000000000000000000000000000000000000000000000000000000000000000000000000000000000000000000000000000000000000000000000000000000000000000000000000000000000000000000000000000000000000000000000000000000000000000000000000000000000000000000000000000000000000000000000000000000000000000000000000000000000000000000000000000000000000000000000000000000000000000000000000000000000000000000000000000000",
      "type": "0x2",
      "transactionHash": "0xe0a4cd429dfb4057694c10c069421b91680a178b03c6b4e483468d5d424adc5e",
      "transactionIndex": "0xc",
      "blockHash": "0xaf2bce9021e47816169030020e784db821f36bd8b3aac058dca4167cd0b3209c",
      "blockNumber": "0x4a9513",
      "gasUsed": "0xb488",
      "effectiveGasPrice": "0xf4343",
      "from": "0x1001f662c0de98e426870a9107f14a0c8c052aa0",
      "to": "0xe9839aecccc989c7f736e8c5a787591b1894f65c",
      "contractAddress": null,
      "l1BaseFeeScalar": "0x7d0",
      "l1BlobBaseFee": "0x1",
      "l1BlobBaseFeeScalar": "0xdbba0",
      "l1Fee": "0x40620b5a",
      "l1GasPrice": "0x141ea370",
      "l1GasUsed": "0x640"
    },
    {
      "status": "0x1",
      "cumulativeGasUsed": "0x6e21bb",
      "logs": [
        {
          "address": "0xe9839aecccc989c7f736e8c5a787591b1894f65c",
          "topics": [
            "0x238399d427b947898edb290f5ff0f9109849b1c3ba196a42e35f00c50a54b98b"
          ],
          "data": "0x0000000000000000000000000000000000000000000000000000000000009cea000000000000000000000000e9839aecccc989c7f736e8c5a787591b1894f65c",
          "blockHash": "0x34dbe9266ec5f999ed3c5edc31bba6f37fd379cefb36f49514f01f42f2e46649",
          "blockNumber": "0x4a9514",
          "transactionHash": "0xa9312b8db23bdab5239107c90157e1e5c45b0ab36902a3dbb0985e34bcdfed93",
          "transactionIndex": "0x10",
          "logIndex": "0x1b",
          "removed": false
        }
      ],
      "logsBloom": "0x00000000000000000000000000000000000000000000000000000000000000000000000000000000000000000000000000000000000000000800000000000000000000000000000000000000000000000000000000000000000000000000000000000000000000000000000000000000000000000000000000000000000000000000000000000000000000000000000000000000020000000000000000000000000000000000004000000000000000000000000000000000000002000000000000000000000000000000000000000000000000000008000000040000000000000000000000000000000000000000000000000000000000000000000000000000",
      "type": "0x2",
      "transactionHash": "0xa9312b8db23bdab5239107c90157e1e5c45b0ab36902a3dbb0985e34bcdfed93",
      "transactionIndex": "0x10",
      "blockHash": "0x34dbe9266ec5f999ed3c5edc31bba6f37fd379cefb36f49514f01f42f2e46649",
      "blockNumber": "0x4a9514",
      "gasUsed": "0xba37",
      "effectiveGasPrice": "0xf4343",
      "from": "0x1001f662c0de98e426870a9107f14a0c8c052aa0",
      "to": "0xe9839aecccc989c7f736e8c5a787591b1894f65c",
      "contractAddress": null,
      "l1BaseFeeScalar": "0x7d0",
      "l1BlobBaseFee": "0x1",
      "l1BlobBaseFeeScalar": "0xdbba0",
      "l1Fee": "0x40620b5a",
      "l1GasPrice": "0x141ea370",
      "l1GasUsed": "0x640"
    },
    {
      "status": "0x1",
      "cumulativeGasUsed": "0x6edbf2",
      "logs": [
        {
          "address": "0xe9839aecccc989c7f736e8c5a787591b1894f65c",
          "topics": [
            "0x238399d427b947898edb290f5ff0f9109849b1c3ba196a42e35f00c50a54b98b"
          ],
          "data": "0x0000000000000000000000000000000000000000000000000000000000009d4b000000000000000000000000e9839aecccc989c7f736e8c5a787591b1894f65c",
          "blockHash": "0x34dbe9266ec5f999ed3c5edc31bba6f37fd379cefb36f49514f01f42f2e46649",
          "blockNumber": "0x4a9514",
          "transactionHash": "0x819b76b31bf543c6567166f32b71b7d318ac144da986838d1c67e4d4cb0656fd",
          "transactionIndex": "0x11",
          "logIndex": "0x1c",
          "removed": false
        }
      ],
      "logsBloom": "0x00000000000000000000000000000000000000000000000000000000000000000000000000000000000000000000000000000000000000000800000000000000000000000000000000000000000000000000000000000000000000000000000000000000000000000000000000000000000000000000000000000000000000000000000000000000000000000000000000000000020000000000000000000000000000000000004000000000000000000000000000000000000002000000000000000000000000000000000000000000000000000008000000040000000000000000000000000000000000000000000000000000000000000000000000000000",
      "type": "0x2",
      "transactionHash": "0x819b76b31bf543c6567166f32b71b7d318ac144da986838d1c67e4d4cb0656fd",
      "transactionIndex": "0x11",
      "blockHash": "0x34dbe9266ec5f999ed3c5edc31bba6f37fd379cefb36f49514f01f42f2e46649",
      "blockNumber": "0x4a9514",
      "gasUsed": "0xba37",
      "effectiveGasPrice": "0xf4343",
      "from": "0x1001f662c0de98e426870a9107f14a0c8c052aa0",
      "to": "0xe9839aecccc989c7f736e8c5a787591b1894f65c",
      "contractAddress": null,
      "l1BaseFeeScalar": "0x7d0",
      "l1BlobBaseFee": "0x1",
      "l1BlobBaseFeeScalar": "0xdbba0",
      "l1Fee": "0x40620b5a",
      "l1GasPrice": "0x141ea370",
      "l1GasUsed": "0x640"
    },
    {
      "status": "0x1",
      "cumulativeGasUsed": "0x6f9629",
      "logs": [
        {
          "address": "0xe9839aecccc989c7f736e8c5a787591b1894f65c",
          "topics": [
            "0x238399d427b947898edb290f5ff0f9109849b1c3ba196a42e35f00c50a54b98b"
          ],
          "data": "0x0000000000000000000000000000000000000000000000000000000000009d53000000000000000000000000e9839aecccc989c7f736e8c5a787591b1894f65c",
          "blockHash": "0x34dbe9266ec5f999ed3c5edc31bba6f37fd379cefb36f49514f01f42f2e46649",
          "blockNumber": "0x4a9514",
          "transactionHash": "0xd84aee297a586e72828407b64988cb9af36129ab40d6f927b8f8328a59ef9ba5",
          "transactionIndex": "0x12",
          "logIndex": "0x1d",
          "removed": false
        }
      ],
      "logsBloom": "0x00000000000000000000000000000000000000000000000000000000000000000000000000000000000000000000000000000000000000000800000000000000000000000000000000000000000000000000000000000000000000000000000000000000000000000000000000000000000000000000000000000000000000000000000000000000000000000000000000000000020000000000000000000000000000000000004000000000000000000000000000000000000002000000000000000000000000000000000000000000000000000008000000040000000000000000000000000000000000000000000000000000000000000000000000000000",
      "type": "0x2",
      "transactionHash": "0xd84aee297a586e72828407b64988cb9af36129ab40d6f927b8f8328a59ef9ba5",
      "transactionIndex": "0x12",
      "blockHash": "0x34dbe9266ec5f999ed3c5edc31bba6f37fd379cefb36f49514f01f42f2e46649",
      "blockNumber": "0x4a9514",
      "gasUsed": "0xba37",
      "effectiveGasPrice": "0xf4343",
      "from": "0x1001f662c0de98e426870a9107f14a0c8c052aa0",
      "to": "0xe9839aecccc989c7f736e8c5a787591b1894f65c",
      "contractAddress": null,
      "l1BaseFeeScalar": "0x7d0",
      "l1BlobBaseFee": "0x1",
      "l1BlobBaseFeeScalar": "0xdbba0",
      "l1Fee": "0x40620b5a",
      "l1GasPrice": "0x141ea370",
      "l1GasUsed": "0x640"
    }
  ],
  "libraries": [],
  "pending": [],
  "returns": {},
  "timestamp": 1731740264,
  "chain": 1301,
  "commit": "fa7e3d7"
}