{
  "transactions": [
    {
      "hash": "0xb446fff025dc895d5ad4372b4be20edf2bc97b6a27435fcb382539fec328e30a",
      "transactionType": "CALL",
      "contractName": null,
      "contractAddress": "0x1d9f50d64511770695284d98e882fb4b436191ad",
      "function": "setToken(address)",
      "arguments": [
        "0x7CFA3f1199f2A48EAFb69b3a0D80234b98516110"
      ],
      "transaction": {
        "from": "0x1001f662c0de98e426870a9107f14a0c8c052aa0",
        "to": "0x1d9f50d64511770695284d98e882fb4b436191ad",
        "gas": "0x9c80",
        "value": "0x0",
        "input": "0x144fa6d70000000000000000000000007cfa3f1199f2a48eafb69b3a0d80234b98516110",
        "nonce": "0xc",
        "chainId": "0x13882"
      },
      "additionalContracts": [],
      "isFixedGasLimit": false
    }
  ],
  "receipts": [
    {
      "status": "0x1",
      "cumulativeGasUsed": "0x714f",
      "logs": [
        {
          "address": "0x0000000000000000000000000000000000001010",
          "topics": [
            "0x4dfe1bbbcf077ddc3e01291eea2d5c70c2b422b415d95645b9adcfd678cb1d63",
            "0x0000000000000000000000000000000000000000000000000000000000001010",
            "0x0000000000000000000000001001f662c0de98e426870a9107f14a0c8c052aa0",
            "0x000000000000000000000000ac75d6efec891724b88b916b36e2ef38bcbec73f"
          ],
          "data": "0x00000000000000000000000000000000000000000000000000072eaa9ad83e2600000000000000000000000000000000000000000000000001468c20c965c55d0000000000000000000000000000000000000000000001f911525e07ad7c3305000000000000000000000000000000000000000000000000013f5d762e8d87370000000000000000000000000000000000000000000001f911598cb24854712b",
          "blockHash": "0x9f88991ab614b770fc9877b47d38dd85e443e2442c81a7224d262d2bf880ea6d",
          "blockNumber": "0xdd1438",
          "transactionHash": "0xb446fff025dc895d5ad4372b4be20edf2bc97b6a27435fcb382539fec328e30a",
          "transactionIndex": "0x0",
          "logIndex": "0x0",
          "removed": false
        }
      ],
      "logsBloom": "0x00000000400000000000000000000000000000000100000000000000000000000000000000000000000000000000000000008000000000000000000000000000000000000000000000000000000000800000000000000000000100000000000000000000000000000000000000000000000000000000000080000000000000000000000000000000000000000000000000000000000000000000000000000000200008008000000000000000000000000020000000000000000000000000004000000000000000000001000000000000000000000000000000100000000000000000000000000000000000000800000000000000000000000000000000100000",
      "type": "0x2",
      "transactionHash": "0xb446fff025dc895d5ad4372b4be20edf2bc97b6a27435fcb382539fec328e30a",
      "transactionIndex": "0x0",
      "blockHash": "0x9f88991ab614b770fc9877b47d38dd85e443e2442c81a7224d262d2bf880ea6d",
      "blockNumber": "0xdd1438",
      "gasUsed": "0x714f",
      "effectiveGasPrice": "0x103a213a09",
      "from": "0x1001f662c0de98e426870a9107f14a0c8c052aa0",
      "to": "0x1d9f50d64511770695284d98e882fb4b436191ad",
      "contractAddress": null
    }
  ],
  "libraries": [],
  "pending": [],
  "returns": {},
  "timestamp": 1731743281,
  "chain": 80002,
  "commit": "fa7e3d7"
}