{
  "transactions": [
    {
      "hash": "0x417668df91d32a5b4f2623c6ea8d29409b404ffaf923217777c4226228680f0a",
      "transactionType": "CALL",
      "contractName": null,
      "contractAddress": "0x1d9f50d64511770695284d98e882fb4b436191ad",
      "function": "setToken(address)",
      "arguments": [
        "0xe9839aECCCC989C7F736E8C5a787591b1894f65C"
      ],
      "transaction": {
        "from": "0x1001f662c0de98e426870a9107f14a0c8c052aa0",
        "to": "0x1d9f50d64511770695284d98e882fb4b436191ad",
        "gas": "0x10767",
        "value": "0x0",
        "input": "0x144fa6d7000000000000000000000000e9839aecccc989c7f736e8c5a787591b1894f65c",
        "nonce": "0xa",
        "chainId": "0x13882"
      },
      "additionalContracts": [],
      "isFixedGasLimit": false
    }
  ],
  "receipts": [
    {
      "status": "0x1",
      "cumulativeGasUsed": "0xb41b",
      "logs": [
        {
          "address": "0x0000000000000000000000000000000000001010",
          "topics": [
            "0x4dfe1bbbcf077ddc3e01291eea2d5c70c2b422b415d95645b9adcfd678cb1d63",
            "0x0000000000000000000000000000000000000000000000000000000000001010",
            "0x0000000000000000000000001001f662c0de98e426870a9107f14a0c8c052aa0",
            "0x0000000000000000000000004631753190f2f5a15a7ba172bbac102b7d95fa22"
          ],
          "data": "0x0000000000000000000000000000000000000000000000000009e2602f42d75e000000000000000000000000000000000000000000000000049c5c065ad6835000000000000000000000000000000000000000000000030355bc4536cfa2958f000000000000000000000000000000000000000000000000049279a62b93abf200000000000000000000000000000000000000000000030355c62796fee56ced",
          "blockHash": "0x29527df07018967a9ecadc5823a6ff72bc7942e8de2661b471cf98ded79da360",
          "blockNumber": "0xdd11e9",
          "transactionHash": "0x417668df91d32a5b4f2623c6ea8d29409b404ffaf923217777c4226228680f0a",
          "transactionIndex": "0x0",
          "logIndex": "0x0",
          "removed": false
        }
      ],
      "logsBloom": "0x00000000400000000000000000000000000000002100000000000000000000000000000000000000000000000000000000008000000000000000000040000000000000000000000000000000000000800000000000000000000100000000000000000000000000100000000000000000000000000000000080000000000000000000000000000000000000000000000000000000000000000000000000000000200000008000000000000000000000000000000000000000000000000000004000000000000000000001000000000000000000000000000000100000000000000000000000000000000000000000000000000000000000000000000000100000",
      "type": "0x2",
      "transactionHash": "0x417668df91d32a5b4f2623c6ea8d29409b404ffaf923217777c4226228680f0a",
      "transactionIndex": "0x0",
      "blockHash": "0x29527df07018967a9ecadc5823a6ff72bc7942e8de2661b471cf98ded79da360",
      "blockNumber": "0xdd11e9",
      "gasUsed": "0xb41b",
      "effectiveGasPrice": "0xe0ca63009",
      "from": "0x1001f662c0de98e426870a9107f14a0c8c052aa0",
      "to": "0x1d9f50d64511770695284d98e882fb4b436191ad",
      "contractAddress": null
    }
  ],
  "libraries": [],
  "pending": [],
  "returns": {},
  "timestamp": 1731742024,
  "chain": 80002,
  "commit": "fa7e3d7"
}