{
  "transactions": [
    {
      "hash": "0x0fb99b1b8f78796b4773a18de6e8c16c4863f80c32b6c28ea7a4209553b066c3",
      "transactionType": "CALL",
      "contractName": null,
      "contractAddress": "0x1d9f50d64511770695284d98e882fb4b436191ad",
      "function": "setPeer(uint32,bytes32)",
      "arguments": [
        "40333",
        "0x0000000000000000000000001d9f50d64511770695284d98e882fb4b436191ad"
      ],
      "transaction": {
        "from": "0x1001f662c0de98e426870a9107f14a0c8c052aa0",
        "to": "0x1d9f50d64511770695284d98e882fb4b436191ad",
        "gas": "0x11096",
        "value": "0x0",
        "input": "0x3400288b0000000000000000000000000000000000000000000000000000000000009d8d0000000000000000000000001d9f50d64511770695284d98e882fb4b436191ad",
        "nonce": "0x1",
        "chainId": "0x13882"
      },
      "additionalContracts": [],
      "isFixedGasLimit": false
    },
    {
      "hash": "0xe5b824d90ac83cdbf244b8faf96cf3397ae27d4afc4d190a8ed2dca7c437362d",
      "transactionType": "CALL",
      "contractName": null,
      "contractAddress": "0x1d9f50d64511770695284d98e882fb4b436191ad",
      "function": "setPeer(uint32,bytes32)",
      "arguments": [
        "40170",
        "0x0000000000000000000000001d9f50d64511770695284d98e882fb4b436191ad"
      ],
      "transaction": {
        "from": "0x1001f662c0de98e426870a9107f14a0c8c052aa0",
        "to": "0x1d9f50d64511770695284d98e882fb4b436191ad",
        "gas": "0x11096",
        "value": "0x0",
        "input": "0x3400288b0000000000000000000000000000000000000000000000000000000000009cea0000000000000000000000001d9f50d64511770695284d98e882fb4b436191ad",
        "nonce": "0x2",
        "chainId": "0x13882"
      },
      "additionalContracts": [],
      "isFixedGasLimit": false
    },
    {
      "hash": "0x97f402046e9023fef6c233f9f4c9717e4693a06f1d55317f3ebebad5dbb0fa86",
      "transactionType": "CALL",
      "contractName": null,
      "contractAddress": "0x1d9f50d64511770695284d98e882fb4b436191ad",
      "function": "setPeer(uint32,bytes32)",
      "arguments": [
        "40275",
        "0x0000000000000000000000001d9f50d64511770695284d98e882fb4b436191ad"
      ],
      "transaction": {
        "from": "0x1001f662c0de98e426870a9107f14a0c8c052aa0",
        "to": "0x1d9f50d64511770695284d98e882fb4b436191ad",
        "gas": "0x11096",
        "value": "0x0",
        "input": "0x3400288b0000000000000000000000000000000000000000000000000000000000009d530000000000000000000000001d9f50d64511770695284d98e882fb4b436191ad",
        "nonce": "0x3",
        "chainId": "0x13882"
      },
      "additionalContracts": [],
      "isFixedGasLimit": false
    }
  ],
  "receipts": [
    {
      "status": "0x1",
      "cumulativeGasUsed": "0xba63",
      "logs": [
        {
          "address": "0x1d9f50d64511770695284d98e882fb4b436191ad",
          "topics": [
            "0x238399d427b947898edb290f5ff0f9109849b1c3ba196a42e35f00c50a54b98b"
          ],
          "data": "0x0000000000000000000000000000000000000000000000000000000000009d8d0000000000000000000000001d9f50d64511770695284d98e882fb4b436191ad",
          "blockHash": "0x01a4ffed2f15dc1bfaaa1ad9a85b79df8ed7f598c829e154cd98b63d324ffc35",
          "blockNumber": "0xdd06b4",
          "transactionHash": "0x0fb99b1b8f78796b4773a18de6e8c16c4863f80c32b6c28ea7a4209553b066c3",
          "transactionIndex": "0x0",
          "logIndex": "0x0",
          "removed": false
        },
        {
          "address": "0x0000000000000000000000000000000000001010",
          "topics": [
            "0x4dfe1bbbcf077ddc3e01291eea2d5c70c2b422b415d95645b9adcfd678cb1d63",
            "0x0000000000000000000000000000000000000000000000000000000000001010",
            "0x0000000000000000000000001001f662c0de98e426870a9107f14a0c8c052aa0",
            "0x0000000000000000000000004ad84f7014b7b44f723f284a85b1662337971439"
          ],
          "data": "0x0000000000000000000000000000000000000000000000000008862fb2995f4b0000000000000000000000000000000000000000000000000305d3adb3ff680000000000000000000000000000000000000000000000041266196c8ad30effba00000000000000000000000000000000000000000000000002fd4d7e016608b50000000000000000000000000000000000000000000004126621f2ba85a85f05",
          "blockHash": "0x01a4ffed2f15dc1bfaaa1ad9a85b79df8ed7f598c829e154cd98b63d324ffc35",
          "blockNumber": "0xdd06b4",
          "transactionHash": "0x0fb99b1b8f78796b4773a18de6e8c16c4863f80c32b6c28ea7a4209553b066c3",
          "transactionIndex": "0x0",
          "logIndex": "0x1",
          "removed": false
        }
      ],
      "logsBloom": "0x00000000400000000000000000000000000000000100000000000000000000000000000000000000000000000000000000008000000000000800000000400000000000000000000000000000000000800080000000000000000100001000000000000000000000000000000000000000000000000000000080000000000000000100000000000000000000000000000000000000000200000000000000000000200000008000000000000000000000000000000000000000000002000000004000000000000000000001000000000000000000000000000000140000000000000000000000000000000000000000008000000000000000000000000000100000",
      "type": "0x2",
      "transactionHash": "0x0fb99b1b8f78796b4773a18de6e8c16c4863f80c32b6c28ea7a4209553b066c3",
      "transactionIndex": "0x0",
      "blockHash": "0x01a4ffed2f15dc1bfaaa1ad9a85b79df8ed7f598c829e154cd98b63d324ffc35",
      "blockNumber": "0xdd06b4",
      "gasUsed": "0xba63",
      "effectiveGasPrice": "0xbb5352808",
      "from": "0x1001f662c0de98e426870a9107f14a0c8c052aa0",
      "to": "0x1d9f50d64511770695284d98e882fb4b436191ad",
      "contractAddress": null
    },
    {
      "status": "0x1",
      "cumulativeGasUsed": "0x174c6",
      "logs": [
        {
          "address": "0x1d9f50d64511770695284d98e882fb4b436191ad",
          "topics": [
            "0x238399d427b947898edb290f5ff0f9109849b1c3ba196a42e35f00c50a54b98b"
          ],
          "data": "0x0000000000000000000000000000000000000000000000000000000000009cea0000000000000000000000001d9f50d64511770695284d98e882fb4b436191ad",
          "blockHash": "0x01a4ffed2f15dc1bfaaa1ad9a85b79df8ed7f598c829e154cd98b63d324ffc35",
          "blockNumber": "0xdd06b4",
          "transactionHash": "0xe5b824d90ac83cdbf244b8faf96cf3397ae27d4afc4d190a8ed2dca7c437362d",
          "transactionIndex": "0x1",
          "logIndex": "0x2",
          "removed": false
        },
        {
          "address": "0x0000000000000000000000000000000000001010",
          "topics": [
            "0x4dfe1bbbcf077ddc3e01291eea2d5c70c2b422b415d95645b9adcfd678cb1d63",
            "0x0000000000000000000000000000000000000000000000000000000000001010",
            "0x0000000000000000000000001001f662c0de98e426870a9107f14a0c8c052aa0",
            "0x0000000000000000000000004ad84f7014b7b44f723f284a85b1662337971439"
          ],
          "data": "0x0000000000000000000000000000000000000000000000000008862fb2995f4b00000000000000000000000000000000000000000000000002fd4d7e015b1ce80000000000000000000000000000000000000000000004126621f2ba85a85f0500000000000000000000000000000000000000000000000002f4c74e4ec1bd9d000000000000000000000000000000000000000000000412662a78ea3841be50",
          "blockHash": "0x01a4ffed2f15dc1bfaaa1ad9a85b79df8ed7f598c829e154cd98b63d324ffc35",
          "blockNumber": "0xdd06b4",
          "transactionHash": "0xe5b824d90ac83cdbf244b8faf96cf3397ae27d4afc4d190a8ed2dca7c437362d",
          "transactionIndex": "0x1",
          "logIndex": "0x3",
          "removed": false
        }
      ],
      "logsBloom": "0x00000000400000000000000000000000000000000100000000000000000000000000000000000000000000000000000000008000000000000800000000400000000000000000000000000000000000800080000000000000000100001000000000000000000000000000000000000000000000000000000080000000000000000100000000000000000000000000000000000000000200000000000000000000200000008000000000000000000000000000000000000000000002000000004000000000000000000001000000000000000000000000000000140000000000000000000000000000000000000000008000000000000000000000000000100000",
      "type": "0x2",
      "transactionHash": "0xe5b824d90ac83cdbf244b8faf96cf3397ae27d4afc4d190a8ed2dca7c437362d",
      "transactionIndex": "0x1",
      "blockHash": "0x01a4ffed2f15dc1bfaaa1ad9a85b79df8ed7f598c829e154cd98b63d324ffc35",
      "blockNumber": "0xdd06b4",
      "gasUsed": "0xba63",
      "effectiveGasPrice": "0xbb5352808",
      "from": "0x1001f662c0de98e426870a9107f14a0c8c052aa0",
      "to": "0x1d9f50d64511770695284d98e882fb4b436191ad",
      "contractAddress": null
    },
    {
      "status": "0x1",
      "cumulativeGasUsed": "0x22f29",
      "logs": [
        {
          "address": "0x1d9f50d64511770695284d98e882fb4b436191ad",
          "topics": [
            "0x238399d427b947898edb290f5ff0f9109849b1c3ba196a42e35f00c50a54b98b"
          ],
          "data": "0x0000000000000000000000000000000000000000000000000000000000009d530000000000000000000000001d9f50d64511770695284d98e882fb4b436191ad",
          "blockHash": "0x01a4ffed2f15dc1bfaaa1ad9a85b79df8ed7f598c829e154cd98b63d324ffc35",
          "blockNumber": "0xdd06b4",
          "transactionHash": "0x97f402046e9023fef6c233f9f4c9717e4693a06f1d55317f3ebebad5dbb0fa86",
          "transactionIndex": "0x2",
          "logIndex": "0x4",
          "removed": false
        },
        {
          "address": "0x0000000000000000000000000000000000001010",
          "topics": [
            "0x4dfe1bbbcf077ddc3e01291eea2d5c70c2b422b415d95645b9adcfd678cb1d63",
            "0x0000000000000000000000000000000000000000000000000000000000001010",
            "0x0000000000000000000000001001f662c0de98e426870a9107f14a0c8c052aa0",
            "0x0000000000000000000000004ad84f7014b7b44f723f284a85b1662337971439"
          ],
          "data": "0x0000000000000000000000000000000000000000000000000008862fb2995f4b00000000000000000000000000000000000000000000000002f4c74e4eb6d1d0000000000000000000000000000000000000000000000412662a78ea3841be5000000000000000000000000000000000000000000000000002ec411e9c1d72850000000000000000000000000000000000000000000004126632ff19eadb1d9b",
          "blockHash": "0x01a4ffed2f15dc1bfaaa1ad9a85b79df8ed7f598c829e154cd98b63d324ffc35",
          "blockNumber": "0xdd06b4",
          "transactionHash": "0x97f402046e9023fef6c233f9f4c9717e4693a06f1d55317f3ebebad5dbb0fa86",
          "transactionIndex": "0x2",
          "logIndex": "0x5",
          "removed": false
        }
      ],
      "logsBloom": "0x00000000400000000000000000000000000000000100000000000000000000000000000000000000000000000000000000008000000000000800000000400000000000000000000000000000000000800080000000000000000100001000000000000000000000000000000000000000000000000000000080000000000000000100000000000000000000000000000000000000000200000000000000000000200000008000000000000000000000000000000000000000000002000000004000000000000000000001000000000000000000000000000000140000000000000000000000000000000000000000008000000000000000000000000000100000",
      "type": "0x2",
      "transactionHash": "0x97f402046e9023fef6c233f9f4c9717e4693a06f1d55317f3ebebad5dbb0fa86",
      "transactionIndex": "0x2",
      "blockHash": "0x01a4ffed2f15dc1bfaaa1ad9a85b79df8ed7f598c829e154cd98b63d324ffc35",
      "blockNumber": "0xdd06b4",
      "gasUsed": "0xba63",
      "effectiveGasPrice": "0xbb5352808",
      "from": "0x1001f662c0de98e426870a9107f14a0c8c052aa0",
      "to": "0x1d9f50d64511770695284d98e882fb4b436191ad",
      "contractAddress": null
    }
  ],
  "libraries": [],
  "pending": [],
  "returns": {},
  "timestamp": 1731735930,
  "chain": 80002,
  "commit": "fa7e3d7"
}