{
  "transactions": [
    {
      "hash": "0xa14bfe859894dd14bbd2aaf712422a05a9883d70bea11214d55fe0128a84a91c",
      "transactionType": "CALL",
      "contractName": null,
      "contractAddress": "0x1d9f50d64511770695284d98e882fb4b436191ad",
      "function": "setToken(address)",
      "arguments": [
        "0x5EC52789EE47241B40bcf758ae913f1AD4F783D6"
      ],
      "transaction": {
        "from": "0x1001f662c0de98e426870a9107f14a0c8c052aa0",
        "to": "0x1d9f50d64511770695284d98e882fb4b436191ad",
        "gas": "0x9c80",
        "value": "0x0",
        "input": "0x144fa6d70000000000000000000000005ec52789ee47241b40bcf758ae913f1ad4f783d6",
        "nonce": "0x14",
        "chainId": "0x13882"
      },
      "additionalContracts": [],
      "isFixedGasLimit": false
    }
  ],
  "receipts": [
    {
      "status": "0x1",
      "cumulativeGasUsed": "0x714f",
      "logs": [
        {
          "address": "0x0000000000000000000000000000000000001010",
          "topics": [
            "0x4dfe1bbbcf077ddc3e01291eea2d5c70c2b422b415d95645b9adcfd678cb1d63",
            "0x0000000000000000000000000000000000000000000000000000000000001010",
            "0x0000000000000000000000001001f662c0de98e426870a9107f14a0c8c052aa0",
            "0x00000000000000000000000009207a6efee346cb3e4a54ac18523e3715d38b3f"
          ],
          "data": "0x0000000000000000000000000000000000000000000000000006d71c62b5702600000000000000000000000000000000000000000000000000de0b4bb2526e910000000000000000000000000000000000000000000003c5017b740e8ad9fcb800000000000000000000000000000000000000000000000000d7342f4f9cfe6b0000000000000000000000000000000000000000000003c501824b2aed8f6cde",
          "blockHash": "0x7d6874562127493e99d7f5e9c1ff83fcd70681f4b2bbc4bf950bc1ae1a30d7a0",
          "blockNumber": "0xdd177a",
          "transactionHash": "0xa14bfe859894dd14bbd2aaf712422a05a9883d70bea11214d55fe0128a84a91c",
          "transactionIndex": "0x0",
          "logIndex": "0x0",
          "removed": false
        }
      ],
      "logsBloom": "0x00000000400000000000000000000000000000000100000000000000000000000000000000000000000000000000000000008000000000000000010000000000000000000000000000000000000000800000000000000000000100000000000000000000000000000000000000000000000000000000000080000000000000000000000000000000000000000000000000004000000000000000000000000000200000008000000000000000000000000000000000000000000000000000004000000000000000000001000000000000000000000000000000100000000000000000000000000000000000010000000000000000000000000000000000100000",
      "type": "0x2",
      "transactionHash": "0xa14bfe859894dd14bbd2aaf712422a05a9883d70bea11214d55fe0128a84a91c",
      "transactionIndex": "0x0",
      "blockHash": "0x7d6874562127493e99d7f5e9c1ff83fcd70681f4b2bbc4bf950bc1ae1a30d7a0",
      "blockNumber": "0xdd177a",
      "gasUsed": "0x714f",
      "effectiveGasPrice": "0xf74506809",
      "from": "0x1001f662c0de98e426870a9107f14a0c8c052aa0",
      "to": "0x1d9f50d64511770695284d98e882fb4b436191ad",
      "contractAddress": null
    }
  ],
  "libraries": [],
  "pending": [],
  "returns": {},
  "timestamp": 1731745053,
  "chain": 80002,
  "commit": "fa7e3d7"
}