{
  "transactions": [
    {
      "hash": "0xaa5bd373389c12fc25e48cf00bbc4220a1eab509b46870f12b84ec6cd51ad31a",
      "transactionType": "CALL",
      "contractName": null,
      "contractAddress": "0x1d9f50d64511770695284d98e882fb4b436191ad",
      "function": "setPeer(uint32,bytes32)",
      "arguments": [
        "40333",
        "0x0000000000000000000000001d9f50d64511770695284d98e882fb4b436191ad"
      ],
      "transaction": {
        "from": "0x1001f662c0de98e426870a9107f14a0c8c052aa0",
        "to": "0x1d9f50d64511770695284d98e882fb4b436191ad",
        "gas": "0x11096",
        "value": "0x0",
        "input": "0x3400288b0000000000000000000000000000000000000000000000000000000000009d8d0000000000000000000000001d9f50d64511770695284d98e882fb4b436191ad",
        "nonce": "0x1",
        "chainId": "0x8274f"
      },
      "additionalContracts": [],
      "isFixedGasLimit": false
    },
    {
      "hash": "0x4d7a57dabe69ed5e1eadeff36eedcd5970d20f76208e01fa81fbdeb831d2532a",
      "transactionType": "CALL",
      "contractName": null,
      "contractAddress": "0x1d9f50d64511770695284d98e882fb4b436191ad",
      "function": "setPeer(uint32,bytes32)",
      "arguments": [
        "40267",
        "0x0000000000000000000000001d9f50d64511770695284d98e882fb4b436191ad"
      ],
      "transaction": {
        "from": "0x1001f662c0de98e426870a9107f14a0c8c052aa0",
        "to": "0x1d9f50d64511770695284d98e882fb4b436191ad",
        "gas": "0x11096",
        "value": "0x0",
        "input": "0x3400288b0000000000000000000000000000000000000000000000000000000000009d4b0000000000000000000000001d9f50d64511770695284d98e882fb4b436191ad",
        "nonce": "0x2",
        "chainId": "0x8274f"
      },
      "additionalContracts": [],
      "isFixedGasLimit": false
    },
    {
      "hash": "0xe5fd2b75135c940b8391a28dea0b6540eae5f6f7fe624b3ad16c4e46eb88f1cd",
      "transactionType": "CALL",
      "contractName": null,
      "contractAddress": "0x1d9f50d64511770695284d98e882fb4b436191ad",
      "function": "setPeer(uint32,bytes32)",
      "arguments": [
        "40275",
        "0x0000000000000000000000001d9f50d64511770695284d98e882fb4b436191ad"
      ],
      "transaction": {
        "from": "0x1001f662c0de98e426870a9107f14a0c8c052aa0",
        "to": "0x1d9f50d64511770695284d98e882fb4b436191ad",
        "gas": "0x11096",
        "value": "0x0",
        "input": "0x3400288b0000000000000000000000000000000000000000000000000000000000009d530000000000000000000000001d9f50d64511770695284d98e882fb4b436191ad",
        "nonce": "0x3",
        "chainId": "0x8274f"
      },
      "additionalContracts": [],
      "isFixedGasLimit": false
    }
  ],
  "receipts": [
    {
      "status": "0x1",
      "cumulativeGasUsed": "0xba63",
      "logs": [
        {
          "address": "0x1d9f50d64511770695284d98e882fb4b436191ad",
          "topics": [
            "0x238399d427b947898edb290f5ff0f9109849b1c3ba196a42e35f00c50a54b98b"
          ],
          "data": "0x0000000000000000000000000000000000000000000000000000000000009d8d0000000000000000000000001d9f50d64511770695284d98e882fb4b436191ad",
          "blockHash": "0x0abe7dda2951039921bd495f3bfd02d2245053ec5387cad8dc7d80d1bce0e2a8",
          "blockNumber": "0x6f65e0",
          "transactionHash": "0xaa5bd373389c12fc25e48cf00bbc4220a1eab509b46870f12b84ec6cd51ad31a",
          "transactionIndex": "0x0",
          "logIndex": "0x0",
          "removed": false
        }
      ],
      "logsBloom": "0x00000000000000000000000000000000000000000000000000000000000000000000000000000000000000000000000000000000000000000800000000000000000000000000000000000000000000000080000000000000000000000000000000000000000000000000000000000000000000000000000000000000000000000100000000000000000000000000000000000000000200000000000000000000000000000000000000000000000000000000000000000000000002000000000000000000000000000000000000000000000000000000000000040000000000000000000000000000000000000000000000000000000000000000000000000000",
      "type": "0x2",
      "transactionHash": "0xaa5bd373389c12fc25e48cf00bbc4220a1eab509b46870f12b84ec6cd51ad31a",
      "transactionIndex": "0x0",
      "blockHash": "0x0abe7dda2951039921bd495f3bfd02d2245053ec5387cad8dc7d80d1bce0e2a8",
      "blockNumber": "0x6f65e0",
      "gasUsed": "0xba63",
      "effectiveGasPrice": "0x3b94fcd4",
      "from": "0x1001f662c0de98e426870a9107f14a0c8c052aa0",
      "to": "0x1d9f50d64511770695284d98e882fb4b436191ad",
      "contractAddress": null,
      "l1Fee": "0x166e30b728"
    },
    {
      "status": "0x1",
      "cumulativeGasUsed": "0xba63",
      "logs": [
        {
          "address": "0x1d9f50d64511770695284d98e882fb4b436191ad",
          "topics": [
            "0x238399d427b947898edb290f5ff0f9109849b1c3ba196a42e35f00c50a54b98b"
          ],
          "data": "0x0000000000000000000000000000000000000000000000000000000000009d4b0000000000000000000000001d9f50d64511770695284d98e882fb4b436191ad",
          "blockHash": "0xfa831f0a88b88e99d92d56969c3d60d4ef9e7e9e8e4b95555572be32a3ea9165",
          "blockNumber": "0x6f65e1",
          "transactionHash": "0x4d7a57dabe69ed5e1eadeff36eedcd5970d20f76208e01fa81fbdeb831d2532a",
          "transactionIndex": "0x0",
          "logIndex": "0x0",
          "removed": false
        }
      ],
      "logsBloom": "0x00000000000000000000000000000000000000000000000000000000000000000000000000000000000000000000000000000000000000000800000000000000000000000000000000000000000000000080000000000000000000000000000000000000000000000000000000000000000000000000000000000000000000000100000000000000000000000000000000000000000200000000000000000000000000000000000000000000000000000000000000000000000002000000000000000000000000000000000000000000000000000000000000040000000000000000000000000000000000000000000000000000000000000000000000000000",
      "type": "0x2",
      "transactionHash": "0x4d7a57dabe69ed5e1eadeff36eedcd5970d20f76208e01fa81fbdeb831d2532a",
      "transactionIndex": "0x0",
      "blockHash": "0xfa831f0a88b88e99d92d56969c3d60d4ef9e7e9e8e4b95555572be32a3ea9165",
      "blockNumber": "0x6f65e1",
      "gasUsed": "0xba63",
      "effectiveGasPrice": "0x3b94fcd4",
      "from": "0x1001f662c0de98e426870a9107f14a0c8c052aa0",
      "to": "0x1d9f50d64511770695284d98e882fb4b436191ad",
      "contractAddress": null,
      "l1Fee": "0x166e30b728"
    },
    {
      "status": "0x1",
      "cumulativeGasUsed": "0x174c6",
      "logs": [
        {
          "address": "0x1d9f50d64511770695284d98e882fb4b436191ad",
          "topics": [
            "0x238399d427b947898edb290f5ff0f9109849b1c3ba196a42e35f00c50a54b98b"
          ],
          "data": "0x0000000000000000000000000000000000000000000000000000000000009d530000000000000000000000001d9f50d64511770695284d98e882fb4b436191ad",
          "blockHash": "0xfa831f0a88b88e99d92d56969c3d60d4ef9e7e9e8e4b95555572be32a3ea9165",
          "blockNumber": "0x6f65e1",
          "transactionHash": "0xe5fd2b75135c940b8391a28dea0b6540eae5f6f7fe624b3ad16c4e46eb88f1cd",
          "transactionIndex": "0x1",
          "logIndex": "0x1",
          "removed": false
        }
      ],
      "logsBloom": "0x00000000000000000000000000000000000000000000000000000000000000000000000000000000000000000000000000000000000000000800000000000000000000000000000000000000000000000080000000000000000000000000000000000000000000000000000000000000000000000000000000000000000000000100000000000000000000000000000000000000000200000000000000000000000000000000000000000000000000000000000000000000000002000000000000000000000000000000000000000000000000000000000000040000000000000000000000000000000000000000000000000000000000000000000000000000",
      "type": "0x2",
      "transactionHash": "0xe5fd2b75135c940b8391a28dea0b6540eae5f6f7fe624b3ad16c4e46eb88f1cd",
      "transactionIndex": "0x1",
      "blockHash": "0xfa831f0a88b88e99d92d56969c3d60d4ef9e7e9e8e4b95555572be32a3ea9165",
      "blockNumber": "0x6f65e1",
      "gasUsed": "0xba63",
      "effectiveGasPrice": "0x3b94fcd4",
      "from": "0x1001f662c0de98e426870a9107f14a0c8c052aa0",
      "to": "0x1d9f50d64511770695284d98e882fb4b436191ad",
      "contractAddress": null,
      "l1Fee": "0x166e30b728"
    }
  ],
  "libraries": [],
  "pending": [],
  "returns": {},
  "timestamp": 1731735885,
  "chain": 534351,
  "commit": "fa7e3d7"
}