{
  "transactions": [
    {
      "hash": "0x4315123d4ebbfda19cf444038cf5e0526b0f95dee5aec87c03339b7275b77762",
      "transactionType": "CALL",
      "contractName": null,
      "contractAddress": "0x7cfa3f1199f2a48eafb69b3a0d80234b98516110",
      "function": "setChainlessBalance(address)",
      "arguments": [
        "0x1d9F50D64511770695284D98E882Fb4B436191ad"
      ],
      "transaction": {
        "from": "0x1001f662c0de98e426870a9107f14a0c8c052aa0",
        "to": "0x7cfa3f1199f2a48eafb69b3a0d80234b98516110",
        "gas": "0xf95b",
        "value": "0x0",
        "input": "0xbb2119bc0000000000000000000000001d9f50d64511770695284d98e882fb4b436191ad",
        "nonce": "0xd",
        "chainId": "0xbf03"
      },
      "additionalContracts": [],
      "isFixedGasLimit": false
    },
    {
      "hash": "0xaf51befc7e8cc52aceccb87281c0b6a3bd3ae4153266a9fea6c1714e6dcbf1a4",
      "transactionType": "CALL",
      "contractName": null,
      "contractAddress": "0x7cfa3f1199f2a48eafb69b3a0d80234b98516110",
      "function": "addDestination(uint32)",
      "arguments": [
        "40333"
      ],
      "transaction": {
        "from": "0x1001f662c0de98e426870a9107f14a0c8c052aa0",
        "to": "0x7cfa3f1199f2a48eafb69b3a0d80234b98516110",
        "gas": "0x28796",
        "value": "0x0",
        "input": "0x3115f4900000000000000000000000000000000000000000000000000000000000009d8d",
        "nonce": "0xe",
        "chainId": "0xbf03"
      },
      "additionalContracts": [],
      "isFixedGasLimit": false
    },
    {
      "hash": "0xd6f2144cb9af5f06ad616b1c7405054be9b967be49705886dc95867f2424278f",
      "transactionType": "CALL",
      "contractName": null,
      "contractAddress": "0x7cfa3f1199f2a48eafb69b3a0d80234b98516110",
      "function": "setPeer(uint32,bytes32)",
      "arguments": [
        "40333",
        "0x0000000000000000000000007cfa3f1199f2a48eafb69b3a0d80234b98516110"
      ],
      "transaction": {
        "from": "0x1001f662c0de98e426870a9107f14a0c8c052aa0",
        "to": "0x7cfa3f1199f2a48eafb69b3a0d80234b98516110",
        "gas": "0x10135",
        "value": "0x0",
        "input": "0x3400288b0000000000000000000000000000000000000000000000000000000000009d8d0000000000000000000000007cfa3f1199f2a48eafb69b3a0d80234b98516110",
        "nonce": "0xf",
        "chainId": "0xbf03"
      },
      "additionalContracts": [],
      "isFixedGasLimit": false
    },
    {
      "hash": "0x481f5cd208b1084e393e56e97317a7b163b8dfa874820cb23d50262174ff2568",
      "transactionType": "CALL",
      "contractName": null,
      "contractAddress": "0x7cfa3f1199f2a48eafb69b3a0d80234b98516110",
      "function": "addDestination(uint32)",
      "arguments": [
        "40170"
      ],
      "transaction": {
        "from": "0x1001f662c0de98e426870a9107f14a0c8c052aa0",
        "to": "0x7cfa3f1199f2a48eafb69b3a0d80234b98516110",
        "gas": "0x11712",
        "value": "0x0",
        "input": "0x3115f4900000000000000000000000000000000000000000000000000000000000009cea",
        "nonce": "0x10",
        "chainId": "0xbf03"
      },
      "additionalContracts": [],
      "isFixedGasLimit": false
    },
    {
      "hash": "0xd9631c1e2eeffc9ea62d9eccbb8e5599928917cebd07e03a614357f121ee6542",
      "transactionType": "CALL",
      "contractName": null,
      "contractAddress": "0x7cfa3f1199f2a48eafb69b3a0d80234b98516110",
      "function": "setPeer(uint32,bytes32)",
      "arguments": [
        "40170",
        "0x0000000000000000000000007cfa3f1199f2a48eafb69b3a0d80234b98516110"
      ],
      "transaction": {
        "from": "0x1001f662c0de98e426870a9107f14a0c8c052aa0",
        "to": "0x7cfa3f1199f2a48eafb69b3a0d80234b98516110",
        "gas": "0x10135",
        "value": "0x0",
        "input": "0x3400288b0000000000000000000000000000000000000000000000000000000000009cea0000000000000000000000007cfa3f1199f2a48eafb69b3a0d80234b98516110",
        "nonce": "0x11",
        "chainId": "0xbf03"
      },
      "additionalContracts": [],
      "isFixedGasLimit": false
    },
    {
      "hash": "0x6832286af62853faecbb267931239f82f6bf6ad1707685410b666a00c968f8dc",
      "transactionType": "CALL",
      "contractName": null,
      "contractAddress": "0x7cfa3f1199f2a48eafb69b3a0d80234b98516110",
      "function": "addDestination(uint32)",
      "arguments": [
        "40267"
      ],
      "transaction": {
        "from": "0x1001f662c0de98e426870a9107f14a0c8c052aa0",
        "to": "0x7cfa3f1199f2a48eafb69b3a0d80234b98516110",
        "gas": "0x11712",
        "value": "0x0",
        "input": "0x3115f4900000000000000000000000000000000000000000000000000000000000009d4b",
        "nonce": "0x12",
        "chainId": "0xbf03"
      },
      "additionalContracts": [],
      "isFixedGasLimit": false
    },
    {
      "hash": "0xea2bf2600c455d52554c82b82eb0d81af2cb95ae86e54b889aff93bcdb09cdb0",
      "transactionType": "CALL",
      "contractName": null,
      "contractAddress": "0x7cfa3f1199f2a48eafb69b3a0d80234b98516110",
      "function": "setPeer(uint32,bytes32)",
      "arguments": [
        "40267",
        "0x0000000000000000000000007cfa3f1199f2a48eafb69b3a0d80234b98516110"
      ],
      "transaction": {
        "from": "0x1001f662c0de98e426870a9107f14a0c8c052aa0",
        "to": "0x7cfa3f1199f2a48eafb69b3a0d80234b98516110",
        "gas": "0x10135",
        "value": "0x0",
        "input": "0x3400288b0000000000000000000000000000000000000000000000000000000000009d4b0000000000000000000000007cfa3f1199f2a48eafb69b3a0d80234b98516110",
        "nonce": "0x13",
        "chainId": "0xbf03"
      },
      "additionalContracts": [],
      "isFixedGasLimit": false
    }
  ],
  "receipts": [
    {
      "status": "0x1",
      "cumulativeGasUsed": "0x16859",
      "logs": [],
      "logsBloom": "0x00000000000000000000000000000000000000000000000000000000000000000000000000000000000000000000000000000000000000000000000000000000000000000000000000000000000000000000000000000000000000000000000000000000000000000000000000000000000000000000000000000000000000000000000000000000000000000000000000000000000000000000000000000000000000000000000000000000000000000000000000000000000000000000000000000000000000000000000000000000000000000000000000000000000000000000000000000000000000000000000000000000000000000000000000000000",
      "type": "0x2",
      "transactionHash": "0x4315123d4ebbfda19cf444038cf5e0526b0f95dee5aec87c03339b7275b77762",
      "transactionIndex": "0x1",
      "blockHash": "0x9775008cc0f657d1fbab32fbf5cf459a51df8ec2dce2a42d40d1282646facc72",
      "blockNumber": "0xf2f7bb",
      "gasUsed": "0xb488",
      "effectiveGasPrice": "0xfe",
      "from": "0x1001f662c0de98e426870a9107f14a0c8c052aa0",
      "to": "0x7cfa3f1199f2a48eafb69b3a0d80234b98516110",
      "contractAddress": null,
      "l1Fee": "0x546519e1",
      "l1GasPrice": "0x1d35d770",
      "l1GasUsed": "0x840"
    },
    {
      "status": "0x1",
      "cumulativeGasUsed": "0x2a96d",
      "logs": [],
      "logsBloom": "0x00000000000000000000000000000000000000000000000000000000000000000000000000000000000000000000000000000000000000000000000000000000000000000000000000000000000000000000000000000000000000000000000000000000000000000000000000000000000000000000000000000000000000000000000000000000000000000000000000000000000000000000000000000000000000000000000000000000000000000000000000000000000000000000000000000000000000000000000000000000000000000000000000000000000000000000000000000000000000000000000000000000000000000000000000000000",
      "type": "0x2",
      "transactionHash": "0xaf51befc7e8cc52aceccb87281c0b6a3bd3ae4153266a9fea6c1714e6dcbf1a4",
      "transactionIndex": "0x1",
      "blockHash": "0xe1ae1642531272ed55aeeb27468795e7293839d614a301d0df69811e13d3a8ef",
      "blockNumber": "0xf2f7bc",
      "gasUsed": "0x1d4d8",
      "effectiveGasPrice": "0xfe",
      "from": "0x1001f662c0de98e426870a9107f14a0c8c052aa0",
      "to": "0x7cfa3f1199f2a48eafb69b3a0d80234b98516110",
      "contractAddress": null,
      "l1Fee": "0x49d53b6c",
      "l1GasPrice": "0x1c67f10e",
      "l1GasUsed": "0x76c"
    },
    {
      "status": "0x1",
      "cumulativeGasUsed": "0x16e08",
      "logs": [
        {
          "address": "0x7cfa3f1199f2a48eafb69b3a0d80234b98516110",
          "topics": [
            "0x238399d427b947898edb290f5ff0f9109849b1c3ba196a42e35f00c50a54b98b"
          ],
          "data": "0x0000000000000000000000000000000000000000000000000000000000009d8d0000000000000000000000007cfa3f1199f2a48eafb69b3a0d80234b98516110",
          "blockHash": "0x8caedb901c449e64f71a035e5d9230c7a1c466256f4f0f26759797663b3e0f8c",
          "blockNumber": "0xf2f7be",
          "transactionHash": "0xd6f2144cb9af5f06ad616b1c7405054be9b967be49705886dc95867f2424278f",
          "transactionIndex": "0x1",
          "logIndex": "0x0",
          "removed": false
        }
      ],
      "logsBloom": "0x00000000000000000000000000000000000000000000000000000000000000000000000000000000000000000000000000000000000000000800000000000000000000000000000000000000000000000000000000000000080000000000000000000000000000000000000000000000000000000000000000000000000000000000000000000000000000000000000000400000000000000000000000000000000000000000000000000000000000000000000000000000000002000000000000000000000000000000000000000000000000000000000000040000000000000000000000000000000000000000000000000000000000000000002000000000",
      "type": "0x2",
      "transactionHash": "0xd6f2144cb9af5f06ad616b1c7405054be9b967be49705886dc95867f2424278f",
      "transactionIndex": "0x1",
      "blockHash": "0x8caedb901c449e64f71a035e5d9230c7a1c466256f4f0f26759797663b3e0f8c",
      "blockNumber": "0xf2f7be",
      "gasUsed": "0xba37",
      "effectiveGasPrice": "0xfe",
      "from": "0x1001f662c0de98e426870a9107f14a0c8c052aa0",
      "to": "0x7cfa3f1199f2a48eafb69b3a0d80234b98516110",
      "contractAddress": null,
      "l1Fee": "0x5849e4f8",
      "l1GasPrice": "0x1c67f10e",
      "l1GasUsed": "0x8e0"
    },
    {
      "status": "0x1",
      "cumulativeGasUsed": "0x17ddd",
      "logs": [],
      "logsBloom": "0x00000000000000000000000000000000000000000000000000000000000000000000000000000000000000000000000000000000000000000000000000000000000000000000000000000000000000000000000000000000000000000000000000000000000000000000000000000000000000000000000000000000000000000000000000000000000000000000000000000000000000000000000000000000000000000000000000000000000000000000000000000000000000000000000000000000000000000000000000000000000000000000000000000000000000000000000000000000000000000000000000000000000000000000000000000000",
      "type": "0x2",
      "transactionHash": "0x481f5cd208b1084e393e56e97317a7b163b8dfa874820cb23d50262174ff2568",
      "transactionIndex": "0x1",
      "blockHash": "0x836a887177eba59b0ecb1e3c3c82a1b8bb58e014746b5f4d88d7d70ffdbef891",
      "blockNumber": "0xf2f7c0",
      "gasUsed": "0xca0c",
      "effectiveGasPrice": "0xfe",
      "from": "0x1001f662c0de98e426870a9107f14a0c8c052aa0",
      "to": "0x7cfa3f1199f2a48eafb69b3a0d80234b98516110",
      "contractAddress": null,
      "l1Fee": "0x49d53b6c",
      "l1GasPrice": "0x1c67f10e",
      "l1GasUsed": "0x76c"
    },
    {
      "status": "0x1",
      "cumulativeGasUsed": "0x22325",
      "logs": [
        {
          "address": "0x7cfa3f1199f2a48eafb69b3a0d80234b98516110",
          "topics": [
            "0x238399d427b947898edb290f5ff0f9109849b1c3ba196a42e35f00c50a54b98b"
          ],
          "data": "0x0000000000000000000000000000000000000000000000000000000000009cea0000000000000000000000007cfa3f1199f2a48eafb69b3a0d80234b98516110",
          "blockHash": "0x6750c108c86f0d119424f4f8a7a24e791621944c932f21b1f8048170b2442ff7",
          "blockNumber": "0xf2f7c2",
          "transactionHash": "0xd9631c1e2eeffc9ea62d9eccbb8e5599928917cebd07e03a614357f121ee6542",
          "transactionIndex": "0x2",
          "logIndex": "0x0",
          "removed": false
        }
      ],
      "logsBloom": "0x00000000000000000000000000000000000000000000000000000000000000000000000000000000000000000000000000000000000000000800000000000000000000000000000000000000000000000000000000000000080000000000000000000000000000000000000000000000000000000000000000000000000000000000000000000000000000000000000000400000000000000000000000000000000000000000000000000000000000000000000000000000000002000000000000000000000000000000000000000000000000000000000000040000000000000000000000000000000000000000000000000000000000000000002000000000",
      "type": "0x2",
      "transactionHash": "0xd9631c1e2eeffc9ea62d9eccbb8e5599928917cebd07e03a614357f121ee6542",
      "transactionIndex": "0x2",
      "blockHash": "0x6750c108c86f0d119424f4f8a7a24e791621944c932f21b1f8048170b2442ff7",
      "blockNumber": "0xf2f7c2",
      "gasUsed": "0xba37",
      "effectiveGasPrice": "0xfe",
      "from": "0x1001f662c0de98e426870a9107f14a0c8c052aa0",
      "to": "0x7cfa3f1199f2a48eafb69b3a0d80234b98516110",
      "contractAddress": null,
      "l1Fee": "0x591b9ed2",
      "l1GasPrice": "0x1c84dbaa",
      "l1GasUsed": "0x8ec"
    },
    {
      "status": "0x1",
      "cumulativeGasUsed": "0x2ed31",
      "logs": [],
      "logsBloom": "0x00000000000000000000000000000000000000000000000000000000000000000000000000000000000000000000000000000000000000000000000000000000000000000000000000000000000000000000000000000000000000000000000000000000000000000000000000000000000000000000000000000000000000000000000000000000000000000000000000000000000000000000000000000000000000000000000000000000000000000000000000000000000000000000000000000000000000000000000000000000000000000000000000000000000000000000000000000000000000000000000000000000000000000000000000000000",
      "type": "0x2",
      "transactionHash": "0x6832286af62853faecbb267931239f82f6bf6ad1707685410b666a00c968f8dc",
      "transactionIndex": "0x3",
      "blockHash": "0x6750c108c86f0d119424f4f8a7a24e791621944c932f21b1f8048170b2442ff7",
      "blockNumber": "0xf2f7c2",
      "gasUsed": "0xca0c",
      "effectiveGasPrice": "0xfe",
      "from": "0x1001f662c0de98e426870a9107f14a0c8c052aa0",
      "to": "0x7cfa3f1199f2a48eafb69b3a0d80234b98516110",
      "contractAddress": null,
      "l1Fee": "0x4a983e1d",
      "l1GasPrice": "0x1c84dbaa",
      "l1GasUsed": "0x778"
    },
    {
      "status": "0x1",
      "cumulativeGasUsed": "0x20279",
      "logs": [
        {
          "address": "0x7cfa3f1199f2a48eafb69b3a0d80234b98516110",
          "topics": [
            "0x238399d427b947898edb290f5ff0f9109849b1c3ba196a42e35f00c50a54b98b"
          ],
          "data": "0x0000000000000000000000000000000000000000000000000000000000009d4b0000000000000000000000007cfa3f1199f2a48eafb69b3a0d80234b98516110",
          "blockHash": "0xfa9601a756bdb4b49d7763a559e3101ac9ac75df821ac611411c6c9c10af3407",
          "blockNumber": "0xf2f7c3",
          "transactionHash": "0xea2bf2600c455d52554c82b82eb0d81af2cb95ae86e54b889aff93bcdb09cdb0",
          "transactionIndex": "0x2",
          "logIndex": "0x0",
          "removed": false
        }
      ],
      "logsBloom": "0x00000000000000000000000000000000000000000000000000000000000000000000000000000000000000000000000000000000000000000800000000000000000000000000000000000000000000000000000000000000080000000000000000000000000000000000000000000000000000000000000000000000000000000000000000000000000000000000000000400000000000000000000000000000000000000000000000000000000000000000000000000000000002000000000000000000000000000000000000000000000000000000000000040000000000000000000000000000000000000000000000000000000000000000002000000000",
      "type": "0x2",
      "transactionHash": "0xea2bf2600c455d52554c82b82eb0d81af2cb95ae86e54b889aff93bcdb09cdb0",
      "transactionIndex": "0x2",
      "blockHash": "0xfa9601a756bdb4b49d7763a559e3101ac9ac75df821ac611411c6c9c10af3407",
      "blockNumber": "0xf2f7c3",
      "gasUsed": "0xba37",
      "effectiveGasPrice": "0xfe",
      "from": "0x1001f662c0de98e426870a9107f14a0c8c052aa0",
      "to": "0x7cfa3f1199f2a48eafb69b3a0d80234b98516110",
      "contractAddress": null,
      "l1Fee": "0x591b9ed2",
      "l1GasPrice": "0x1c84dbaa",
      "l1GasUsed": "0x8ec"
    }
  ],
  "libraries": [],
  "pending": [],
  "returns": {},
  "timestamp": 1731744106,
  "chain": 48899,
  "commit": "fa7e3d7"
}