{
  "transactions": [
    {
      "hash": "0xf02df13770ac9ebe6936ca242731569d4f025c626e64f036cfa6defc3b235790",
      "transactionType": "CALL",
      "contractName": null,
      "contractAddress": "0xa8ff03a3af16a07e505fa7b5c1e3e2726d9787a3",
      "function": "setChainlessBalance(address)",
      "arguments": [
        "0x114F9aFB1dce419E06d6709CfA87954378cf492e"
      ],
      "transaction": {
        "from": "0x12348e0f1d209896a76768a283b2b5dd42c9f460",
        "to": "0xa8ff03a3af16a07e505fa7b5c1e3e2726d9787a3",
        "gas": "0xf95b",
        "value": "0x0",
        "input": "0xbb2119bc000000000000000000000000114f9afb1dce419e06d6709cfa87954378cf492e",
        "nonce": "0x5",
        "chainId": "0xbf03"
      },
      "additionalContracts": [],
      "isFixedGasLimit": false
    },
    {
      "hash": "0x55c25b39f7ffcf2fa112bb384b46e86b09aa333273979aa5c4d9edddc0cb6b16",
      "transactionType": "CALL",
      "contractName": null,
      "contractAddress": "0xa8ff03a3af16a07e505fa7b5c1e3e2726d9787a3",
      "function": "addDestination(uint32)",
      "arguments": [
        "40170"
      ],
      "transaction": {
        "from": "0x12348e0f1d209896a76768a283b2b5dd42c9f460",
        "to": "0xa8ff03a3af16a07e505fa7b5c1e3e2726d9787a3",
        "gas": "0x28796",
        "value": "0x0",
        "input": "0x3115f4900000000000000000000000000000000000000000000000000000000000009cea",
        "nonce": "0x6",
        "chainId": "0xbf03"
      },
      "additionalContracts": [],
      "isFixedGasLimit": false
    },
    {
      "hash": "0x3fc700bae19341ab83671bcdd9f386df7bd3c9ff9de331e6232f0d33fa247fe4",
      "transactionType": "CALL",
      "contractName": null,
      "contractAddress": "0xa8ff03a3af16a07e505fa7b5c1e3e2726d9787a3",
      "function": "setPeer(uint32,bytes32)",
      "arguments": [
        "40170",
        "0x000000000000000000000000a8ff03a3af16a07e505fa7b5c1e3e2726d9787a3"
      ],
      "transaction": {
        "from": "0x12348e0f1d209896a76768a283b2b5dd42c9f460",
        "to": "0xa8ff03a3af16a07e505fa7b5c1e3e2726d9787a3",
        "gas": "0x10135",
        "value": "0x0",
        "input": "0x3400288b0000000000000000000000000000000000000000000000000000000000009cea000000000000000000000000a8ff03a3af16a07e505fa7b5c1e3e2726d9787a3",
        "nonce": "0x7",
        "chainId": "0xbf03"
      },
      "additionalContracts": [],
      "isFixedGasLimit": false
    },
    {
      "hash": "0xd9afe55dbb66c2f3e07ede3e74b37ba824766e2971b85c52d397defecb73f791",
      "transactionType": "CALL",
      "contractName": null,
      "contractAddress": "0xa8ff03a3af16a07e505fa7b5c1e3e2726d9787a3",
      "function": "addDestination(uint32)",
      "arguments": [
        "40267"
      ],
      "transaction": {
        "from": "0x12348e0f1d209896a76768a283b2b5dd42c9f460",
        "to": "0xa8ff03a3af16a07e505fa7b5c1e3e2726d9787a3",
        "gas": "0x11712",
        "value": "0x0",
        "input": "0x3115f4900000000000000000000000000000000000000000000000000000000000009d4b",
        "nonce": "0x8",
        "chainId": "0xbf03"
      },
      "additionalContracts": [],
      "isFixedGasLimit": false
    },
    {
      "hash": "0xbfdf5d7a8e6f9619f5841803d39074c5efcf946ed57d0ab3f277b5a09a0c826c",
      "transactionType": "CALL",
      "contractName": null,
      "contractAddress": "0xa8ff03a3af16a07e505fa7b5c1e3e2726d9787a3",
      "function": "setPeer(uint32,bytes32)",
      "arguments": [
        "40267",
        "0x000000000000000000000000a8ff03a3af16a07e505fa7b5c1e3e2726d9787a3"
      ],
      "transaction": {
        "from": "0x12348e0f1d209896a76768a283b2b5dd42c9f460",
        "to": "0xa8ff03a3af16a07e505fa7b5c1e3e2726d9787a3",
        "gas": "0x10135",
        "value": "0x0",
        "input": "0x3400288b0000000000000000000000000000000000000000000000000000000000009d4b000000000000000000000000a8ff03a3af16a07e505fa7b5c1e3e2726d9787a3",
        "nonce": "0x9",
        "chainId": "0xbf03"
      },
      "additionalContracts": [],
      "isFixedGasLimit": false
    }
  ],
  "receipts": [
    {
      "status": "0x1",
      "cumulativeGasUsed": "0x16859",
      "logs": [],
      "logsBloom": "0x00000000000000000000000000000000000000000000000000000000000000000000000000000000000000000000000000000000000000000000000000000000000000000000000000000000000000000000000000000000000000000000000000000000000000000000000000000000000000000000000000000000000000000000000000000000000000000000000000000000000000000000000000000000000000000000000000000000000000000000000000000000000000000000000000000000000000000000000000000000000000000000000000000000000000000000000000000000000000000000000000000000000000000000000000000000",
      "type": "0x2",
      "transactionHash": "0xf02df13770ac9ebe6936ca242731569d4f025c626e64f036cfa6defc3b235790",
      "transactionIndex": "0x1",
      "blockHash": "0x9d4a4bb34f3c5d850399409e4f0bbc9a3be931940f80f7156c35f8f6252f1a2c",
      "blockNumber": "0xf30ff1",
      "gasUsed": "0xb488",
      "effectiveGasPrice": "0xfe",
      "from": "0x12348e0f1d209896a76768a283b2b5dd42c9f460",
      "to": "0xa8ff03a3af16a07e505fa7b5c1e3e2726d9787a3",
      "contractAddress": null,
      "l1Fee": "0xd63c21c3",
      "l1GasPrice": "0x4a265b74",
      "l1GasUsed": "0x840"
    },
    {
      "status": "0x1",
      "cumulativeGasUsed": "0x2a96d",
      "logs": [],
      "logsBloom": "0x00000000000000000000000000000000000000000000000000000000000000000000000000000000000000000000000000000000000000000000000000000000000000000000000000000000000000000000000000000000000000000000000000000000000000000000000000000000000000000000000000000000000000000000000000000000000000000000000000000000000000000000000000000000000000000000000000000000000000000000000000000000000000000000000000000000000000000000000000000000000000000000000000000000000000000000000000000000000000000000000000000000000000000000000000000000",
      "type": "0x2",
      "transactionHash": "0x55c25b39f7ffcf2fa112bb384b46e86b09aa333273979aa5c4d9edddc0cb6b16",
      "transactionIndex": "0x1",
      "blockHash": "0xc9cd87a4d5c6a4d3ddc76cec1924f72b3b39f3c9ec642ae22048f875e263b9fe",
      "blockNumber": "0xf30ff2",
      "gasUsed": "0x1d4d8",
      "effectiveGasPrice": "0xfe",
      "from": "0x12348e0f1d209896a76768a283b2b5dd42c9f460",
      "to": "0xa8ff03a3af16a07e505fa7b5c1e3e2726d9787a3",
      "contractAddress": null,
      "l1Fee": "0xc95f093b",
      "l1GasPrice": "0x4cfcf22f",
      "l1GasUsed": "0x778"
    },
    {
      "status": "0x1",
      "cumulativeGasUsed": "0x16e08",
      "logs": [
        {
          "address": "0xa8ff03a3af16a07e505fa7b5c1e3e2726d9787a3",
          "topics": [
            "0x238399d427b947898edb290f5ff0f9109849b1c3ba196a42e35f00c50a54b98b"
          ],
          "data": "0x0000000000000000000000000000000000000000000000000000000000009cea000000000000000000000000a8ff03a3af16a07e505fa7b5c1e3e2726d9787a3",
          "blockHash": "0x3670b34e5cf5d175960e36523b3c236e66b98d001adc15bc3b6855a47a5c5d2e",
          "blockNumber": "0xf30ff4",
          "transactionHash": "0x3fc700bae19341ab83671bcdd9f386df7bd3c9ff9de331e6232f0d33fa247fe4",
          "transactionIndex": "0x1",
          "logIndex": "0x0",
          "removed": false
        }
      ],
      "logsBloom": "0x00000004000000000000000000000000000000000000000000000000000000000000002000000000000000000000000000000000000000000800000000000000000000000000000000000000000000000000000000000000000000000000000000000000000000000000000000000000000000000000000000000000000000000000000000000000000000000000000000000000000000000000000000000000000000000000000000000000000001000000000000000000000002000000000000000000000000000000000000000000000000000000000000040000000000000000000000000000000000000000000000000000000000000000000000000000",
      "type": "0x2",
      "transactionHash": "0x3fc700bae19341ab83671bcdd9f386df7bd3c9ff9de331e6232f0d33fa247fe4",
      "transactionIndex": "0x1",
      "blockHash": "0x3670b34e5cf5d175960e36523b3c236e66b98d001adc15bc3b6855a47a5c5d2e",
      "blockNumber": "0xf30ff4",
      "gasUsed": "0xba37",
      "effectiveGasPrice": "0xfe",
      "from": "0x12348e0f1d209896a76768a283b2b5dd42c9f460",
      "to": "0xa8ff03a3af16a07e505fa7b5c1e3e2726d9787a3",
      "contractAddress": null,
      "l1Fee": "0xef494c4e",
      "l1GasPrice": "0x4cfcf22f",
      "l1GasUsed": "0x8e0"
    },
    {
      "status": "0x1",
      "cumulativeGasUsed": "0x23814",
      "logs": [],
      "logsBloom": "0x00000000000000000000000000000000000000000000000000000000000000000000000000000000000000000000000000000000000000000000000000000000000000000000000000000000000000000000000000000000000000000000000000000000000000000000000000000000000000000000000000000000000000000000000000000000000000000000000000000000000000000000000000000000000000000000000000000000000000000000000000000000000000000000000000000000000000000000000000000000000000000000000000000000000000000000000000000000000000000000000000000000000000000000000000000000",
      "type": "0x2",
      "transactionHash": "0xd9afe55dbb66c2f3e07ede3e74b37ba824766e2971b85c52d397defecb73f791",
      "transactionIndex": "0x2",
      "blockHash": "0x3670b34e5cf5d175960e36523b3c236e66b98d001adc15bc3b6855a47a5c5d2e",
      "blockNumber": "0xf30ff4",
      "gasUsed": "0xca0c",
      "effectiveGasPrice": "0xfe",
      "from": "0x12348e0f1d209896a76768a283b2b5dd42c9f460",
      "to": "0xa8ff03a3af16a07e505fa7b5c1e3e2726d9787a3",
      "contractAddress": null,
      "l1Fee": "0xc81b7e76",
      "l1GasPrice": "0x4cfcf22f",
      "l1GasUsed": "0x76c"
    },
    {
      "status": "0x1",
      "cumulativeGasUsed": "0x2f24b",
      "logs": [
        {
          "address": "0xa8ff03a3af16a07e505fa7b5c1e3e2726d9787a3",
          "topics": [
            "0x238399d427b947898edb290f5ff0f9109849b1c3ba196a42e35f00c50a54b98b"
          ],
          "data": "0x0000000000000000000000000000000000000000000000000000000000009d4b000000000000000000000000a8ff03a3af16a07e505fa7b5c1e3e2726d9787a3",
          "blockHash": "0x3670b34e5cf5d175960e36523b3c236e66b98d001adc15bc3b6855a47a5c5d2e",
          "blockNumber": "0xf30ff4",
          "transactionHash": "0xbfdf5d7a8e6f9619f5841803d39074c5efcf946ed57d0ab3f277b5a09a0c826c",
          "transactionIndex": "0x3",
          "logIndex": "0x1",
          "removed": false
        }
      ],
      "logsBloom": "0x00000004000000000000000000000000000000000000000000000000000000000000002000000000000000000000000000000000000000000800000000000000000000000000000000000000000000000000000000000000000000000000000000000000000000000000000000000000000000000000000000000000000000000000000000000000000000000000000000000000000000000000000000000000000000000000000000000000000001000000000000000000000002000000000000000000000000000000000000000000000000000000000000040000000000000000000000000000000000000000000000000000000000000000000000000000",
      "type": "0x2",
      "transactionHash": "0xbfdf5d7a8e6f9619f5841803d39074c5efcf946ed57d0ab3f277b5a09a0c826c",
      "transactionIndex": "0x3",
      "blockHash": "0x3670b34e5cf5d175960e36523b3c236e66b98d001adc15bc3b6855a47a5c5d2e",
      "blockNumber": "0xf30ff4",
      "gasUsed": "0xba37",
      "effectiveGasPrice": "0xfe",
      "from": "0x12348e0f1d209896a76768a283b2b5dd42c9f460",
      "to": "0xa8ff03a3af16a07e505fa7b5c1e3e2726d9787a3",
      "contractAddress": null,
      "l1Fee": "0xef494c4e",
      "l1GasPrice": "0x4cfcf22f",
      "l1GasUsed": "0x8e0"
    }
  ],
  "libraries": [],
  "pending": [],
  "returns": {},
  "timestamp": 1731756495,
  "chain": 48899,
  "commit": "fa7e3d7"
}