{
  "transactions": [
    {
      "hash": "0xccb5aabc9a082660f0cb692b7f08d79e7a0c91042e4de60c1af233fb7fd81a12",
      "transactionType": "CALL",
      "contractName": null,
      "contractAddress": "0xe9839aecccc989c7f736e8c5a787591b1894f65c",
      "function": "setChainlessBalance(address)",
      "arguments": [
        "0x1d9F50D64511770695284D98E882Fb4B436191ad"
      ],
      "transaction": {
        "from": "0x1001f662c0de98e426870a9107f14a0c8c052aa0",
        "to": "0xe9839aecccc989c7f736e8c5a787591b1894f65c",
        "gas": "0xf95b",
        "value": "0x0",
        "input": "0xbb2119bc0000000000000000000000001d9f50d64511770695284d98e882fb4b436191ad",
        "nonce": "0x6",
        "chainId": "0xbf03"
      },
      "additionalContracts": [],
      "isFixedGasLimit": false
    },
    {
      "hash": "0x675ab16790773aafd01bf22cf347c88409682cecada75b6572952ff2955a4184",
      "transactionType": "CALL",
      "contractName": null,
      "contractAddress": "0xe9839aecccc989c7f736e8c5a787591b1894f65c",
      "function": "setPeer(uint32,bytes32)",
      "arguments": [
        "40333",
        "0x000000000000000000000000e9839aecccc989c7f736e8c5a787591b1894f65c"
      ],
      "transaction": {
        "from": "0x1001f662c0de98e426870a9107f14a0c8c052aa0",
        "to": "0xe9839aecccc989c7f736e8c5a787591b1894f65c",
        "gas": "0x10135",
        "value": "0x0",
        "input": "0x3400288b0000000000000000000000000000000000000000000000000000000000009d8d000000000000000000000000e9839aecccc989c7f736e8c5a787591b1894f65c",
        "nonce": "0x7",
        "chainId": "0xbf03"
      },
      "additionalContracts": [],
      "isFixedGasLimit": false
    },
    {
      "hash": "0x0156463d506e94729924536573fcc91a85b66224db596b0430400a4535103f87",
      "transactionType": "CALL",
      "contractName": null,
      "contractAddress": "0xe9839aecccc989c7f736e8c5a787591b1894f65c",
      "function": "setPeer(uint32,bytes32)",
      "arguments": [
        "40170",
        "0x000000000000000000000000e9839aecccc989c7f736e8c5a787591b1894f65c"
      ],
      "transaction": {
        "from": "0x1001f662c0de98e426870a9107f14a0c8c052aa0",
        "to": "0xe9839aecccc989c7f736e8c5a787591b1894f65c",
        "gas": "0x10135",
        "value": "0x0",
        "input": "0x3400288b0000000000000000000000000000000000000000000000000000000000009cea000000000000000000000000e9839aecccc989c7f736e8c5a787591b1894f65c",
        "nonce": "0x8",
        "chainId": "0xbf03"
      },
      "additionalContracts": [],
      "isFixedGasLimit": false
    },
    {
      "hash": "0xe764ad077ba9d7023d6783d29346d794ec165ce7762c0fe43799e5947b340bc5",
      "transactionType": "CALL",
      "contractName": null,
      "contractAddress": "0xe9839aecccc989c7f736e8c5a787591b1894f65c",
      "function": "setPeer(uint32,bytes32)",
      "arguments": [
        "40267",
        "0x000000000000000000000000e9839aecccc989c7f736e8c5a787591b1894f65c"
      ],
      "transaction": {
        "from": "0x1001f662c0de98e426870a9107f14a0c8c052aa0",
        "to": "0xe9839aecccc989c7f736e8c5a787591b1894f65c",
        "gas": "0x10135",
        "value": "0x0",
        "input": "0x3400288b0000000000000000000000000000000000000000000000000000000000009d4b000000000000000000000000e9839aecccc989c7f736e8c5a787591b1894f65c",
        "nonce": "0x9",
        "chainId": "0xbf03"
      },
      "additionalContracts": [],
      "isFixedGasLimit": false
    }
  ],
  "receipts": [
    {
      "status": "0x1",
      "cumulativeGasUsed": "0x3c16a",
      "logs": [],
      "logsBloom": "0x00000000000000000000000000000000000000000000000000000000000000000000000000000000000000000000000000000000000000000000000000000000000000000000000000000000000000000000000000000000000000000000000000000000000000000000000000000000000000000000000000000000000000000000000000000000000000000000000000000000000000000000000000000000000000000000000000000000000000000000000000000000000000000000000000000000000000000000000000000000000000000000000000000000000000000000000000000000000000000000000000000000000000000000000000000000",
      "type": "0x2",
      "transactionHash": "0xccb5aabc9a082660f0cb692b7f08d79e7a0c91042e4de60c1af233fb7fd81a12",
      "transactionIndex": "0x2",
      "blockHash": "0x83f9fc837460f945467b5e0c8161a49ce6ec55f4f7975fe1e950e018730a1a9b",
      "blockNumber": "0xf2f2ca",
      "gasUsed": "0xb488",
      "effectiveGasPrice": "0xfe",
      "from": "0x1001f662c0de98e426870a9107f14a0c8c052aa0",
      "to": "0xe9839aecccc989c7f736e8c5a787591b1894f65c",
      "contractAddress": null,
      "l1Fee": "0x6299c1d0",
      "l1GasPrice": "0x22208a9f",
      "l1GasUsed": "0x840"
    },
    {
      "status": "0x1",
      "cumulativeGasUsed": "0x16dfc",
      "logs": [
        {
          "address": "0xe9839aecccc989c7f736e8c5a787591b1894f65c",
          "topics": [
            "0x238399d427b947898edb290f5ff0f9109849b1c3ba196a42e35f00c50a54b98b"
          ],
          "data": "0x0000000000000000000000000000000000000000000000000000000000009d8d000000000000000000000000e9839aecccc989c7f736e8c5a787591b1894f65c",
          "blockHash": "0x36b14fb5118399bfc117b058b7ee9000c24e0ba33c7e5d6f994ab2e630a3d6e5",
          "blockNumber": "0xf2f2cb",
          "transactionHash": "0x675ab16790773aafd01bf22cf347c88409682cecada75b6572952ff2955a4184",
          "transactionIndex": "0x1",
          "logIndex": "0x0",
          "removed": false
        }
      ],
      "logsBloom": "0x00000000000000000000000000000000000000000000000000000000000000000000000000000000000000000000000000000000000000000800000000000000000000000000000000000000000000000000000000000000000000000000000000000000000000000000000000000000000000000000000000000000000000000000000000000000000000000000000000000000020000000000000000000000000000000000004000000000000000000000000000000000000002000000000000000000000000000000000000000000000000000008000000040000000000000000000000000000000000000000000000000000000000000000000000000000",
      "type": "0x2",
      "transactionHash": "0x675ab16790773aafd01bf22cf347c88409682cecada75b6572952ff2955a4184",
      "transactionIndex": "0x1",
      "blockHash": "0x36b14fb5118399bfc117b058b7ee9000c24e0ba33c7e5d6f994ab2e630a3d6e5",
      "blockNumber": "0xf2f2cb",
      "gasUsed": "0xba37",
      "effectiveGasPrice": "0xfe",
      "from": "0x1001f662c0de98e426870a9107f14a0c8c052aa0",
      "to": "0xe9839aecccc989c7f736e8c5a787591b1894f65c",
      "contractAddress": null,
      "l1Fee": "0x69e2347e",
      "l1GasPrice": "0x22208a9f",
      "l1GasUsed": "0x8dc"
    },
    {
      "status": "0x1",
      "cumulativeGasUsed": "0x16dfc",
      "logs": [
        {
          "address": "0xe9839aecccc989c7f736e8c5a787591b1894f65c",
          "topics": [
            "0x238399d427b947898edb290f5ff0f9109849b1c3ba196a42e35f00c50a54b98b"
          ],
          "data": "0x0000000000000000000000000000000000000000000000000000000000009cea000000000000000000000000e9839aecccc989c7f736e8c5a787591b1894f65c",
          "blockHash": "0x89e13cb1641a2b353337ecee091ceac2d7987bdd2d388dc0f3d7655b320fbdf7",
          "blockNumber": "0xf2f2cd",
          "transactionHash": "0x0156463d506e94729924536573fcc91a85b66224db596b0430400a4535103f87",
          "transactionIndex": "0x1",
          "logIndex": "0x0",
          "removed": false
        }
      ],
      "logsBloom": "0x00000000000000000000000000000000000000000000000000000000000000000000000000000000000000000000000000000000000000000800000000000000000000000000000000000000000000000000000000000000000000000000000000000000000000000000000000000000000000000000000000000000000000000000000000000000000000000000000000000000020000000000000000000000000000000000004000000000000000000000000000000000000002000000000000000000000000000000000000000000000000000008000000040000000000000000000000000000000000000000000000000000000000000000000000000000",
      "type": "0x2",
      "transactionHash": "0x0156463d506e94729924536573fcc91a85b66224db596b0430400a4535103f87",
      "transactionIndex": "0x1",
      "blockHash": "0x89e13cb1641a2b353337ecee091ceac2d7987bdd2d388dc0f3d7655b320fbdf7",
      "blockNumber": "0xf2f2cd",
      "gasUsed": "0xba37",
      "effectiveGasPrice": "0xfe",
      "from": "0x1001f662c0de98e426870a9107f14a0c8c052aa0",
      "to": "0xe9839aecccc989c7f736e8c5a787591b1894f65c",
      "contractAddress": null,
      "l1Fee": "0x6a1202eb",
      "l1GasPrice": "0x22208a9f",
      "l1GasUsed": "0x8e0"
    },
    {
      "status": "0x1",
      "cumulativeGasUsed": "0x22833",
      "logs": [
        {
          "address": "0xe9839aecccc989c7f736e8c5a787591b1894f65c",
          "topics": [
            "0x238399d427b947898edb290f5ff0f9109849b1c3ba196a42e35f00c50a54b98b"
          ],
          "data": "0x0000000000000000000000000000000000000000000000000000000000009d4b000000000000000000000000e9839aecccc989c7f736e8c5a787591b1894f65c",
          "blockHash": "0x89e13cb1641a2b353337ecee091ceac2d7987bdd2d388dc0f3d7655b320fbdf7",
          "blockNumber": "0xf2f2cd",
          "transactionHash": "0xe764ad077ba9d7023d6783d29346d794ec165ce7762c0fe43799e5947b340bc5",
          "transactionIndex": "0x2",
          "logIndex": "0x1",
          "removed": false
        }
      ],
      "logsBloom": "0x00000000000000000000000000000000000000000000000000000000000000000000000000000000000000000000000000000000000000000800000000000000000000000000000000000000000000000000000000000000000000000000000000000000000000000000000000000000000000000000000000000000000000000000000000000000000000000000000000000000020000000000000000000000000000000000004000000000000000000000000000000000000002000000000000000000000000000000000000000000000000000008000000040000000000000000000000000000000000000000000000000000000000000000000000000000",
      "type": "0x2",
      "transactionHash": "0xe764ad077ba9d7023d6783d29346d794ec165ce7762c0fe43799e5947b340bc5",
      "transactionIndex": "0x2",
      "blockHash": "0x89e13cb1641a2b353337ecee091ceac2d7987bdd2d388dc0f3d7655b320fbdf7",
      "blockNumber": "0xf2f2cd",
      "gasUsed": "0xba37",
      "effectiveGasPrice": "0xfe",
      "from": "0x1001f662c0de98e426870a9107f14a0c8c052aa0",
      "to": "0xe9839aecccc989c7f736e8c5a787591b1894f65c",
      "contractAddress": null,
      "l1Fee": "0x6aa16e34",
      "l1GasPrice": "0x22208a9f",
      "l1GasUsed": "0x8ec"
    }
  ],
  "libraries": [],
  "pending": [],
  "returns": {},
  "timestamp": 1731741562,
  "chain": 48899,
  "commit": "fa7e3d7"
}