{
  "transactions": [
    {
      "hash": "0xf57b72071e9175ec3a50ddf1563ce61a5d8bfb8e8274736c2208b2d040181b23",
      "transactionType": "CALL",
      "contractName": null,
      "contractAddress": "0xac45aaab89741702a9a0083e28fbcfe28ffe7a96",
      "function": "setChainlessBalance(address)",
      "arguments": [
        "0x7570adcf326406ef55C03e81d568EE1836E9A0e2"
      ],
      "transaction": {
        "from": "0x66666f4f66cc6a5bb6a7e73971e85eddf3b638c1",
        "to": "0xac45aaab89741702a9a0083e28fbcfe28ffe7a96",
        "gas": "0xf95b",
        "value": "0x0",
        "input": "0xbb2119bc0000000000000000000000007570adcf326406ef55c03e81d568ee1836e9a0e2",
        "nonce": "0x6",
        "chainId": "0xbf03"
      },
      "additionalContracts": [],
      "isFixedGasLimit": false
    },
    {
      "hash": "0x540b3fa18bbbcb41d756ad7ee702214ededc41c088dc3ca17b6770699667f4be",
      "transactionType": "CALL",
      "contractName": null,
      "contractAddress": "0xac45aaab89741702a9a0083e28fbcfe28ffe7a96",
      "function": "addDestination(uint32)",
      "arguments": [
        "40333"
      ],
      "transaction": {
        "from": "0x66666f4f66cc6a5bb6a7e73971e85eddf3b638c1",
        "to": "0xac45aaab89741702a9a0083e28fbcfe28ffe7a96",
        "gas": "0x28796",
        "value": "0x0",
        "input": "0x3115f4900000000000000000000000000000000000000000000000000000000000009d8d",
        "nonce": "0x7",
        "chainId": "0xbf03"
      },
      "additionalContracts": [],
      "isFixedGasLimit": false
    },
    {
      "hash": "0xd5620122257fabf88344738d724f5699108887a8de28e388485934bd3ef1d803",
      "transactionType": "CALL",
      "contractName": null,
      "contractAddress": "0xac45aaab89741702a9a0083e28fbcfe28ffe7a96",
      "function": "setPeer(uint32,bytes32)",
      "arguments": [
        "40333",
        "0x000000000000000000000000ac45aaab89741702a9a0083e28fbcfe28ffe7a96"
      ],
      "transaction": {
        "from": "0x66666f4f66cc6a5bb6a7e73971e85eddf3b638c1",
        "to": "0xac45aaab89741702a9a0083e28fbcfe28ffe7a96",
        "gas": "0x10135",
        "value": "0x0",
        "input": "0x3400288b0000000000000000000000000000000000000000000000000000000000009d8d000000000000000000000000ac45aaab89741702a9a0083e28fbcfe28ffe7a96",
        "nonce": "0x8",
        "chainId": "0xbf03"
      },
      "additionalContracts": [],
      "isFixedGasLimit": false
    },
    {
      "hash": "0x0d704fed075fa15ee14d5ce4f04f5abddf9a78a4a98c72c64309abf46dae19b1",
      "transactionType": "CALL",
      "contractName": null,
      "contractAddress": "0xac45aaab89741702a9a0083e28fbcfe28ffe7a96",
      "function": "addDestination(uint32)",
      "arguments": [
        "40170"
      ],
      "transaction": {
        "from": "0x66666f4f66cc6a5bb6a7e73971e85eddf3b638c1",
        "to": "0xac45aaab89741702a9a0083e28fbcfe28ffe7a96",
        "gas": "0x11712",
        "value": "0x0",
        "input": "0x3115f4900000000000000000000000000000000000000000000000000000000000009cea",
        "nonce": "0x9",
        "chainId": "0xbf03"
      },
      "additionalContracts": [],
      "isFixedGasLimit": false
    },
    {
      "hash": "0x490e26d654c0816150b3ee5ce233ffa4be408c9df4028bec6097d1267af90d91",
      "transactionType": "CALL",
      "contractName": null,
      "contractAddress": "0xac45aaab89741702a9a0083e28fbcfe28ffe7a96",
      "function": "setPeer(uint32,bytes32)",
      "arguments": [
        "40170",
        "0x000000000000000000000000ac45aaab89741702a9a0083e28fbcfe28ffe7a96"
      ],
      "transaction": {
        "from": "0x66666f4f66cc6a5bb6a7e73971e85eddf3b638c1",
        "to": "0xac45aaab89741702a9a0083e28fbcfe28ffe7a96",
        "gas": "0x10135",
        "value": "0x0",
        "input": "0x3400288b0000000000000000000000000000000000000000000000000000000000009cea000000000000000000000000ac45aaab89741702a9a0083e28fbcfe28ffe7a96",
        "nonce": "0xa",
        "chainId": "0xbf03"
      },
      "additionalContracts": [],
      "isFixedGasLimit": false
    },
    {
      "hash": "0xbe5a9ebc944adcec881edad84c04f21a1cf5df639f295305107de9ff3ecc8141",
      "transactionType": "CALL",
      "contractName": null,
      "contractAddress": "0xac45aaab89741702a9a0083e28fbcfe28ffe7a96",
      "function": "addDestination(uint32)",
      "arguments": [
        "40267"
      ],
      "transaction": {
        "from": "0x66666f4f66cc6a5bb6a7e73971e85eddf3b638c1",
        "to": "0xac45aaab89741702a9a0083e28fbcfe28ffe7a96",
        "gas": "0x11712",
        "value": "0x0",
        "input": "0x3115f4900000000000000000000000000000000000000000000000000000000000009d4b",
        "nonce": "0xb",
        "chainId": "0xbf03"
      },
      "additionalContracts": [],
      "isFixedGasLimit": false
    },
    {
      "hash": "0x2667c5b29756d5648609f6b602622f41899389a547e7d20517df6f59beec696e",
      "transactionType": "CALL",
      "contractName": null,
      "contractAddress": "0xac45aaab89741702a9a0083e28fbcfe28ffe7a96",
      "function": "setPeer(uint32,bytes32)",
      "arguments": [
        "40267",
        "0x000000000000000000000000ac45aaab89741702a9a0083e28fbcfe28ffe7a96"
      ],
      "transaction": {
        "from": "0x66666f4f66cc6a5bb6a7e73971e85eddf3b638c1",
        "to": "0xac45aaab89741702a9a0083e28fbcfe28ffe7a96",
        "gas": "0x10135",
        "value": "0x0",
        "input": "0x3400288b0000000000000000000000000000000000000000000000000000000000009d4b000000000000000000000000ac45aaab89741702a9a0083e28fbcfe28ffe7a96",
        "nonce": "0xc",
        "chainId": "0xbf03"
      },
      "additionalContracts": [],
      "isFixedGasLimit": false
    }
  ],
  "receipts": [
    {
      "status": "0x1",
      "cumulativeGasUsed": "0x16859",
      "logs": [],
      "logsBloom": "0x00000000000000000000000000000000000000000000000000000000000000000000000000000000000000000000000000000000000000000000000000000000000000000000000000000000000000000000000000000000000000000000000000000000000000000000000000000000000000000000000000000000000000000000000000000000000000000000000000000000000000000000000000000000000000000000000000000000000000000000000000000000000000000000000000000000000000000000000000000000000000000000000000000000000000000000000000000000000000000000000000000000000000000000000000000000",
      "type": "0x2",
      "transactionHash": "0xf57b72071e9175ec3a50ddf1563ce61a5d8bfb8e8274736c2208b2d040181b23",
      "transactionIndex": "0x1",
      "blockHash": "0xac65b6c1d17b99568b74d0a74d850b76710d72315a5df180516077bfa20cdd60",
      "blockNumber": "0xf30a63",
      "gasUsed": "0xb488",
      "effectiveGasPrice": "0xfe",
      "from": "0x66666f4f66cc6a5bb6a7e73971e85eddf3b638c1",
      "to": "0xac45aaab89741702a9a0083e28fbcfe28ffe7a96",
      "contractAddress": null,
      "l1Fee": "0x516c6756",
      "l1GasPrice": "0x1c2e8d93",
      "l1GasUsed": "0x840"
    },
    {
      "status": "0x1",
      "cumulativeGasUsed": "0x288a9",
      "logs": [],
      "logsBloom": "0x00000000000000000000000000000000000000000000000000000000000000000000000000000000000000000000000000000000000000000000000000000000000000000000000000000000000000000000000000000000000000000000000000000000000000000000000000000000000000000000000000000000000000000000000000000000000000000000000000000000000000000000000000000000000000000000000000000000000000000000000000000000000000000000000000000000000000000000000000000000000000000000000000000000000000000000000000000000000000000000000000000000000000000000000000000000",
      "type": "0x2",
      "transactionHash": "0x540b3fa18bbbcb41d756ad7ee702214ededc41c088dc3ca17b6770699667f4be",
      "transactionIndex": "0x1",
      "blockHash": "0x8c708050b20dd6bce6aadf1865829025dbd415f71b033f2fd250081591aa928f",
      "blockNumber": "0xf30a64",
      "gasUsed": "0x1d4d8",
      "effectiveGasPrice": "0xfe",
      "from": "0x66666f4f66cc6a5bb6a7e73971e85eddf3b638c1",
      "to": "0xac45aaab89741702a9a0083e28fbcfe28ffe7a96",
      "contractAddress": null,
      "l1Fee": "0x49b68076",
      "l1GasPrice": "0x1c2e8d93",
      "l1GasUsed": "0x778"
    },
    {
      "status": "0x1",
      "cumulativeGasUsed": "0x16e08",
      "logs": [
        {
          "address": "0xac45aaab89741702a9a0083e28fbcfe28ffe7a96",
          "topics": [
            "0x238399d427b947898edb290f5ff0f9109849b1c3ba196a42e35f00c50a54b98b"
          ],
          "data": "0x0000000000000000000000000000000000000000000000000000000000009d8d000000000000000000000000ac45aaab89741702a9a0083e28fbcfe28ffe7a96",
          "blockHash": "0xa2f07b0a9252e14491557edcb9813b3931b50191522c0835b542872f86792b9a",
          "blockNumber": "0xf30a66",
          "transactionHash": "0xd5620122257fabf88344738d724f5699108887a8de28e388485934bd3ef1d803",
          "transactionIndex": "0x1",
          "logIndex": "0x0",
          "removed": false
        }
      ],
      "logsBloom": "0x00000000000000000000000000000000000000000000000000000000000000000000000000000000000000000000000000000004000000000800000000000000000000000000000000000000000000000000000000000000000000000000000000000000000000000000000000000000000000000000000000000000000000080000000000000000000000000000000000000000000000000000000000000000000000000000000000000000000000000000000000000000000002000000000000000000000000000000000000000000000000000000000000040000000000020000000000000000000000000000000000000000000000000000000000000000",
      "type": "0x2",
      "transactionHash": "0xd5620122257fabf88344738d724f5699108887a8de28e388485934bd3ef1d803",
      "transactionIndex": "0x1",
      "blockHash": "0xa2f07b0a9252e14491557edcb9813b3931b50191522c0835b542872f86792b9a",
      "blockNumber": "0xf30a66",
      "gasUsed": "0xba37",
      "effectiveGasPrice": "0xfe",
      "from": "0x66666f4f66cc6a5bb6a7e73971e85eddf3b638c1",
      "to": "0xac45aaab89741702a9a0083e28fbcfe28ffe7a96",
      "contractAddress": null,
      "l1Fee": "0x5c262162",
      "l1GasPrice": "0x1da5e5a5",
      "l1GasUsed": "0x8e0"
    },
    {
      "status": "0x1",
      "cumulativeGasUsed": "0x23814",
      "logs": [],
      "logsBloom": "0x00000000000000000000000000000000000000000000000000000000000000000000000000000000000000000000000000000000000000000000000000000000000000000000000000000000000000000000000000000000000000000000000000000000000000000000000000000000000000000000000000000000000000000000000000000000000000000000000000000000000000000000000000000000000000000000000000000000000000000000000000000000000000000000000000000000000000000000000000000000000000000000000000000000000000000000000000000000000000000000000000000000000000000000000000000000",
      "type": "0x2",
      "transactionHash": "0x0d704fed075fa15ee14d5ce4f04f5abddf9a78a4a98c72c64309abf46dae19b1",
      "transactionIndex": "0x2",
      "blockHash": "0xa2f07b0a9252e14491557edcb9813b3931b50191522c0835b542872f86792b9a",
      "blockNumber": "0xf30a66",
      "gasUsed": "0xca0c",
      "effectiveGasPrice": "0xfe",
      "from": "0x66666f4f66cc6a5bb6a7e73971e85eddf3b638c1",
      "to": "0xac45aaab89741702a9a0083e28fbcfe28ffe7a96",
      "contractAddress": null,
      "l1Fee": "0x4d8c41f4",
      "l1GasPrice": "0x1da5e5a5",
      "l1GasUsed": "0x778"
    },
    {
      "status": "0x1",
      "cumulativeGasUsed": "0x2f24b",
      "logs": [
        {
          "address": "0xac45aaab89741702a9a0083e28fbcfe28ffe7a96",
          "topics": [
            "0x238399d427b947898edb290f5ff0f9109849b1c3ba196a42e35f00c50a54b98b"
          ],
          "data": "0x0000000000000000000000000000000000000000000000000000000000009cea000000000000000000000000ac45aaab89741702a9a0083e28fbcfe28ffe7a96",
          "blockHash": "0xa2f07b0a9252e14491557edcb9813b3931b50191522c0835b542872f86792b9a",
          "blockNumber": "0xf30a66",
          "transactionHash": "0x490e26d654c0816150b3ee5ce233ffa4be408c9df4028bec6097d1267af90d91",
          "transactionIndex": "0x3",
          "logIndex": "0x1",
          "removed": false
        }
      ],
      "logsBloom": "0x00000000000000000000000000000000000000000000000000000000000000000000000000000000000000000000000000000004000000000800000000000000000000000000000000000000000000000000000000000000000000000000000000000000000000000000000000000000000000000000000000000000000000080000000000000000000000000000000000000000000000000000000000000000000000000000000000000000000000000000000000000000000002000000000000000000000000000000000000000000000000000000000000040000000000020000000000000000000000000000000000000000000000000000000000000000",
      "type": "0x2",
      "transactionHash": "0x490e26d654c0816150b3ee5ce233ffa4be408c9df4028bec6097d1267af90d91",
      "transactionIndex": "0x3",
      "blockHash": "0xa2f07b0a9252e14491557edcb9813b3931b50191522c0835b542872f86792b9a",
      "blockNumber": "0xf30a66",
      "gasUsed": "0xba37",
      "effectiveGasPrice": "0xfe",
      "from": "0x66666f4f66cc6a5bb6a7e73971e85eddf3b638c1",
      "to": "0xac45aaab89741702a9a0083e28fbcfe28ffe7a96",
      "contractAddress": null,
      "l1Fee": "0x5ca2b9e6",
      "l1GasPrice": "0x1da5e5a5",
      "l1GasUsed": "0x8ec"
    },
    {
      "status": "0x1",
      "cumulativeGasUsed": "0x3bc57",
      "logs": [],
      "logsBloom": "0x00000000000000000000000000000000000000000000000000000000000000000000000000000000000000000000000000000000000000000000000000000000000000000000000000000000000000000000000000000000000000000000000000000000000000000000000000000000000000000000000000000000000000000000000000000000000000000000000000000000000000000000000000000000000000000000000000000000000000000000000000000000000000000000000000000000000000000000000000000000000000000000000000000000000000000000000000000000000000000000000000000000000000000000000000000000",
      "type": "0x2",
      "transactionHash": "0xbe5a9ebc944adcec881edad84c04f21a1cf5df639f295305107de9ff3ecc8141",
      "transactionIndex": "0x4",
      "blockHash": "0xa2f07b0a9252e14491557edcb9813b3931b50191522c0835b542872f86792b9a",
      "blockNumber": "0xf30a66",
      "gasUsed": "0xca0c",
      "effectiveGasPrice": "0xfe",
      "from": "0x66666f4f66cc6a5bb6a7e73971e85eddf3b638c1",
      "to": "0xac45aaab89741702a9a0083e28fbcfe28ffe7a96",
      "contractAddress": null,
      "l1Fee": "0x4d0fa970",
      "l1GasPrice": "0x1da5e5a5",
      "l1GasUsed": "0x76c"
    },
    {
      "status": "0x1",
      "cumulativeGasUsed": "0x4768e",
      "logs": [
        {
          "address": "0xac45aaab89741702a9a0083e28fbcfe28ffe7a96",
          "topics": [
            "0x238399d427b947898edb290f5ff0f9109849b1c3ba196a42e35f00c50a54b98b"
          ],
          "data": "0x0000000000000000000000000000000000000000000000000000000000009d4b000000000000000000000000ac45aaab89741702a9a0083e28fbcfe28ffe7a96",
          "blockHash": "0xa2f07b0a9252e14491557edcb9813b3931b50191522c0835b542872f86792b9a",
          "blockNumber": "0xf30a66",
          "transactionHash": "0x2667c5b29756d5648609f6b602622f41899389a547e7d20517df6f59beec696e",
          "transactionIndex": "0x5",
          "logIndex": "0x2",
          "removed": false
        }
      ],
      "logsBloom": "0x00000000000000000000000000000000000000000000000000000000000000000000000000000000000000000000000000000004000000000800000000000000000000000000000000000000000000000000000000000000000000000000000000000000000000000000000000000000000000000000000000000000000000080000000000000000000000000000000000000000000000000000000000000000000000000000000000000000000000000000000000000000000002000000000000000000000000000000000000000000000000000000000000040000000000020000000000000000000000000000000000000000000000000000000000000000",
      "type": "0x2",
      "transactionHash": "0x2667c5b29756d5648609f6b602622f41899389a547e7d20517df6f59beec696e",
      "transactionIndex": "0x5",
      "blockHash": "0xa2f07b0a9252e14491557edcb9813b3931b50191522c0835b542872f86792b9a",
      "blockNumber": "0xf30a66",
      "gasUsed": "0xba37",
      "effectiveGasPrice": "0xfe",
      "from": "0x66666f4f66cc6a5bb6a7e73971e85eddf3b638c1",
      "to": "0xac45aaab89741702a9a0083e28fbcfe28ffe7a96",
      "contractAddress": null,
      "l1Fee": "0x5c262162",
      "l1GasPrice": "0x1da5e5a5",
      "l1GasUsed": "0x8e0"
    }
  ],
  "libraries": [],
  "pending": [],
  "returns": {},
  "timestamp": 1731753651,
  "chain": 48899,
  "commit": "fa7e3d7"
}