{
  "deployments": [
    {
      "transactions": [
        {
          "hash": "0x494d0ae2c7f14b5b3457da22b4c7658113e550004f0be9b0822e40b7db807bb4",
          "transactionType": "CALL",
          "contractName": null,
          "contractAddress": "0x2c9b1a5ee1c9c5b7da8a4d7becf4e6d5d813f444",
          "function": "setToken(address)",
          "arguments": [
            "0x006A635370f443b6382D7fD4BDd8E8499650e8B4"
          ],
          "transaction": {
            "from": "0x777753cc9b41265578a44945315ab979835e4f94",
            "to": "0x2c9b1a5ee1c9c5b7da8a4d7becf4e6d5d813f444",
            "gas": "0xf8b3",
            "value": "0x0",
            "input": "0x144fa6d7000000000000000000000000006a635370f443b6382d7fd4bdd8e8499650e8b4",
            "nonce": "0x2",
            "chainId": "0x13882"
          },
          "additionalContracts": [],
          "isFixedGasLimit": false
        },
        {
          "hash": "0x23bfb6d2b283398052a6a0712dc0f021913eff7327b44f4bcc865a526d2b0169",
          "transactionType": "CALL",
          "contractName": null,
          "contractAddress": "0x2c9b1a5ee1c9c5b7da8a4d7becf4e6d5d813f444",
          "function": "setPeer(uint32,bytes32)",
          "arguments": [
            "40275",
            "0x0000000000000000000000002c9b1a5ee1c9c5b7da8a4d7becf4e6d5d813f444"
          ],
          "transaction": {
            "from": "0x777753cc9b41265578a44945315ab979835e4f94",
            "to": "0x2c9b1a5ee1c9c5b7da8a4d7becf4e6d5d813f444",
            "gas": "0x11096",
            "value": "0x0",
            "input": "0x3400288b0000000000000000000000000000000000000000000000000000000000009d530000000000000000000000002c9b1a5ee1c9c5b7da8a4d7becf4e6d5d813f444",
            "nonce": "0x3",
            "chainId": "0x13882"
          },
          "additionalContracts": [],
          "isFixedGasLimit": false
        }
      ],
      "receipts": [
        {
          "status": "0x1",
          "cumulativeGasUsed": "0x81e9b",
          "logs": [
            {
              "address": "0x0000000000000000000000000000000000001010",
              "topics": [
                "0x4dfe1bbbcf077ddc3e01291eea2d5c70c2b422b415d95645b9adcfd678cb1d63",
                "0x0000000000000000000000000000000000000000000000000000000000001010",
                "0x000000000000000000000000777753cc9b41265578a44945315ab979835e4f94",
                "0x0000000000000000000000004ad84f7014b7b44f723f284a85b1662337971439"
              ],
              "data": "0x0000000000000000000000000000000000000000000000000005139e2f2035f100000000000000000000000000000000000000000000000009ca1be54bd017cd00000000000000000000000000000000000000000000041375aac0007b3a672100000000000000000000000000000000000000000000000009c508471cafe1dc00000000000000000000000000000000000000000000041375afd39eaa5a9d12",
              "blockHash": "0x4bb8e691377499fa80af39df16609d5799c05bc9d0a7c7f27701c06d92d30105",
              "blockNumber": "0xdd5201",
              "transactionHash": "0x494d0ae2c7f14b5b3457da22b4c7658113e550004f0be9b0822e40b7db807bb4",
              "transactionIndex": "0x3",
              "logIndex": "0xb",
              "removed": false
            }
          ],
          "logsBloom": "0x00000000000000000000000000000000000000000000000000000000000000000000000000000000000000000000000000008000000000000000000000400000000000000000000000000000000000800000000000000000000100001000004000000000000000000000000000000000000000000000000080000000000000000000000000000000000000000000000000000000000000000000000000000000200000004000000000000000000000000000000000000000000000000000004000000000000000000001000000000000000000000000000000100000000000000000000000000000000000040000008000000000000000000000000000100000",
          "type": "0x2",
          "transactionHash": "0x494d0ae2c7f14b5b3457da22b4c7658113e550004f0be9b0822e40b7db807bb4",
          "transactionIndex": "0x3",
          "blockHash": "0x4bb8e691377499fa80af39df16609d5799c05bc9d0a7c7f27701c06d92d30105",
          "blockNumber": "0xdd5201",
          "gasUsed": "0xb40f",
          "effectiveGasPrice": "0x737be760e",
          "from": "0x777753cc9b41265578a44945315ab979835e4f94",
          "to": "0x2c9b1a5ee1c9c5b7da8a4d7becf4e6d5d813f444",
          "contractAddress": null
        },
        {
          "status": "0x1",
          "cumulativeGasUsed": "0x8d8fe",
          "logs": [
            {
              "address": "0x2c9b1a5ee1c9c5b7da8a4d7becf4e6d5d813f444",
              "topics": [
                "0x238399d427b947898edb290f5ff0f9109849b1c3ba196a42e35f00c50a54b98b"
              ],
              "data": "0x0000000000000000000000000000000000000000000000000000000000009d530000000000000000000000002c9b1a5ee1c9c5b7da8a4d7becf4e6d5d813f444",
              "blockHash": "0x4bb8e691377499fa80af39df16609d5799c05bc9d0a7c7f27701c06d92d30105",
              "blockNumber": "0xdd5201",
              "transactionHash": "0x23bfb6d2b283398052a6a0712dc0f021913eff7327b44f4bcc865a526d2b0169",
              "transactionIndex": "0x4",
              "logIndex": "0xc",
              "removed": false
            },
            {
              "address": "0x0000000000000000000000000000000000001010",
              "topics": [
                "0x4dfe1bbbcf077ddc3e01291eea2d5c70c2b422b415d95645b9adcfd678cb1d63",
                "0x0000000000000000000000000000000000000000000000000000000000001010",
                "0x000000000000000000000000777753cc9b41265578a44945315ab979835e4f94",
                "0x0000000000000000000000004ad84f7014b7b44f723f284a85b1662337971439"
              ],
              "data": "0x0000000000000000000000000000000000000000000000000005414af062e79d00000000000000000000000000000000000000000000000009c508471ca554fb00000000000000000000000000000000000000000000041375afd39eaa5a9d1200000000000000000000000000000000000000000000000009bfc6fc2c426d5e00000000000000000000000000000000000000000000041375b514e99abd84af",
              "blockHash": "0x4bb8e691377499fa80af39df16609d5799c05bc9d0a7c7f27701c06d92d30105",
              "blockNumber": "0xdd5201",
              "transactionHash": "0x23bfb6d2b283398052a6a0712dc0f021913eff7327b44f4bcc865a526d2b0169",
              "transactionIndex": "0x4",
              "logIndex": "0xd",
              "removed": false
            }
          ],
          "logsBloom": "0x00000000000000000000000000000000000000000000000000000000000000000000000000000000000000000000000000008000000000000800000000400000000000000000000000000000000000800000000000000000000100001000004000000000000000000000000000000000000000008000000080000000000000000000000000000000000000000000000000000000000000000000000000000000200000004000000000000000000000000000000000000000000002000000004000000000000000000001000000000000000000000000000000140000000000000000000000020000000000040000008000000002000000000000000000100000",
          "type": "0x2",
          "transactionHash": "0x23bfb6d2b283398052a6a0712dc0f021913eff7327b44f4bcc865a526d2b0169",
          "transactionIndex": "0x4",
          "blockHash": "0x4bb8e691377499fa80af39df16609d5799c05bc9d0a7c7f27701c06d92d30105",
          "blockNumber": "0xdd5201",
          "gasUsed": "0xba63",
          "effectiveGasPrice": "0x737be760e",
          "from": "0x777753cc9b41265578a44945315ab979835e4f94",
          "to": "0x2c9b1a5ee1c9c5b7da8a4d7becf4e6d5d813f444",
          "contractAddress": null
        }
      ],
      "libraries": [],
      "pending": [],
      "returns": {},
      "timestamp": 1731778007,
      "chain": 80002,
      "commit": "44643a0"
    },
    {
      "transactions": [
        {
          "hash": "0x2d6d885f4be51330e3ece4afb884febf753f063d7f9da233878dc3abd4fd8dad",
          "transactionType": "CALL",
          "contractName": null,
          "contractAddress": "0x2c9b1a5ee1c9c5b7da8a4d7becf4e6d5d813f444",
          "function": "setToken(address)",
          "arguments": [
            "0x006A635370f443b6382D7fD4BDd8E8499650e8B4"
          ],
          "transaction": {
            "from": "0x777753cc9b41265578a44945315ab979835e4f94",
            "to": "0x2c9b1a5ee1c9c5b7da8a4d7becf4e6d5d813f444",
            "gas": "0xf8b3",
            "value": "0x0",
            "input": "0x144fa6d7000000000000000000000000006a635370f443b6382d7fd4bdd8e8499650e8b4",
            "nonce": "0x1",
            "chainId": "0xbf03"
          },
          "additionalContracts": [],
          "isFixedGasLimit": false
        },
        {
          "hash": "0xa5c32260ee49ca07b36e4c523d05b62ec1d2cd689817797a1874b559ad5bef7a",
          "transactionType": "CALL",
          "contractName": null,
          "contractAddress": "0x2c9b1a5ee1c9c5b7da8a4d7becf4e6d5d813f444",
          "function": "setPeer(uint32,bytes32)",
          "arguments": [
            "40267",
            "0x0000000000000000000000002c9b1a5ee1c9c5b7da8a4d7becf4e6d5d813f444"
          ],
          "transaction": {
            "from": "0x777753cc9b41265578a44945315ab979835e4f94",
            "to": "0x2c9b1a5ee1c9c5b7da8a4d7becf4e6d5d813f444",
            "gas": "0x11096",
            "value": "0x0",
            "input": "0x3400288b0000000000000000000000000000000000000000000000000000000000009d4b0000000000000000000000002c9b1a5ee1c9c5b7da8a4d7becf4e6d5d813f444",
            "nonce": "0x2",
            "chainId": "0xbf03"
          },
          "additionalContracts": [],
          "isFixedGasLimit": false
        }
      ],
      "receipts": [
        {
          "status": "0x1",
          "cumulativeGasUsed": "0x167e0",
          "logs": [],
          "logsBloom": "0x00000000000000000000000000000000000000000000000000000000000000000000000000000000000000000000000000000000000000000000000000000000000000000000000000000000000000000000000000000000000000000000000000000000000000000000000000000000000000000000000000000000000000000000000000000000000000000000000000000000000000000000000000000000000000000000000000000000000000000000000000000000000000000000000000000000000000000000000000000000000000000000000000000000000000000000000000000000000000000000000000000000000000000000000000000000",
          "type": "0x2",
          "transactionHash": "0x2d6d885f4be51330e3ece4afb884febf753f063d7f9da233878dc3abd4fd8dad",
          "transactionIndex": "0x1",
          "blockHash": "0xe51c735fbfb41e18b49f50746dc678f14f3492e3e6dc1df9e053e06920531331",
          "blockNumber": "0xf33a03",
          "gasUsed": "0xb40f",
          "effectiveGasPrice": "0xfe",
          "from": "0x777753cc9b41265578a44945315ab979835e4f94",
          "to": "0x2c9b1a5ee1c9c5b7da8a4d7becf4e6d5d813f444",
          "contractAddress": null,
          "l1Fee": "0x423cda59",
          "l1GasPrice": "0x170e8d4e",
          "l1GasUsed": "0x834"
        },
        {
          "status": "0x1",
          "cumulativeGasUsed": "0x16e34",
          "logs": [
            {
              "address": "0x2c9b1a5ee1c9c5b7da8a4d7becf4e6d5d813f444",
              "topics": [
                "0x238399d427b947898edb290f5ff0f9109849b1c3ba196a42e35f00c50a54b98b"
              ],
              "data": "0x0000000000000000000000000000000000000000000000000000000000009d4b0000000000000000000000002c9b1a5ee1c9c5b7da8a4d7becf4e6d5d813f444",
              "blockHash": "0x16ae5e0877fed2129e2fd82b30bd861eb50ed0e0301719171896317d907d92c2",
              "blockNumber": "0xf33a05",
              "transactionHash": "0xa5c32260ee49ca07b36e4c523d05b62ec1d2cd689817797a1874b559ad5bef7a",
              "transactionIndex": "0x1",
              "logIndex": "0x0",
              "removed": false
            }
          ],
          "logsBloom": "0x00000000000000000000000000000000000000000000000000000000000000000000000000000000000000000000000000000000000000000800000000000000000000000000000000000000000000000000000000000000000000000000000000000000000000000000000000000000000000008000000000000000000000000000000000000000000000000000000000000000000000000000000000000000000000000000000000000000000000000000000000000000000002000000000000000000000000000000000000000000000000000000000000040000000000000000000000020000000000000000000000000002000000000000000000000000",
          "type": "0x2",
          "transactionHash": "0xa5c32260ee49ca07b36e4c523d05b62ec1d2cd689817797a1874b559ad5bef7a",
          "transactionIndex": "0x1",
          "blockHash": "0x16ae5e0877fed2129e2fd82b30bd861eb50ed0e0301719171896317d907d92c2",
          "blockNumber": "0xf33a05",
          "gasUsed": "0xba63",
          "effectiveGasPrice": "0xfe",
          "from": "0x777753cc9b41265578a44945315ab979835e4f94",
          "to": "0x2c9b1a5ee1c9c5b7da8a4d7becf4e6d5d813f444",
          "contractAddress": null,
          "l1Fee": "0x44cbf9a9",
          "l1GasPrice": "0x16227bad",
          "l1GasUsed": "0x8e0"
        }
      ],
      "libraries": [],
      "pending": [],
      "returns": {},
      "timestamp": 1731778008,
      "chain": 48899,
      "commit": "44643a0"
    }
  ],
  "timestamp": 1731778028
}