{
  "deployments": [
    {
      "transactions": [
        {
          "hash": "0x6f60b2e2c319e8678c6324946fa6b48a9c175deef6893b9ecba7d8e20b99cbc6",
          "transactionType": "CALL",
          "contractName": null,
          "contractAddress": "0x753da027758f33f9df35b8529fa9b2e78664dfe5",
          "function": "setChainlessBalance(address)",
          "arguments": [
            "0xd2dA8680FfDbe5136EbBb26928dF635D9cB79a0F"
          ],
          "transaction": {
            "from": "0x77774a499f484378e71e6692832b6abf0b2350d4",
            "to": "0x753da027758f33f9df35b8529fa9b2e78664dfe5",
            "gas": "0xf95b",
            "value": "0x0",
            "input": "0xbb2119bc000000000000000000000000d2da8680ffdbe5136ebbb26928df635d9cb79a0f",
            "nonce": "0x4",
            "chainId": "0x13882"
          },
          "additionalContracts": [],
          "isFixedGasLimit": false
        },
        {
          "hash": "0x8a56ecd571d5e4c3e1602d3cf64502731a6624926433c9da8d1f32720c342008",
          "transactionType": "CALL",
          "contractName": null,
          "contractAddress": "0x753da027758f33f9df35b8529fa9b2e78664dfe5",
          "function": "addDestination(uint32)",
          "arguments": [
            "40275"
          ],
          "transaction": {
            "from": "0x77774a499f484378e71e6692832b6abf0b2350d4",
            "to": "0x753da027758f33f9df35b8529fa9b2e78664dfe5",
            "gas": "0x28796",
            "value": "0x0",
            "input": "0x3115f4900000000000000000000000000000000000000000000000000000000000009d53",
            "nonce": "0x5",
            "chainId": "0x13882"
          },
          "additionalContracts": [],
          "isFixedGasLimit": false
        },
        {
          "hash": "0x91c2b1558ddc55f950c4a2d5c2b25af1bc75a2fdf2dc3209a388f0739e910082",
          "transactionType": "CALL",
          "contractName": null,
          "contractAddress": "0x753da027758f33f9df35b8529fa9b2e78664dfe5",
          "function": "setPeer(uint32,bytes32)",
          "arguments": [
            "40275",
            "0x000000000000000000000000753da027758f33f9df35b8529fa9b2e78664dfe5"
          ],
          "transaction": {
            "from": "0x77774a499f484378e71e6692832b6abf0b2350d4",
            "to": "0x753da027758f33f9df35b8529fa9b2e78664dfe5",
            "gas": "0x10135",
            "value": "0x0",
            "input": "0x3400288b0000000000000000000000000000000000000000000000000000000000009d53000000000000000000000000753da027758f33f9df35b8529fa9b2e78664dfe5",
            "nonce": "0x6",
            "chainId": "0x13882"
          },
          "additionalContracts": [],
          "isFixedGasLimit": false
        }
      ],
      "receipts": [
        {
          "status": "0x1",
          "cumulativeGasUsed": "0x452c4",
          "logs": [
            {
              "address": "0x0000000000000000000000000000000000001010",
              "topics": [
                "0x4dfe1bbbcf077ddc3e01291eea2d5c70c2b422b415d95645b9adcfd678cb1d63",
                "0x0000000000000000000000000000000000000000000000000000000000001010",
                "0x00000000000000000000000077774a499f484378e71e6692832b6abf0b2350d4",
                "0x0000000000000000000000006dc2dd54f24979ec26212794c71afefed722280c"
              ],
              "data": "0x00000000000000000000000000000000000000000000000000046ee58713cbc0000000000000000000000000000000000000000000000000075ae2e0b377362d000000000000000000000000000000000000000000000409af55d46530796328000000000000000000000000000000000000000000000000075673fb2c636a6d000000000000000000000000000000000000000000000409af5a434ab78d2ee8",
              "blockHash": "0xb4c627276547c27bd15f39e5d0af43c43417500fe2d86b10191de9a34d44a29f",
              "blockNumber": "0xdd52f5",
              "transactionHash": "0x6f60b2e2c319e8678c6324946fa6b48a9c175deef6893b9ecba7d8e20b99cbc6",
              "transactionIndex": "0x2",
              "logIndex": "0x6",
              "removed": false
            }
          ],
          "logsBloom": "0x00000000020000000000000000000000000000000000000000000000000000000000000000000000000000000000100000008000000000000000000000000000000000000000000000000000000000800000000000000000010100080000000000000000000000000000000000000000000000000000000080000000000000020000000000000000000000000040000000000000000000000000000000000000200000000000000000000000000000000000000000000000000000000000004000000000000000000001000000000000000000000000000000100000000000000000000000000000000000000000000000000000000000000000000000100000",
          "type": "0x2",
          "transactionHash": "0x6f60b2e2c319e8678c6324946fa6b48a9c175deef6893b9ecba7d8e20b99cbc6",
          "transactionIndex": "0x2",
          "blockHash": "0xb4c627276547c27bd15f39e5d0af43c43417500fe2d86b10191de9a34d44a29f",
          "blockNumber": "0xdd52f5",
          "gasUsed": "0xb488",
          "effectiveGasPrice": "0x649534e07",
          "from": "0x77774a499f484378e71e6692832b6abf0b2350d4",
          "to": "0x753da027758f33f9df35b8529fa9b2e78664dfe5",
          "contractAddress": null
        },
        {
          "status": "0x1",
          "cumulativeGasUsed": "0x6279c",
          "logs": [
            {
              "address": "0x0000000000000000000000000000000000001010",
              "topics": [
                "0x4dfe1bbbcf077ddc3e01291eea2d5c70c2b422b415d95645b9adcfd678cb1d63",
                "0x0000000000000000000000000000000000000000000000000000000000001010",
                "0x00000000000000000000000077774a499f484378e71e6692832b6abf0b2350d4",
                "0x0000000000000000000000006dc2dd54f24979ec26212794c71afefed722280c"
              ],
              "data": "0x000000000000000000000000000000000000000000000000000b835a28d32940000000000000000000000000000000000000000000000000075673fb2c58d675000000000000000000000000000000000000000000000409af5a434ab78d2ee8000000000000000000000000000000000000000000000000074af0a10385ad35000000000000000000000000000000000000000000000409af65c6a4e0605828",
              "blockHash": "0xb4c627276547c27bd15f39e5d0af43c43417500fe2d86b10191de9a34d44a29f",
              "blockNumber": "0xdd52f5",
              "transactionHash": "0x8a56ecd571d5e4c3e1602d3cf64502731a6624926433c9da8d1f32720c342008",
              "transactionIndex": "0x3",
              "logIndex": "0x7",
              "removed": false
            }
          ],
          "logsBloom": "0x00000000020000000000000000000000000000000000000000000000000000000000000000000000000000000000100000008000000000000000000000000000000000000000000000000000000000800000000000000000010100080000000000000000000000000000000000000000000000000000000080000000000000020000000000000000000000000040000000000000000000000000000000000000200000000000000000000000000000000000000000000000000000000000004000000000000000000001000000000000000000000000000000100000000000000000000000000000000000000000000000000000000000000000000000100000",
          "type": "0x2",
          "transactionHash": "0x8a56ecd571d5e4c3e1602d3cf64502731a6624926433c9da8d1f32720c342008",
          "transactionIndex": "0x3",
          "blockHash": "0xb4c627276547c27bd15f39e5d0af43c43417500fe2d86b10191de9a34d44a29f",
          "blockNumber": "0xdd52f5",
          "gasUsed": "0x1d4d8",
          "effectiveGasPrice": "0x649534e07",
          "from": "0x77774a499f484378e71e6692832b6abf0b2350d4",
          "to": "0x753da027758f33f9df35b8529fa9b2e78664dfe5",
          "contractAddress": null
        },
        {
          "status": "0x1",
          "cumulativeGasUsed": "0x6e1d3",
          "logs": [
            {
              "address": "0x753da027758f33f9df35b8529fa9b2e78664dfe5",
              "topics": [
                "0x238399d427b947898edb290f5ff0f9109849b1c3ba196a42e35f00c50a54b98b"
              ],
              "data": "0x0000000000000000000000000000000000000000000000000000000000009d53000000000000000000000000753da027758f33f9df35b8529fa9b2e78664dfe5",
              "blockHash": "0xb4c627276547c27bd15f39e5d0af43c43417500fe2d86b10191de9a34d44a29f",
              "blockNumber": "0xdd52f5",
              "transactionHash": "0x91c2b1558ddc55f950c4a2d5c2b25af1bc75a2fdf2dc3209a388f0739e910082",
              "transactionIndex": "0x4",
              "logIndex": "0x8",
              "removed": false
            },
            {
              "address": "0x0000000000000000000000000000000000001010",
              "topics": [
                "0x4dfe1bbbcf077ddc3e01291eea2d5c70c2b422b415d95645b9adcfd678cb1d63",
                "0x0000000000000000000000000000000000000000000000000000000000001010",
                "0x00000000000000000000000077774a499f484378e71e6692832b6abf0b2350d4",
                "0x0000000000000000000000006dc2dd54f24979ec26212794c71afefed722280c"
              ],
              "data": "0x000000000000000000000000000000000000000000000000000492a0478bf048000000000000000000000000000000000000000000000000074af0a1036a348d000000000000000000000000000000000000000000000409af65c6a4e060582800000000000000000000000000000000000000000000000007465e00bbde4445000000000000000000000000000000000000000000000409af6a594527ec4870",
              "blockHash": "0xb4c627276547c27bd15f39e5d0af43c43417500fe2d86b10191de9a34d44a29f",
              "blockNumber": "0xdd52f5",
              "transactionHash": "0x91c2b1558ddc55f950c4a2d5c2b25af1bc75a2fdf2dc3209a388f0739e910082",
              "transactionIndex": "0x4",
              "logIndex": "0x9",
              "removed": false
            }
          ],
          "logsBloom": "0x00000000020000000001000000000000000000000000000000000000000000000000000000000000000000000000100000008080000000000800000000000000000000000000000000000000000000800000000000000000010100080000000000000000000000000000000000000000000000000000000080000000000000020000000000000000000000000040000000000000000000000000000000000000200000000000000000000000000000000000000000000000000002000000004000000000000000000001000000000000000000000000000000140000000000000000000000000000000000000000008000000000000000000000000000100000",
          "type": "0x2",
          "transactionHash": "0x91c2b1558ddc55f950c4a2d5c2b25af1bc75a2fdf2dc3209a388f0739e910082",
          "transactionIndex": "0x4",
          "blockHash": "0xb4c627276547c27bd15f39e5d0af43c43417500fe2d86b10191de9a34d44a29f",
          "blockNumber": "0xdd52f5",
          "gasUsed": "0xba37",
          "effectiveGasPrice": "0x649534e07",
          "from": "0x77774a499f484378e71e6692832b6abf0b2350d4",
          "to": "0x753da027758f33f9df35b8529fa9b2e78664dfe5",
          "contractAddress": null
        }
      ],
      "libraries": [],
      "pending": [],
      "returns": {},
      "timestamp": 1731778526,
      "chain": 80002,
      "commit": "44643a0"
    },
    {
      "transactions": [
        {
          "hash": "0xf39f89b1d1541793008ea23704ef9bec6736fb4e330969944df638b775f457fa",
          "transactionType": "CALL",
          "contractName": null,
          "contractAddress": "0x753da027758f33f9df35b8529fa9b2e78664dfe5",
          "function": "setChainlessBalance(address)",
          "arguments": [
            "0xd2dA8680FfDbe5136EbBb26928dF635D9cB79a0F"
          ],
          "transaction": {
            "from": "0x77774a499f484378e71e6692832b6abf0b2350d4",
            "to": "0x753da027758f33f9df35b8529fa9b2e78664dfe5",
            "gas": "0xf95b",
            "value": "0x0",
            "input": "0xbb2119bc000000000000000000000000d2da8680ffdbe5136ebbb26928df635d9cb79a0f",
            "nonce": "0x4",
            "chainId": "0xbf03"
          },
          "additionalContracts": [],
          "isFixedGasLimit": false
        },
        {
          "hash": "0xb4fe4c7291646832c2b3f47e49b0d2491bd6cd4b7add6130459c836e497f2143",
          "transactionType": "CALL",
          "contractName": null,
          "contractAddress": "0x753da027758f33f9df35b8529fa9b2e78664dfe5",
          "function": "addDestination(uint32)",
          "arguments": [
            "40267"
          ],
          "transaction": {
            "from": "0x77774a499f484378e71e6692832b6abf0b2350d4",
            "to": "0x753da027758f33f9df35b8529fa9b2e78664dfe5",
            "gas": "0x28796",
            "value": "0x0",
            "input": "0x3115f4900000000000000000000000000000000000000000000000000000000000009d4b",
            "nonce": "0x5",
            "chainId": "0xbf03"
          },
          "additionalContracts": [],
          "isFixedGasLimit": false
        },
        {
          "hash": "0xdf7e4ddd21a571befbac50d4eb789fc5732fdff8c515df20006fcc9e5943cb2c",
          "transactionType": "CALL",
          "contractName": null,
          "contractAddress": "0x753da027758f33f9df35b8529fa9b2e78664dfe5",
          "function": "setPeer(uint32,bytes32)",
          "arguments": [
            "40267",
            "0x000000000000000000000000753da027758f33f9df35b8529fa9b2e78664dfe5"
          ],
          "transaction": {
            "from": "0x77774a499f484378e71e6692832b6abf0b2350d4",
            "to": "0x753da027758f33f9df35b8529fa9b2e78664dfe5",
            "gas": "0x10135",
            "value": "0x0",
            "input": "0x3400288b0000000000000000000000000000000000000000000000000000000000009d4b000000000000000000000000753da027758f33f9df35b8529fa9b2e78664dfe5",
            "nonce": "0x6",
            "chainId": "0xbf03"
          },
          "additionalContracts": [],
          "isFixedGasLimit": false
        }
      ],
      "receipts": [
        {
          "status": "0x1",
          "cumulativeGasUsed": "0x16859",
          "logs": [],
          "logsBloom": "0x00000000000000000000000000000000000000000000000000000000000000000000000000000000000000000000000000000000000000000000000000000000000000000000000000000000000000000000000000000000000000000000000000000000000000000000000000000000000000000000000000000000000000000000000000000000000000000000000000000000000000000000000000000000000000000000000000000000000000000000000000000000000000000000000000000000000000000000000000000000000000000000000000000000000000000000000000000000000000000000000000000000000000000000000000000000",
          "type": "0x2",
          "transactionHash": "0xf39f89b1d1541793008ea23704ef9bec6736fb4e330969944df638b775f457fa",
          "transactionIndex": "0x1",
          "blockHash": "0xe23d769ece58b6f661338a5fc922f03f868c41fd768f3f7fbfa5c4ce08b67fc1",
          "blockNumber": "0xf33b07",
          "gasUsed": "0xb488",
          "effectiveGasPrice": "0xfe",
          "from": "0x77774a499f484378e71e6692832b6abf0b2350d4",
          "to": "0x753da027758f33f9df35b8529fa9b2e78664dfe5",
          "contractAddress": null,
          "l1Fee": "0x3e97a12e",
          "l1GasPrice": "0x15e9c27f",
          "l1GasUsed": "0x828"
        },
        {
          "status": "0x1",
          "cumulativeGasUsed": "0x288a9",
          "logs": [],
          "logsBloom": "0x00000000000000000000000000000000000000000000000000000000000000000000000000000000000000000000000000000000000000000000000000000000000000000000000000000000000000000000000000000000000000000000000000000000000000000000000000000000000000000000000000000000000000000000000000000000000000000000000000000000000000000000000000000000000000000000000000000000000000000000000000000000000000000000000000000000000000000000000000000000000000000000000000000000000000000000000000000000000000000000000000000000000000000000000000000000",
          "type": "0x2",
          "transactionHash": "0xb4fe4c7291646832c2b3f47e49b0d2491bd6cd4b7add6130459c836e497f2143",
          "transactionIndex": "0x1",
          "blockHash": "0x689ad9f4f1f6c88d24e019fbebfd62326bd29a80588dfdc18279472cf00b7e49",
          "blockNumber": "0xf33b09",
          "gasUsed": "0x1d4d8",
          "effectiveGasPrice": "0xfe",
          "from": "0x77774a499f484378e71e6692832b6abf0b2350d4",
          "to": "0x753da027758f33f9df35b8529fa9b2e78664dfe5",
          "contractAddress": null,
          "l1Fee": "0x3950fa95",
          "l1GasPrice": "0x15e9c27f",
          "l1GasUsed": "0x778"
        },
        {
          "status": "0x1",
          "cumulativeGasUsed": "0x16e08",
          "logs": [
            {
              "address": "0x753da027758f33f9df35b8529fa9b2e78664dfe5",
              "topics": [
                "0x238399d427b947898edb290f5ff0f9109849b1c3ba196a42e35f00c50a54b98b"
              ],
              "data": "0x0000000000000000000000000000000000000000000000000000000000009d4b000000000000000000000000753da027758f33f9df35b8529fa9b2e78664dfe5",
              "blockHash": "0x147eab2b5c037b5bbdfb9bfdf747083cf9bf1f618e2978bef3212c16b92b0be3",
              "blockNumber": "0xf33b0b",
              "transactionHash": "0xdf7e4ddd21a571befbac50d4eb789fc5732fdff8c515df20006fcc9e5943cb2c",
              "transactionIndex": "0x1",
              "logIndex": "0x0",
              "removed": false
            }
          ],
          "logsBloom": "0x00000000000000000001000000000000000000000000000000000000000000000000000000000000000000000000000000000080000000000800000000000000000000000000000000000000000000000000000000000000000000000000000000000000000000000000000000000000000000000000000000000000000000000000000000000000000000000000000000000000000000000000000000000000000000000000000000000000000000000000000000000000000002000000000000000000000000000000000000000000000000000000000000040000000000000000000000000000000000000000008000000000000000000000000000000000",
          "type": "0x2",
          "transactionHash": "0xdf7e4ddd21a571befbac50d4eb789fc5732fdff8c515df20006fcc9e5943cb2c",
          "transactionIndex": "0x1",
          "blockHash": "0x147eab2b5c037b5bbdfb9bfdf747083cf9bf1f618e2978bef3212c16b92b0be3",
          "blockNumber": "0xf33b0b",
          "gasUsed": "0xba37",
          "effectiveGasPrice": "0xfe",
          "from": "0x77774a499f484378e71e6692832b6abf0b2350d4",
          "to": "0x753da027758f33f9df35b8529fa9b2e78664dfe5",
          "contractAddress": null,
          "l1Fee": "0x4477c36f",
          "l1GasPrice": "0x15e9c27f",
          "l1GasUsed": "0x8ec"
        }
      ],
      "libraries": [],
      "pending": [],
      "returns": {},
      "timestamp": 1731778527,
      "chain": 48899,
      "commit": "44643a0"
    }
  ],
  "timestamp": 1731778556
}