{
  "transactions": [
    {
      "hash": "0x32f7b5fb1ae6c8e03e0870295fc3bab1d0f599473744228d931c2de9457dac65",
      "transactionType": "CALL",
      "contractName": null,
      "contractAddress": "0x1d9f50d64511770695284d98e882fb4b436191ad",
      "function": "setToken(address)",
      "arguments": [
        "0xe9839aECCCC989C7F736E8C5a787591b1894f65C"
      ],
      "transaction": {
        "from": "0x1001f662c0de98e426870a9107f14a0c8c052aa0",
        "to": "0x1d9f50d64511770695284d98e882fb4b436191ad",
        "gas": "0x10767",
        "value": "0x0",
        "input": "0x144fa6d7000000000000000000000000e9839aecccc989c7f736e8c5a787591b1894f65c",
        "nonce": "0xa",
        "chainId": "0xbf03"
      },
      "additionalContracts": [],
      "isFixedGasLimit": false
    }
  ],
  "receipts": [
    {
      "status": "0x1",
      "cumulativeGasUsed": "0x188b0",
      "logs": [],
      "logsBloom": "0x00000000000000000000000000000000000000000000000000000000000000000000000000000000000000000000000000000000000000000000000000000000000000000000000000000000000000000000000000000000000000000000000000000000000000000000000000000000000000000000000000000000000000000000000000000000000000000000000000000000000000000000000000000000000000000000000000000000000000000000000000000000000000000000000000000000000000000000000000000000000000000000000000000000000000000000000000000000000000000000000000000000000000000000000000000000",
      "type": "0x2",
      "transactionHash": "0x32f7b5fb1ae6c8e03e0870295fc3bab1d0f599473744228d931c2de9457dac65",
      "transactionIndex": "0x1",
      "blockHash": "0x95df267d0428629bfd9df30b1af3783a907cdaea7175d7bc4e2a45118b207f4d",
      "blockNumber": "0xf2f3c0",
      "gasUsed": "0xb41b",
      "effectiveGasPrice": "0xfe",
      "from": "0x1001f662c0de98e426870a9107f14a0c8c052aa0",
      "to": "0x1d9f50d64511770695284d98e882fb4b436191ad",
      "contractAddress": null,
      "l1Fee": "0x532cfe94",
      "l1GasPrice": "0x1c92679b",
      "l1GasUsed": "0x850"
    }
  ],
  "libraries": [],
  "pending": [],
  "returns": {},
  "timestamp": 1731742053,
  "chain": 48899,
  "commit": "fa7e3d7"
}