{
  "transactions": [
    {
      "hash": "0xe77e21f5a6eee18cd2097667f5a4e41dccfd9f2f45a81f9eb11dd3be9febc832",
      "transactionType": "CALL",
      "contractName": null,
      "contractAddress": "0x1d9f50d64511770695284d98e882fb4b436191ad",
      "function": "setPeer(uint32,bytes32)",
      "arguments": [
        "40333",
        "0x0000000000000000000000001d9f50d64511770695284d98e882fb4b436191ad"
      ],
      "transaction": {
        "from": "0x1001f662c0de98e426870a9107f14a0c8c052aa0",
        "to": "0x1d9f50d64511770695284d98e882fb4b436191ad",
        "gas": "0x11096",
        "value": "0x0",
        "input": "0x3400288b0000000000000000000000000000000000000000000000000000000000009d8d0000000000000000000000001d9f50d64511770695284d98e882fb4b436191ad",
        "nonce": "0x1",
        "chainId": "0xbf03"
      },
      "additionalContracts": [],
      "isFixedGasLimit": false
    },
    {
      "hash": "0xfc3404fec30c134f382cfa2644d133f6c8d29c2a6ec2e863c854d23b80dafb08",
      "transactionType": "CALL",
      "contractName": null,
      "contractAddress": "0x1d9f50d64511770695284d98e882fb4b436191ad",
      "function": "setPeer(uint32,bytes32)",
      "arguments": [
        "40170",
        "0x0000000000000000000000001d9f50d64511770695284d98e882fb4b436191ad"
      ],
      "transaction": {
        "from": "0x1001f662c0de98e426870a9107f14a0c8c052aa0",
        "to": "0x1d9f50d64511770695284d98e882fb4b436191ad",
        "gas": "0x11096",
        "value": "0x0",
        "input": "0x3400288b0000000000000000000000000000000000000000000000000000000000009cea0000000000000000000000001d9f50d64511770695284d98e882fb4b436191ad",
        "nonce": "0x2",
        "chainId": "0xbf03"
      },
      "additionalContracts": [],
      "isFixedGasLimit": false
    },
    {
      "hash": "0xfa9468dabf252237b06b74f017bfa034ae49c8b0575db301256671e274642106",
      "transactionType": "CALL",
      "contractName": null,
      "contractAddress": "0x1d9f50d64511770695284d98e882fb4b436191ad",
      "function": "setPeer(uint32,bytes32)",
      "arguments": [
        "40267",
        "0x0000000000000000000000001d9f50d64511770695284d98e882fb4b436191ad"
      ],
      "transaction": {
        "from": "0x1001f662c0de98e426870a9107f14a0c8c052aa0",
        "to": "0x1d9f50d64511770695284d98e882fb4b436191ad",
        "gas": "0x11096",
        "value": "0x0",
        "input": "0x3400288b0000000000000000000000000000000000000000000000000000000000009d4b0000000000000000000000001d9f50d64511770695284d98e882fb4b436191ad",
        "nonce": "0x3",
        "chainId": "0xbf03"
      },
      "additionalContracts": [],
      "isFixedGasLimit": false
    }
  ],
  "receipts": [
    {
      "status": "0x1",
      "cumulativeGasUsed": "0x16e34",
      "logs": [
        {
          "address": "0x1d9f50d64511770695284d98e882fb4b436191ad",
          "topics": [
            "0x238399d427b947898edb290f5ff0f9109849b1c3ba196a42e35f00c50a54b98b"
          ],
          "data": "0x0000000000000000000000000000000000000000000000000000000000009d8d0000000000000000000000001d9f50d64511770695284d98e882fb4b436191ad",
          "blockHash": "0x22ad1bbff20dbeb7b6e3a9dea3c1591f025461ea3fa9d84407f6fe0cd9e34fb0",
          "blockNumber": "0xf2e7dc",
          "transactionHash": "0xe77e21f5a6eee18cd2097667f5a4e41dccfd9f2f45a81f9eb11dd3be9febc832",
          "transactionIndex": "0x1",
          "logIndex": "0x0",
          "removed": false
        }
      ],
      "logsBloom": "0x00000000000000000000000000000000000000000000000000000000000000000000000000000000000000000000000000000000000000000800000000000000000000000000000000000000000000000080000000000000000000000000000000000000000000000000000000000000000000000000000000000000000000000100000000000000000000000000000000000000000200000000000000000000000000000000000000000000000000000000000000000000000002000000000000000000000000000000000000000000000000000000000000040000000000000000000000000000000000000000000000000000000000000000000000000000",
      "type": "0x2",
      "transactionHash": "0xe77e21f5a6eee18cd2097667f5a4e41dccfd9f2f45a81f9eb11dd3be9febc832",
      "transactionIndex": "0x1",
      "blockHash": "0x22ad1bbff20dbeb7b6e3a9dea3c1591f025461ea3fa9d84407f6fe0cd9e34fb0",
      "blockNumber": "0xf2e7dc",
      "gasUsed": "0xba63",
      "effectiveGasPrice": "0xfe",
      "from": "0x1001f662c0de98e426870a9107f14a0c8c052aa0",
      "to": "0x1d9f50d64511770695284d98e882fb4b436191ad",
      "contractAddress": null,
      "l1Fee": "0x68c9186c",
      "l1GasPrice": "0x21b6b747",
      "l1GasUsed": "0x8e0"
    },
    {
      "status": "0x1",
      "cumulativeGasUsed": "0x18ef8",
      "logs": [
        {
          "address": "0x1d9f50d64511770695284d98e882fb4b436191ad",
          "topics": [
            "0x238399d427b947898edb290f5ff0f9109849b1c3ba196a42e35f00c50a54b98b"
          ],
          "data": "0x0000000000000000000000000000000000000000000000000000000000009cea0000000000000000000000001d9f50d64511770695284d98e882fb4b436191ad",
          "blockHash": "0xe7ae1b4215fbc10c5f3732a8302959485970820dbf8d446007ff8b3432c461df",
          "blockNumber": "0xf2e7de",
          "transactionHash": "0xfc3404fec30c134f382cfa2644d133f6c8d29c2a6ec2e863c854d23b80dafb08",
          "transactionIndex": "0x1",
          "logIndex": "0x0",
          "removed": false
        }
      ],
      "logsBloom": "0x00000000000000000000000000000000000000000000000000000000000000000000000000000000000000000000000000000000000000000800000000000000000000000000000000000000000000000080000000000000000000000000000000000000000000000000000000000000000000000000000000000000000000000100000000000000000000000000000000000000000200000000000000000000000000000000000000000000000000000000000000000000000002000000000000000000000000000000000000000000000000000000000000040000000000000000000000000000000000000000000000000000000000000000000000000000",
      "type": "0x2",
      "transactionHash": "0xfc3404fec30c134f382cfa2644d133f6c8d29c2a6ec2e863c854d23b80dafb08",
      "transactionIndex": "0x1",
      "blockHash": "0xe7ae1b4215fbc10c5f3732a8302959485970820dbf8d446007ff8b3432c461df",
      "blockNumber": "0xf2e7de",
      "gasUsed": "0xba63",
      "effectiveGasPrice": "0xfe",
      "from": "0x1001f662c0de98e426870a9107f14a0c8c052aa0",
      "to": "0x1d9f50d64511770695284d98e882fb4b436191ad",
      "contractAddress": null,
      "l1Fee": "0x655c464e",
      "l1GasPrice": "0x20d7d138",
      "l1GasUsed": "0x8d0"
    },
    {
      "status": "0x1",
      "cumulativeGasUsed": "0x16e34",
      "logs": [
        {
          "address": "0x1d9f50d64511770695284d98e882fb4b436191ad",
          "topics": [
            "0x238399d427b947898edb290f5ff0f9109849b1c3ba196a42e35f00c50a54b98b"
          ],
          "data": "0x0000000000000000000000000000000000000000000000000000000000009d4b0000000000000000000000001d9f50d64511770695284d98e882fb4b436191ad",
          "blockHash": "0xb12edb3bbaf92f6e8604a6e772eea8ba9dfa4b6ab3da937ebeb6aae90ef7be8d",
          "blockNumber": "0xf2e7e0",
          "transactionHash": "0xfa9468dabf252237b06b74f017bfa034ae49c8b0575db301256671e274642106",
          "transactionIndex": "0x1",
          "logIndex": "0x0",
          "removed": false
        }
      ],
      "logsBloom": "0x00000000000000000000000000000000000000000000000000000000000000000000000000000000000000000000000000000000000000000800000000000000000000000000000000000000000000000080000000000000000000000000000000000000000000000000000000000000000000000000000000000000000000000100000000000000000000000000000000000000000200000000000000000000000000000000000000000000000000000000000000000000000002000000000000000000000000000000000000000000000000000000000000040000000000000000000000000000000000000000000000000000000000000000000000000000",
      "type": "0x2",
      "transactionHash": "0xfa9468dabf252237b06b74f017bfa034ae49c8b0575db301256671e274642106",
      "transactionIndex": "0x1",
      "blockHash": "0xb12edb3bbaf92f6e8604a6e772eea8ba9dfa4b6ab3da937ebeb6aae90ef7be8d",
      "blockNumber": "0xf2e7e0",
      "gasUsed": "0xba63",
      "effectiveGasPrice": "0xfe",
      "from": "0x1001f662c0de98e426870a9107f14a0c8c052aa0",
      "to": "0x1d9f50d64511770695284d98e882fb4b436191ad",
      "contractAddress": null,
      "l1Fee": "0x669e53e3",
      "l1GasPrice": "0x20d7d138",
      "l1GasUsed": "0x8ec"
    }
  ],
  "libraries": [],
  "pending": [],
  "returns": {},
  "timestamp": 1731735974,
  "chain": 48899,
  "commit": "fa7e3d7"
}