{
  "transactions": [
    {
      "hash": "0x68be2c51b8749de466f7ee050a3862b0ddb9e4b15229b4ca4f336efe908712b7",
      "transactionType": "CALL",
      "contractName": null,
      "contractAddress": "0x753da027758f33f9df35b8529fa9b2e78664dfe5",
      "function": "approve(address,uint256)",
      "arguments": [
        "0x0000000000000000000000000000000000001337",
        "100000000000000000000"
      ],
      "transaction": {
        "from": "0x1337fa1246e4abffefe3ddd288968b4837fc6c8b",
        "to": "0x753da027758f33f9df35b8529fa9b2e78664dfe5",
        "gas": "0x6a6c1",
        "value": "0x0",
        "input": "0x095ea7b300000000000000000000000000000000000000000000000000000000000013370000000000000000000000000000000000000000000000056bc75e2d63100000",
        "nonce": "0x3",
        "chainId": "0x13882"
      },
      "additionalContracts": [],
      "isFixedGasLimit": false
    }
  ],
  "receipts": [
    {
      "status": "0x1",
      "cumulativeGasUsed": "0x4d0c4",
      "logs": [
        {
          "address": "0x0000000000000000000000000000000000001010",
          "topics": [
            "0xe6497e3ee548a3372136af2fcb0696db31fc6cf20260707645068bd3fe97f3c4",
            "0x0000000000000000000000000000000000000000000000000000000000001010",
            "0x000000000000000000000000753da027758f33f9df35b8529fa9b2e78664dfe5",
            "0x000000000000000000000000753da027758f33f9df35b8529fa9b2e78664dfe5"
          ],
          "data": "0x0000000000000000000000000000000000000000000000000717859f215b14da0000000000000000000000000000000000000000000000001bc16d674ec800000000000000000000000000000000000000000000000000001bc16d674ec800000000000000000000000000000000000000000000000000001bc16d674ec800000000000000000000000000000000000000000000000000001bc16d674ec80000",
          "blockHash": "0xfc30ed0099c3dee8d9f94a46de5cad2f3a58c33ea8852a2e57cf5db6b3cfddae",
          "blockNumber": "0xdd587e",
          "transactionHash": "0x68be2c51b8749de466f7ee050a3862b0ddb9e4b15229b4ca4f336efe908712b7",
          "transactionIndex": "0x0",
          "logIndex": "0x0",
          "removed": false
        },
        {
          "address": "0x753da027758f33f9df35b8529fa9b2e78664dfe5",
          "topics": [
            "0xddf252ad1be2c89b69c2b068fc378daa952ba7f163c4a11628f55a4df523b3ef",
            "0x0000000000000000000000001337fa1246e4abffefe3ddd288968b4837fc6c8b",
            "0x0000000000000000000000000000000000000000000000000000000000000000"
          ],
          "data": "0x0000000000000000000000000000000000000000000000000000000000000000",
          "blockHash": "0xfc30ed0099c3dee8d9f94a46de5cad2f3a58c33ea8852a2e57cf5db6b3cfddae",
          "blockNumber": "0xdd587e",
          "transactionHash": "0x68be2c51b8749de466f7ee050a3862b0ddb9e4b15229b4ca4f336efe908712b7",
          "transactionIndex": "0x0",
          "logIndex": "0x1",
          "removed": false
        },
        {
          "address": "0x0000000000000000000000000000000000001010",
          "topics": [
            "0xe6497e3ee548a3372136af2fcb0696db31fc6cf20260707645068bd3fe97f3c4",
            "0x0000000000000000000000000000000000000000000000000000000000001010",
            "0x000000000000000000000000753da027758f33f9df35b8529fa9b2e78664dfe5",
            "0x0000000000000000000000006edce65403992e310a62460808c4b910d972f10f"
          ],
          "data": "0x0000000000000000000000000000000000000000000000000717859f215b14da0000000000000000000000000000000000000000000000001bc16d674ec80000000000000000000000000000000000000000000000000000000000000000000000000000000000000000000000000000000000000000000014a9e7c82d6ceb260000000000000000000000000000000000000000000000000717859f215b14da",
          "blockHash": "0xfc30ed0099c3dee8d9f94a46de5cad2f3a58c33ea8852a2e57cf5db6b3cfddae",
          "blockNumber": "0xdd587e",
          "transactionHash": "0x68be2c51b8749de466f7ee050a3862b0ddb9e4b15229b4ca4f336efe908712b7",
          "transactionIndex": "0x0",
          "logIndex": "0x2",
          "removed": false
        },
        {
          "address": "0x1d186c560281b8f1af831957ed5047fd3ab902f9",
          "topics": [
            "0x61ed099e74a97a1d7f8bb0952a88ca8b7b8ebd00c126ea04671f92a81213318a"
          ],
          "data": "0x0000000000000000000000004cf1b3fa61465c2c907f82fc488b43223ba0cf9300000000000000000000000000000000000000000000000006c13a6ea025d4bd",
          "blockHash": "0xfc30ed0099c3dee8d9f94a46de5cad2f3a58c33ea8852a2e57cf5db6b3cfddae",
          "blockNumber": "0xdd587e",
          "transactionHash": "0x68be2c51b8749de466f7ee050a3862b0ddb9e4b15229b4ca4f336efe908712b7",
          "transactionIndex": "0x0",
          "logIndex": "0x3",
          "removed": false
        },
        {
          "address": "0x1d186c560281b8f1af831957ed5047fd3ab902f9",
          "topics": [
            "0x07ea52d82345d6e838192107d8fd7123d9c2ec8e916cd0aad13fd2b60db24644"
          ],
          "data": "0x000000000000000000000000000000000000000000000000000000000000006000000000000000000000000000000000000000000000000000000000000000a000000000000000000000000000000000000000000000000000000000000000c0000000000000000000000000000000000000000000000000000000000000000100000000000000000000000055c175dd5b039331db251424538169d8495c18d10000000000000000000000000000000000000000000000000000000000000000000000000000000000000000000000000000000000000000000000000000000100000000000000000000000000000000000000000000000000564b308135401d",
          "blockHash": "0xfc30ed0099c3dee8d9f94a46de5cad2f3a58c33ea8852a2e57cf5db6b3cfddae",
          "blockNumber": "0xdd587e",
          "transactionHash": "0x68be2c51b8749de466f7ee050a3862b0ddb9e4b15229b4ca4f336efe908712b7",
          "transactionIndex": "0x0",
          "logIndex": "0x4",
          "removed": false
        },
        {
          "address": "0x6edce65403992e310a62460808c4b910d972f10f",
          "topics": [
            "0x1ab700d4ced0c005b164c0f789fd09fcbb0156d4c2041b8a3bfbcd961cd1567f"
          ],
          "data": "0x000000000000000000000000000000000000000000000000000000000000006000000000000000000000000000000000000000000000000000000000000002200000000000000000000000001d186c560281b8f1af831957ed5047fd3ab902f9000000000000000000000000000000000000000000000000000000000000019101000000000000000100009d4b000000000000000000000000753da027758f33f9df35b8529fa9b2e78664dfe500009d53000000000000000000000000753da027758f33f9df35b8529fa9b2e78664dfe5fa216e066def7c7ac28fe932f65f277fa301a7951a777edcdb4cf17560e636f80000000000000000000000000000000000000000000000000000000000009d530000000000000000000000000000000000000000000000000000000000009d4b000000000000000000000000000000000000000000000000000000000000000000000000000000000000000000000000000000000000000000000000000000000000000000000000000000001337fa1246e4abffefe3ddd288968b4837fc6c8b00000000000000000000000000000000000000000000000000000000000013370000000000000000000000000000000000000000000000056bc75e2d6310000000000000000000000000000000000000000000000000000000000000000000000000000000000000000000000000000000000000000000056bc75e2d631000000000000000000000000000000000000000000000000000000000000000000000000000000000000000000000000016000301001101000000000000000000000000001e848000000000000000000000",
          "blockHash": "0xfc30ed0099c3dee8d9f94a46de5cad2f3a58c33ea8852a2e57cf5db6b3cfddae",
          "blockNumber": "0xdd587e",
          "transactionHash": "0x68be2c51b8749de466f7ee050a3862b0ddb9e4b15229b4ca4f336efe908712b7",
          "transactionIndex": "0x0",
          "logIndex": "0x5",
          "removed": false
        },
        {
          "address": "0x0000000000000000000000000000000000001010",
          "topics": [
            "0xe6497e3ee548a3372136af2fcb0696db31fc6cf20260707645068bd3fe97f3c4",
            "0x0000000000000000000000000000000000000000000000000000000000001010",
            "0x0000000000000000000000006edce65403992e310a62460808c4b910d972f10f",
            "0x0000000000000000000000001d186c560281b8f1af831957ed5047fd3ab902f9"
          ],
          "data": "0x0000000000000000000000000000000000000000000000000717859f215b14da0000000000000000000000000000000000000000000000000717859f215b14da00000000000000000000000000000000000000000000006897db444a35c360de00000000000000000000000000000000000000000000000000000000000000000000000000000000000000000000000000000000000000689ef2c9e9571e75b8",
          "blockHash": "0xfc30ed0099c3dee8d9f94a46de5cad2f3a58c33ea8852a2e57cf5db6b3cfddae",
          "blockNumber": "0xdd587e",
          "transactionHash": "0x68be2c51b8749de466f7ee050a3862b0ddb9e4b15229b4ca4f336efe908712b7",
          "transactionIndex": "0x0",
          "logIndex": "0x6",
          "removed": false
        },
        {
          "address": "0x753da027758f33f9df35b8529fa9b2e78664dfe5",
          "topics": [
            "0x85496b760a4b7f8d66384b9df21b381f5d1b1e79f229a47aaf4c232edc2fe59a",
            "0xfa216e066def7c7ac28fe932f65f277fa301a7951a777edcdb4cf17560e636f8",
            "0x0000000000000000000000001337fa1246e4abffefe3ddd288968b4837fc6c8b"
          ],
          "data": "0x0000000000000000000000000000000000000000000000000000000000009d5300000000000000000000000000000000000000000000000000000000000000000000000000000000000000000000000000000000000000000000000000000000",
          "blockHash": "0xfc30ed0099c3dee8d9f94a46de5cad2f3a58c33ea8852a2e57cf5db6b3cfddae",
          "blockNumber": "0xdd587e",
          "transactionHash": "0x68be2c51b8749de466f7ee050a3862b0ddb9e4b15229b4ca4f336efe908712b7",
          "transactionIndex": "0x0",
          "logIndex": "0x7",
          "removed": false
        },
        {
          "address": "0x0000000000000000000000000000000000001010",
          "topics": [
            "0x4dfe1bbbcf077ddc3e01291eea2d5c70c2b422b415d95645b9adcfd678cb1d63",
            "0x0000000000000000000000000000000000000000000000000000000000001010",
            "0x0000000000000000000000001337fa1246e4abffefe3ddd288968b4837fc6c8b",
            "0x0000000000000000000000006dc2dd54f24979ec26212794c71afefed722280c"
          ],
          "data": "0x0000000000000000000000000000000000000000000000000023752f5e8fc58400000000000000000000000000000000000000000000000000ce70a5fea63bf4000000000000000000000000000000000000000000000409e29f3635937ffff400000000000000000000000000000000000000000000000000aafb76a0167670000000000000000000000000000000000000000000000409e2c2ab64f20fc578",
          "blockHash": "0xfc30ed0099c3dee8d9f94a46de5cad2f3a58c33ea8852a2e57cf5db6b3cfddae",
          "blockNumber": "0xdd587e",
          "transactionHash": "0x68be2c51b8749de466f7ee050a3862b0ddb9e4b15229b4ca4f336efe908712b7",
          "transactionIndex": "0x0",
          "logIndex": "0x8",
          "removed": false
        }
      ],
      "logsBloom": "0x000000100000000000010000000000000000080000000000000000000000000000020000000004002000001000000000000080800000000000000000000040000000020000000000000000080000008000000000000000000001000800000000000000000200000082000010000008000000000000000000800000100000000280000000000000200000000801400000000000000000000000000000000000002000000080000000001000200000000000000800004000000004c000000000400000000200000000000100208000400000000000000880120010800000002000000004000000000200000000000000a008000000008000000000000000100000",
      "type": "0x2",
      "transactionHash": "0x68be2c51b8749de466f7ee050a3862b0ddb9e4b15229b4ca4f336efe908712b7",
      "transactionIndex": "0x0",
      "blockHash": "0xfc30ed0099c3dee8d9f94a46de5cad2f3a58c33ea8852a2e57cf5db6b3cfddae",
      "blockNumber": "0xdd587e",
      "gasUsed": "0x4d0c4",
      "effectiveGasPrice": "0x75cff3440",
      "from": "0x1337fa1246e4abffefe3ddd288968b4837fc6c8b",
      "to": "0x753da027758f33f9df35b8529fa9b2e78664dfe5",
      "contractAddress": null
    }
  ],
  "libraries": [],
  "pending": [],
  "returns": {},
  "timestamp": 1731781547,
  "chain": 80002,
  "commit": "44643a0"
}