{
  "deployments": [
    {
      "transactions": [
        {
          "hash": "0x90fc033d623245b8acb8ed4e18917584b93a7a282d0eee2fe6b6ad948dd13081",
          "transactionType": "CALL",
          "contractName": null,
          "contractAddress": "0x114f9afb1dce419e06d6709cfa87954378cf492e",
          "function": "setToken(address)",
          "arguments": [
            "0xA8FF03a3aF16A07e505Fa7b5c1e3E2726D9787A3"
          ],
          "transaction": {
            "from": "0x12348e0f1d209896a76768a283b2b5dd42c9f460",
            "to": "0x114f9afb1dce419e06d6709cfa87954378cf492e",
            "gas": "0x10767",
            "value": "0x0",
            "input": "0x144fa6d7000000000000000000000000a8ff03a3af16a07e505fa7b5c1e3e2726d9787a3",
            "nonce": "0x2",
            "chainId": "0x8274f"
          },
          "additionalContracts": [],
          "isFixedGasLimit": false
        },
        {
          "hash": "0x02e9939420078fde765edfdd51498fa94ccb5bc4345de35e18d0773fa03358fb",
          "transactionType": "CALL",
          "contractName": null,
          "contractAddress": "0x114f9afb1dce419e06d6709cfa87954378cf492e",
          "function": "setPeer(uint32,bytes32)",
          "arguments": [
            "40267",
            "0x000000000000000000000000114f9afb1dce419e06d6709cfa87954378cf492e"
          ],
          "transaction": {
            "from": "0x12348e0f1d209896a76768a283b2b5dd42c9f460",
            "to": "0x114f9afb1dce419e06d6709cfa87954378cf492e",
            "gas": "0x11096",
            "value": "0x0",
            "input": "0x3400288b0000000000000000000000000000000000000000000000000000000000009d4b000000000000000000000000114f9afb1dce419e06d6709cfa87954378cf492e",
            "nonce": "0x3",
            "chainId": "0x8274f"
          },
          "additionalContracts": [],
          "isFixedGasLimit": false
        },
        {
          "hash": "0x36e54f3c39b23517fb438859ec9f987fd34b109a72e78f78aa488107be4e7935",
          "transactionType": "CALL",
          "contractName": null,
          "contractAddress": "0x114f9afb1dce419e06d6709cfa87954378cf492e",
          "function": "setPeer(uint32,bytes32)",
          "arguments": [
            "40275",
            "0x000000000000000000000000114f9afb1dce419e06d6709cfa87954378cf492e"
          ],
          "transaction": {
            "from": "0x12348e0f1d209896a76768a283b2b5dd42c9f460",
            "to": "0x114f9afb1dce419e06d6709cfa87954378cf492e",
            "gas": "0x11096",
            "value": "0x0",
            "input": "0x3400288b0000000000000000000000000000000000000000000000000000000000009d53000000000000000000000000114f9afb1dce419e06d6709cfa87954378cf492e",
            "nonce": "0x4",
            "chainId": "0x8274f"
          },
          "additionalContracts": [],
          "isFixedGasLimit": false
        }
      ],
      "receipts": [
        {
          "status": "0x1",
          "cumulativeGasUsed": "0xb41b",
          "logs": [],
          "logsBloom": "0x00000000000000000000000000000000000000000000000000000000000000000000000000000000000000000000000000000000000000000000000000000000000000000000000000000000000000000000000000000000000000000000000000000000000000000000000000000000000000000000000000000000000000000000000000000000000000000000000000000000000000000000000000000000000000000000000000000000000000000000000000000000000000000000000000000000000000000000000000000000000000000000000000000000000000000000000000000000000000000000000000000000000000000000000000000000",
          "type": "0x2",
          "transactionHash": "0x90fc033d623245b8acb8ed4e18917584b93a7a282d0eee2fe6b6ad948dd13081",
          "transactionIndex": "0x0",
          "blockHash": "0xe513ee4fa607a0ae5f12599177b5affff7ef244939b83a3d0c52d3c35b84fa8d",
          "blockNumber": "0x6f6e64",
          "gasUsed": "0xb41b",
          "effectiveGasPrice": "0x3b959920",
          "from": "0x12348e0f1d209896a76768a283b2b5dd42c9f460",
          "to": "0x114f9afb1dce419e06d6709cfa87954378cf492e",
          "contractAddress": null,
          "l1Fee": "0x3b08f19bc4"
        },
        {
          "status": "0x1",
          "cumulativeGasUsed": "0xba63",
          "logs": [
            {
              "address": "0x114f9afb1dce419e06d6709cfa87954378cf492e",
              "topics": [
                "0x238399d427b947898edb290f5ff0f9109849b1c3ba196a42e35f00c50a54b98b"
              ],
              "data": "0x0000000000000000000000000000000000000000000000000000000000009d4b000000000000000000000000114f9afb1dce419e06d6709cfa87954378cf492e",
              "blockHash": "0x61fcb3b2b3c465a63952ab074e68bc6fbb43a2fae03aa386b0ed67251d986610",
              "blockNumber": "0x6f6e65",
              "transactionHash": "0x02e9939420078fde765edfdd51498fa94ccb5bc4345de35e18d0773fa03358fb",
              "transactionIndex": "0x0",
              "logIndex": "0x0",
              "removed": false
            }
          ],
          "logsBloom": "0x00000000000000000000000000000000000000000000000000000000000000000000000000000000000000000020000000000000000000000800000000000000000000000000000000000000000000000000000000000000000000000000000000000000000000000000000000000000080000000000000000000000000000000000000000000000000000000000000000000000000000000000000000000000000000000000000000000000000000000000000000000000000002000040000000000000000000000000000000000000000000000000000000040000000000000000000000000000000000000000000000000000000000000000000000000000",
          "type": "0x2",
          "transactionHash": "0x02e9939420078fde765edfdd51498fa94ccb5bc4345de35e18d0773fa03358fb",
          "transactionIndex": "0x0",
          "blockHash": "0x61fcb3b2b3c465a63952ab074e68bc6fbb43a2fae03aa386b0ed67251d986610",
          "blockNumber": "0x6f6e65",
          "gasUsed": "0xba63",
          "effectiveGasPrice": "0x3b959920",
          "from": "0x12348e0f1d209896a76768a283b2b5dd42c9f460",
          "to": "0x114f9afb1dce419e06d6709cfa87954378cf492e",
          "contractAddress": null,
          "l1Fee": "0x3b08f19bd1"
        },
        {
          "status": "0x1",
          "cumulativeGasUsed": "0x36f02",
          "logs": [
            {
              "address": "0x114f9afb1dce419e06d6709cfa87954378cf492e",
              "topics": [
                "0x238399d427b947898edb290f5ff0f9109849b1c3ba196a42e35f00c50a54b98b"
              ],
              "data": "0x0000000000000000000000000000000000000000000000000000000000009d53000000000000000000000000114f9afb1dce419e06d6709cfa87954378cf492e",
              "blockHash": "0x61fcb3b2b3c465a63952ab074e68bc6fbb43a2fae03aa386b0ed67251d986610",
              "blockNumber": "0x6f6e65",
              "transactionHash": "0x36e54f3c39b23517fb438859ec9f987fd34b109a72e78f78aa488107be4e7935",
              "transactionIndex": "0x2",
              "logIndex": "0x4",
              "removed": false
            }
          ],
          "logsBloom": "0x00000000000000000000000000000000000000000000000000000000000000000000000000000000000000000020000000000000000000000800000000000000000000000000000000000000000000000000000000000000000000000000000000000000000000000000000000000000080000000000000000000000000000000000000000000000000000000000000000000000000000000000000000000000000000000000000000000000000000000000000000000000000002000040000000000000000000000000000000000000000000000000000000040000000000000000000000000000000000000000000000000000000000000000000000000000",
          "type": "0x2",
          "transactionHash": "0x36e54f3c39b23517fb438859ec9f987fd34b109a72e78f78aa488107be4e7935",
          "transactionIndex": "0x2",
          "blockHash": "0x61fcb3b2b3c465a63952ab074e68bc6fbb43a2fae03aa386b0ed67251d986610",
          "blockNumber": "0x6f6e65",
          "gasUsed": "0xba63",
          "effectiveGasPrice": "0x3b959920",
          "from": "0x12348e0f1d209896a76768a283b2b5dd42c9f460",
          "to": "0x114f9afb1dce419e06d6709cfa87954378cf492e",
          "contractAddress": null,
          "l1Fee": "0x3b08f19bd1"
        }
      ],
      "libraries": [],
      "pending": [],
      "returns": {},
      "timestamp": 1731756302,
      "chain": 534351,
      "commit": "fa7e3d7"
    },
    {
      "transactions": [
        {
          "hash": "0x1944c9f9fe1b8fc365e213fdd03f9e6190d73523c1cc67fd90155a1a010e79ce",
          "transactionType": "CALL",
          "contractName": null,
          "contractAddress": "0x114f9afb1dce419e06d6709cfa87954378cf492e",
          "function": "setToken(address)",
          "arguments": [
            "0xA8FF03a3aF16A07e505Fa7b5c1e3E2726D9787A3"
          ],
          "transaction": {
            "from": "0x12348e0f1d209896a76768a283b2b5dd42c9f460",
            "to": "0x114f9afb1dce419e06d6709cfa87954378cf492e",
            "gas": "0x10767",
            "value": "0x0",
            "input": "0x144fa6d7000000000000000000000000a8ff03a3af16a07e505fa7b5c1e3e2726d9787a3",
            "nonce": "0x2",
            "chainId": "0x13882"
          },
          "additionalContracts": [],
          "isFixedGasLimit": false
        },
        {
          "hash": "0x656bdfa3c495bf19b56d615a23c85c8ac3d516dee98d082c8fcde609e02cb4c7",
          "transactionType": "CALL",
          "contractName": null,
          "contractAddress": "0x114f9afb1dce419e06d6709cfa87954378cf492e",
          "function": "setPeer(uint32,bytes32)",
          "arguments": [
            "40170",
            "0x000000000000000000000000114f9afb1dce419e06d6709cfa87954378cf492e"
          ],
          "transaction": {
            "from": "0x12348e0f1d209896a76768a283b2b5dd42c9f460",
            "to": "0x114f9afb1dce419e06d6709cfa87954378cf492e",
            "gas": "0x11096",
            "value": "0x0",
            "input": "0x3400288b0000000000000000000000000000000000000000000000000000000000009cea000000000000000000000000114f9afb1dce419e06d6709cfa87954378cf492e",
            "nonce": "0x3",
            "chainId": "0x13882"
          },
          "additionalContracts": [],
          "isFixedGasLimit": false
        },
        {
          "hash": "0x7f7f07cb67ef231e44361417dd7a4c56edd2005757fb506667e94d89c612a9f0",
          "transactionType": "CALL",
          "contractName": null,
          "contractAddress": "0x114f9afb1dce419e06d6709cfa87954378cf492e",
          "function": "setPeer(uint32,bytes32)",
          "arguments": [
            "40275",
            "0x000000000000000000000000114f9afb1dce419e06d6709cfa87954378cf492e"
          ],
          "transaction": {
            "from": "0x12348e0f1d209896a76768a283b2b5dd42c9f460",
            "to": "0x114f9afb1dce419e06d6709cfa87954378cf492e",
            "gas": "0x11096",
            "value": "0x0",
            "input": "0x3400288b0000000000000000000000000000000000000000000000000000000000009d53000000000000000000000000114f9afb1dce419e06d6709cfa87954378cf492e",
            "nonce": "0x4",
            "chainId": "0x13882"
          },
          "additionalContracts": [],
          "isFixedGasLimit": false
        }
      ],
      "receipts": [
        {
          "status": "0x1",
          "cumulativeGasUsed": "0xb41b",
          "logs": [
            {
              "address": "0x0000000000000000000000000000000000001010",
              "topics": [
                "0x4dfe1bbbcf077ddc3e01291eea2d5c70c2b422b415d95645b9adcfd678cb1d63",
                "0x0000000000000000000000000000000000000000000000000000000000001010",
                "0x00000000000000000000000012348e0f1d209896a76768a283b2b5dd42c9f460",
                "0x0000000000000000000000004ad84f7014b7b44f723f284a85b1662337971439"
              ],
              "data": "0x000000000000000000000000000000000000000000000000000c71eec8afc79b00000000000000000000000000000000000000000000000002d5684bb9a9387f0000000000000000000000000000000000000000000004134672d848e67cda7700000000000000000000000000000000000000000000000002c8f65cf0f970e4000000000000000000000000000000000000000000000413467f4a37af2ca212",
              "blockHash": "0x6dd9883bb39f4224c2e82a8817683e88527a26f82cd4633412cd79dcdbfc7514",
              "blockNumber": "0xdd2ab9",
              "transactionHash": "0x1944c9f9fe1b8fc365e213fdd03f9e6190d73523c1cc67fd90155a1a010e79ce",
              "transactionIndex": "0x0",
              "logIndex": "0x0",
              "removed": false
            }
          ],
          "logsBloom": "0x00000000000000000000000800000000000000000000000000000000000000000000002000000000000000000000000000008000000000000000000000400000000000000000000000000000000000800000000000000000010100001000000000000000000000000000000000000000000000000000000080000000000000000000000000000000000000000000000000000000000000000000000000000000200000000000000000000000000000000000000000000000000000000000004000000000000000000001000000000000000000000000000000100000000000000000000000000000000000000000008000000000000000000000000000100000",
          "type": "0x2",
          "transactionHash": "0x1944c9f9fe1b8fc365e213fdd03f9e6190d73523c1cc67fd90155a1a010e79ce",
          "transactionIndex": "0x0",
          "blockHash": "0x6dd9883bb39f4224c2e82a8817683e88527a26f82cd4633412cd79dcdbfc7514",
          "blockNumber": "0xdd2ab9",
          "gasUsed": "0xb41b",
          "effectiveGasPrice": "0x11b0737290",
          "from": "0x12348e0f1d209896a76768a283b2b5dd42c9f460",
          "to": "0x114f9afb1dce419e06d6709cfa87954378cf492e",
          "contractAddress": null
        },
        {
          "status": "0x1",
          "cumulativeGasUsed": "0x16e7e",
          "logs": [
            {
              "address": "0x114f9afb1dce419e06d6709cfa87954378cf492e",
              "topics": [
                "0x238399d427b947898edb290f5ff0f9109849b1c3ba196a42e35f00c50a54b98b"
              ],
              "data": "0x0000000000000000000000000000000000000000000000000000000000009cea000000000000000000000000114f9afb1dce419e06d6709cfa87954378cf492e",
              "blockHash": "0x6dd9883bb39f4224c2e82a8817683e88527a26f82cd4633412cd79dcdbfc7514",
              "blockNumber": "0xdd2ab9",
              "transactionHash": "0x656bdfa3c495bf19b56d615a23c85c8ac3d516dee98d082c8fcde609e02cb4c7",
              "transactionIndex": "0x1",
              "logIndex": "0x1",
              "removed": false
            },
            {
              "address": "0x0000000000000000000000000000000000001010",
              "topics": [
                "0x4dfe1bbbcf077ddc3e01291eea2d5c70c2b422b415d95645b9adcfd678cb1d63",
                "0x0000000000000000000000000000000000000000000000000000000000001010",
                "0x00000000000000000000000012348e0f1d209896a76768a283b2b5dd42c9f460",
                "0x0000000000000000000000004ad84f7014b7b44f723f284a85b1662337971439"
              ],
              "data": "0x000000000000000000000000000000000000000000000000000ce10b1dd701e300000000000000000000000000000000000000000000000002c8f65cf0eee34f000000000000000000000000000000000000000000000413467f4a37af2ca21200000000000000000000000000000000000000000000000002bc1551d317e16c000000000000000000000000000000000000000000000413468c2b42cd03a3f5",
              "blockHash": "0x6dd9883bb39f4224c2e82a8817683e88527a26f82cd4633412cd79dcdbfc7514",
              "blockNumber": "0xdd2ab9",
              "transactionHash": "0x656bdfa3c495bf19b56d615a23c85c8ac3d516dee98d082c8fcde609e02cb4c7",
              "transactionIndex": "0x1",
              "logIndex": "0x2",
              "removed": false
            }
          ],
          "logsBloom": "0x00000000000000000000000800000000000000000000000000000000000000000000002000000000000000000020000000008000000000000800000000400000000000000000000000000000000000800000000000000000010100001000000000000000000000000000000000000000080000000000000080000000000000000000000000000000000000000000000000000000000000000000000000000000200000000000000000000000000000000000000000000000000002000040004000000000000000000001000000000000000000000000000000140000000000000000000000000000000000000000008000000000000000000000000000100000",
          "type": "0x2",
          "transactionHash": "0x656bdfa3c495bf19b56d615a23c85c8ac3d516dee98d082c8fcde609e02cb4c7",
          "transactionIndex": "0x1",
          "blockHash": "0x6dd9883bb39f4224c2e82a8817683e88527a26f82cd4633412cd79dcdbfc7514",
          "blockNumber": "0xdd2ab9",
          "gasUsed": "0xba63",
          "effectiveGasPrice": "0x11b0737290",
          "from": "0x12348e0f1d209896a76768a283b2b5dd42c9f460",
          "to": "0x114f9afb1dce419e06d6709cfa87954378cf492e",
          "contractAddress": null
        },
        {
          "status": "0x1",
          "cumulativeGasUsed": "0x228e1",
          "logs": [
            {
              "address": "0x114f9afb1dce419e06d6709cfa87954378cf492e",
              "topics": [
                "0x238399d427b947898edb290f5ff0f9109849b1c3ba196a42e35f00c50a54b98b"
              ],
              "data": "0x0000000000000000000000000000000000000000000000000000000000009d53000000000000000000000000114f9afb1dce419e06d6709cfa87954378cf492e",
              "blockHash": "0x6dd9883bb39f4224c2e82a8817683e88527a26f82cd4633412cd79dcdbfc7514",
              "blockNumber": "0xdd2ab9",
              "transactionHash": "0x7f7f07cb67ef231e44361417dd7a4c56edd2005757fb506667e94d89c612a9f0",
              "transactionIndex": "0x2",
              "logIndex": "0x3",
              "removed": false
            },
            {
              "address": "0x0000000000000000000000000000000000001010",
              "topics": [
                "0x4dfe1bbbcf077ddc3e01291eea2d5c70c2b422b415d95645b9adcfd678cb1d63",
                "0x0000000000000000000000000000000000000000000000000000000000001010",
                "0x00000000000000000000000012348e0f1d209896a76768a283b2b5dd42c9f460",
                "0x0000000000000000000000004ad84f7014b7b44f723f284a85b1662337971439"
              ],
              "data": "0x000000000000000000000000000000000000000000000000000ce10b1dd701e300000000000000000000000000000000000000000000000002bc1551d30cf59f000000000000000000000000000000000000000000000413468c2b42cd03a3f500000000000000000000000000000000000000000000000002af3446b535f3bc00000000000000000000000000000000000000000000041346990c4deadaa5d8",
              "blockHash": "0x6dd9883bb39f4224c2e82a8817683e88527a26f82cd4633412cd79dcdbfc7514",
              "blockNumber": "0xdd2ab9",
              "transactionHash": "0x7f7f07cb67ef231e44361417dd7a4c56edd2005757fb506667e94d89c612a9f0",
              "transactionIndex": "0x2",
              "logIndex": "0x4",
              "removed": false
            }
          ],
          "logsBloom": "0x00000000000000000000000800000000000000000000000000000000000000000000002000000000000000000020000000008000000000000800000000400000000000000000000000000000000000800000000000000000010100001000000000000000000000000000000000000000080000000000000080000000000000000000000000000000000000000000000000000000000000000000000000000000200000000000000000000000000000000000000000000000000002000040004000000000000000000001000000000000000000000000000000140000000000000000000000000000000000000000008000000000000000000000000000100000",
          "type": "0x2",
          "transactionHash": "0x7f7f07cb67ef231e44361417dd7a4c56edd2005757fb506667e94d89c612a9f0",
          "transactionIndex": "0x2",
          "blockHash": "0x6dd9883bb39f4224c2e82a8817683e88527a26f82cd4633412cd79dcdbfc7514",
          "blockNumber": "0xdd2ab9",
          "gasUsed": "0xba63",
          "effectiveGasPrice": "0x11b0737290",
          "from": "0x12348e0f1d209896a76768a283b2b5dd42c9f460",
          "to": "0x114f9afb1dce419e06d6709cfa87954378cf492e",
          "contractAddress": null
        }
      ],
      "libraries": [],
      "pending": [],
      "returns": {},
      "timestamp": 1731756304,
      "chain": 80002,
      "commit": "fa7e3d7"
    },
    {
      "transactions": [
        {
          "hash": "0x2ff6794c7497fff23e04b5cfecbbc722c45cf242424c7772ce58c7c8de63fa74",
          "transactionType": "CALL",
          "contractName": null,
          "contractAddress": "0x114f9afb1dce419e06d6709cfa87954378cf492e",
          "function": "setToken(address)",
          "arguments": [
            "0xA8FF03a3aF16A07e505Fa7b5c1e3E2726D9787A3"
          ],
          "transaction": {
            "from": "0x12348e0f1d209896a76768a283b2b5dd42c9f460",
            "to": "0x114f9afb1dce419e06d6709cfa87954378cf492e",
            "gas": "0x10767",
            "value": "0x0",
            "input": "0x144fa6d7000000000000000000000000a8ff03a3af16a07e505fa7b5c1e3e2726d9787a3",
            "nonce": "0x2",
            "chainId": "0xbf03"
          },
          "additionalContracts": [],
          "isFixedGasLimit": false
        },
        {
          "hash": "0x0f5499b1bbd6284de870aa5e968e80d8cfe3859f726c9947523bbdda353f016a",
          "transactionType": "CALL",
          "contractName": null,
          "contractAddress": "0x114f9afb1dce419e06d6709cfa87954378cf492e",
          "function": "setPeer(uint32,bytes32)",
          "arguments": [
            "40170",
            "0x000000000000000000000000114f9afb1dce419e06d6709cfa87954378cf492e"
          ],
          "transaction": {
            "from": "0x12348e0f1d209896a76768a283b2b5dd42c9f460",
            "to": "0x114f9afb1dce419e06d6709cfa87954378cf492e",
            "gas": "0x11096",
            "value": "0x0",
            "input": "0x3400288b0000000000000000000000000000000000000000000000000000000000009cea000000000000000000000000114f9afb1dce419e06d6709cfa87954378cf492e",
            "nonce": "0x3",
            "chainId": "0xbf03"
          },
          "additionalContracts": [],
          "isFixedGasLimit": false
        },
        {
          "hash": "0x58603c5da97edd34129c04841c6b1edfc594adbc589502a0bdf7a8f372ea3a74",
          "transactionType": "CALL",
          "contractName": null,
          "contractAddress": "0x114f9afb1dce419e06d6709cfa87954378cf492e",
          "function": "setPeer(uint32,bytes32)",
          "arguments": [
            "40267",
            "0x000000000000000000000000114f9afb1dce419e06d6709cfa87954378cf492e"
          ],
          "transaction": {
            "from": "0x12348e0f1d209896a76768a283b2b5dd42c9f460",
            "to": "0x114f9afb1dce419e06d6709cfa87954378cf492e",
            "gas": "0x11096",
            "value": "0x0",
            "input": "0x3400288b0000000000000000000000000000000000000000000000000000000000009d4b000000000000000000000000114f9afb1dce419e06d6709cfa87954378cf492e",
            "nonce": "0x4",
            "chainId": "0xbf03"
          },
          "additionalContracts": [],
          "isFixedGasLimit": false
        }
      ],
      "receipts": [
        {
          "status": "0x1",
          "cumulativeGasUsed": "0x188b0",
          "logs": [],
          "logsBloom": "0x00000000000000000000000000000000000000000000000000000000000000000000000000000000000000000000000000000000000000000000000000000000000000000000000000000000000000000000000000000000000000000000000000000000000000000000000000000000000000000000000000000000000000000000000000000000000000000000000000000000000000000000000000000000000000000000000000000000000000000000000000000000000000000000000000000000000000000000000000000000000000000000000000000000000000000000000000000000000000000000000000000000000000000000000000000000",
          "type": "0x2",
          "transactionHash": "0x2ff6794c7497fff23e04b5cfecbbc722c45cf242424c7772ce58c7c8de63fa74",
          "transactionIndex": "0x1",
          "blockHash": "0xc40d971bdbe8e7b7d2b2bcc498b974451b0ca9332acd3d01b5447acd7ac2fbe3",
          "blockNumber": "0xf30fa4",
          "gasUsed": "0xb41b",
          "effectiveGasPrice": "0xfe",
          "from": "0x12348e0f1d209896a76768a283b2b5dd42c9f460",
          "to": "0x114f9afb1dce419e06d6709cfa87954378cf492e",
          "contractAddress": null,
          "l1Fee": "0xc6d2ad52",
          "l1GasPrice": "0x4513c2ee",
          "l1GasUsed": "0x838"
        },
        {
          "status": "0x1",
          "cumulativeGasUsed": "0x16e34",
          "logs": [
            {
              "address": "0x114f9afb1dce419e06d6709cfa87954378cf492e",
              "topics": [
                "0x238399d427b947898edb290f5ff0f9109849b1c3ba196a42e35f00c50a54b98b"
              ],
              "data": "0x0000000000000000000000000000000000000000000000000000000000009cea000000000000000000000000114f9afb1dce419e06d6709cfa87954378cf492e",
              "blockHash": "0xb522d650f22ae1ec2e7ae09fa0911adb835f3a7286e060b5615ce2352de315b0",
              "blockNumber": "0xf30fa5",
              "transactionHash": "0x0f5499b1bbd6284de870aa5e968e80d8cfe3859f726c9947523bbdda353f016a",
              "transactionIndex": "0x1",
              "logIndex": "0x0",
              "removed": false
            }
          ],
          "logsBloom": "0x00000000000000000000000000000000000000000000000000000000000000000000000000000000000000000020000000000000000000000800000000000000000000000000000000000000000000000000000000000000000000000000000000000000000000000000000000000000080000000000000000000000000000000000000000000000000000000000000000000000000000000000000000000000000000000000000000000000000000000000000000000000000002000040000000000000000000000000000000000000000000000000000000040000000000000000000000000000000000000000000000000000000000000000000000000000",
          "type": "0x2",
          "transactionHash": "0x0f5499b1bbd6284de870aa5e968e80d8cfe3859f726c9947523bbdda353f016a",
          "transactionIndex": "0x1",
          "blockHash": "0xb522d650f22ae1ec2e7ae09fa0911adb835f3a7286e060b5615ce2352de315b0",
          "blockNumber": "0xf30fa5",
          "gasUsed": "0xba63",
          "effectiveGasPrice": "0xfe",
          "from": "0x12348e0f1d209896a76768a283b2b5dd42c9f460",
          "to": "0x114f9afb1dce419e06d6709cfa87954378cf492e",
          "contractAddress": null,
          "l1Fee": "0xd7d52069",
          "l1GasPrice": "0x4513c2ee",
          "l1GasUsed": "0x8ec"
        },
        {
          "status": "0x1",
          "cumulativeGasUsed": "0x16e34",
          "logs": [
            {
              "address": "0x114f9afb1dce419e06d6709cfa87954378cf492e",
              "topics": [
                "0x238399d427b947898edb290f5ff0f9109849b1c3ba196a42e35f00c50a54b98b"
              ],
              "data": "0x0000000000000000000000000000000000000000000000000000000000009d4b000000000000000000000000114f9afb1dce419e06d6709cfa87954378cf492e",
              "blockHash": "0x4b3af98cbe4e71e5d3d54d30f44d6d78305584132e01ee13a3119abb6eef7e94",
              "blockNumber": "0xf30fa6",
              "transactionHash": "0x58603c5da97edd34129c04841c6b1edfc594adbc589502a0bdf7a8f372ea3a74",
              "transactionIndex": "0x1",
              "logIndex": "0x0",
              "removed": false
            }
          ],
          "logsBloom": "0x00000000000000000000000000000000000000000000000000000000000000000000000000000000000000000020000000000000000000000800000000000000000000000000000000000000000000000000000000000000000000000000000000000000000000000000000000000000080000000000000000000000000000000000000000000000000000000000000000000000000000000000000000000000000000000000000000000000000000000000000000000000000002000040000000000000000000000000000000000000000000000000000000040000000000000000000000000000000000000000000000000000000000000000000000000000",
          "type": "0x2",
          "transactionHash": "0x58603c5da97edd34129c04841c6b1edfc594adbc589502a0bdf7a8f372ea3a74",
          "transactionIndex": "0x1",
          "blockHash": "0x4b3af98cbe4e71e5d3d54d30f44d6d78305584132e01ee13a3119abb6eef7e94",
          "blockNumber": "0xf30fa6",
          "gasUsed": "0xba63",
          "effectiveGasPrice": "0xfe",
          "from": "0x12348e0f1d209896a76768a283b2b5dd42c9f460",
          "to": "0x114f9afb1dce419e06d6709cfa87954378cf492e",
          "contractAddress": null,
          "l1Fee": "0xd7d52069",
          "l1GasPrice": "0x4513c2ee",
          "l1GasUsed": "0x8ec"
        }
      ],
      "libraries": [],
      "pending": [],
      "returns": {},
      "timestamp": 1731756305,
      "chain": 48899,
      "commit": "fa7e3d7"
    }
  ],
  "timestamp": 1731756333
}