{
  "deployments": [
    {
      "transactions": [
        {
          "hash": "0x055a46c26c349a59b29978ffcb5b3208df288dd288255af7f87d9d97242e6f47",
          "transactionType": "CALL",
          "contractName": null,
          "contractAddress": "0x9dde77b61fc4f08177f14cb254148bf7cc85a8c5",
          "function": "setChainlessBalance(address)",
          "arguments": [
            "0x8d79f26c1b29f2833D6B36b3e902c9c537450568"
          ],
          "transaction": {
            "from": "0x11110dbc48603b706792aa52671a1439d0f4da63",
            "to": "0x9dde77b61fc4f08177f14cb254148bf7cc85a8c5",
            "gas": "0xf95b",
            "value": "0x0",
            "input": "0xbb2119bc0000000000000000000000008d79f26c1b29f2833d6b36b3e902c9c537450568",
            "nonce": "0x6",
            "chainId": "0x13882"
          },
          "additionalContracts": [],
          "isFixedGasLimit": false
        },
        {
          "hash": "0x040ef2d89e54e3385b3f4ec142bcf379ae426fd1c563ae4abb83e6e3b39dd3ee",
          "transactionType": "CALL",
          "contractName": null,
          "contractAddress": "0x9dde77b61fc4f08177f14cb254148bf7cc85a8c5",
          "function": "addDestination(uint32)",
          "arguments": [
            "40333"
          ],
          "transaction": {
            "from": "0x11110dbc48603b706792aa52671a1439d0f4da63",
            "to": "0x9dde77b61fc4f08177f14cb254148bf7cc85a8c5",
            "gas": "0x28796",
            "value": "0x0",
            "input": "0x3115f4900000000000000000000000000000000000000000000000000000000000009d8d",
            "nonce": "0x7",
            "chainId": "0x13882"
          },
          "additionalContracts": [],
          "isFixedGasLimit": false
        },
        {
          "hash": "0x91ce0ec23fb9a8d3b5de29f6ecd5794ccc3eb4da2cb42ac16679fbd81787887f",
          "transactionType": "CALL",
          "contractName": null,
          "contractAddress": "0x9dde77b61fc4f08177f14cb254148bf7cc85a8c5",
          "function": "setPeer(uint32,bytes32)",
          "arguments": [
            "40333",
            "0x0000000000000000000000009dde77b61fc4f08177f14cb254148bf7cc85a8c5"
          ],
          "transaction": {
            "from": "0x11110dbc48603b706792aa52671a1439d0f4da63",
            "to": "0x9dde77b61fc4f08177f14cb254148bf7cc85a8c5",
            "gas": "0x10135",
            "value": "0x0",
            "input": "0x3400288b0000000000000000000000000000000000000000000000000000000000009d8d0000000000000000000000009dde77b61fc4f08177f14cb254148bf7cc85a8c5",
            "nonce": "0x8",
            "chainId": "0x13882"
          },
          "additionalContracts": [],
          "isFixedGasLimit": false
        },
        {
          "hash": "0x90dbf33afbef7cdb9280fd619166fbee4980e9eeeb8de537759954db703d2162",
          "transactionType": "CALL",
          "contractName": null,
          "contractAddress": "0x9dde77b61fc4f08177f14cb254148bf7cc85a8c5",
          "function": "addDestination(uint32)",
          "arguments": [
            "40170"
          ],
          "transaction": {
            "from": "0x11110dbc48603b706792aa52671a1439d0f4da63",
            "to": "0x9dde77b61fc4f08177f14cb254148bf7cc85a8c5",
            "gas": "0x11712",
            "value": "0x0",
            "input": "0x3115f4900000000000000000000000000000000000000000000000000000000000009cea",
            "nonce": "0x9",
            "chainId": "0x13882"
          },
          "additionalContracts": [],
          "isFixedGasLimit": false
        },
        {
          "hash": "0xdb7f1d3d71a4724ff89bb27932804589acde39c2f428358c9b9625dbfdb9fcb5",
          "transactionType": "CALL",
          "contractName": null,
          "contractAddress": "0x9dde77b61fc4f08177f14cb254148bf7cc85a8c5",
          "function": "setPeer(uint32,bytes32)",
          "arguments": [
            "40170",
            "0x0000000000000000000000009dde77b61fc4f08177f14cb254148bf7cc85a8c5"
          ],
          "transaction": {
            "from": "0x11110dbc48603b706792aa52671a1439d0f4da63",
            "to": "0x9dde77b61fc4f08177f14cb254148bf7cc85a8c5",
            "gas": "0x10135",
            "value": "0x0",
            "input": "0x3400288b0000000000000000000000000000000000000000000000000000000000009cea0000000000000000000000009dde77b61fc4f08177f14cb254148bf7cc85a8c5",
            "nonce": "0xa",
            "chainId": "0x13882"
          },
          "additionalContracts": [],
          "isFixedGasLimit": false
        },
        {
          "hash": "0xc55721cd681be94682e0e9f8671e9cffbca820cf823a6a8986ed98a31a2de102",
          "transactionType": "CALL",
          "contractName": null,
          "contractAddress": "0x9dde77b61fc4f08177f14cb254148bf7cc85a8c5",
          "function": "addDestination(uint32)",
          "arguments": [
            "40275"
          ],
          "transaction": {
            "from": "0x11110dbc48603b706792aa52671a1439d0f4da63",
            "to": "0x9dde77b61fc4f08177f14cb254148bf7cc85a8c5",
            "gas": "0x11712",
            "value": "0x0",
            "input": "0x3115f4900000000000000000000000000000000000000000000000000000000000009d53",
            "nonce": "0xb",
            "chainId": "0x13882"
          },
          "additionalContracts": [],
          "isFixedGasLimit": false
        },
        {
          "hash": "0xaa26101b542af78f9c54688c5051f8ee463065e9ed2481e534b2c84d0271dfb9",
          "transactionType": "CALL",
          "contractName": null,
          "contractAddress": "0x9dde77b61fc4f08177f14cb254148bf7cc85a8c5",
          "function": "setPeer(uint32,bytes32)",
          "arguments": [
            "40275",
            "0x0000000000000000000000009dde77b61fc4f08177f14cb254148bf7cc85a8c5"
          ],
          "transaction": {
            "from": "0x11110dbc48603b706792aa52671a1439d0f4da63",
            "to": "0x9dde77b61fc4f08177f14cb254148bf7cc85a8c5",
            "gas": "0x10135",
            "value": "0x0",
            "input": "0x3400288b0000000000000000000000000000000000000000000000000000000000009d530000000000000000000000009dde77b61fc4f08177f14cb254148bf7cc85a8c5",
            "nonce": "0xc",
            "chainId": "0x13882"
          },
          "additionalContracts": [],
          "isFixedGasLimit": false
        }
      ],
      "receipts": [
        {
          "status": "0x1",
          "cumulativeGasUsed": "0xb488",
          "logs": [
            {
              "address": "0x0000000000000000000000000000000000001010",
              "topics": [
                "0x4dfe1bbbcf077ddc3e01291eea2d5c70c2b422b415d95645b9adcfd678cb1d63",
                "0x0000000000000000000000000000000000000000000000000000000000001010",
                "0x00000000000000000000000011110dbc48603b706792aa52671a1439d0f4da63",
                "0x0000000000000000000000006ab3d36c46ecfb9b9c0bd51cb1c3da5a2c81cea6"
              ],
              "data": "0x000000000000000000000000000000000000000000000000000b572648f1d80000000000000000000000000000000000000000000000000003cefcbffaf8a82a00000000000000000000000000000000000000000000039ef1d3ebf7b3bf0c2000000000000000000000000000000000000000000000000003c3a599b206d02a00000000000000000000000000000000000000000000039ef1df431dfcb0e420",
              "blockHash": "0xca45d75909a4a0dddccfdfae209242095cc23179192f9b188fe5a79752fde8e6",
              "blockNumber": "0xdd1d31",
              "transactionHash": "0x055a46c26c349a59b29978ffcb5b3208df288dd288255af7f87d9d97242e6f47",
              "transactionIndex": "0x0",
              "logIndex": "0x0",
              "removed": false
            }
          ],
          "logsBloom": "0x00000000080000000000000000000000000000000000000000000000000000000000000000000000000000000000000000008000000000000000000000000000000000180000000000000000000000800000000000400000000100000000000000000000000000000000000000000000000000000000000080000000000000000000000000000000000000000000000000000000000000000000000000000000200000000000000000000000000000000000000000000000000000000008004000000000000000000001000000000000000000010000000000100000000000000000000000000000000000000000000000000000000000000000000000100000",
          "type": "0x2",
          "transactionHash": "0x055a46c26c349a59b29978ffcb5b3208df288dd288255af7f87d9d97242e6f47",
          "transactionIndex": "0x0",
          "blockHash": "0xca45d75909a4a0dddccfdfae209242095cc23179192f9b188fe5a79752fde8e6",
          "blockNumber": "0xdd1d31",
          "gasUsed": "0xb488",
          "effectiveGasPrice": "0x1014c60b0f",
          "from": "0x11110dbc48603b706792aa52671a1439d0f4da63",
          "to": "0x9dde77b61fc4f08177f14cb254148bf7cc85a8c5",
          "contractAddress": null
        },
        {
          "status": "0x1",
          "cumulativeGasUsed": "0x28960",
          "logs": [
            {
              "address": "0x0000000000000000000000000000000000001010",
              "topics": [
                "0x4dfe1bbbcf077ddc3e01291eea2d5c70c2b422b415d95645b9adcfd678cb1d63",
                "0x0000000000000000000000000000000000000000000000000000000000001010",
                "0x00000000000000000000000011110dbc48603b706792aa52671a1439d0f4da63",
                "0x0000000000000000000000006ab3d36c46ecfb9b9c0bd51cb1c3da5a2c81cea6"
              ],
              "data": "0x000000000000000000000000000000000000000000000000001d738b9335480000000000000000000000000000000000000000000000000003c3a599b1fc3c3200000000000000000000000000000000000000000000039ef1df431dfcb0e42000000000000000000000000000000000000000000000000003a6320e1ec6f43200000000000000000000000000000000000000000000039ef1fcb6a98fe62c20",
              "blockHash": "0xca45d75909a4a0dddccfdfae209242095cc23179192f9b188fe5a79752fde8e6",
              "blockNumber": "0xdd1d31",
              "transactionHash": "0x040ef2d89e54e3385b3f4ec142bcf379ae426fd1c563ae4abb83e6e3b39dd3ee",
              "transactionIndex": "0x1",
              "logIndex": "0x1",
              "removed": false
            }
          ],
          "logsBloom": "0x00000000080000000000000000000000000000000000000000000000000000000000000000000000000000000000000000008000000000000000000000000000000000180000000000000000000000800000000000400000000100000000000000000000000000000000000000000000000000000000000080000000000000000000000000000000000000000000000000000000000000000000000000000000200000000000000000000000000000000000000000000000000000000008004000000000000000000001000000000000000000010000000000100000000000000000000000000000000000000000000000000000000000000000000000100000",
          "type": "0x2",
          "transactionHash": "0x040ef2d89e54e3385b3f4ec142bcf379ae426fd1c563ae4abb83e6e3b39dd3ee",
          "transactionIndex": "0x1",
          "blockHash": "0xca45d75909a4a0dddccfdfae209242095cc23179192f9b188fe5a79752fde8e6",
          "blockNumber": "0xdd1d31",
          "gasUsed": "0x1d4d8",
          "effectiveGasPrice": "0x1014c60b0f",
          "from": "0x11110dbc48603b706792aa52671a1439d0f4da63",
          "to": "0x9dde77b61fc4f08177f14cb254148bf7cc85a8c5",
          "contractAddress": null
        },
        {
          "status": "0x1",
          "cumulativeGasUsed": "0x34397",
          "logs": [
            {
              "address": "0x9dde77b61fc4f08177f14cb254148bf7cc85a8c5",
              "topics": [
                "0x238399d427b947898edb290f5ff0f9109849b1c3ba196a42e35f00c50a54b98b"
              ],
              "data": "0x0000000000000000000000000000000000000000000000000000000000009d8d0000000000000000000000009dde77b61fc4f08177f14cb254148bf7cc85a8c5",
              "blockHash": "0xca45d75909a4a0dddccfdfae209242095cc23179192f9b188fe5a79752fde8e6",
              "blockNumber": "0xdd1d31",
              "transactionHash": "0x91ce0ec23fb9a8d3b5de29f6ecd5794ccc3eb4da2cb42ac16679fbd81787887f",
              "transactionIndex": "0x2",
              "logIndex": "0x2",
              "removed": false
            },
            {
              "address": "0x0000000000000000000000000000000000001010",
              "topics": [
                "0x4dfe1bbbcf077ddc3e01291eea2d5c70c2b422b415d95645b9adcfd678cb1d63",
                "0x0000000000000000000000000000000000000000000000000000000000001010",
                "0x00000000000000000000000011110dbc48603b706792aa52671a1439d0f4da63",
                "0x0000000000000000000000006ab3d36c46ecfb9b9c0bd51cb1c3da5a2c81cea6"
              ],
              "data": "0x000000000000000000000000000000000000000000000000000bb28c5a8a5d0000000000000000000000000000000000000000000000000003a6320e1eab7b8a00000000000000000000000000000000000000000000039ef1fcb6a98fe62c20000000000000000000000000000000000000000000000000039a7f81c4211e8a00000000000000000000000000000000000000000000039ef2086935ea708920",
              "blockHash": "0xca45d75909a4a0dddccfdfae209242095cc23179192f9b188fe5a79752fde8e6",
              "blockNumber": "0xdd1d31",
              "transactionHash": "0x91ce0ec23fb9a8d3b5de29f6ecd5794ccc3eb4da2cb42ac16679fbd81787887f",
              "transactionIndex": "0x2",
              "logIndex": "0x3",
              "removed": false
            }
          ],
          "logsBloom": "0x00000000080000000000000000000000000000000000000000000000000000000000000000000000000000000000000000008000000800000800000000000000000000180000000000000000000000800000040000400000000100000000000000000000000000000000000000000000000000000000000080000000000000000000000000000000000000000000000000000000000000000000000000000000200000000000000000000000000000000000000000000000000002000008004000000000001000000001000000000000000000010000000000140000000000000000000000000000000000000000000000000000000000000000000000100000",
          "type": "0x2",
          "transactionHash": "0x91ce0ec23fb9a8d3b5de29f6ecd5794ccc3eb4da2cb42ac16679fbd81787887f",
          "transactionIndex": "0x2",
          "blockHash": "0xca45d75909a4a0dddccfdfae209242095cc23179192f9b188fe5a79752fde8e6",
          "blockNumber": "0xdd1d31",
          "gasUsed": "0xba37",
          "effectiveGasPrice": "0x1014c60b0f",
          "from": "0x11110dbc48603b706792aa52671a1439d0f4da63",
          "to": "0x9dde77b61fc4f08177f14cb254148bf7cc85a8c5",
          "contractAddress": null
        },
        {
          "status": "0x1",
          "cumulativeGasUsed": "0x40da3",
          "logs": [
            {
              "address": "0x0000000000000000000000000000000000001010",
              "topics": [
                "0x4dfe1bbbcf077ddc3e01291eea2d5c70c2b422b415d95645b9adcfd678cb1d63",
                "0x0000000000000000000000000000000000000000000000000000000000001010",
                "0x00000000000000000000000011110dbc48603b706792aa52671a1439d0f4da63",
                "0x0000000000000000000000006ab3d36c46ecfb9b9c0bd51cb1c3da5a2c81cea6"
              ],
              "data": "0x000000000000000000000000000000000000000000000000000cb1253df68400000000000000000000000000000000000000000000000000039a7f81c416355100000000000000000000000000000000000000000000039ef2086935ea708920000000000000000000000000000000000000000000000000038dce5c861fb15100000000000000000000000000000000000000000000039ef2151a5b28670d20",
              "blockHash": "0xca45d75909a4a0dddccfdfae209242095cc23179192f9b188fe5a79752fde8e6",
              "blockNumber": "0xdd1d31",
              "transactionHash": "0x90dbf33afbef7cdb9280fd619166fbee4980e9eeeb8de537759954db703d2162",
              "transactionIndex": "0x3",
              "logIndex": "0x4",
              "removed": false
            }
          ],
          "logsBloom": "0x00000000080000000000000000000000000000000000000000000000000000000000000000000000000000000000000000008000000000000000000000000000000000180000000000000000000000800000000000400000000100000000000000000000000000000000000000000000000000000000000080000000000000000000000000000000000000000000000000000000000000000000000000000000200000000000000000000000000000000000000000000000000000000008004000000000000000000001000000000000000000010000000000100000000000000000000000000000000000000000000000000000000000000000000000100000",
          "type": "0x2",
          "transactionHash": "0x90dbf33afbef7cdb9280fd619166fbee4980e9eeeb8de537759954db703d2162",
          "transactionIndex": "0x3",
          "blockHash": "0xca45d75909a4a0dddccfdfae209242095cc23179192f9b188fe5a79752fde8e6",
          "blockNumber": "0xdd1d31",
          "gasUsed": "0xca0c",
          "effectiveGasPrice": "0x1014c60b0f",
          "from": "0x11110dbc48603b706792aa52671a1439d0f4da63",
          "to": "0x9dde77b61fc4f08177f14cb254148bf7cc85a8c5",
          "contractAddress": null
        },
        {
          "status": "0x1",
          "cumulativeGasUsed": "0x4c7da",
          "logs": [
            {
              "address": "0x9dde77b61fc4f08177f14cb254148bf7cc85a8c5",
              "topics": [
                "0x238399d427b947898edb290f5ff0f9109849b1c3ba196a42e35f00c50a54b98b"
              ],
              "data": "0x0000000000000000000000000000000000000000000000000000000000009cea0000000000000000000000009dde77b61fc4f08177f14cb254148bf7cc85a8c5",
              "blockHash": "0xca45d75909a4a0dddccfdfae209242095cc23179192f9b188fe5a79752fde8e6",
              "blockNumber": "0xdd1d31",
              "transactionHash": "0xdb7f1d3d71a4724ff89bb27932804589acde39c2f428358c9b9625dbfdb9fcb5",
              "transactionIndex": "0x4",
              "logIndex": "0x5",
              "removed": false
            },
            {
              "address": "0x0000000000000000000000000000000000001010",
              "topics": [
                "0x4dfe1bbbcf077ddc3e01291eea2d5c70c2b422b415d95645b9adcfd678cb1d63",
                "0x0000000000000000000000000000000000000000000000000000000000001010",
                "0x00000000000000000000000011110dbc48603b706792aa52671a1439d0f4da63",
                "0x0000000000000000000000006ab3d36c46ecfb9b9c0bd51cb1c3da5a2c81cea6"
              ],
              "data": "0x000000000000000000000000000000000000000000000000000bb28c5a8a5d00000000000000000000000000000000000000000000000000038dce5c8613da9d00000000000000000000000000000000000000000000039ef2151a5b28670d2000000000000000000000000000000000000000000000000003821bd02b897d9d00000000000000000000000000000000000000000000039ef220cce782f16a20",
              "blockHash": "0xca45d75909a4a0dddccfdfae209242095cc23179192f9b188fe5a79752fde8e6",
              "blockNumber": "0xdd1d31",
              "transactionHash": "0xdb7f1d3d71a4724ff89bb27932804589acde39c2f428358c9b9625dbfdb9fcb5",
              "transactionIndex": "0x4",
              "logIndex": "0x6",
              "removed": false
            }
          ],
          "logsBloom": "0x00000000080000000000000000000000000000000000000000000000000000000000000000000000000000000000000000008000000800000800000000000000000000180000000000000000000000800000040000400000000100000000000000000000000000000000000000000000000000000000000080000000000000000000000000000000000000000000000000000000000000000000000000000000200000000000000000000000000000000000000000000000000002000008004000000000001000000001000000000000000000010000000000140000000000000000000000000000000000000000000000000000000000000000000000100000",
          "type": "0x2",
          "transactionHash": "0xdb7f1d3d71a4724ff89bb27932804589acde39c2f428358c9b9625dbfdb9fcb5",
          "transactionIndex": "0x4",
          "blockHash": "0xca45d75909a4a0dddccfdfae209242095cc23179192f9b188fe5a79752fde8e6",
          "blockNumber": "0xdd1d31",
          "gasUsed": "0xba37",
          "effectiveGasPrice": "0x1014c60b0f",
          "from": "0x11110dbc48603b706792aa52671a1439d0f4da63",
          "to": "0x9dde77b61fc4f08177f14cb254148bf7cc85a8c5",
          "contractAddress": null
        },
        {
          "status": "0x1",
          "cumulativeGasUsed": "0x591e6",
          "logs": [
            {
              "address": "0x0000000000000000000000000000000000001010",
              "topics": [
                "0x4dfe1bbbcf077ddc3e01291eea2d5c70c2b422b415d95645b9adcfd678cb1d63",
                "0x0000000000000000000000000000000000000000000000000000000000001010",
                "0x00000000000000000000000011110dbc48603b706792aa52671a1439d0f4da63",
                "0x0000000000000000000000006ab3d36c46ecfb9b9c0bd51cb1c3da5a2c81cea6"
              ],
              "data": "0x000000000000000000000000000000000000000000000000000cb1253df6840000000000000000000000000000000000000000000000000003821bd02b7e946400000000000000000000000000000000000000000000039ef220cce782f16a2000000000000000000000000000000000000000000000000003756aaaed88106400000000000000000000000000000000000000000000039ef22d7e0cc0e7ee20",
              "blockHash": "0xca45d75909a4a0dddccfdfae209242095cc23179192f9b188fe5a79752fde8e6",
              "blockNumber": "0xdd1d31",
              "transactionHash": "0xc55721cd681be94682e0e9f8671e9cffbca820cf823a6a8986ed98a31a2de102",
              "transactionIndex": "0x5",
              "logIndex": "0x7",
              "removed": false
            }
          ],
          "logsBloom": "0x00000000080000000000000000000000000000000000000000000000000000000000000000000000000000000000000000008000000000000000000000000000000000180000000000000000000000800000000000400000000100000000000000000000000000000000000000000000000000000000000080000000000000000000000000000000000000000000000000000000000000000000000000000000200000000000000000000000000000000000000000000000000000000008004000000000000000000001000000000000000000010000000000100000000000000000000000000000000000000000000000000000000000000000000000100000",
          "type": "0x2",
          "transactionHash": "0xc55721cd681be94682e0e9f8671e9cffbca820cf823a6a8986ed98a31a2de102",
          "transactionIndex": "0x5",
          "blockHash": "0xca45d75909a4a0dddccfdfae209242095cc23179192f9b188fe5a79752fde8e6",
          "blockNumber": "0xdd1d31",
          "gasUsed": "0xca0c",
          "effectiveGasPrice": "0x1014c60b0f",
          "from": "0x11110dbc48603b706792aa52671a1439d0f4da63",
          "to": "0x9dde77b61fc4f08177f14cb254148bf7cc85a8c5",
          "contractAddress": null
        },
        {
          "status": "0x1",
          "cumulativeGasUsed": "0x64c1d",
          "logs": [
            {
              "address": "0x9dde77b61fc4f08177f14cb254148bf7cc85a8c5",
              "topics": [
                "0x238399d427b947898edb290f5ff0f9109849b1c3ba196a42e35f00c50a54b98b"
              ],
              "data": "0x0000000000000000000000000000000000000000000000000000000000009d530000000000000000000000009dde77b61fc4f08177f14cb254148bf7cc85a8c5",
              "blockHash": "0xca45d75909a4a0dddccfdfae209242095cc23179192f9b188fe5a79752fde8e6",
              "blockNumber": "0xdd1d31",
              "transactionHash": "0xaa26101b542af78f9c54688c5051f8ee463065e9ed2481e534b2c84d0271dfb9",
              "transactionIndex": "0x6",
              "logIndex": "0x8",
              "removed": false
            },
            {
              "address": "0x0000000000000000000000000000000000001010",
              "topics": [
                "0x4dfe1bbbcf077ddc3e01291eea2d5c70c2b422b415d95645b9adcfd678cb1d63",
                "0x0000000000000000000000000000000000000000000000000000000000001010",
                "0x00000000000000000000000011110dbc48603b706792aa52671a1439d0f4da63",
                "0x0000000000000000000000006ab3d36c46ecfb9b9c0bd51cb1c3da5a2c81cea6"
              ],
              "data": "0x000000000000000000000000000000000000000000000000000bb28c5a8a5d0000000000000000000000000000000000000000000000000003756aaaed7c39b000000000000000000000000000000000000000000000039ef22d7e0cc0e7ee200000000000000000000000000000000000000000000000000369b81e92f1dcb000000000000000000000000000000000000000000000039ef23930991b724b20",
              "blockHash": "0xca45d75909a4a0dddccfdfae209242095cc23179192f9b188fe5a79752fde8e6",
              "blockNumber": "0xdd1d31",
              "transactionHash": "0xaa26101b542af78f9c54688c5051f8ee463065e9ed2481e534b2c84d0271dfb9",
              "transactionIndex": "0x6",
              "logIndex": "0x9",
              "removed": false
            }
          ],
          "logsBloom": "0x00000000080000000000000000000000000000000000000000000000000000000000000000000000000000000000000000008000000800000800000000000000000000180000000000000000000000800000040000400000000100000000000000000000000000000000000000000000000000000000000080000000000000000000000000000000000000000000000000000000000000000000000000000000200000000000000000000000000000000000000000000000000002000008004000000000001000000001000000000000000000010000000000140000000000000000000000000000000000000000000000000000000000000000000000100000",
          "type": "0x2",
          "transactionHash": "0xaa26101b542af78f9c54688c5051f8ee463065e9ed2481e534b2c84d0271dfb9",
          "transactionIndex": "0x6",
          "blockHash": "0xca45d75909a4a0dddccfdfae209242095cc23179192f9b188fe5a79752fde8e6",
          "blockNumber": "0xdd1d31",
          "gasUsed": "0xba37",
          "effectiveGasPrice": "0x1014c60b0f",
          "from": "0x11110dbc48603b706792aa52671a1439d0f4da63",
          "to": "0x9dde77b61fc4f08177f14cb254148bf7cc85a8c5",
          "contractAddress": null
        }
      ],
      "libraries": [],
      "pending": [],
      "returns": {},
      "timestamp": 1731748311,
      "chain": 80002,
      "commit": "fa7e3d7"
    },
    {
      "transactions": [
        {
          "hash": "0x9ff2d4de642c13f22a848787b904f8bb109df2a0d601c965b477cd8e8d5ebaef",
          "transactionType": "CALL",
          "contractName": null,
          "contractAddress": "0x9dde77b61fc4f08177f14cb254148bf7cc85a8c5",
          "function": "setChainlessBalance(address)",
          "arguments": [
            "0x8d79f26c1b29f2833D6B36b3e902c9c537450568"
          ],
          "transaction": {
            "from": "0x11110dbc48603b706792aa52671a1439d0f4da63",
            "to": "0x9dde77b61fc4f08177f14cb254148bf7cc85a8c5",
            "gas": "0xf95b",
            "value": "0x0",
            "input": "0xbb2119bc0000000000000000000000008d79f26c1b29f2833d6b36b3e902c9c537450568",
            "nonce": "0x6",
            "chainId": "0xbf03"
          },
          "additionalContracts": [],
          "isFixedGasLimit": false
        },
        {
          "hash": "0x6fa2dd29a35448f264e40874de1bee99c65f48593fbb1fa0510945fb07608b70",
          "transactionType": "CALL",
          "contractName": null,
          "contractAddress": "0x9dde77b61fc4f08177f14cb254148bf7cc85a8c5",
          "function": "addDestination(uint32)",
          "arguments": [
            "40333"
          ],
          "transaction": {
            "from": "0x11110dbc48603b706792aa52671a1439d0f4da63",
            "to": "0x9dde77b61fc4f08177f14cb254148bf7cc85a8c5",
            "gas": "0x28796",
            "value": "0x0",
            "input": "0x3115f4900000000000000000000000000000000000000000000000000000000000009d8d",
            "nonce": "0x7",
            "chainId": "0xbf03"
          },
          "additionalContracts": [],
          "isFixedGasLimit": false
        },
        {
          "hash": "0xfaa3cc9b4f9ce14e11dd60f6c4a25a3d0c335b9f8337ca46b6c43c09a556c2ee",
          "transactionType": "CALL",
          "contractName": null,
          "contractAddress": "0x9dde77b61fc4f08177f14cb254148bf7cc85a8c5",
          "function": "setPeer(uint32,bytes32)",
          "arguments": [
            "40333",
            "0x0000000000000000000000009dde77b61fc4f08177f14cb254148bf7cc85a8c5"
          ],
          "transaction": {
            "from": "0x11110dbc48603b706792aa52671a1439d0f4da63",
            "to": "0x9dde77b61fc4f08177f14cb254148bf7cc85a8c5",
            "gas": "0x10135",
            "value": "0x0",
            "input": "0x3400288b0000000000000000000000000000000000000000000000000000000000009d8d0000000000000000000000009dde77b61fc4f08177f14cb254148bf7cc85a8c5",
            "nonce": "0x8",
            "chainId": "0xbf03"
          },
          "additionalContracts": [],
          "isFixedGasLimit": false
        },
        {
          "hash": "0x518c0011ba047439d333bb864d41347d5fd5fce861bb08d008b165f7342e674c",
          "transactionType": "CALL",
          "contractName": null,
          "contractAddress": "0x9dde77b61fc4f08177f14cb254148bf7cc85a8c5",
          "function": "addDestination(uint32)",
          "arguments": [
            "40170"
          ],
          "transaction": {
            "from": "0x11110dbc48603b706792aa52671a1439d0f4da63",
            "to": "0x9dde77b61fc4f08177f14cb254148bf7cc85a8c5",
            "gas": "0x11712",
            "value": "0x0",
            "input": "0x3115f4900000000000000000000000000000000000000000000000000000000000009cea",
            "nonce": "0x9",
            "chainId": "0xbf03"
          },
          "additionalContracts": [],
          "isFixedGasLimit": false
        },
        {
          "hash": "0xad801ec1bf03cdd72c5ccee28b3bbd8bfee10a25b54891fde7b4401eca927182",
          "transactionType": "CALL",
          "contractName": null,
          "contractAddress": "0x9dde77b61fc4f08177f14cb254148bf7cc85a8c5",
          "function": "setPeer(uint32,bytes32)",
          "arguments": [
            "40170",
            "0x0000000000000000000000009dde77b61fc4f08177f14cb254148bf7cc85a8c5"
          ],
          "transaction": {
            "from": "0x11110dbc48603b706792aa52671a1439d0f4da63",
            "to": "0x9dde77b61fc4f08177f14cb254148bf7cc85a8c5",
            "gas": "0x10135",
            "value": "0x0",
            "input": "0x3400288b0000000000000000000000000000000000000000000000000000000000009cea0000000000000000000000009dde77b61fc4f08177f14cb254148bf7cc85a8c5",
            "nonce": "0xa",
            "chainId": "0xbf03"
          },
          "additionalContracts": [],
          "isFixedGasLimit": false
        },
        {
          "hash": "0xf85ae80b9ac34abdd28a5f74a0d75d73f50e686826f7c5d2d80df6366257e38d",
          "transactionType": "CALL",
          "contractName": null,
          "contractAddress": "0x9dde77b61fc4f08177f14cb254148bf7cc85a8c5",
          "function": "addDestination(uint32)",
          "arguments": [
            "40267"
          ],
          "transaction": {
            "from": "0x11110dbc48603b706792aa52671a1439d0f4da63",
            "to": "0x9dde77b61fc4f08177f14cb254148bf7cc85a8c5",
            "gas": "0x11712",
            "value": "0x0",
            "input": "0x3115f4900000000000000000000000000000000000000000000000000000000000009d4b",
            "nonce": "0xb",
            "chainId": "0xbf03"
          },
          "additionalContracts": [],
          "isFixedGasLimit": false
        },
        {
          "hash": "0x0f9abe772df55213519169db5be38a712cafd03b5e0a4f1ed49d380460bb894e",
          "transactionType": "CALL",
          "contractName": null,
          "contractAddress": "0x9dde77b61fc4f08177f14cb254148bf7cc85a8c5",
          "function": "setPeer(uint32,bytes32)",
          "arguments": [
            "40267",
            "0x0000000000000000000000009dde77b61fc4f08177f14cb254148bf7cc85a8c5"
          ],
          "transaction": {
            "from": "0x11110dbc48603b706792aa52671a1439d0f4da63",
            "to": "0x9dde77b61fc4f08177f14cb254148bf7cc85a8c5",
            "gas": "0x10135",
            "value": "0x0",
            "input": "0x3400288b0000000000000000000000000000000000000000000000000000000000009d4b0000000000000000000000009dde77b61fc4f08177f14cb254148bf7cc85a8c5",
            "nonce": "0xc",
            "chainId": "0xbf03"
          },
          "additionalContracts": [],
          "isFixedGasLimit": false
        }
      ],
      "receipts": [
        {
          "status": "0x1",
          "cumulativeGasUsed": "0x16859",
          "logs": [],
          "logsBloom": "0x00000000000000000000000000000000000000000000000000000000000000000000000000000000000000000000000000000000000000000000000000000000000000000000000000000000000000000000000000000000000000000000000000000000000000000000000000000000000000000000000000000000000000000000000000000000000000000000000000000000000000000000000000000000000000000000000000000000000000000000000000000000000000000000000000000000000000000000000000000000000000000000000000000000000000000000000000000000000000000000000000000000000000000000000000000000",
          "type": "0x2",
          "transactionHash": "0x9ff2d4de642c13f22a848787b904f8bb109df2a0d601c965b477cd8e8d5ebaef",
          "transactionIndex": "0x1",
          "blockHash": "0xb4e00c70f4de401be46b463ed0b10a31be740cfbabc7e084cd0ec2235ea6e8ed",
          "blockNumber": "0xf30003",
          "gasUsed": "0xb488",
          "effectiveGasPrice": "0xfe",
          "from": "0x11110dbc48603b706792aa52671a1439d0f4da63",
          "to": "0x9dde77b61fc4f08177f14cb254148bf7cc85a8c5",
          "contractAddress": null,
          "l1Fee": "0x6b13134c",
          "l1GasPrice": "0x250f5fd5",
          "l1GasUsed": "0x840"
        },
        {
          "status": "0x1",
          "cumulativeGasUsed": "0x288a9",
          "logs": [],
          "logsBloom": "0x00000000000000000000000000000000000000000000000000000000000000000000000000000000000000000000000000000000000000000000000000000000000000000000000000000000000000000000000000000000000000000000000000000000000000000000000000000000000000000000000000000000000000000000000000000000000000000000000000000000000000000000000000000000000000000000000000000000000000000000000000000000000000000000000000000000000000000000000000000000000000000000000000000000000000000000000000000000000000000000000000000000000000000000000000000000",
          "type": "0x2",
          "transactionHash": "0x6fa2dd29a35448f264e40874de1bee99c65f48593fbb1fa0510945fb07608b70",
          "transactionIndex": "0x1",
          "blockHash": "0x24ff7b8b806eeaace1c20eb2b10f982eb3149b8e803edf8258b33ad3deb5b0dd",
          "blockNumber": "0xf30004",
          "gasUsed": "0x1d4d8",
          "effectiveGasPrice": "0xfe",
          "from": "0x11110dbc48603b706792aa52671a1439d0f4da63",
          "to": "0x9dde77b61fc4f08177f14cb254148bf7cc85a8c5",
          "contractAddress": null,
          "l1Fee": "0x60ef5461",
          "l1GasPrice": "0x250f5fd5",
          "l1GasUsed": "0x778"
        },
        {
          "status": "0x1",
          "cumulativeGasUsed": "0x16e08",
          "logs": [
            {
              "address": "0x9dde77b61fc4f08177f14cb254148bf7cc85a8c5",
              "topics": [
                "0x238399d427b947898edb290f5ff0f9109849b1c3ba196a42e35f00c50a54b98b"
              ],
              "data": "0x0000000000000000000000000000000000000000000000000000000000009d8d0000000000000000000000009dde77b61fc4f08177f14cb254148bf7cc85a8c5",
              "blockHash": "0xa083713ed78c4d3b35407bbd2cbb762f07acec3e4f54de4655586f92e008cdb5",
              "blockNumber": "0xf30006",
              "transactionHash": "0xfaa3cc9b4f9ce14e11dd60f6c4a25a3d0c335b9f8337ca46b6c43c09a556c2ee",
              "transactionIndex": "0x1",
              "logIndex": "0x0",
              "removed": false
            }
          ],
          "logsBloom": "0x00000000000000000000000000000000000000000000000000000000000000000000000000000000000000000000000000000000000800000800000000000000000000000000000000000000000000000000040000000000000000000000000000000000000000000000000000000000000000000000000000000000000000000000000000000000000000000000000000000000000000000000000000000000000000000000000000000000000000000000000000000000000002000000000000000000001000000000000000000000000000000000000000040000000000000000000000000000000000000000000000000000000000000000000000000000",
          "type": "0x2",
          "transactionHash": "0xfaa3cc9b4f9ce14e11dd60f6c4a25a3d0c335b9f8337ca46b6c43c09a556c2ee",
          "transactionIndex": "0x1",
          "blockHash": "0xa083713ed78c4d3b35407bbd2cbb762f07acec3e4f54de4655586f92e008cdb5",
          "blockNumber": "0xf30006",
          "gasUsed": "0xba37",
          "effectiveGasPrice": "0xfe",
          "from": "0x11110dbc48603b706792aa52671a1439d0f4da63",
          "to": "0x9dde77b61fc4f08177f14cb254148bf7cc85a8c5",
          "contractAddress": null,
          "l1Fee": "0x73cb6ab0",
          "l1GasPrice": "0x250f5fd5",
          "l1GasUsed": "0x8ec"
        },
        {
          "status": "0x1",
          "cumulativeGasUsed": "0x23814",
          "logs": [],
          "logsBloom": "0x00000000000000000000000000000000000000000000000000000000000000000000000000000000000000000000000000000000000000000000000000000000000000000000000000000000000000000000000000000000000000000000000000000000000000000000000000000000000000000000000000000000000000000000000000000000000000000000000000000000000000000000000000000000000000000000000000000000000000000000000000000000000000000000000000000000000000000000000000000000000000000000000000000000000000000000000000000000000000000000000000000000000000000000000000000000",
          "type": "0x2",
          "transactionHash": "0x518c0011ba047439d333bb864d41347d5fd5fce861bb08d008b165f7342e674c",
          "transactionIndex": "0x2",
          "blockHash": "0xa083713ed78c4d3b35407bbd2cbb762f07acec3e4f54de4655586f92e008cdb5",
          "blockNumber": "0xf30006",
          "gasUsed": "0xca0c",
          "effectiveGasPrice": "0xfe",
          "from": "0x11110dbc48603b706792aa52671a1439d0f4da63",
          "to": "0x9dde77b61fc4f08177f14cb254148bf7cc85a8c5",
          "contractAddress": null,
          "l1Fee": "0x60ef5461",
          "l1GasPrice": "0x250f5fd5",
          "l1GasUsed": "0x778"
        },
        {
          "status": "0x1",
          "cumulativeGasUsed": "0x16e08",
          "logs": [
            {
              "address": "0x9dde77b61fc4f08177f14cb254148bf7cc85a8c5",
              "topics": [
                "0x238399d427b947898edb290f5ff0f9109849b1c3ba196a42e35f00c50a54b98b"
              ],
              "data": "0x0000000000000000000000000000000000000000000000000000000000009cea0000000000000000000000009dde77b61fc4f08177f14cb254148bf7cc85a8c5",
              "blockHash": "0xe8f986530eac9c03ccaf4752e90a645c9a24f74002ce767ca68e5b7ad3207f88",
              "blockNumber": "0xf30007",
              "transactionHash": "0xad801ec1bf03cdd72c5ccee28b3bbd8bfee10a25b54891fde7b4401eca927182",
              "transactionIndex": "0x1",
              "logIndex": "0x0",
              "removed": false
            }
          ],
          "logsBloom": "0x00000000000000000000000000000000000000000000000000000000000000000000000000000000000000000000000000000000000800000800000000000000000000000000000000000000000000000000040000000000000000000000000000000000000000000000000000000000000000000000000000000000000000000000000000000000000000000000000000000000000000000000000000000000000000000000000000000000000000000000000000000000000002000000000000000000001000000000000000000000000000000000000000040000000000000000000000000000000000000000000000000000000000000000000000000000",
          "type": "0x2",
          "transactionHash": "0xad801ec1bf03cdd72c5ccee28b3bbd8bfee10a25b54891fde7b4401eca927182",
          "transactionIndex": "0x1",
          "blockHash": "0xe8f986530eac9c03ccaf4752e90a645c9a24f74002ce767ca68e5b7ad3207f88",
          "blockNumber": "0xf30007",
          "gasUsed": "0xba37",
          "effectiveGasPrice": "0xfe",
          "from": "0x11110dbc48603b706792aa52671a1439d0f4da63",
          "to": "0x9dde77b61fc4f08177f14cb254148bf7cc85a8c5",
          "contractAddress": null,
          "l1Fee": "0x73cb6ab0",
          "l1GasPrice": "0x250f5fd5",
          "l1GasUsed": "0x8ec"
        },
        {
          "status": "0x1",
          "cumulativeGasUsed": "0x23814",
          "logs": [],
          "logsBloom": "0x00000000000000000000000000000000000000000000000000000000000000000000000000000000000000000000000000000000000000000000000000000000000000000000000000000000000000000000000000000000000000000000000000000000000000000000000000000000000000000000000000000000000000000000000000000000000000000000000000000000000000000000000000000000000000000000000000000000000000000000000000000000000000000000000000000000000000000000000000000000000000000000000000000000000000000000000000000000000000000000000000000000000000000000000000000000",
          "type": "0x2",
          "transactionHash": "0xf85ae80b9ac34abdd28a5f74a0d75d73f50e686826f7c5d2d80df6366257e38d",
          "transactionIndex": "0x2",
          "blockHash": "0xe8f986530eac9c03ccaf4752e90a645c9a24f74002ce767ca68e5b7ad3207f88",
          "blockNumber": "0xf30007",
          "gasUsed": "0xca0c",
          "effectiveGasPrice": "0xfe",
          "from": "0x11110dbc48603b706792aa52671a1439d0f4da63",
          "to": "0x9dde77b61fc4f08177f14cb254148bf7cc85a8c5",
          "contractAddress": null,
          "l1Fee": "0x60ef5461",
          "l1GasPrice": "0x250f5fd5",
          "l1GasUsed": "0x778"
        },
        {
          "status": "0x1",
          "cumulativeGasUsed": "0x2f24b",
          "logs": [
            {
              "address": "0x9dde77b61fc4f08177f14cb254148bf7cc85a8c5",
              "topics": [
                "0x238399d427b947898edb290f5ff0f9109849b1c3ba196a42e35f00c50a54b98b"
              ],
              "data": "0x0000000000000000000000000000000000000000000000000000000000009d4b0000000000000000000000009dde77b61fc4f08177f14cb254148bf7cc85a8c5",
              "blockHash": "0xe8f986530eac9c03ccaf4752e90a645c9a24f74002ce767ca68e5b7ad3207f88",
              "blockNumber": "0xf30007",
              "transactionHash": "0x0f9abe772df55213519169db5be38a712cafd03b5e0a4f1ed49d380460bb894e",
              "transactionIndex": "0x3",
              "logIndex": "0x1",
              "removed": false
            }
          ],
          "logsBloom": "0x00000000000000000000000000000000000000000000000000000000000000000000000000000000000000000000000000000000000800000800000000000000000000000000000000000000000000000000040000000000000000000000000000000000000000000000000000000000000000000000000000000000000000000000000000000000000000000000000000000000000000000000000000000000000000000000000000000000000000000000000000000000000002000000000000000000001000000000000000000000000000000000000000040000000000000000000000000000000000000000000000000000000000000000000000000000",
          "type": "0x2",
          "transactionHash": "0x0f9abe772df55213519169db5be38a712cafd03b5e0a4f1ed49d380460bb894e",
          "transactionIndex": "0x3",
          "blockHash": "0xe8f986530eac9c03ccaf4752e90a645c9a24f74002ce767ca68e5b7ad3207f88",
          "blockNumber": "0xf30007",
          "gasUsed": "0xba37",
          "effectiveGasPrice": "0xfe",
          "from": "0x11110dbc48603b706792aa52671a1439d0f4da63",
          "to": "0x9dde77b61fc4f08177f14cb254148bf7cc85a8c5",
          "contractAddress": null,
          "l1Fee": "0x73cb6ab0",
          "l1GasPrice": "0x250f5fd5",
          "l1GasUsed": "0x8ec"
        }
      ],
      "libraries": [],
      "pending": [],
      "returns": {},
      "timestamp": 1731748312,
      "chain": 48899,
      "commit": "fa7e3d7"
    }
  ],
  "timestamp": 1731748340
}