{
  "deployments": [
    {
      "transactions": [
        {
          "hash": "0x1f175f7391e87b1c2b4a8380a6580b3f7ff974602d8d1434dd7d586556913f12",
          "transactionType": "CALL",
          "contractName": null,
          "contractAddress": "0x7570adcf326406ef55c03e81d568ee1836e9a0e2",
          "function": "setToken(address)",
          "arguments": [
            "0xaC45aaab89741702a9A0083E28fbcfe28ffE7a96"
          ],
          "transaction": {
            "from": "0x66666f4f66cc6a5bb6a7e73971e85eddf3b638c1",
            "to": "0x7570adcf326406ef55c03e81d568ee1836e9a0e2",
            "gas": "0x10767",
            "value": "0x0",
            "input": "0x144fa6d7000000000000000000000000ac45aaab89741702a9a0083e28fbcfe28ffe7a96",
            "nonce": "0x2",
            "chainId": "0x515"
          },
          "additionalContracts": [],
          "isFixedGasLimit": false
        },
        {
          "hash": "0xe4af271aa1a4f0cf76b2878bc2a2501aeaf60f49ccac6ee1637ed2d24150600a",
          "transactionType": "CALL",
          "contractName": null,
          "contractAddress": "0x7570adcf326406ef55c03e81d568ee1836e9a0e2",
          "function": "setPeer(uint32,bytes32)",
          "arguments": [
            "40170",
            "0x0000000000000000000000007570adcf326406ef55c03e81d568ee1836e9a0e2"
          ],
          "transaction": {
            "from": "0x66666f4f66cc6a5bb6a7e73971e85eddf3b638c1",
            "to": "0x7570adcf326406ef55c03e81d568ee1836e9a0e2",
            "gas": "0x11096",
            "value": "0x0",
            "input": "0x3400288b0000000000000000000000000000000000000000000000000000000000009cea0000000000000000000000007570adcf326406ef55c03e81d568ee1836e9a0e2",
            "nonce": "0x3",
            "chainId": "0x515"
          },
          "additionalContracts": [],
          "isFixedGasLimit": false
        },
        {
          "hash": "0x4a211aad363419b99720a53c524fa621f9b7026d12d04debb2e390c9256fe1f2",
          "transactionType": "CALL",
          "contractName": null,
          "contractAddress": "0x7570adcf326406ef55c03e81d568ee1836e9a0e2",
          "function": "setPeer(uint32,bytes32)",
          "arguments": [
            "40267",
            "0x0000000000000000000000007570adcf326406ef55c03e81d568ee1836e9a0e2"
          ],
          "transaction": {
            "from": "0x66666f4f66cc6a5bb6a7e73971e85eddf3b638c1",
            "to": "0x7570adcf326406ef55c03e81d568ee1836e9a0e2",
            "gas": "0x11096",
            "value": "0x0",
            "input": "0x3400288b0000000000000000000000000000000000000000000000000000000000009d4b0000000000000000000000007570adcf326406ef55c03e81d568ee1836e9a0e2",
            "nonce": "0x4",
            "chainId": "0x515"
          },
          "additionalContracts": [],
          "isFixedGasLimit": false
        },
        {
          "hash": "0xb11ebe55f6ac79f8470b3c980b5107a9a7e456b1c495fca3074afcd5aaaded8e",
          "transactionType": "CALL",
          "contractName": null,
          "contractAddress": "0x7570adcf326406ef55c03e81d568ee1836e9a0e2",
          "function": "setPeer(uint32,bytes32)",
          "arguments": [
            "40275",
            "0x0000000000000000000000007570adcf326406ef55c03e81d568ee1836e9a0e2"
          ],
          "transaction": {
            "from": "0x66666f4f66cc6a5bb6a7e73971e85eddf3b638c1",
            "to": "0x7570adcf326406ef55c03e81d568ee1836e9a0e2",
            "gas": "0x11096",
            "value": "0x0",
            "input": "0x3400288b0000000000000000000000000000000000000000000000000000000000009d530000000000000000000000007570adcf326406ef55c03e81d568ee1836e9a0e2",
            "nonce": "0x5",
            "chainId": "0x515"
          },
          "additionalContracts": [],
          "isFixedGasLimit": false
        }
      ],
      "receipts": [
        {
          "status": "0x1",
          "cumulativeGasUsed": "0x4dcd8",
          "logs": [],
          "logsBloom": "0x00000000000000000000000000000000000000000000000000000000000000000000000000000000000000000000000000000000000000000000000000000000000000000000000000000000000000000000000000000000000000000000000000000000000000000000000000000000000000000000000000000000000000000000000000000000000000000000000000000000000000000000000000000000000000000000000000000000000000000000000000000000000000000000000000000000000000000000000000000000000000000000000000000000000000000000000000000000000000000000000000000000000000000000000000000000",
          "type": "0x2",
          "transactionHash": "0x1f175f7391e87b1c2b4a8380a6580b3f7ff974602d8d1434dd7d586556913f12",
          "transactionIndex": "0x9",
          "blockHash": "0xda236d85c50ca2c91fc5405249e53913599ecacb7bd9f2062574bcfaec51898a",
          "blockNumber": "0x4ac5df",
          "gasUsed": "0xb41b",
          "effectiveGasPrice": "0xf433e",
          "from": "0x66666f4f66cc6a5bb6a7e73971e85eddf3b638c1",
          "to": "0x7570adcf326406ef55c03e81d568ee1836e9a0e2",
          "contractAddress": null,
          "l1BaseFeeScalar": "0x7d0",
          "l1BlobBaseFee": "0x1",
          "l1BlobBaseFeeScalar": "0xdbba0",
          "l1Fee": "0x797b9a9a",
          "l1GasPrice": "0x25f6a034",
          "l1GasUsed": "0x640"
        },
        {
          "status": "0x1",
          "cumulativeGasUsed": "0x1001b9",
          "logs": [
            {
              "address": "0x7570adcf326406ef55c03e81d568ee1836e9a0e2",
              "topics": [
                "0x238399d427b947898edb290f5ff0f9109849b1c3ba196a42e35f00c50a54b98b"
              ],
              "data": "0x0000000000000000000000000000000000000000000000000000000000009cea0000000000000000000000007570adcf326406ef55c03e81d568ee1836e9a0e2",
              "blockHash": "0x0503732a9b9c789ea8ee2a1c5fb9b381c62e498148525d23477c3a0e3303c331",
              "blockNumber": "0x4ac5e0",
              "transactionHash": "0xe4af271aa1a4f0cf76b2878bc2a2501aeaf60f49ccac6ee1637ed2d24150600a",
              "transactionIndex": "0x2",
              "logIndex": "0x1",
              "removed": false
            }
          ],
          "logsBloom": "0x00000000000000000000000000000000000000000000000000000000000000000000000000000000000000000000000000000000000000000800000000000000000000000000000000000000000000000000000000000000000000000000000000800000000000000000000000000000000000000000000000000000000000000000000000000000000000000000000000000000000000000000000000000800000000000000000000000000000000000000000000000000000002000000000000000000000000000000000000000000000000000000000000040000000000000000080000000000000000000000000000000000000000000000000000000000",
          "type": "0x2",
          "transactionHash": "0xe4af271aa1a4f0cf76b2878bc2a2501aeaf60f49ccac6ee1637ed2d24150600a",
          "transactionIndex": "0x2",
          "blockHash": "0x0503732a9b9c789ea8ee2a1c5fb9b381c62e498148525d23477c3a0e3303c331",
          "blockNumber": "0x4ac5e0",
          "gasUsed": "0xba63",
          "effectiveGasPrice": "0xf433e",
          "from": "0x66666f4f66cc6a5bb6a7e73971e85eddf3b638c1",
          "to": "0x7570adcf326406ef55c03e81d568ee1836e9a0e2",
          "contractAddress": null,
          "l1BaseFeeScalar": "0x7d0",
          "l1BlobBaseFee": "0x1",
          "l1BlobBaseFeeScalar": "0xdbba0",
          "l1Fee": "0x797b9a9a",
          "l1GasPrice": "0x25f6a034",
          "l1GasUsed": "0x640"
        },
        {
          "status": "0x1",
          "cumulativeGasUsed": "0x10bc1c",
          "logs": [
            {
              "address": "0x7570adcf326406ef55c03e81d568ee1836e9a0e2",
              "topics": [
                "0x238399d427b947898edb290f5ff0f9109849b1c3ba196a42e35f00c50a54b98b"
              ],
              "data": "0x0000000000000000000000000000000000000000000000000000000000009d4b0000000000000000000000007570adcf326406ef55c03e81d568ee1836e9a0e2",
              "blockHash": "0x0503732a9b9c789ea8ee2a1c5fb9b381c62e498148525d23477c3a0e3303c331",
              "blockNumber": "0x4ac5e0",
              "transactionHash": "0x4a211aad363419b99720a53c524fa621f9b7026d12d04debb2e390c9256fe1f2",
              "transactionIndex": "0x3",
              "logIndex": "0x2",
              "removed": false
            }
          ],
          "logsBloom": "0x00000000000000000000000000000000000000000000000000000000000000000000000000000000000000000000000000000000000000000800000000000000000000000000000000000000000000000000000000000000000000000000000000800000000000000000000000000000000000000000000000000000000000000000000000000000000000000000000000000000000000000000000000000800000000000000000000000000000000000000000000000000000002000000000000000000000000000000000000000000000000000000000000040000000000000000080000000000000000000000000000000000000000000000000000000000",
          "type": "0x2",
          "transactionHash": "0x4a211aad363419b99720a53c524fa621f9b7026d12d04debb2e390c9256fe1f2",
          "transactionIndex": "0x3",
          "blockHash": "0x0503732a9b9c789ea8ee2a1c5fb9b381c62e498148525d23477c3a0e3303c331",
          "blockNumber": "0x4ac5e0",
          "gasUsed": "0xba63",
          "effectiveGasPrice": "0xf433e",
          "from": "0x66666f4f66cc6a5bb6a7e73971e85eddf3b638c1",
          "to": "0x7570adcf326406ef55c03e81d568ee1836e9a0e2",
          "contractAddress": null,
          "l1BaseFeeScalar": "0x7d0",
          "l1BlobBaseFee": "0x1",
          "l1BlobBaseFeeScalar": "0xdbba0",
          "l1Fee": "0x797b9a9a",
          "l1GasPrice": "0x25f6a034",
          "l1GasUsed": "0x640"
        },
        {
          "status": "0x1",
          "cumulativeGasUsed": "0x11767f",
          "logs": [
            {
              "address": "0x7570adcf326406ef55c03e81d568ee1836e9a0e2",
              "topics": [
                "0x238399d427b947898edb290f5ff0f9109849b1c3ba196a42e35f00c50a54b98b"
              ],
              "data": "0x0000000000000000000000000000000000000000000000000000000000009d530000000000000000000000007570adcf326406ef55c03e81d568ee1836e9a0e2",
              "blockHash": "0x0503732a9b9c789ea8ee2a1c5fb9b381c62e498148525d23477c3a0e3303c331",
              "blockNumber": "0x4ac5e0",
              "transactionHash": "0xb11ebe55f6ac79f8470b3c980b5107a9a7e456b1c495fca3074afcd5aaaded8e",
              "transactionIndex": "0x4",
              "logIndex": "0x3",
              "removed": false
            }
          ],
          "logsBloom": "0x00000000000000000000000000000000000000000000000000000000000000000000000000000000000000000000000000000000000000000800000000000000000000000000000000000000000000000000000000000000000000000000000000800000000000000000000000000000000000000000000000000000000000000000000000000000000000000000000000000000000000000000000000000800000000000000000000000000000000000000000000000000000002000000000000000000000000000000000000000000000000000000000000040000000000000000080000000000000000000000000000000000000000000000000000000000",
          "type": "0x2",
          "transactionHash": "0xb11ebe55f6ac79f8470b3c980b5107a9a7e456b1c495fca3074afcd5aaaded8e",
          "transactionIndex": "0x4",
          "blockHash": "0x0503732a9b9c789ea8ee2a1c5fb9b381c62e498148525d23477c3a0e3303c331",
          "blockNumber": "0x4ac5e0",
          "gasUsed": "0xba63",
          "effectiveGasPrice": "0xf433e",
          "from": "0x66666f4f66cc6a5bb6a7e73971e85eddf3b638c1",
          "to": "0x7570adcf326406ef55c03e81d568ee1836e9a0e2",
          "contractAddress": null,
          "l1BaseFeeScalar": "0x7d0",
          "l1BlobBaseFee": "0x1",
          "l1BlobBaseFeeScalar": "0xdbba0",
          "l1Fee": "0x797b9a9a",
          "l1GasPrice": "0x25f6a034",
          "l1GasUsed": "0x640"
        }
      ],
      "libraries": [],
      "pending": [],
      "returns": {},
      "timestamp": 1731752697,
      "chain": 1301,
      "commit": "fa7e3d7"
    },
    {
      "transactions": [
        {
          "hash": "0xece17c8937194645f0075cab16650112aa76af1e96607b8f6fa44a10550cacdf",
          "transactionType": "CALL",
          "contractName": null,
          "contractAddress": "0x7570adcf326406ef55c03e81d568ee1836e9a0e2",
          "function": "setToken(address)",
          "arguments": [
            "0xaC45aaab89741702a9A0083E28fbcfe28ffE7a96"
          ],
          "transaction": {
            "from": "0x66666f4f66cc6a5bb6a7e73971e85eddf3b638c1",
            "to": "0x7570adcf326406ef55c03e81d568ee1836e9a0e2",
            "gas": "0x10767",
            "value": "0x0",
            "input": "0x144fa6d7000000000000000000000000ac45aaab89741702a9a0083e28fbcfe28ffe7a96",
            "nonce": "0x2",
            "chainId": "0x8274f"
          },
          "additionalContracts": [],
          "isFixedGasLimit": false
        },
        {
          "hash": "0xd1497204740459578423e1a85f48f50c4e0aadbf9bc47d5ae960cc0d374119ef",
          "transactionType": "CALL",
          "contractName": null,
          "contractAddress": "0x7570adcf326406ef55c03e81d568ee1836e9a0e2",
          "function": "setPeer(uint32,bytes32)",
          "arguments": [
            "40333",
            "0x0000000000000000000000007570adcf326406ef55c03e81d568ee1836e9a0e2"
          ],
          "transaction": {
            "from": "0x66666f4f66cc6a5bb6a7e73971e85eddf3b638c1",
            "to": "0x7570adcf326406ef55c03e81d568ee1836e9a0e2",
            "gas": "0x11096",
            "value": "0x0",
            "input": "0x3400288b0000000000000000000000000000000000000000000000000000000000009d8d0000000000000000000000007570adcf326406ef55c03e81d568ee1836e9a0e2",
            "nonce": "0x3",
            "chainId": "0x8274f"
          },
          "additionalContracts": [],
          "isFixedGasLimit": false
        },
        {
          "hash": "0x53289911d8feedd49976fd0cc426424f4a38a9e5eca43d2dcf183621aa88c402",
          "transactionType": "CALL",
          "contractName": null,
          "contractAddress": "0x7570adcf326406ef55c03e81d568ee1836e9a0e2",
          "function": "setPeer(uint32,bytes32)",
          "arguments": [
            "40267",
            "0x0000000000000000000000007570adcf326406ef55c03e81d568ee1836e9a0e2"
          ],
          "transaction": {
            "from": "0x66666f4f66cc6a5bb6a7e73971e85eddf3b638c1",
            "to": "0x7570adcf326406ef55c03e81d568ee1836e9a0e2",
            "gas": "0x11096",
            "value": "0x0",
            "input": "0x3400288b0000000000000000000000000000000000000000000000000000000000009d4b0000000000000000000000007570adcf326406ef55c03e81d568ee1836e9a0e2",
            "nonce": "0x4",
            "chainId": "0x8274f"
          },
          "additionalContracts": [],
          "isFixedGasLimit": false
        },
        {
          "hash": "0xb8972d1e4ba1c1637d774dded5d8b0b1d6169899c6867ec97b442b270cc35581",
          "transactionType": "CALL",
          "contractName": null,
          "contractAddress": "0x7570adcf326406ef55c03e81d568ee1836e9a0e2",
          "function": "setPeer(uint32,bytes32)",
          "arguments": [
            "40275",
            "0x0000000000000000000000007570adcf326406ef55c03e81d568ee1836e9a0e2"
          ],
          "transaction": {
            "from": "0x66666f4f66cc6a5bb6a7e73971e85eddf3b638c1",
            "to": "0x7570adcf326406ef55c03e81d568ee1836e9a0e2",
            "gas": "0x11096",
            "value": "0x0",
            "input": "0x3400288b0000000000000000000000000000000000000000000000000000000000009d530000000000000000000000007570adcf326406ef55c03e81d568ee1836e9a0e2",
            "nonce": "0x5",
            "chainId": "0x8274f"
          },
          "additionalContracts": [],
          "isFixedGasLimit": false
        }
      ],
      "receipts": [
        {
          "status": "0x1",
          "cumulativeGasUsed": "0xb41b",
          "logs": [],
          "logsBloom": "0x00000000000000000000000000000000000000000000000000000000000000000000000000000000000000000000000000000000000000000000000000000000000000000000000000000000000000000000000000000000000000000000000000000000000000000000000000000000000000000000000000000000000000000000000000000000000000000000000000000000000000000000000000000000000000000000000000000000000000000000000000000000000000000000000000000000000000000000000000000000000000000000000000000000000000000000000000000000000000000000000000000000000000000000000000000000",
          "type": "0x2",
          "transactionHash": "0xece17c8937194645f0075cab16650112aa76af1e96607b8f6fa44a10550cacdf",
          "transactionIndex": "0x0",
          "blockHash": "0xec10636cc3f46d6d55059eee3ede662095316d1d42df2a16ee9a72d4b5c631ec",
          "blockNumber": "0x6f6ccf",
          "gasUsed": "0xb41b",
          "effectiveGasPrice": "0x3b94de2c",
          "from": "0x66666f4f66cc6a5bb6a7e73971e85eddf3b638c1",
          "to": "0x7570adcf326406ef55c03e81d568ee1836e9a0e2",
          "contractAddress": null,
          "l1Fee": "0x2497bb4c2f"
        },
        {
          "status": "0x1",
          "cumulativeGasUsed": "0xba63",
          "logs": [
            {
              "address": "0x7570adcf326406ef55c03e81d568ee1836e9a0e2",
              "topics": [
                "0x238399d427b947898edb290f5ff0f9109849b1c3ba196a42e35f00c50a54b98b"
              ],
              "data": "0x0000000000000000000000000000000000000000000000000000000000009d8d0000000000000000000000007570adcf326406ef55c03e81d568ee1836e9a0e2",
              "blockHash": "0xeee547955330551958aad28a1668b1dc4a776dd9994cdb0e68e2357405dcad26",
              "blockNumber": "0x6f6cd0",
              "transactionHash": "0xd1497204740459578423e1a85f48f50c4e0aadbf9bc47d5ae960cc0d374119ef",
              "transactionIndex": "0x0",
              "logIndex": "0x0",
              "removed": false
            }
          ],
          "logsBloom": "0x00000000000000000000000000000000000000000000000000000000000000000000000000000000000000000000000000000000000000000800000000000000000000000000000000000000000000000000000000000000000000000000000000800000000000000000000000000000000000000000000000000000000000000000000000000000000000000000000000000000000000000000000000000800000000000000000000000000000000000000000000000000000002000000000000000000000000000000000000000000000000000000000000040000000000000000080000000000000000000000000000000000000000000000000000000000",
          "type": "0x2",
          "transactionHash": "0xd1497204740459578423e1a85f48f50c4e0aadbf9bc47d5ae960cc0d374119ef",
          "transactionIndex": "0x0",
          "blockHash": "0xeee547955330551958aad28a1668b1dc4a776dd9994cdb0e68e2357405dcad26",
          "blockNumber": "0x6f6cd0",
          "gasUsed": "0xba63",
          "effectiveGasPrice": "0x3b94de2c",
          "from": "0x66666f4f66cc6a5bb6a7e73971e85eddf3b638c1",
          "to": "0x7570adcf326406ef55c03e81d568ee1836e9a0e2",
          "contractAddress": null,
          "l1Fee": "0x2497bb4c3d"
        },
        {
          "status": "0x1",
          "cumulativeGasUsed": "0x174c6",
          "logs": [
            {
              "address": "0x7570adcf326406ef55c03e81d568ee1836e9a0e2",
              "topics": [
                "0x238399d427b947898edb290f5ff0f9109849b1c3ba196a42e35f00c50a54b98b"
              ],
              "data": "0x0000000000000000000000000000000000000000000000000000000000009d4b0000000000000000000000007570adcf326406ef55c03e81d568ee1836e9a0e2",
              "blockHash": "0xeee547955330551958aad28a1668b1dc4a776dd9994cdb0e68e2357405dcad26",
              "blockNumber": "0x6f6cd0",
              "transactionHash": "0x53289911d8feedd49976fd0cc426424f4a38a9e5eca43d2dcf183621aa88c402",
              "transactionIndex": "0x1",
              "logIndex": "0x1",
              "removed": false
            }
          ],
          "logsBloom": "0x00000000000000000000000000000000000000000000000000000000000000000000000000000000000000000000000000000000000000000800000000000000000000000000000000000000000000000000000000000000000000000000000000800000000000000000000000000000000000000000000000000000000000000000000000000000000000000000000000000000000000000000000000000800000000000000000000000000000000000000000000000000000002000000000000000000000000000000000000000000000000000000000000040000000000000000080000000000000000000000000000000000000000000000000000000000",
          "type": "0x2",
          "transactionHash": "0x53289911d8feedd49976fd0cc426424f4a38a9e5eca43d2dcf183621aa88c402",
          "transactionIndex": "0x1",
          "blockHash": "0xeee547955330551958aad28a1668b1dc4a776dd9994cdb0e68e2357405dcad26",
          "blockNumber": "0x6f6cd0",
          "gasUsed": "0xba63",
          "effectiveGasPrice": "0x3b94de2c",
          "from": "0x66666f4f66cc6a5bb6a7e73971e85eddf3b638c1",
          "to": "0x7570adcf326406ef55c03e81d568ee1836e9a0e2",
          "contractAddress": null,
          "l1Fee": "0x2497bb4c3d"
        },
        {
          "status": "0x1",
          "cumulativeGasUsed": "0x22f29",
          "logs": [
            {
              "address": "0x7570adcf326406ef55c03e81d568ee1836e9a0e2",
              "topics": [
                "0x238399d427b947898edb290f5ff0f9109849b1c3ba196a42e35f00c50a54b98b"
              ],
              "data": "0x0000000000000000000000000000000000000000000000000000000000009d530000000000000000000000007570adcf326406ef55c03e81d568ee1836e9a0e2",
              "blockHash": "0xeee547955330551958aad28a1668b1dc4a776dd9994cdb0e68e2357405dcad26",
              "blockNumber": "0x6f6cd0",
              "transactionHash": "0xb8972d1e4ba1c1637d774dded5d8b0b1d6169899c6867ec97b442b270cc35581",
              "transactionIndex": "0x2",
              "logIndex": "0x2",
              "removed": false
            }
          ],
          "logsBloom": "0x00000000000000000000000000000000000000000000000000000000000000000000000000000000000000000000000000000000000000000800000000000000000000000000000000000000000000000000000000000000000000000000000000800000000000000000000000000000000000000000000000000000000000000000000000000000000000000000000000000000000000000000000000000800000000000000000000000000000000000000000000000000000002000000000000000000000000000000000000000000000000000000000000040000000000000000080000000000000000000000000000000000000000000000000000000000",
          "type": "0x2",
          "transactionHash": "0xb8972d1e4ba1c1637d774dded5d8b0b1d6169899c6867ec97b442b270cc35581",
          "transactionIndex": "0x2",
          "blockHash": "0xeee547955330551958aad28a1668b1dc4a776dd9994cdb0e68e2357405dcad26",
          "blockNumber": "0x6f6cd0",
          "gasUsed": "0xba63",
          "effectiveGasPrice": "0x3b94de2c",
          "from": "0x66666f4f66cc6a5bb6a7e73971e85eddf3b638c1",
          "to": "0x7570adcf326406ef55c03e81d568ee1836e9a0e2",
          "contractAddress": null,
          "l1Fee": "0x2497bb4c3d"
        }
      ],
      "libraries": [],
      "pending": [],
      "returns": {},
      "timestamp": 1731752697,
      "chain": 534351,
      "commit": "fa7e3d7"
    },
    {
      "transactions": [
        {
          "hash": "0xe4badf594f678c2c58d1a8683162866c7a1dc383085b5c590ffc5d0fa5537785",
          "transactionType": "CALL",
          "contractName": null,
          "contractAddress": "0x7570adcf326406ef55c03e81d568ee1836e9a0e2",
          "function": "setToken(address)",
          "arguments": [
            "0xaC45aaab89741702a9A0083E28fbcfe28ffE7a96"
          ],
          "transaction": {
            "from": "0x66666f4f66cc6a5bb6a7e73971e85eddf3b638c1",
            "to": "0x7570adcf326406ef55c03e81d568ee1836e9a0e2",
            "gas": "0x10767",
            "value": "0x0",
            "input": "0x144fa6d7000000000000000000000000ac45aaab89741702a9a0083e28fbcfe28ffe7a96",
            "nonce": "0x2",
            "chainId": "0x13882"
          },
          "additionalContracts": [],
          "isFixedGasLimit": false
        },
        {
          "hash": "0xb6df1f5e24609105825b749d70602ba142d2d906eb64be09d41f339a729262f0",
          "transactionType": "CALL",
          "contractName": null,
          "contractAddress": "0x7570adcf326406ef55c03e81d568ee1836e9a0e2",
          "function": "setPeer(uint32,bytes32)",
          "arguments": [
            "40333",
            "0x0000000000000000000000007570adcf326406ef55c03e81d568ee1836e9a0e2"
          ],
          "transaction": {
            "from": "0x66666f4f66cc6a5bb6a7e73971e85eddf3b638c1",
            "to": "0x7570adcf326406ef55c03e81d568ee1836e9a0e2",
            "gas": "0x11096",
            "value": "0x0",
            "input": "0x3400288b0000000000000000000000000000000000000000000000000000000000009d8d0000000000000000000000007570adcf326406ef55c03e81d568ee1836e9a0e2",
            "nonce": "0x3",
            "chainId": "0x13882"
          },
          "additionalContracts": [],
          "isFixedGasLimit": false
        },
        {
          "hash": "0x654630404dd7c87b938c536c18513daa1786f7f95fceccbc2ca097ef29bc77d7",
          "transactionType": "CALL",
          "contractName": null,
          "contractAddress": "0x7570adcf326406ef55c03e81d568ee1836e9a0e2",
          "function": "setPeer(uint32,bytes32)",
          "arguments": [
            "40170",
            "0x0000000000000000000000007570adcf326406ef55c03e81d568ee1836e9a0e2"
          ],
          "transaction": {
            "from": "0x66666f4f66cc6a5bb6a7e73971e85eddf3b638c1",
            "to": "0x7570adcf326406ef55c03e81d568ee1836e9a0e2",
            "gas": "0x11096",
            "value": "0x0",
            "input": "0x3400288b0000000000000000000000000000000000000000000000000000000000009cea0000000000000000000000007570adcf326406ef55c03e81d568ee1836e9a0e2",
            "nonce": "0x4",
            "chainId": "0x13882"
          },
          "additionalContracts": [],
          "isFixedGasLimit": false
        },
        {
          "hash": "0x8bfd6d30504bd3840da11b9ba62ec99aed67348ee049c98e2ce5ddf96e94b552",
          "transactionType": "CALL",
          "contractName": null,
          "contractAddress": "0x7570adcf326406ef55c03e81d568ee1836e9a0e2",
          "function": "setPeer(uint32,bytes32)",
          "arguments": [
            "40275",
            "0x0000000000000000000000007570adcf326406ef55c03e81d568ee1836e9a0e2"
          ],
          "transaction": {
            "from": "0x66666f4f66cc6a5bb6a7e73971e85eddf3b638c1",
            "to": "0x7570adcf326406ef55c03e81d568ee1836e9a0e2",
            "gas": "0x11096",
            "value": "0x0",
            "input": "0x3400288b0000000000000000000000000000000000000000000000000000000000009d530000000000000000000000007570adcf326406ef55c03e81d568ee1836e9a0e2",
            "nonce": "0x5",
            "chainId": "0x13882"
          },
          "additionalContracts": [],
          "isFixedGasLimit": false
        }
      ],
      "receipts": [
        {
          "status": "0x1",
          "cumulativeGasUsed": "0xb41b",
          "logs": [
            {
              "address": "0x0000000000000000000000000000000000001010",
              "topics": [
                "0x4dfe1bbbcf077ddc3e01291eea2d5c70c2b422b415d95645b9adcfd678cb1d63",
                "0x0000000000000000000000000000000000000000000000000000000000001010",
                "0x00000000000000000000000066666f4f66cc6a5bb6a7e73971e85eddf3b638c1",
                "0x0000000000000000000000006ab3d36c46ecfb9b9c0bd51cb1c3da5a2c81cea6"
              ],
              "data": "0x000000000000000000000000000000000000000000000000000c71eec8afc79b000000000000000000000000000000000000000000000000048f4c6732ab1a3f00000000000000000000000000000000000000000000039f02fc90ff83f4fd9b0000000000000000000000000000000000000000000000000482da7869fb52a400000000000000000000000000000000000000000000039f030902ee4ca4c536",
              "blockHash": "0xeea23f1a852c7542ac91bdd439e52bd339812505ce8bd142e51510d31dafd56e",
              "blockNumber": "0xdd24c0",
              "transactionHash": "0xe4badf594f678c2c58d1a8683162866c7a1dc383085b5c590ffc5d0fa5537785",
              "transactionIndex": "0x0",
              "logIndex": "0x0",
              "removed": false
            }
          ],
          "logsBloom": "0x00000000080008000000000000000000000000000000000000000000000000000000000000000000000000000000000000008000000000000000000000000000000000080000000000000000000000800000000000000000000100000000000000000000000000000000000000000000000000000000000080000000000000000000000000000000000000000000000000000000000000000000000000000000200000000000000000000000000000000000000000000000000000000000004000000000000000000001000000800000000000010000000000100000000000000000000000000000000000000001000000000000000000000000000000100000",
          "type": "0x2",
          "transactionHash": "0xe4badf594f678c2c58d1a8683162866c7a1dc383085b5c590ffc5d0fa5537785",
          "transactionIndex": "0x0",
          "blockHash": "0xeea23f1a852c7542ac91bdd439e52bd339812505ce8bd142e51510d31dafd56e",
          "blockNumber": "0xdd24c0",
          "gasUsed": "0xb41b",
          "effectiveGasPrice": "0x11b0737290",
          "from": "0x66666f4f66cc6a5bb6a7e73971e85eddf3b638c1",
          "to": "0x7570adcf326406ef55c03e81d568ee1836e9a0e2",
          "contractAddress": null
        },
        {
          "status": "0x1",
          "cumulativeGasUsed": "0x16e7e",
          "logs": [
            {
              "address": "0x7570adcf326406ef55c03e81d568ee1836e9a0e2",
              "topics": [
                "0x238399d427b947898edb290f5ff0f9109849b1c3ba196a42e35f00c50a54b98b"
              ],
              "data": "0x0000000000000000000000000000000000000000000000000000000000009d8d0000000000000000000000007570adcf326406ef55c03e81d568ee1836e9a0e2",
              "blockHash": "0xeea23f1a852c7542ac91bdd439e52bd339812505ce8bd142e51510d31dafd56e",
              "blockNumber": "0xdd24c0",
              "transactionHash": "0xb6df1f5e24609105825b749d70602ba142d2d906eb64be09d41f339a729262f0",
              "transactionIndex": "0x1",
              "logIndex": "0x1",
              "removed": false
            },
            {
              "address": "0x0000000000000000000000000000000000001010",
              "topics": [
                "0x4dfe1bbbcf077ddc3e01291eea2d5c70c2b422b415d95645b9adcfd678cb1d63",
                "0x0000000000000000000000000000000000000000000000000000000000001010",
                "0x00000000000000000000000066666f4f66cc6a5bb6a7e73971e85eddf3b638c1",
                "0x0000000000000000000000006ab3d36c46ecfb9b9c0bd51cb1c3da5a2c81cea6"
              ],
              "data": "0x000000000000000000000000000000000000000000000000000ce10b1dd701e30000000000000000000000000000000000000000000000000482da7869f0c50f00000000000000000000000000000000000000000000039f030902ee4ca4c5360000000000000000000000000000000000000000000000000475f96d4c19c32c00000000000000000000000000000000000000000000039f0315e3f96a7bc719",
              "blockHash": "0xeea23f1a852c7542ac91bdd439e52bd339812505ce8bd142e51510d31dafd56e",
              "blockNumber": "0xdd24c0",
              "transactionHash": "0xb6df1f5e24609105825b749d70602ba142d2d906eb64be09d41f339a729262f0",
              "transactionIndex": "0x1",
              "logIndex": "0x2",
              "removed": false
            }
          ],
          "logsBloom": "0x00000000080008000000000000000000000000000000000000000000000000000000000000000000000000000000000000008000000000000800000000000000000000080000000000000000000000800000000000000000000100000000000000800000000000000000000000000000000000000000000080000000000000000000000000000000000000000000000000000000000000000000000000000800200000000000000000000000000000000000000000000000000002000000004000000000000000000001000000800000000000010000000000140000000000000000080000000000000000000001000000000000000000000000000000100000",
          "type": "0x2",
          "transactionHash": "0xb6df1f5e24609105825b749d70602ba142d2d906eb64be09d41f339a729262f0",
          "transactionIndex": "0x1",
          "blockHash": "0xeea23f1a852c7542ac91bdd439e52bd339812505ce8bd142e51510d31dafd56e",
          "blockNumber": "0xdd24c0",
          "gasUsed": "0xba63",
          "effectiveGasPrice": "0x11b0737290",
          "from": "0x66666f4f66cc6a5bb6a7e73971e85eddf3b638c1",
          "to": "0x7570adcf326406ef55c03e81d568ee1836e9a0e2",
          "contractAddress": null
        },
        {
          "status": "0x1",
          "cumulativeGasUsed": "0x228e1",
          "logs": [
            {
              "address": "0x7570adcf326406ef55c03e81d568ee1836e9a0e2",
              "topics": [
                "0x238399d427b947898edb290f5ff0f9109849b1c3ba196a42e35f00c50a54b98b"
              ],
              "data": "0x0000000000000000000000000000000000000000000000000000000000009cea0000000000000000000000007570adcf326406ef55c03e81d568ee1836e9a0e2",
              "blockHash": "0xeea23f1a852c7542ac91bdd439e52bd339812505ce8bd142e51510d31dafd56e",
              "blockNumber": "0xdd24c0",
              "transactionHash": "0x654630404dd7c87b938c536c18513daa1786f7f95fceccbc2ca097ef29bc77d7",
              "transactionIndex": "0x2",
              "logIndex": "0x3",
              "removed": false
            },
            {
              "address": "0x0000000000000000000000000000000000001010",
              "topics": [
                "0x4dfe1bbbcf077ddc3e01291eea2d5c70c2b422b415d95645b9adcfd678cb1d63",
                "0x0000000000000000000000000000000000000000000000000000000000001010",
                "0x00000000000000000000000066666f4f66cc6a5bb6a7e73971e85eddf3b638c1",
                "0x0000000000000000000000006ab3d36c46ecfb9b9c0bd51cb1c3da5a2c81cea6"
              ],
              "data": "0x000000000000000000000000000000000000000000000000000ce10b1dd701e30000000000000000000000000000000000000000000000000475f96d4c0ed75f00000000000000000000000000000000000000000000039f0315e3f96a7bc719000000000000000000000000000000000000000000000000046918622e37d57c00000000000000000000000000000000000000000000039f0322c5048852c8fc",
              "blockHash": "0xeea23f1a852c7542ac91bdd439e52bd339812505ce8bd142e51510d31dafd56e",
              "blockNumber": "0xdd24c0",
              "transactionHash": "0x654630404dd7c87b938c536c18513daa1786f7f95fceccbc2ca097ef29bc77d7",
              "transactionIndex": "0x2",
              "logIndex": "0x4",
              "removed": false
            }
          ],
          "logsBloom": "0x00000000080008000000000000000000000000000000000000000000000000000000000000000000000000000000000000008000000000000800000000000000000000080000000000000000000000800000000000000000000100000000000000800000000000000000000000000000000000000000000080000000000000000000000000000000000000000000000000000000000000000000000000000800200000000000000000000000000000000000000000000000000002000000004000000000000000000001000000800000000000010000000000140000000000000000080000000000000000000001000000000000000000000000000000100000",
          "type": "0x2",
          "transactionHash": "0x654630404dd7c87b938c536c18513daa1786f7f95fceccbc2ca097ef29bc77d7",
          "transactionIndex": "0x2",
          "blockHash": "0xeea23f1a852c7542ac91bdd439e52bd339812505ce8bd142e51510d31dafd56e",
          "blockNumber": "0xdd24c0",
          "gasUsed": "0xba63",
          "effectiveGasPrice": "0x11b0737290",
          "from": "0x66666f4f66cc6a5bb6a7e73971e85eddf3b638c1",
          "to": "0x7570adcf326406ef55c03e81d568ee1836e9a0e2",
          "contractAddress": null
        },
        {
          "status": "0x1",
          "cumulativeGasUsed": "0xba63",
          "logs": [
            {
              "address": "0x7570adcf326406ef55c03e81d568ee1836e9a0e2",
              "topics": [
                "0x238399d427b947898edb290f5ff0f9109849b1c3ba196a42e35f00c50a54b98b"
              ],
              "data": "0x0000000000000000000000000000000000000000000000000000000000009d530000000000000000000000007570adcf326406ef55c03e81d568ee1836e9a0e2",
              "blockHash": "0x37b0aec7a2c3574fe8754ebdb96877287f5b5702a455f12a18a4665b67c04996",
              "blockNumber": "0xdd24c1",
              "transactionHash": "0x8bfd6d30504bd3840da11b9ba62ec99aed67348ee049c98e2ce5ddf96e94b552",
              "transactionIndex": "0x0",
              "logIndex": "0x0",
              "removed": false
            },
            {
              "address": "0x0000000000000000000000000000000000001010",
              "topics": [
                "0x4dfe1bbbcf077ddc3e01291eea2d5c70c2b422b415d95645b9adcfd678cb1d63",
                "0x0000000000000000000000000000000000000000000000000000000000001010",
                "0x00000000000000000000000066666f4f66cc6a5bb6a7e73971e85eddf3b638c1",
                "0x0000000000000000000000006ab3d36c46ecfb9b9c0bd51cb1c3da5a2c81cea6"
              ],
              "data": "0x000000000000000000000000000000000000000000000000000ce10b1dd701e3000000000000000000000000000000000000000000000000046918622e2ce9af00000000000000000000000000000000000000000000039f0322c5048852c8fc000000000000000000000000000000000000000000000000045c37571055e7cc00000000000000000000000000000000000000000000039f032fa60fa629cadf",
              "blockHash": "0x37b0aec7a2c3574fe8754ebdb96877287f5b5702a455f12a18a4665b67c04996",
              "blockNumber": "0xdd24c1",
              "transactionHash": "0x8bfd6d30504bd3840da11b9ba62ec99aed67348ee049c98e2ce5ddf96e94b552",
              "transactionIndex": "0x0",
              "logIndex": "0x1",
              "removed": false
            }
          ],
          "logsBloom": "0x00000000080008000000000000000000000000000000000000000000000000000000000000000000000000000000000000008000000000000800000000000000000000080000000000000000000000800000000000000000000100000000000000800000000000000000000000000000000000000000000080000000000000000000000000000000000000000000000000000000000000000000000000000800200000000000000000000000000000000000000000000000000002000000004000000000000000000001000000800000000000010000000000140000000000000000080000000000000000000001000000000000000000000000000000100000",
          "type": "0x2",
          "transactionHash": "0x8bfd6d30504bd3840da11b9ba62ec99aed67348ee049c98e2ce5ddf96e94b552",
          "transactionIndex": "0x0",
          "blockHash": "0x37b0aec7a2c3574fe8754ebdb96877287f5b5702a455f12a18a4665b67c04996",
          "blockNumber": "0xdd24c1",
          "gasUsed": "0xba63",
          "effectiveGasPrice": "0x11b0737290",
          "from": "0x66666f4f66cc6a5bb6a7e73971e85eddf3b638c1",
          "to": "0x7570adcf326406ef55c03e81d568ee1836e9a0e2",
          "contractAddress": null
        }
      ],
      "libraries": [],
      "pending": [],
      "returns": {},
      "timestamp": 1731752698,
      "chain": 80002,
      "commit": "fa7e3d7"
    },
    {
      "transactions": [
        {
          "hash": "0x5e4952e230ea0cf48b27190020c2dffd5097aa54a82c7fcbf46bfced1a2eabce",
          "transactionType": "CALL",
          "contractName": null,
          "contractAddress": "0x7570adcf326406ef55c03e81d568ee1836e9a0e2",
          "function": "setToken(address)",
          "arguments": [
            "0xaC45aaab89741702a9A0083E28fbcfe28ffE7a96"
          ],
          "transaction": {
            "from": "0x66666f4f66cc6a5bb6a7e73971e85eddf3b638c1",
            "to": "0x7570adcf326406ef55c03e81d568ee1836e9a0e2",
            "gas": "0x10767",
            "value": "0x0",
            "input": "0x144fa6d7000000000000000000000000ac45aaab89741702a9a0083e28fbcfe28ffe7a96",
            "nonce": "0x2",
            "chainId": "0xbf03"
          },
          "additionalContracts": [],
          "isFixedGasLimit": false
        },
        {
          "hash": "0xefac032938522dcca2740db84d191c24ed55cdef16c3f0d277122231ba2d2414",
          "transactionType": "CALL",
          "contractName": null,
          "contractAddress": "0x7570adcf326406ef55c03e81d568ee1836e9a0e2",
          "function": "setPeer(uint32,bytes32)",
          "arguments": [
            "40333",
            "0x0000000000000000000000007570adcf326406ef55c03e81d568ee1836e9a0e2"
          ],
          "transaction": {
            "from": "0x66666f4f66cc6a5bb6a7e73971e85eddf3b638c1",
            "to": "0x7570adcf326406ef55c03e81d568ee1836e9a0e2",
            "gas": "0x11096",
            "value": "0x0",
            "input": "0x3400288b0000000000000000000000000000000000000000000000000000000000009d8d0000000000000000000000007570adcf326406ef55c03e81d568ee1836e9a0e2",
            "nonce": "0x3",
            "chainId": "0xbf03"
          },
          "additionalContracts": [],
          "isFixedGasLimit": false
        },
        {
          "hash": "0xb7a2ec7ccec324b12fe649e6e693b2f67906fb5b67b01316eb890fc1239fc181",
          "transactionType": "CALL",
          "contractName": null,
          "contractAddress": "0x7570adcf326406ef55c03e81d568ee1836e9a0e2",
          "function": "setPeer(uint32,bytes32)",
          "arguments": [
            "40170",
            "0x0000000000000000000000007570adcf326406ef55c03e81d568ee1836e9a0e2"
          ],
          "transaction": {
            "from": "0x66666f4f66cc6a5bb6a7e73971e85eddf3b638c1",
            "to": "0x7570adcf326406ef55c03e81d568ee1836e9a0e2",
            "gas": "0x11096",
            "value": "0x0",
            "input": "0x3400288b0000000000000000000000000000000000000000000000000000000000009cea0000000000000000000000007570adcf326406ef55c03e81d568ee1836e9a0e2",
            "nonce": "0x4",
            "chainId": "0xbf03"
          },
          "additionalContracts": [],
          "isFixedGasLimit": false
        },
        {
          "hash": "0x217c59439b4009954af6e3610a0ad9d57ade87557546fa5ef6eca1db22168178",
          "transactionType": "CALL",
          "contractName": null,
          "contractAddress": "0x7570adcf326406ef55c03e81d568ee1836e9a0e2",
          "function": "setPeer(uint32,bytes32)",
          "arguments": [
            "40267",
            "0x0000000000000000000000007570adcf326406ef55c03e81d568ee1836e9a0e2"
          ],
          "transaction": {
            "from": "0x66666f4f66cc6a5bb6a7e73971e85eddf3b638c1",
            "to": "0x7570adcf326406ef55c03e81d568ee1836e9a0e2",
            "gas": "0x11096",
            "value": "0x0",
            "input": "0x3400288b0000000000000000000000000000000000000000000000000000000000009d4b0000000000000000000000007570adcf326406ef55c03e81d568ee1836e9a0e2",
            "nonce": "0x5",
            "chainId": "0xbf03"
          },
          "additionalContracts": [],
          "isFixedGasLimit": false
        }
      ],
      "receipts": [
        {
          "status": "0x1",
          "cumulativeGasUsed": "0x167ec",
          "logs": [],
          "logsBloom": "0x00000000000000000000000000000000000000000000000000000000000000000000000000000000000000000000000000000000000000000000000000000000000000000000000000000000000000000000000000000000000000000000000000000000000000000000000000000000000000000000000000000000000000000000000000000000000000000000000000000000000000000000000000000000000000000000000000000000000000000000000000000000000000000000000000000000000000000000000000000000000000000000000000000000000000000000000000000000000000000000000000000000000000000000000000000000",
          "type": "0x2",
          "transactionHash": "0x5e4952e230ea0cf48b27190020c2dffd5097aa54a82c7fcbf46bfced1a2eabce",
          "transactionIndex": "0x1",
          "blockHash": "0x4194c6b6332c8e975cba1b2d6b7e8365533942527c6efb8b5631f4319e2cc0bd",
          "blockNumber": "0xf308bb",
          "gasUsed": "0xb41b",
          "effectiveGasPrice": "0xfe",
          "from": "0x66666f4f66cc6a5bb6a7e73971e85eddf3b638c1",
          "to": "0x7570adcf326406ef55c03e81d568ee1836e9a0e2",
          "contractAddress": null,
          "l1Fee": "0x7b5f6cb5",
          "l1GasPrice": "0x2add0cd7",
          "l1GasUsed": "0x838"
        },
        {
          "status": "0x1",
          "cumulativeGasUsed": "0x16e34",
          "logs": [
            {
              "address": "0x7570adcf326406ef55c03e81d568ee1836e9a0e2",
              "topics": [
                "0x238399d427b947898edb290f5ff0f9109849b1c3ba196a42e35f00c50a54b98b"
              ],
              "data": "0x0000000000000000000000000000000000000000000000000000000000009d8d0000000000000000000000007570adcf326406ef55c03e81d568ee1836e9a0e2",
              "blockHash": "0x3fbc3c2516e736590bd53ec3155324c6be9d7d39e93d51a7761dc3d9588acc7b",
              "blockNumber": "0xf308bd",
              "transactionHash": "0xefac032938522dcca2740db84d191c24ed55cdef16c3f0d277122231ba2d2414",
              "transactionIndex": "0x1",
              "logIndex": "0x0",
              "removed": false
            }
          ],
          "logsBloom": "0x00000000000000000000000000000000000000000000000000000000000000000000000000000000000000000000000000000000000000000800000000000000000000000000000000000000000000000000000000000000000000000000000000800000000000000000000000000000000000000000000000000000000000000000000000000000000000000000000000000000000000000000000000000800000000000000000000000000000000000000000000000000000002000000000000000000000000000000000000000000000000000000000000040000000000000000080000000000000000000000000000000000000000000000000000000000",
          "type": "0x2",
          "transactionHash": "0xefac032938522dcca2740db84d191c24ed55cdef16c3f0d277122231ba2d2414",
          "transactionIndex": "0x1",
          "blockHash": "0x3fbc3c2516e736590bd53ec3155324c6be9d7d39e93d51a7761dc3d9588acc7b",
          "blockNumber": "0xf308bd",
          "gasUsed": "0xba63",
          "effectiveGasPrice": "0xfe",
          "from": "0x66666f4f66cc6a5bb6a7e73971e85eddf3b638c1",
          "to": "0x7570adcf326406ef55c03e81d568ee1836e9a0e2",
          "contractAddress": null,
          "l1Fee": "0x85ed6dbc",
          "l1GasPrice": "0x2add0cd7",
          "l1GasUsed": "0x8ec"
        },
        {
          "status": "0x1",
          "cumulativeGasUsed": "0x22897",
          "logs": [
            {
              "address": "0x7570adcf326406ef55c03e81d568ee1836e9a0e2",
              "topics": [
                "0x238399d427b947898edb290f5ff0f9109849b1c3ba196a42e35f00c50a54b98b"
              ],
              "data": "0x0000000000000000000000000000000000000000000000000000000000009cea0000000000000000000000007570adcf326406ef55c03e81d568ee1836e9a0e2",
              "blockHash": "0x3fbc3c2516e736590bd53ec3155324c6be9d7d39e93d51a7761dc3d9588acc7b",
              "blockNumber": "0xf308bd",
              "transactionHash": "0xb7a2ec7ccec324b12fe649e6e693b2f67906fb5b67b01316eb890fc1239fc181",
              "transactionIndex": "0x2",
              "logIndex": "0x1",
              "removed": false
            }
          ],
          "logsBloom": "0x00000000000000000000000000000000000000000000000000000000000000000000000000000000000000000000000000000000000000000800000000000000000000000000000000000000000000000000000000000000000000000000000000800000000000000000000000000000000000000000000000000000000000000000000000000000000000000000000000000000000000000000000000000800000000000000000000000000000000000000000000000000000002000000000000000000000000000000000000000000000000000000000000040000000000000000080000000000000000000000000000000000000000000000000000000000",
          "type": "0x2",
          "transactionHash": "0xb7a2ec7ccec324b12fe649e6e693b2f67906fb5b67b01316eb890fc1239fc181",
          "transactionIndex": "0x2",
          "blockHash": "0x3fbc3c2516e736590bd53ec3155324c6be9d7d39e93d51a7761dc3d9588acc7b",
          "blockNumber": "0xf308bd",
          "gasUsed": "0xba63",
          "effectiveGasPrice": "0xfe",
          "from": "0x66666f4f66cc6a5bb6a7e73971e85eddf3b638c1",
          "to": "0x7570adcf326406ef55c03e81d568ee1836e9a0e2",
          "contractAddress": null,
          "l1Fee": "0x85ed6dbc",
          "l1GasPrice": "0x2add0cd7",
          "l1GasUsed": "0x8ec"
        },
        {
          "status": "0x1",
          "cumulativeGasUsed": "0x2e2fa",
          "logs": [
            {
              "address": "0x7570adcf326406ef55c03e81d568ee1836e9a0e2",
              "topics": [
                "0x238399d427b947898edb290f5ff0f9109849b1c3ba196a42e35f00c50a54b98b"
              ],
              "data": "0x0000000000000000000000000000000000000000000000000000000000009d4b0000000000000000000000007570adcf326406ef55c03e81d568ee1836e9a0e2",
              "blockHash": "0x3fbc3c2516e736590bd53ec3155324c6be9d7d39e93d51a7761dc3d9588acc7b",
              "blockNumber": "0xf308bd",
              "transactionHash": "0x217c59439b4009954af6e3610a0ad9d57ade87557546fa5ef6eca1db22168178",
              "transactionIndex": "0x3",
              "logIndex": "0x2",
              "removed": false
            }
          ],
          "logsBloom": "0x00000000000000000000000000000000000000000000000000000000000000000000000000000000000000000000000000000000000000000800000000000000000000000000000000000000000000000000000000000000000000000000000000800000000000000000000000000000000000000000000000000000000000000000000000000000000000000000000000000000000000000000000000000800000000000000000000000000000000000000000000000000000002000000000000000000000000000000000000000000000000000000000000040000000000000000080000000000000000000000000000000000000000000000000000000000",
          "type": "0x2",
          "transactionHash": "0x217c59439b4009954af6e3610a0ad9d57ade87557546fa5ef6eca1db22168178",
          "transactionIndex": "0x3",
          "blockHash": "0x3fbc3c2516e736590bd53ec3155324c6be9d7d39e93d51a7761dc3d9588acc7b",
          "blockNumber": "0xf308bd",
          "gasUsed": "0xba63",
          "effectiveGasPrice": "0xfe",
          "from": "0x66666f4f66cc6a5bb6a7e73971e85eddf3b638c1",
          "to": "0x7570adcf326406ef55c03e81d568ee1836e9a0e2",
          "contractAddress": null,
          "l1Fee": "0x84852954",
          "l1GasPrice": "0x2add0cd7",
          "l1GasUsed": "0x8d4"
        }
      ],
      "libraries": [],
      "pending": [],
      "returns": {},
      "timestamp": 1731752699,
      "chain": 48899,
      "commit": "fa7e3d7"
    }
  ],
  "timestamp": 1731752796
}