{
  "deployments": [
    {
      "transactions": [
        {
          "hash": "0xf79884080aadcc5ed40e35a6a20b745cb0298dfc62c96154d45c1c4291baf024",
          "transactionType": "CALL",
          "contractName": null,
          "contractAddress": "0x8d79f26c1b29f2833d6b36b3e902c9c537450568",
          "function": "setToken(address)",
          "arguments": [
            "0x9DdE77B61FC4F08177f14cb254148BF7cC85A8C5"
          ],
          "transaction": {
            "from": "0x11110dbc48603b706792aa52671a1439d0f4da63",
            "to": "0x8d79f26c1b29f2833d6b36b3e902c9c537450568",
            "gas": "0x10767",
            "value": "0x0",
            "input": "0x144fa6d70000000000000000000000009dde77b61fc4f08177f14cb254148bf7cc85a8c5",
            "nonce": "0x2",
            "chainId": "0x515"
          },
          "additionalContracts": [],
          "isFixedGasLimit": false
        },
        {
          "hash": "0x7d1dbbb0c5d569459bb5da756b80bcfadee8c1031e1b49ee62579f065ee8e981",
          "transactionType": "CALL",
          "contractName": null,
          "contractAddress": "0x8d79f26c1b29f2833d6b36b3e902c9c537450568",
          "function": "setPeer(uint32,bytes32)",
          "arguments": [
            "40170",
            "0x0000000000000000000000008d79f26c1b29f2833d6b36b3e902c9c537450568"
          ],
          "transaction": {
            "from": "0x11110dbc48603b706792aa52671a1439d0f4da63",
            "to": "0x8d79f26c1b29f2833d6b36b3e902c9c537450568",
            "gas": "0x11096",
            "value": "0x0",
            "input": "0x3400288b0000000000000000000000000000000000000000000000000000000000009cea0000000000000000000000008d79f26c1b29f2833d6b36b3e902c9c537450568",
            "nonce": "0x3",
            "chainId": "0x515"
          },
          "additionalContracts": [],
          "isFixedGasLimit": false
        },
        {
          "hash": "0x23758e97dd24864b5680d8defa615049bd440f646c43ba834dd489c0fa4ab33f",
          "transactionType": "CALL",
          "contractName": null,
          "contractAddress": "0x8d79f26c1b29f2833d6b36b3e902c9c537450568",
          "function": "setPeer(uint32,bytes32)",
          "arguments": [
            "40267",
            "0x0000000000000000000000008d79f26c1b29f2833d6b36b3e902c9c537450568"
          ],
          "transaction": {
            "from": "0x11110dbc48603b706792aa52671a1439d0f4da63",
            "to": "0x8d79f26c1b29f2833d6b36b3e902c9c537450568",
            "gas": "0x11096",
            "value": "0x0",
            "input": "0x3400288b0000000000000000000000000000000000000000000000000000000000009d4b0000000000000000000000008d79f26c1b29f2833d6b36b3e902c9c537450568",
            "nonce": "0x4",
            "chainId": "0x515"
          },
          "additionalContracts": [],
          "isFixedGasLimit": false
        },
        {
          "hash": "0x4db9569ebdabd4702415530da1094e5b474015a49422e4fd0b280766eb2f9a10",
          "transactionType": "CALL",
          "contractName": null,
          "contractAddress": "0x8d79f26c1b29f2833d6b36b3e902c9c537450568",
          "function": "setPeer(uint32,bytes32)",
          "arguments": [
            "40275",
            "0x0000000000000000000000008d79f26c1b29f2833d6b36b3e902c9c537450568"
          ],
          "transaction": {
            "from": "0x11110dbc48603b706792aa52671a1439d0f4da63",
            "to": "0x8d79f26c1b29f2833d6b36b3e902c9c537450568",
            "gas": "0x11096",
            "value": "0x0",
            "input": "0x3400288b0000000000000000000000000000000000000000000000000000000000009d530000000000000000000000008d79f26c1b29f2833d6b36b3e902c9c537450568",
            "nonce": "0x5",
            "chainId": "0x515"
          },
          "additionalContracts": [],
          "isFixedGasLimit": false
        }
      ],
      "receipts": [
        {
          "status": "0x1",
          "cumulativeGasUsed": "0x5525a",
          "logs": [],
          "logsBloom": "0x00000000000000000000000000000000000000000000000000000000000000000000000000000000000000000000000000000000000000000000000000000000000000000000000000000000000000000000000000000000000000000000000000000000000000000000000000000000000000000000000000000000000000000000000000000000000000000000000000000000000000000000000000000000000000000000000000000000000000000000000000000000000000000000000000000000000000000000000000000000000000000000000000000000000000000000000000000000000000000000000000000000000000000000000000000000",
          "type": "0x2",
          "transactionHash": "0xf79884080aadcc5ed40e35a6a20b745cb0298dfc62c96154d45c1c4291baf024",
          "transactionIndex": "0xb",
          "blockHash": "0xb18c378c961f7dbe52e6a9e958109f8f38f2c6127fb1870a2f37fb1f2a26fce4",
          "blockNumber": "0x4aaf83",
          "gasUsed": "0xb41b",
          "effectiveGasPrice": "0xf433e",
          "from": "0x11110dbc48603b706792aa52671a1439d0f4da63",
          "to": "0x8d79f26c1b29f2833d6b36b3e902c9c537450568",
          "contractAddress": null,
          "l1BaseFeeScalar": "0x7d0",
          "l1BlobBaseFee": "0x1",
          "l1BlobBaseFeeScalar": "0xdbba0",
          "l1Fee": "0xdf59aa83",
          "l1GasPrice": "0x45cc052d",
          "l1GasUsed": "0x640"
        },
        {
          "status": "0x1",
          "cumulativeGasUsed": "0x60cbd",
          "logs": [
            {
              "address": "0x8d79f26c1b29f2833d6b36b3e902c9c537450568",
              "topics": [
                "0x238399d427b947898edb290f5ff0f9109849b1c3ba196a42e35f00c50a54b98b"
              ],
              "data": "0x0000000000000000000000000000000000000000000000000000000000009cea0000000000000000000000008d79f26c1b29f2833d6b36b3e902c9c537450568",
              "blockHash": "0xb18c378c961f7dbe52e6a9e958109f8f38f2c6127fb1870a2f37fb1f2a26fce4",
              "blockNumber": "0x4aaf83",
              "transactionHash": "0x7d1dbbb0c5d569459bb5da756b80bcfadee8c1031e1b49ee62579f065ee8e981",
              "transactionIndex": "0xc",
              "logIndex": "0x6",
              "removed": false
            }
          ],
          "logsBloom": "0x00000000000000000000000000000000000000000000000000000000000000000000000000000000000000000000000000000000000000000800000000400000000000000000000000000000000000000000000000000000000000000000000000000000000000000000000000000000000000000000000000000000000000000000000000000000000000000000000000000000000000000000800000000000000000000000000000000000000000000000000000000000000002000000000000000000000000000000000000400000000000000000000000040000000000000000000000000000000000000000000000000000000000000000000000000000",
          "type": "0x2",
          "transactionHash": "0x7d1dbbb0c5d569459bb5da756b80bcfadee8c1031e1b49ee62579f065ee8e981",
          "transactionIndex": "0xc",
          "blockHash": "0xb18c378c961f7dbe52e6a9e958109f8f38f2c6127fb1870a2f37fb1f2a26fce4",
          "blockNumber": "0x4aaf83",
          "gasUsed": "0xba63",
          "effectiveGasPrice": "0xf433e",
          "from": "0x11110dbc48603b706792aa52671a1439d0f4da63",
          "to": "0x8d79f26c1b29f2833d6b36b3e902c9c537450568",
          "contractAddress": null,
          "l1BaseFeeScalar": "0x7d0",
          "l1BlobBaseFee": "0x1",
          "l1BlobBaseFeeScalar": "0xdbba0",
          "l1Fee": "0xdf59aa83",
          "l1GasPrice": "0x45cc052d",
          "l1GasUsed": "0x640"
        },
        {
          "status": "0x1",
          "cumulativeGasUsed": "0x6c720",
          "logs": [
            {
              "address": "0x8d79f26c1b29f2833d6b36b3e902c9c537450568",
              "topics": [
                "0x238399d427b947898edb290f5ff0f9109849b1c3ba196a42e35f00c50a54b98b"
              ],
              "data": "0x0000000000000000000000000000000000000000000000000000000000009d4b0000000000000000000000008d79f26c1b29f2833d6b36b3e902c9c537450568",
              "blockHash": "0xb18c378c961f7dbe52e6a9e958109f8f38f2c6127fb1870a2f37fb1f2a26fce4",
              "blockNumber": "0x4aaf83",
              "transactionHash": "0x23758e97dd24864b5680d8defa615049bd440f646c43ba834dd489c0fa4ab33f",
              "transactionIndex": "0xd",
              "logIndex": "0x7",
              "removed": false
            }
          ],
          "logsBloom": "0x00000000000000000000000000000000000000000000000000000000000000000000000000000000000000000000000000000000000000000800000000400000000000000000000000000000000000000000000000000000000000000000000000000000000000000000000000000000000000000000000000000000000000000000000000000000000000000000000000000000000000000000800000000000000000000000000000000000000000000000000000000000000002000000000000000000000000000000000000400000000000000000000000040000000000000000000000000000000000000000000000000000000000000000000000000000",
          "type": "0x2",
          "transactionHash": "0x23758e97dd24864b5680d8defa615049bd440f646c43ba834dd489c0fa4ab33f",
          "transactionIndex": "0xd",
          "blockHash": "0xb18c378c961f7dbe52e6a9e958109f8f38f2c6127fb1870a2f37fb1f2a26fce4",
          "blockNumber": "0x4aaf83",
          "gasUsed": "0xba63",
          "effectiveGasPrice": "0xf433e",
          "from": "0x11110dbc48603b706792aa52671a1439d0f4da63",
          "to": "0x8d79f26c1b29f2833d6b36b3e902c9c537450568",
          "contractAddress": null,
          "l1BaseFeeScalar": "0x7d0",
          "l1BlobBaseFee": "0x1",
          "l1BlobBaseFeeScalar": "0xdbba0",
          "l1Fee": "0xdf59aa83",
          "l1GasPrice": "0x45cc052d",
          "l1GasUsed": "0x640"
        },
        {
          "status": "0x1",
          "cumulativeGasUsed": "0x78183",
          "logs": [
            {
              "address": "0x8d79f26c1b29f2833d6b36b3e902c9c537450568",
              "topics": [
                "0x238399d427b947898edb290f5ff0f9109849b1c3ba196a42e35f00c50a54b98b"
              ],
              "data": "0x0000000000000000000000000000000000000000000000000000000000009d530000000000000000000000008d79f26c1b29f2833d6b36b3e902c9c537450568",
              "blockHash": "0xb18c378c961f7dbe52e6a9e958109f8f38f2c6127fb1870a2f37fb1f2a26fce4",
              "blockNumber": "0x4aaf83",
              "transactionHash": "0x4db9569ebdabd4702415530da1094e5b474015a49422e4fd0b280766eb2f9a10",
              "transactionIndex": "0xe",
              "logIndex": "0x8",
              "removed": false
            }
          ],
          "logsBloom": "0x00000000000000000000000000000000000000000000000000000000000000000000000000000000000000000000000000000000000000000800000000400000000000000000000000000000000000000000000000000000000000000000000000000000000000000000000000000000000000000000000000000000000000000000000000000000000000000000000000000000000000000000800000000000000000000000000000000000000000000000000000000000000002000000000000000000000000000000000000400000000000000000000000040000000000000000000000000000000000000000000000000000000000000000000000000000",
          "type": "0x2",
          "transactionHash": "0x4db9569ebdabd4702415530da1094e5b474015a49422e4fd0b280766eb2f9a10",
          "transactionIndex": "0xe",
          "blockHash": "0xb18c378c961f7dbe52e6a9e958109f8f38f2c6127fb1870a2f37fb1f2a26fce4",
          "blockNumber": "0x4aaf83",
          "gasUsed": "0xba63",
          "effectiveGasPrice": "0xf433e",
          "from": "0x11110dbc48603b706792aa52671a1439d0f4da63",
          "to": "0x8d79f26c1b29f2833d6b36b3e902c9c537450568",
          "contractAddress": null,
          "l1BaseFeeScalar": "0x7d0",
          "l1BlobBaseFee": "0x1",
          "l1BlobBaseFeeScalar": "0xdbba0",
          "l1Fee": "0xdf59aa83",
          "l1GasPrice": "0x45cc052d",
          "l1GasUsed": "0x640"
        }
      ],
      "libraries": [],
      "pending": [],
      "returns": {},
      "timestamp": 1731747012,
      "chain": 1301,
      "commit": "fa7e3d7"
    },
    {
      "transactions": [
        {
          "hash": "0x79259f8c52a9a6adeb6e8da395263a75ea6775505dec50576234079e1dfa4a8b",
          "transactionType": "CALL",
          "contractName": null,
          "contractAddress": "0x8d79f26c1b29f2833d6b36b3e902c9c537450568",
          "function": "setToken(address)",
          "arguments": [
            "0x9DdE77B61FC4F08177f14cb254148BF7cC85A8C5"
          ],
          "transaction": {
            "from": "0x11110dbc48603b706792aa52671a1439d0f4da63",
            "to": "0x8d79f26c1b29f2833d6b36b3e902c9c537450568",
            "gas": "0x10767",
            "value": "0x0",
            "input": "0x144fa6d70000000000000000000000009dde77b61fc4f08177f14cb254148bf7cc85a8c5",
            "nonce": "0x2",
            "chainId": "0x8274f"
          },
          "additionalContracts": [],
          "isFixedGasLimit": false
        },
        {
          "hash": "0x7611c72c5c21eef4c00b7ca6ef198e1a653ffb03c6cd4201c136079df2da800a",
          "transactionType": "CALL",
          "contractName": null,
          "contractAddress": "0x8d79f26c1b29f2833d6b36b3e902c9c537450568",
          "function": "setPeer(uint32,bytes32)",
          "arguments": [
            "40333",
            "0x0000000000000000000000008d79f26c1b29f2833d6b36b3e902c9c537450568"
          ],
          "transaction": {
            "from": "0x11110dbc48603b706792aa52671a1439d0f4da63",
            "to": "0x8d79f26c1b29f2833d6b36b3e902c9c537450568",
            "gas": "0x11096",
            "value": "0x0",
            "input": "0x3400288b0000000000000000000000000000000000000000000000000000000000009d8d0000000000000000000000008d79f26c1b29f2833d6b36b3e902c9c537450568",
            "nonce": "0x3",
            "chainId": "0x8274f"
          },
          "additionalContracts": [],
          "isFixedGasLimit": false
        },
        {
          "hash": "0x3111696943ea48c04c75e207134e0bba3a978f16bff3ccc1c7170c2b6d4c4a10",
          "transactionType": "CALL",
          "contractName": null,
          "contractAddress": "0x8d79f26c1b29f2833d6b36b3e902c9c537450568",
          "function": "setPeer(uint32,bytes32)",
          "arguments": [
            "40267",
            "0x0000000000000000000000008d79f26c1b29f2833d6b36b3e902c9c537450568"
          ],
          "transaction": {
            "from": "0x11110dbc48603b706792aa52671a1439d0f4da63",
            "to": "0x8d79f26c1b29f2833d6b36b3e902c9c537450568",
            "gas": "0x11096",
            "value": "0x0",
            "input": "0x3400288b0000000000000000000000000000000000000000000000000000000000009d4b0000000000000000000000008d79f26c1b29f2833d6b36b3e902c9c537450568",
            "nonce": "0x4",
            "chainId": "0x8274f"
          },
          "additionalContracts": [],
          "isFixedGasLimit": false
        },
        {
          "hash": "0xbe9767f90271d54ac1c5951c203d0a88a17e2f37b7897fc57304467c4f076500",
          "transactionType": "CALL",
          "contractName": null,
          "contractAddress": "0x8d79f26c1b29f2833d6b36b3e902c9c537450568",
          "function": "setPeer(uint32,bytes32)",
          "arguments": [
            "40275",
            "0x0000000000000000000000008d79f26c1b29f2833d6b36b3e902c9c537450568"
          ],
          "transaction": {
            "from": "0x11110dbc48603b706792aa52671a1439d0f4da63",
            "to": "0x8d79f26c1b29f2833d6b36b3e902c9c537450568",
            "gas": "0x11096",
            "value": "0x0",
            "input": "0x3400288b0000000000000000000000000000000000000000000000000000000000009d530000000000000000000000008d79f26c1b29f2833d6b36b3e902c9c537450568",
            "nonce": "0x5",
            "chainId": "0x8274f"
          },
          "additionalContracts": [],
          "isFixedGasLimit": false
        }
      ],
      "receipts": [
        {
          "status": "0x1",
          "cumulativeGasUsed": "0xb41b",
          "logs": [],
          "logsBloom": "0x00000000000000000000000000000000000000000000000000000000000000000000000000000000000000000000000000000000000000000000000000000000000000000000000000000000000000000000000000000000000000000000000000000000000000000000000000000000000000000000000000000000000000000000000000000000000000000000000000000000000000000000000000000000000000000000000000000000000000000000000000000000000000000000000000000000000000000000000000000000000000000000000000000000000000000000000000000000000000000000000000000000000000000000000000000000",
          "type": "0x2",
          "transactionHash": "0x79259f8c52a9a6adeb6e8da395263a75ea6775505dec50576234079e1dfa4a8b",
          "transactionIndex": "0x0",
          "blockHash": "0xa2593fb439b06f4c271267acd7218022766d179ed7d691d54842758488668334",
          "blockNumber": "0x6f6a78",
          "gasUsed": "0xb41b",
          "effectiveGasPrice": "0x3b966212",
          "from": "0x11110dbc48603b706792aa52671a1439d0f4da63",
          "to": "0x8d79f26c1b29f2833d6b36b3e902c9c537450568",
          "contractAddress": null,
          "l1Fee": "0x3ba7392731"
        },
        {
          "status": "0x1",
          "cumulativeGasUsed": "0xba63",
          "logs": [
            {
              "address": "0x8d79f26c1b29f2833d6b36b3e902c9c537450568",
              "topics": [
                "0x238399d427b947898edb290f5ff0f9109849b1c3ba196a42e35f00c50a54b98b"
              ],
              "data": "0x0000000000000000000000000000000000000000000000000000000000009d8d0000000000000000000000008d79f26c1b29f2833d6b36b3e902c9c537450568",
              "blockHash": "0x1f7d548f8afc6f52a074acd641a7f8397669189b521c5b35519f6135c3165136",
              "blockNumber": "0x6f6a79",
              "transactionHash": "0x7611c72c5c21eef4c00b7ca6ef198e1a653ffb03c6cd4201c136079df2da800a",
              "transactionIndex": "0x0",
              "logIndex": "0x0",
              "removed": false
            }
          ],
          "logsBloom": "0x00000000000000000000000000000000000000000000000000000000000000000000000000000000000000000000000000000000000000000800000000400000000000000000000000000000000000000000000000000000000000000000000000000000000000000000000000000000000000000000000000000000000000000000000000000000000000000000000000000000000000000000800000000000000000000000000000000000000000000000000000000000000002000000000000000000000000000000000000400000000000000000000000040000000000000000000000000000000000000000000000000000000000000000000000000000",
          "type": "0x2",
          "transactionHash": "0x7611c72c5c21eef4c00b7ca6ef198e1a653ffb03c6cd4201c136079df2da800a",
          "transactionIndex": "0x0",
          "blockHash": "0x1f7d548f8afc6f52a074acd641a7f8397669189b521c5b35519f6135c3165136",
          "blockNumber": "0x6f6a79",
          "gasUsed": "0xba63",
          "effectiveGasPrice": "0x3b966212",
          "from": "0x11110dbc48603b706792aa52671a1439d0f4da63",
          "to": "0x8d79f26c1b29f2833d6b36b3e902c9c537450568",
          "contractAddress": null,
          "l1Fee": "0x3ba739273e"
        },
        {
          "status": "0x1",
          "cumulativeGasUsed": "0x174c6",
          "logs": [
            {
              "address": "0x8d79f26c1b29f2833d6b36b3e902c9c537450568",
              "topics": [
                "0x238399d427b947898edb290f5ff0f9109849b1c3ba196a42e35f00c50a54b98b"
              ],
              "data": "0x0000000000000000000000000000000000000000000000000000000000009d4b0000000000000000000000008d79f26c1b29f2833d6b36b3e902c9c537450568",
              "blockHash": "0x1f7d548f8afc6f52a074acd641a7f8397669189b521c5b35519f6135c3165136",
              "blockNumber": "0x6f6a79",
              "transactionHash": "0x3111696943ea48c04c75e207134e0bba3a978f16bff3ccc1c7170c2b6d4c4a10",
              "transactionIndex": "0x1",
              "logIndex": "0x1",
              "removed": false
            }
          ],
          "logsBloom": "0x00000000000000000000000000000000000000000000000000000000000000000000000000000000000000000000000000000000000000000800000000400000000000000000000000000000000000000000000000000000000000000000000000000000000000000000000000000000000000000000000000000000000000000000000000000000000000000000000000000000000000000000800000000000000000000000000000000000000000000000000000000000000002000000000000000000000000000000000000400000000000000000000000040000000000000000000000000000000000000000000000000000000000000000000000000000",
          "type": "0x2",
          "transactionHash": "0x3111696943ea48c04c75e207134e0bba3a978f16bff3ccc1c7170c2b6d4c4a10",
          "transactionIndex": "0x1",
          "blockHash": "0x1f7d548f8afc6f52a074acd641a7f8397669189b521c5b35519f6135c3165136",
          "blockNumber": "0x6f6a79",
          "gasUsed": "0xba63",
          "effectiveGasPrice": "0x3b966212",
          "from": "0x11110dbc48603b706792aa52671a1439d0f4da63",
          "to": "0x8d79f26c1b29f2833d6b36b3e902c9c537450568",
          "contractAddress": null,
          "l1Fee": "0x3ba739273e"
        },
        {
          "status": "0x1",
          "cumulativeGasUsed": "0x22f29",
          "logs": [
            {
              "address": "0x8d79f26c1b29f2833d6b36b3e902c9c537450568",
              "topics": [
                "0x238399d427b947898edb290f5ff0f9109849b1c3ba196a42e35f00c50a54b98b"
              ],
              "data": "0x0000000000000000000000000000000000000000000000000000000000009d530000000000000000000000008d79f26c1b29f2833d6b36b3e902c9c537450568",
              "blockHash": "0x1f7d548f8afc6f52a074acd641a7f8397669189b521c5b35519f6135c3165136",
              "blockNumber": "0x6f6a79",
              "transactionHash": "0xbe9767f90271d54ac1c5951c203d0a88a17e2f37b7897fc57304467c4f076500",
              "transactionIndex": "0x2",
              "logIndex": "0x2",
              "removed": false
            }
          ],
          "logsBloom": "0x00000000000000000000000000000000000000000000000000000000000000000000000000000000000000000000000000000000000000000800000000400000000000000000000000000000000000000000000000000000000000000000000000000000000000000000000000000000000000000000000000000000000000000000000000000000000000000000000000000000000000000000800000000000000000000000000000000000000000000000000000000000000002000000000000000000000000000000000000400000000000000000000000040000000000000000000000000000000000000000000000000000000000000000000000000000",
          "type": "0x2",
          "transactionHash": "0xbe9767f90271d54ac1c5951c203d0a88a17e2f37b7897fc57304467c4f076500",
          "transactionIndex": "0x2",
          "blockHash": "0x1f7d548f8afc6f52a074acd641a7f8397669189b521c5b35519f6135c3165136",
          "blockNumber": "0x6f6a79",
          "gasUsed": "0xba63",
          "effectiveGasPrice": "0x3b966212",
          "from": "0x11110dbc48603b706792aa52671a1439d0f4da63",
          "to": "0x8d79f26c1b29f2833d6b36b3e902c9c537450568",
          "contractAddress": null,
          "l1Fee": "0x3ba739273e"
        }
      ],
      "libraries": [],
      "pending": [],
      "returns": {},
      "timestamp": 1731747012,
      "chain": 534351,
      "commit": "fa7e3d7"
    },
    {
      "transactions": [
        {
          "hash": "0x4e6807621762b0ed2d4b3c26b41077dd7d54bf0f02564e918b3a1ceba234fb70",
          "transactionType": "CALL",
          "contractName": null,
          "contractAddress": "0x8d79f26c1b29f2833d6b36b3e902c9c537450568",
          "function": "setToken(address)",
          "arguments": [
            "0x9DdE77B61FC4F08177f14cb254148BF7cC85A8C5"
          ],
          "transaction": {
            "from": "0x11110dbc48603b706792aa52671a1439d0f4da63",
            "to": "0x8d79f26c1b29f2833d6b36b3e902c9c537450568",
            "gas": "0x10767",
            "value": "0x0",
            "input": "0x144fa6d70000000000000000000000009dde77b61fc4f08177f14cb254148bf7cc85a8c5",
            "nonce": "0x2",
            "chainId": "0x13882"
          },
          "additionalContracts": [],
          "isFixedGasLimit": false
        },
        {
          "hash": "0xa520fa93194aef3e654dc9c5d4e405547efa184f3cda068917eee3eda1b86854",
          "transactionType": "CALL",
          "contractName": null,
          "contractAddress": "0x8d79f26c1b29f2833d6b36b3e902c9c537450568",
          "function": "setPeer(uint32,bytes32)",
          "arguments": [
            "40333",
            "0x0000000000000000000000008d79f26c1b29f2833d6b36b3e902c9c537450568"
          ],
          "transaction": {
            "from": "0x11110dbc48603b706792aa52671a1439d0f4da63",
            "to": "0x8d79f26c1b29f2833d6b36b3e902c9c537450568",
            "gas": "0x11096",
            "value": "0x0",
            "input": "0x3400288b0000000000000000000000000000000000000000000000000000000000009d8d0000000000000000000000008d79f26c1b29f2833d6b36b3e902c9c537450568",
            "nonce": "0x3",
            "chainId": "0x13882"
          },
          "additionalContracts": [],
          "isFixedGasLimit": false
        },
        {
          "hash": "0x747e620e91788e6c399fe0037571a090514cf6eea46d13f38aa628cb7c08a447",
          "transactionType": "CALL",
          "contractName": null,
          "contractAddress": "0x8d79f26c1b29f2833d6b36b3e902c9c537450568",
          "function": "setPeer(uint32,bytes32)",
          "arguments": [
            "40170",
            "0x0000000000000000000000008d79f26c1b29f2833d6b36b3e902c9c537450568"
          ],
          "transaction": {
            "from": "0x11110dbc48603b706792aa52671a1439d0f4da63",
            "to": "0x8d79f26c1b29f2833d6b36b3e902c9c537450568",
            "gas": "0x11096",
            "value": "0x0",
            "input": "0x3400288b0000000000000000000000000000000000000000000000000000000000009cea0000000000000000000000008d79f26c1b29f2833d6b36b3e902c9c537450568",
            "nonce": "0x4",
            "chainId": "0x13882"
          },
          "additionalContracts": [],
          "isFixedGasLimit": false
        },
        {
          "hash": "0x5a9b8c8ee0df2f9cc907c062e4fa881428a26c5093030db0a6b13f45d98e641d",
          "transactionType": "CALL",
          "contractName": null,
          "contractAddress": "0x8d79f26c1b29f2833d6b36b3e902c9c537450568",
          "function": "setPeer(uint32,bytes32)",
          "arguments": [
            "40275",
            "0x0000000000000000000000008d79f26c1b29f2833d6b36b3e902c9c537450568"
          ],
          "transaction": {
            "from": "0x11110dbc48603b706792aa52671a1439d0f4da63",
            "to": "0x8d79f26c1b29f2833d6b36b3e902c9c537450568",
            "gas": "0x11096",
            "value": "0x0",
            "input": "0x3400288b0000000000000000000000000000000000000000000000000000000000009d530000000000000000000000008d79f26c1b29f2833d6b36b3e902c9c537450568",
            "nonce": "0x5",
            "chainId": "0x13882"
          },
          "additionalContracts": [],
          "isFixedGasLimit": false
        }
      ],
      "receipts": [
        {
          "status": "0x1",
          "cumulativeGasUsed": "0x16449",
          "logs": [
            {
              "address": "0x0000000000000000000000000000000000001010",
              "topics": [
                "0x4dfe1bbbcf077ddc3e01291eea2d5c70c2b422b415d95645b9adcfd678cb1d63",
                "0x0000000000000000000000000000000000000000000000000000000000001010",
                "0x00000000000000000000000011110dbc48603b706792aa52671a1439d0f4da63",
                "0x000000000000000000000000915a2284d28bd93de7d6f31173b981204bb666e6"
              ],
              "data": "0x000000000000000000000000000000000000000000000000000884925e814a6b00000000000000000000000000000000000000000000000003f1f32e8f16c82a0000000000000000000000000000000000000000000004f5913dbdb5cefbcbd200000000000000000000000000000000000000000000000003e96e9c30957dbf0000000000000000000000000000000000000000000004f5914642482d7d163d",
              "blockHash": "0xb54e79c4407f6baed04f5fbc291bd3038698008dd1253a5d8c2dd41c11965666",
              "blockNumber": "0xdd1b04",
              "transactionHash": "0x4e6807621762b0ed2d4b3c26b41077dd7d54bf0f02564e918b3a1ceba234fb70",
              "transactionIndex": "0x1",
              "logIndex": "0x2",
              "removed": false
            }
          ],
          "logsBloom": "0x00000000000000000010000000000000000000000000000000000000000000000000000000000000000000000000000000008000000000000000000000000000000000100000000000000000000000800000000000400000000100000000000000000000000000000000000000000000000000000000000080000000000000000000000000000000000000000000000000000000000000000000000000000000200000000000000000000000000000000000000000000000000000000008004000000000000000000001000000000000000002000000000000100000000000000000000000000000000000000000000000000000400000000000000000100000",
          "type": "0x2",
          "transactionHash": "0x4e6807621762b0ed2d4b3c26b41077dd7d54bf0f02564e918b3a1ceba234fb70",
          "transactionIndex": "0x1",
          "blockHash": "0xb54e79c4407f6baed04f5fbc291bd3038698008dd1253a5d8c2dd41c11965666",
          "blockNumber": "0xdd1b04",
          "gasUsed": "0xb41b",
          "effectiveGasPrice": "0xc1b710800",
          "from": "0x11110dbc48603b706792aa52671a1439d0f4da63",
          "to": "0x8d79f26c1b29f2833d6b36b3e902c9c537450568",
          "contractAddress": null
        },
        {
          "status": "0x1",
          "cumulativeGasUsed": "0x21eac",
          "logs": [
            {
              "address": "0x8d79f26c1b29f2833d6b36b3e902c9c537450568",
              "topics": [
                "0x238399d427b947898edb290f5ff0f9109849b1c3ba196a42e35f00c50a54b98b"
              ],
              "data": "0x0000000000000000000000000000000000000000000000000000000000009d8d0000000000000000000000008d79f26c1b29f2833d6b36b3e902c9c537450568",
              "blockHash": "0xb54e79c4407f6baed04f5fbc291bd3038698008dd1253a5d8c2dd41c11965666",
              "blockNumber": "0xdd1b04",
              "transactionHash": "0xa520fa93194aef3e654dc9c5d4e405547efa184f3cda068917eee3eda1b86854",
              "transactionIndex": "0x2",
              "logIndex": "0x3",
              "removed": false
            },
            {
              "address": "0x0000000000000000000000000000000000001010",
              "topics": [
                "0x4dfe1bbbcf077ddc3e01291eea2d5c70c2b422b415d95645b9adcfd678cb1d63",
                "0x0000000000000000000000000000000000000000000000000000000000001010",
                "0x00000000000000000000000011110dbc48603b706792aa52671a1439d0f4da63",
                "0x000000000000000000000000915a2284d28bd93de7d6f31173b981204bb666e6"
              ],
              "data": "0x0000000000000000000000000000000000000000000000000008d09ebc7b2c3300000000000000000000000000000000000000000000000003e96e9c308af02a0000000000000000000000000000000000000000000004f5914642482d7d163d00000000000000000000000000000000000000000000000003e09dfd740fc3f70000000000000000000000000000000000000000000004f5914f12e6e9f84270",
              "blockHash": "0xb54e79c4407f6baed04f5fbc291bd3038698008dd1253a5d8c2dd41c11965666",
              "blockNumber": "0xdd1b04",
              "transactionHash": "0xa520fa93194aef3e654dc9c5d4e405547efa184f3cda068917eee3eda1b86854",
              "transactionIndex": "0x2",
              "logIndex": "0x4",
              "removed": false
            }
          ],
          "logsBloom": "0x00000000000000000010000000000000000000000000000000000000000000000000000000000000000000000000000000008000000000000800000000400000000000100000000000000000000000800000000000400000000100000000000000000000000000000000000000000000000000000000000080000000000000000000000000000000000000000000000000000000000000000000800000000000200000000000000000000000000000000000000000000000000002000008004000000000000000000001000000400000000002000000000000140000000000000000000000000000000000000000000000000000400000000000000000100000",
          "type": "0x2",
          "transactionHash": "0xa520fa93194aef3e654dc9c5d4e405547efa184f3cda068917eee3eda1b86854",
          "transactionIndex": "0x2",
          "blockHash": "0xb54e79c4407f6baed04f5fbc291bd3038698008dd1253a5d8c2dd41c11965666",
          "blockNumber": "0xdd1b04",
          "gasUsed": "0xba63",
          "effectiveGasPrice": "0xc1b710800",
          "from": "0x11110dbc48603b706792aa52671a1439d0f4da63",
          "to": "0x8d79f26c1b29f2833d6b36b3e902c9c537450568",
          "contractAddress": null
        },
        {
          "status": "0x1",
          "cumulativeGasUsed": "0x2d90f",
          "logs": [
            {
              "address": "0x8d79f26c1b29f2833d6b36b3e902c9c537450568",
              "topics": [
                "0x238399d427b947898edb290f5ff0f9109849b1c3ba196a42e35f00c50a54b98b"
              ],
              "data": "0x0000000000000000000000000000000000000000000000000000000000009cea0000000000000000000000008d79f26c1b29f2833d6b36b3e902c9c537450568",
              "blockHash": "0xb54e79c4407f6baed04f5fbc291bd3038698008dd1253a5d8c2dd41c11965666",
              "blockNumber": "0xdd1b04",
              "transactionHash": "0x747e620e91788e6c399fe0037571a090514cf6eea46d13f38aa628cb7c08a447",
              "transactionIndex": "0x3",
              "logIndex": "0x5",
              "removed": false
            },
            {
              "address": "0x0000000000000000000000000000000000001010",
              "topics": [
                "0x4dfe1bbbcf077ddc3e01291eea2d5c70c2b422b415d95645b9adcfd678cb1d63",
                "0x0000000000000000000000000000000000000000000000000000000000001010",
                "0x00000000000000000000000011110dbc48603b706792aa52671a1439d0f4da63",
                "0x000000000000000000000000915a2284d28bd93de7d6f31173b981204bb666e6"
              ],
              "data": "0x0000000000000000000000000000000000000000000000000008d09ebc7b2c3300000000000000000000000000000000000000000000000003e09dfd7404d82a0000000000000000000000000000000000000000000004f5914f12e6e9f8427000000000000000000000000000000000000000000000000003d7cd5eb789abf70000000000000000000000000000000000000000000004f59157e385a6736ea3",
              "blockHash": "0xb54e79c4407f6baed04f5fbc291bd3038698008dd1253a5d8c2dd41c11965666",
              "blockNumber": "0xdd1b04",
              "transactionHash": "0x747e620e91788e6c399fe0037571a090514cf6eea46d13f38aa628cb7c08a447",
              "transactionIndex": "0x3",
              "logIndex": "0x6",
              "removed": false
            }
          ],
          "logsBloom": "0x00000000000000000010000000000000000000000000000000000000000000000000000000000000000000000000000000008000000000000800000000400000000000100000000000000000000000800000000000400000000100000000000000000000000000000000000000000000000000000000000080000000000000000000000000000000000000000000000000000000000000000000800000000000200000000000000000000000000000000000000000000000000002000008004000000000000000000001000000400000000002000000000000140000000000000000000000000000000000000000000000000000400000000000000000100000",
          "type": "0x2",
          "transactionHash": "0x747e620e91788e6c399fe0037571a090514cf6eea46d13f38aa628cb7c08a447",
          "transactionIndex": "0x3",
          "blockHash": "0xb54e79c4407f6baed04f5fbc291bd3038698008dd1253a5d8c2dd41c11965666",
          "blockNumber": "0xdd1b04",
          "gasUsed": "0xba63",
          "effectiveGasPrice": "0xc1b710800",
          "from": "0x11110dbc48603b706792aa52671a1439d0f4da63",
          "to": "0x8d79f26c1b29f2833d6b36b3e902c9c537450568",
          "contractAddress": null
        },
        {
          "status": "0x1",
          "cumulativeGasUsed": "0x39372",
          "logs": [
            {
              "address": "0x8d79f26c1b29f2833d6b36b3e902c9c537450568",
              "topics": [
                "0x238399d427b947898edb290f5ff0f9109849b1c3ba196a42e35f00c50a54b98b"
              ],
              "data": "0x0000000000000000000000000000000000000000000000000000000000009d530000000000000000000000008d79f26c1b29f2833d6b36b3e902c9c537450568",
              "blockHash": "0xb54e79c4407f6baed04f5fbc291bd3038698008dd1253a5d8c2dd41c11965666",
              "blockNumber": "0xdd1b04",
              "transactionHash": "0x5a9b8c8ee0df2f9cc907c062e4fa881428a26c5093030db0a6b13f45d98e641d",
              "transactionIndex": "0x4",
              "logIndex": "0x7",
              "removed": false
            },
            {
              "address": "0x0000000000000000000000000000000000001010",
              "topics": [
                "0x4dfe1bbbcf077ddc3e01291eea2d5c70c2b422b415d95645b9adcfd678cb1d63",
                "0x0000000000000000000000000000000000000000000000000000000000001010",
                "0x00000000000000000000000011110dbc48603b706792aa52671a1439d0f4da63",
                "0x000000000000000000000000915a2284d28bd93de7d6f31173b981204bb666e6"
              ],
              "data": "0x0000000000000000000000000000000000000000000000000008d09ebc7b2c3300000000000000000000000000000000000000000000000003d7cd5eb77ec02a0000000000000000000000000000000000000000000004f59157e385a6736ea300000000000000000000000000000000000000000000000003cefcbffb0393f70000000000000000000000000000000000000000000004f59160b42462ee9ad6",
              "blockHash": "0xb54e79c4407f6baed04f5fbc291bd3038698008dd1253a5d8c2dd41c11965666",
              "blockNumber": "0xdd1b04",
              "transactionHash": "0x5a9b8c8ee0df2f9cc907c062e4fa881428a26c5093030db0a6b13f45d98e641d",
              "transactionIndex": "0x4",
              "logIndex": "0x8",
              "removed": false
            }
          ],
          "logsBloom": "0x00000000000000000010000000000000000000000000000000000000000000000000000000000000000000000000000000008000000000000800000000400000000000100000000000000000000000800000000000400000000100000000000000000000000000000000000000000000000000000000000080000000000000000000000000000000000000000000000000000000000000000000800000000000200000000000000000000000000000000000000000000000000002000008004000000000000000000001000000400000000002000000000000140000000000000000000000000000000000000000000000000000400000000000000000100000",
          "type": "0x2",
          "transactionHash": "0x5a9b8c8ee0df2f9cc907c062e4fa881428a26c5093030db0a6b13f45d98e641d",
          "transactionIndex": "0x4",
          "blockHash": "0xb54e79c4407f6baed04f5fbc291bd3038698008dd1253a5d8c2dd41c11965666",
          "blockNumber": "0xdd1b04",
          "gasUsed": "0xba63",
          "effectiveGasPrice": "0xc1b710800",
          "from": "0x11110dbc48603b706792aa52671a1439d0f4da63",
          "to": "0x8d79f26c1b29f2833d6b36b3e902c9c537450568",
          "contractAddress": null
        }
      ],
      "libraries": [],
      "pending": [],
      "returns": {},
      "timestamp": 1731747014,
      "chain": 80002,
      "commit": "fa7e3d7"
    },
    {
      "transactions": [
        {
          "hash": "0xac59e7e2240dd48ca715c513160cfcf22f31a5de904cc97635584a806695bc7f",
          "transactionType": "CALL",
          "contractName": null,
          "contractAddress": "0x8d79f26c1b29f2833d6b36b3e902c9c537450568",
          "function": "setToken(address)",
          "arguments": [
            "0x9DdE77B61FC4F08177f14cb254148BF7cC85A8C5"
          ],
          "transaction": {
            "from": "0x11110dbc48603b706792aa52671a1439d0f4da63",
            "to": "0x8d79f26c1b29f2833d6b36b3e902c9c537450568",
            "gas": "0x10767",
            "value": "0x0",
            "input": "0x144fa6d70000000000000000000000009dde77b61fc4f08177f14cb254148bf7cc85a8c5",
            "nonce": "0x2",
            "chainId": "0xbf03"
          },
          "additionalContracts": [],
          "isFixedGasLimit": false
        },
        {
          "hash": "0x4bb5f12eb5631fde4723ff7af393162da6a5d7f437a5599fd0bf72b307efe60b",
          "transactionType": "CALL",
          "contractName": null,
          "contractAddress": "0x8d79f26c1b29f2833d6b36b3e902c9c537450568",
          "function": "setPeer(uint32,bytes32)",
          "arguments": [
            "40333",
            "0x0000000000000000000000008d79f26c1b29f2833d6b36b3e902c9c537450568"
          ],
          "transaction": {
            "from": "0x11110dbc48603b706792aa52671a1439d0f4da63",
            "to": "0x8d79f26c1b29f2833d6b36b3e902c9c537450568",
            "gas": "0x11096",
            "value": "0x0",
            "input": "0x3400288b0000000000000000000000000000000000000000000000000000000000009d8d0000000000000000000000008d79f26c1b29f2833d6b36b3e902c9c537450568",
            "nonce": "0x3",
            "chainId": "0xbf03"
          },
          "additionalContracts": [],
          "isFixedGasLimit": false
        },
        {
          "hash": "0x31e48014434b29fae5b21b13601cf8c6f6a7e661d58a16b24a3bc7884adc5dd6",
          "transactionType": "CALL",
          "contractName": null,
          "contractAddress": "0x8d79f26c1b29f2833d6b36b3e902c9c537450568",
          "function": "setPeer(uint32,bytes32)",
          "arguments": [
            "40170",
            "0x0000000000000000000000008d79f26c1b29f2833d6b36b3e902c9c537450568"
          ],
          "transaction": {
            "from": "0x11110dbc48603b706792aa52671a1439d0f4da63",
            "to": "0x8d79f26c1b29f2833d6b36b3e902c9c537450568",
            "gas": "0x11096",
            "value": "0x0",
            "input": "0x3400288b0000000000000000000000000000000000000000000000000000000000009cea0000000000000000000000008d79f26c1b29f2833d6b36b3e902c9c537450568",
            "nonce": "0x4",
            "chainId": "0xbf03"
          },
          "additionalContracts": [],
          "isFixedGasLimit": false
        },
        {
          "hash": "0x69c917e561b0e51b7f496987ba5c9eb572deaedd44ddc2936b1d53a5de4b9b38",
          "transactionType": "CALL",
          "contractName": null,
          "contractAddress": "0x8d79f26c1b29f2833d6b36b3e902c9c537450568",
          "function": "setPeer(uint32,bytes32)",
          "arguments": [
            "40267",
            "0x0000000000000000000000008d79f26c1b29f2833d6b36b3e902c9c537450568"
          ],
          "transaction": {
            "from": "0x11110dbc48603b706792aa52671a1439d0f4da63",
            "to": "0x8d79f26c1b29f2833d6b36b3e902c9c537450568",
            "gas": "0x11096",
            "value": "0x0",
            "input": "0x3400288b0000000000000000000000000000000000000000000000000000000000009d4b0000000000000000000000008d79f26c1b29f2833d6b36b3e902c9c537450568",
            "nonce": "0x5",
            "chainId": "0xbf03"
          },
          "additionalContracts": [],
          "isFixedGasLimit": false
        }
      ],
      "receipts": [
        {
          "status": "0x1",
          "cumulativeGasUsed": "0x167ec",
          "logs": [],
          "logsBloom": "0x00000000000000000000000000000000000000000000000000000000000000000000000000000000000000000000000000000000000000000000000000000000000000000000000000000000000000000000000000000000000000000000000000000000000000000000000000000000000000000000000000000000000000000000000000000000000000000000000000000000000000000000000000000000000000000000000000000000000000000000000000000000000000000000000000000000000000000000000000000000000000000000000000000000000000000000000000000000000000000000000000000000000000000000000000000000",
          "type": "0x2",
          "transactionHash": "0xac59e7e2240dd48ca715c513160cfcf22f31a5de904cc97635584a806695bc7f",
          "transactionIndex": "0x1",
          "blockHash": "0xbaf84b9db03e13da360ad9e2d3b22866fddb1184e498d79435eb71315fc80924",
          "blockNumber": "0xf2fd84",
          "gasUsed": "0xb41b",
          "effectiveGasPrice": "0xfe",
          "from": "0x11110dbc48603b706792aa52671a1439d0f4da63",
          "to": "0x8d79f26c1b29f2833d6b36b3e902c9c537450568",
          "contractAddress": null,
          "l1Fee": "0xb7c3228b",
          "l1GasPrice": "0x3f1fe4f9",
          "l1GasUsed": "0x850"
        },
        {
          "status": "0x1",
          "cumulativeGasUsed": "0x16e34",
          "logs": [
            {
              "address": "0x8d79f26c1b29f2833d6b36b3e902c9c537450568",
              "topics": [
                "0x238399d427b947898edb290f5ff0f9109849b1c3ba196a42e35f00c50a54b98b"
              ],
              "data": "0x0000000000000000000000000000000000000000000000000000000000009d8d0000000000000000000000008d79f26c1b29f2833d6b36b3e902c9c537450568",
              "blockHash": "0xd40479988a99a203f150c443398edb78a5afda5bd5bc126ede0f79e19315cbf1",
              "blockNumber": "0xf2fd86",
              "transactionHash": "0x4bb5f12eb5631fde4723ff7af393162da6a5d7f437a5599fd0bf72b307efe60b",
              "transactionIndex": "0x1",
              "logIndex": "0x0",
              "removed": false
            }
          ],
          "logsBloom": "0x00000000000000000000000000000000000000000000000000000000000000000000000000000000000000000000000000000000000000000800000000400000000000000000000000000000000000000000000000000000000000000000000000000000000000000000000000000000000000000000000000000000000000000000000000000000000000000000000000000000000000000000800000000000000000000000000000000000000000000000000000000000000002000000000000000000000000000000000000400000000000000000000000040000000000000000000000000000000000000000000000000000000000000000000000000000",
          "type": "0x2",
          "transactionHash": "0x4bb5f12eb5631fde4723ff7af393162da6a5d7f437a5599fd0bf72b307efe60b",
          "transactionIndex": "0x1",
          "blockHash": "0xd40479988a99a203f150c443398edb78a5afda5bd5bc126ede0f79e19315cbf1",
          "blockNumber": "0xf2fd86",
          "gasUsed": "0xba63",
          "effectiveGasPrice": "0xfe",
          "from": "0x11110dbc48603b706792aa52671a1439d0f4da63",
          "to": "0x8d79f26c1b29f2833d6b36b3e902c9c537450568",
          "contractAddress": null,
          "l1Fee": "0xc53bc92b",
          "l1GasPrice": "0x3f1fe4f9",
          "l1GasUsed": "0x8ec"
        },
        {
          "status": "0x1",
          "cumulativeGasUsed": "0x22897",
          "logs": [
            {
              "address": "0x8d79f26c1b29f2833d6b36b3e902c9c537450568",
              "topics": [
                "0x238399d427b947898edb290f5ff0f9109849b1c3ba196a42e35f00c50a54b98b"
              ],
              "data": "0x0000000000000000000000000000000000000000000000000000000000009cea0000000000000000000000008d79f26c1b29f2833d6b36b3e902c9c537450568",
              "blockHash": "0xd40479988a99a203f150c443398edb78a5afda5bd5bc126ede0f79e19315cbf1",
              "blockNumber": "0xf2fd86",
              "transactionHash": "0x31e48014434b29fae5b21b13601cf8c6f6a7e661d58a16b24a3bc7884adc5dd6",
              "transactionIndex": "0x2",
              "logIndex": "0x1",
              "removed": false
            }
          ],
          "logsBloom": "0x00000000000000000000000000000000000000000000000000000000000000000000000000000000000000000000000000000000000000000800000000400000000000000000000000000000000000000000000000000000000000000000000000000000000000000000000000000000000000000000000000000000000000000000000000000000000000000000000000000000000000000000800000000000000000000000000000000000000000000000000000000000000002000000000000000000000000000000000000400000000000000000000000040000000000000000000000000000000000000000000000000000000000000000000000000000",
          "type": "0x2",
          "transactionHash": "0x31e48014434b29fae5b21b13601cf8c6f6a7e661d58a16b24a3bc7884adc5dd6",
          "transactionIndex": "0x2",
          "blockHash": "0xd40479988a99a203f150c443398edb78a5afda5bd5bc126ede0f79e19315cbf1",
          "blockNumber": "0xf2fd86",
          "gasUsed": "0xba63",
          "effectiveGasPrice": "0xfe",
          "from": "0x11110dbc48603b706792aa52671a1439d0f4da63",
          "to": "0x8d79f26c1b29f2833d6b36b3e902c9c537450568",
          "contractAddress": null,
          "l1Fee": "0xc53bc92b",
          "l1GasPrice": "0x3f1fe4f9",
          "l1GasUsed": "0x8ec"
        },
        {
          "status": "0x1",
          "cumulativeGasUsed": "0x2e2fa",
          "logs": [
            {
              "address": "0x8d79f26c1b29f2833d6b36b3e902c9c537450568",
              "topics": [
                "0x238399d427b947898edb290f5ff0f9109849b1c3ba196a42e35f00c50a54b98b"
              ],
              "data": "0x0000000000000000000000000000000000000000000000000000000000009d4b0000000000000000000000008d79f26c1b29f2833d6b36b3e902c9c537450568",
              "blockHash": "0xd40479988a99a203f150c443398edb78a5afda5bd5bc126ede0f79e19315cbf1",
              "blockNumber": "0xf2fd86",
              "transactionHash": "0x69c917e561b0e51b7f496987ba5c9eb572deaedd44ddc2936b1d53a5de4b9b38",
              "transactionIndex": "0x3",
              "logIndex": "0x2",
              "removed": false
            }
          ],
          "logsBloom": "0x00000000000000000000000000000000000000000000000000000000000000000000000000000000000000000000000000000000000000000800000000400000000000000000000000000000000000000000000000000000000000000000000000000000000000000000000000000000000000000000000000000000000000000000000000000000000000000000000000000000000000000000800000000000000000000000000000000000000000000000000000000000000002000000000000000000000000000000000000400000000000000000000000040000000000000000000000000000000000000000000000000000000000000000000000000000",
          "type": "0x2",
          "transactionHash": "0x69c917e561b0e51b7f496987ba5c9eb572deaedd44ddc2936b1d53a5de4b9b38",
          "transactionIndex": "0x3",
          "blockHash": "0xd40479988a99a203f150c443398edb78a5afda5bd5bc126ede0f79e19315cbf1",
          "blockNumber": "0xf2fd86",
          "gasUsed": "0xba63",
          "effectiveGasPrice": "0xfe",
          "from": "0x11110dbc48603b706792aa52671a1439d0f4da63",
          "to": "0x8d79f26c1b29f2833d6b36b3e902c9c537450568",
          "contractAddress": null,
          "l1Fee": "0xc53bc92b",
          "l1GasPrice": "0x3f1fe4f9",
          "l1GasUsed": "0x8ec"
        }
      ],
      "libraries": [],
      "pending": [],
      "returns": {},
      "timestamp": 1731747015,
      "chain": 48899,
      "commit": "fa7e3d7"
    }
  ],
  "timestamp": 1731747054
}