{
  "deployments": [
    {
      "transactions": [
        {
          "hash": "0xc872a0c5a0dfe01808a8a4fe6df5736e01c6af0449018f77fa7c45ed84d78030",
          "transactionType": "CALL",
          "contractName": null,
          "contractAddress": "0xd2da8680ffdbe5136ebbb26928df635d9cb79a0f",
          "function": "setToken(address)",
          "arguments": [
            "0x753da027758f33f9dF35b8529Fa9b2e78664DfE5"
          ],
          "transaction": {
            "from": "0x77774a499f484378e71e6692832b6abf0b2350d4",
            "to": "0xd2da8680ffdbe5136ebbb26928df635d9cb79a0f",
            "gas": "0x10767",
            "value": "0x0",
            "input": "0x144fa6d7000000000000000000000000753da027758f33f9df35b8529fa9b2e78664dfe5",
            "nonce": "0x2",
            "chainId": "0x13882"
          },
          "additionalContracts": [],
          "isFixedGasLimit": false
        },
        {
          "hash": "0x29f8366578d2d9dfdd3305daae55c2bb9305ce51787b262a47ff8face570bc37",
          "transactionType": "CALL",
          "contractName": null,
          "contractAddress": "0xd2da8680ffdbe5136ebbb26928df635d9cb79a0f",
          "function": "setPeer(uint32,bytes32)",
          "arguments": [
            "40275",
            "0x000000000000000000000000d2da8680ffdbe5136ebbb26928df635d9cb79a0f"
          ],
          "transaction": {
            "from": "0x77774a499f484378e71e6692832b6abf0b2350d4",
            "to": "0xd2da8680ffdbe5136ebbb26928df635d9cb79a0f",
            "gas": "0x11096",
            "value": "0x0",
            "input": "0x3400288b0000000000000000000000000000000000000000000000000000000000009d53000000000000000000000000d2da8680ffdbe5136ebbb26928df635d9cb79a0f",
            "nonce": "0x3",
            "chainId": "0x13882"
          },
          "additionalContracts": [],
          "isFixedGasLimit": false
        }
      ],
      "receipts": [
        {
          "status": "0x1",
          "cumulativeGasUsed": "0x25c49",
          "logs": [
            {
              "address": "0x0000000000000000000000000000000000001010",
              "topics": [
                "0x4dfe1bbbcf077ddc3e01291eea2d5c70c2b422b415d95645b9adcfd678cb1d63",
                "0x0000000000000000000000000000000000000000000000000000000000001010",
                "0x00000000000000000000000077774a499f484378e71e6692832b6abf0b2350d4",
                "0x0000000000000000000000006ab3d36c46ecfb9b9c0bd51cb1c3da5a2c81cea6"
              ],
              "data": "0x0000000000000000000000000000000000000000000000000004185a0fea9e00000000000000000000000000000000000000000000000000076338249e1a3b8f00000000000000000000000000000000000000000000039ff81aa767092a546b000000000000000000000000000000000000000000000000075f1fca8e2f9d8f00000000000000000000000000000000000000000000039ff81ebfc11914f26b",
              "blockHash": "0x294ee5891460fd1fb9741f57fe73a4a579b623b5261669cb2df9bd1559df36a9",
              "blockNumber": "0xdd52d4",
              "transactionHash": "0xc872a0c5a0dfe01808a8a4fe6df5736e01c6af0449018f77fa7c45ed84d78030",
              "transactionIndex": "0x1",
              "logIndex": "0x3",
              "removed": false
            }
          ],
          "logsBloom": "0x000000000a0000000000000000000000000000000000000000000000000000000000000000000000000000000000100000008000000000000000000000000000000000080000000000000000000000800000000000000000010100000000000000000000000000000000000000000000000000000000000080000000000000000000000000000000000000000000000000000000000000000000000000000000200000000000000000000000000000000000000000000000000000000000004000000000000000000001000000000000000000010000000000100000000000000000000000000000000000000000000000000000000000000000000000100000",
          "type": "0x2",
          "transactionHash": "0xc872a0c5a0dfe01808a8a4fe6df5736e01c6af0449018f77fa7c45ed84d78030",
          "transactionIndex": "0x1",
          "blockHash": "0x294ee5891460fd1fb9741f57fe73a4a579b623b5261669cb2df9bd1559df36a9",
          "blockNumber": "0xdd52d4",
          "gasUsed": "0xb41b",
          "effectiveGasPrice": "0x5d21dba0f",
          "from": "0x77774a499f484378e71e6692832b6abf0b2350d4",
          "to": "0xd2da8680ffdbe5136ebbb26928df635d9cb79a0f",
          "contractAddress": null
        },
        {
          "status": "0x1",
          "cumulativeGasUsed": "0x316ac",
          "logs": [
            {
              "address": "0xd2da8680ffdbe5136ebbb26928df635d9cb79a0f",
              "topics": [
                "0x238399d427b947898edb290f5ff0f9109849b1c3ba196a42e35f00c50a54b98b"
              ],
              "data": "0x0000000000000000000000000000000000000000000000000000000000009d53000000000000000000000000d2da8680ffdbe5136ebbb26928df635d9cb79a0f",
              "blockHash": "0x294ee5891460fd1fb9741f57fe73a4a579b623b5261669cb2df9bd1559df36a9",
              "blockNumber": "0xdd52d4",
              "transactionHash": "0x29f8366578d2d9dfdd3305daae55c2bb9305ce51787b262a47ff8face570bc37",
              "transactionIndex": "0x2",
              "logIndex": "0x4",
              "removed": false
            },
            {
              "address": "0x0000000000000000000000000000000000001010",
              "topics": [
                "0x4dfe1bbbcf077ddc3e01291eea2d5c70c2b422b415d95645b9adcfd678cb1d63",
                "0x0000000000000000000000000000000000000000000000000000000000001010",
                "0x00000000000000000000000077774a499f484378e71e6692832b6abf0b2350d4",
                "0x0000000000000000000000006ab3d36c46ecfb9b9c0bd51cb1c3da5a2c81cea6"
              ],
              "data": "0x00000000000000000000000000000000000000000000000000043ce9daa2ee00000000000000000000000000000000000000000000000000075f1fca8e250ffa00000000000000000000000000000000000000000000039ff81ebfc11914f26b000000000000000000000000000000000000000000000000075ae2e0b38221fa00000000000000000000000000000000000000000000039ff822fcaaf3b7e06b",
              "blockHash": "0x294ee5891460fd1fb9741f57fe73a4a579b623b5261669cb2df9bd1559df36a9",
              "blockNumber": "0xdd52d4",
              "transactionHash": "0x29f8366578d2d9dfdd3305daae55c2bb9305ce51787b262a47ff8face570bc37",
              "transactionIndex": "0x2",
              "logIndex": "0x5",
              "removed": false
            }
          ],
          "logsBloom": "0x000000000a0000000000000000000000000000000000000000000000000000000000000000000000000000000000100000008000000000000800000000000000000000080000008000000000000000800000000000040000010100000000000000000000000000000000000000000000000000000000000080000000000000000000000000000000000000000000000000000000000000000000000000000000200000000000000000000000000000000000000000100000000002000000004000000000000000000001000000000000000000010000000000140000000000000000000000000000000000000000000000000000000000000000000000100000",
          "type": "0x2",
          "transactionHash": "0x29f8366578d2d9dfdd3305daae55c2bb9305ce51787b262a47ff8face570bc37",
          "transactionIndex": "0x2",
          "blockHash": "0x294ee5891460fd1fb9741f57fe73a4a579b623b5261669cb2df9bd1559df36a9",
          "blockNumber": "0xdd52d4",
          "gasUsed": "0xba63",
          "effectiveGasPrice": "0x5d21dba0f",
          "from": "0x77774a499f484378e71e6692832b6abf0b2350d4",
          "to": "0xd2da8680ffdbe5136ebbb26928df635d9cb79a0f",
          "contractAddress": null
        }
      ],
      "libraries": [],
      "pending": [],
      "returns": {},
      "timestamp": 1731778456,
      "chain": 80002,
      "commit": "44643a0"
    },
    {
      "transactions": [
        {
          "hash": "0x7757a598f59e9ccfb81d29feb3f7a5501ff66d90deebda991d296fdd069633ac",
          "transactionType": "CALL",
          "contractName": null,
          "contractAddress": "0xd2da8680ffdbe5136ebbb26928df635d9cb79a0f",
          "function": "setToken(address)",
          "arguments": [
            "0x753da027758f33f9dF35b8529Fa9b2e78664DfE5"
          ],
          "transaction": {
            "from": "0x77774a499f484378e71e6692832b6abf0b2350d4",
            "to": "0xd2da8680ffdbe5136ebbb26928df635d9cb79a0f",
            "gas": "0x10767",
            "value": "0x0",
            "input": "0x144fa6d7000000000000000000000000753da027758f33f9df35b8529fa9b2e78664dfe5",
            "nonce": "0x2",
            "chainId": "0xbf03"
          },
          "additionalContracts": [],
          "isFixedGasLimit": false
        },
        {
          "hash": "0x0ac50eff9357a80b4a0f41683d270bd3c150dffd6f10ed0484755ea2eb496bf1",
          "transactionType": "CALL",
          "contractName": null,
          "contractAddress": "0xd2da8680ffdbe5136ebbb26928df635d9cb79a0f",
          "function": "setPeer(uint32,bytes32)",
          "arguments": [
            "40267",
            "0x000000000000000000000000d2da8680ffdbe5136ebbb26928df635d9cb79a0f"
          ],
          "transaction": {
            "from": "0x77774a499f484378e71e6692832b6abf0b2350d4",
            "to": "0xd2da8680ffdbe5136ebbb26928df635d9cb79a0f",
            "gas": "0x11096",
            "value": "0x0",
            "input": "0x3400288b0000000000000000000000000000000000000000000000000000000000009d4b000000000000000000000000d2da8680ffdbe5136ebbb26928df635d9cb79a0f",
            "nonce": "0x3",
            "chainId": "0xbf03"
          },
          "additionalContracts": [],
          "isFixedGasLimit": false
        }
      ],
      "receipts": [
        {
          "status": "0x1",
          "cumulativeGasUsed": "0x167ec",
          "logs": [],
          "logsBloom": "0x00000000000000000000000000000000000000000000000000000000000000000000000000000000000000000000000000000000000000000000000000000000000000000000000000000000000000000000000000000000000000000000000000000000000000000000000000000000000000000000000000000000000000000000000000000000000000000000000000000000000000000000000000000000000000000000000000000000000000000000000000000000000000000000000000000000000000000000000000000000000000000000000000000000000000000000000000000000000000000000000000000000000000000000000000000000",
          "type": "0x2",
          "transactionHash": "0x7757a598f59e9ccfb81d29feb3f7a5501ff66d90deebda991d296fdd069633ac",
          "transactionIndex": "0x1",
          "blockHash": "0xc544604032a1b53b643af9818913f31dcd360c7b5b5e8fcc17c1086d84b6081a",
          "blockNumber": "0xf33ae4",
          "gasUsed": "0xb41b",
          "effectiveGasPrice": "0xfe",
          "from": "0x77774a499f484378e71e6692832b6abf0b2350d4",
          "to": "0xd2da8680ffdbe5136ebbb26928df635d9cb79a0f",
          "contractAddress": null,
          "l1Fee": "0x393fd624",
          "l1GasPrice": "0x13aa759a",
          "l1GasUsed": "0x850"
        },
        {
          "status": "0x1",
          "cumulativeGasUsed": "0x16e34",
          "logs": [
            {
              "address": "0xd2da8680ffdbe5136ebbb26928df635d9cb79a0f",
              "topics": [
                "0x238399d427b947898edb290f5ff0f9109849b1c3ba196a42e35f00c50a54b98b"
              ],
              "data": "0x0000000000000000000000000000000000000000000000000000000000009d4b000000000000000000000000d2da8680ffdbe5136ebbb26928df635d9cb79a0f",
              "blockHash": "0x2c866b8ab46d85a9302e7fd404e69577df258506cc97933800be082f8cb998b8",
              "blockNumber": "0xf33ae5",
              "transactionHash": "0x0ac50eff9357a80b4a0f41683d270bd3c150dffd6f10ed0484755ea2eb496bf1",
              "transactionIndex": "0x1",
              "logIndex": "0x0",
              "removed": false
            }
          ],
          "logsBloom": "0x00000000000000000000000000000000000000000000000000000000000000000000000000000000000000000000000000000000000000000800000000000000000000000000008000000000000000000000000000040000000000000000000000000000000000000000000000000000000000000000000000000000000000000000000000000000000000000000000000000000000000000000000000000000000000000000000000000000000000000000000000100000000002000000000000000000000000000000000000000000000000000000000000040000000000000000000000000000000000000000000000000000000000000000000000000000",
          "type": "0x2",
          "transactionHash": "0x0ac50eff9357a80b4a0f41683d270bd3c150dffd6f10ed0484755ea2eb496bf1",
          "transactionIndex": "0x1",
          "blockHash": "0x2c866b8ab46d85a9302e7fd404e69577df258506cc97933800be082f8cb998b8",
          "blockNumber": "0xf33ae5",
          "gasUsed": "0xba63",
          "effectiveGasPrice": "0xfe",
          "from": "0x77774a499f484378e71e6692832b6abf0b2350d4",
          "to": "0xd2da8680ffdbe5136ebbb26928df635d9cb79a0f",
          "contractAddress": null,
          "l1Fee": "0x3d1f95b6",
          "l1GasPrice": "0x13aa759a",
          "l1GasUsed": "0x8e0"
        }
      ],
      "libraries": [],
      "pending": [],
      "returns": {},
      "timestamp": 1731778458,
      "chain": 48899,
      "commit": "44643a0"
    }
  ],
  "timestamp": 1731778477
}